S01700005052495343415F6672696D776172652E737265638F
S11300000C9401010C9431110C941E010C941E01EA
S11300100C941E010C941E010C941E010C941E01E0
S11300200C941E010C940D0F0C941E010C941E01D3
S11300300C941E010C941E010C941E010C941E01C0
S11300400C941E010C941E010C941E010C94E90ED8
S11300500C941E0105A84CCDB2D44EB93836A90271
S11300600C50B9918688083CA6AAAA2ABE000000B2
S1130070803F08000000BE922449123EABAAAA2A7F
S1130080BECDCCCC4C3E00000080BEABAAAAAA3E9A
S113009000000000BF000000803F000000000008D6
S11300A04178D3BB4387D1133D190E3CC3BD428273
S11300B0AD2B3E68EC8276BED98FE1A93E4C80EF31
S11300C0FFBE01C4FF7F3F00000000004E414E49C7
S11300D04E495459494E46CDCCCC3D0AD7233C1702
S11300E0B7D13877CC2B329595E6241FB14F0A004F
S11300F00020410000C84200401C4620BCBE4CCA3F
S11301001B0E5AAEC59D7400407A10F35A00A072BB
S11301104E18090010A5D4E80000E876481700003E
S1130120E40B54020000CA9A3B000000E1F505000C
S11301300080969800000040420F000000A0860155
S1130140000000102700000000E803000000006425
S113015000000000000A0000000000010000000090
S1130160002C76D888DC674F0823DFC1DFAE59E165
S1130170B1B796E5E3E453C63AE651997696E8E6D4
S1130180C28426EB898C9B62ED407C6FFCEFBC9CA7
S11301909F40F2BAA56FA5F490055A2AF75C936BB9
S11301A06CF9676DC11BFCE0E40D47FEF520E6B574
S11301B000D0ED902E0300943577050080841E084E
S11301C00000204E0A000000C80C333333330F986C
S11301D06E12831141EF8D2114893BE65516CFFE33
S11301E0E6DB18D1844B381BF77C1D901DA4BBE4BF
S11301F024203284725E228100C9F124ECA1E53D01
S1130200270011241FBECFE5D4E0DEBFCDBF11E02F
S1130210A0E6B0E0E2E0FFE302C005900D92A23553
S1130220B107D9F722E0A2E5B1E001C01D92A939D6
S1130230B207E1F70E9434040C947F1F0C94000071
S1130240E199FECF9FBB8EBB6DBBE29AE19A089504
S1130250EF92FF920F931F93CF93DF938C017B0157
S1130260EA01209751F0F70161917F01C8010E94D2
S113027020010F5F1F4F2197B1F7DF91CF911F919D
S11302800F91FF90EF900895E199FECF9FBB8EBB35
S1130290E09A8DB30895EF92FF920F931F93CF933B
S11302A0DF938C017B01EA01209751F0C8010E9481
S11302B04401F70181937F010F5F1F4F2197B1F72D
S11302C0DF91CF911F910F91FF90EF90089587B91F
S11302D0369A86B1349A84B195B108958F929F92DB
S11302E0AF92BF92CF92DF92EF92FF920E9467018A
S11302F090939A0180939901BC01990F880B990BF3
S11303000E943E169B01AC0160E070EC8FE794E420
S11303100E94941520E030E040E85FE30E941D1540
S113032020916C0030916D0040916E0050916F00EF
S11303300E94821760939F017093A0018093A10192
S11303409093A2010E943A176B017C016093A30170
S11303507093A4018093A5019093A6012091640059
S11303603091650040916600509167000E948217A9
S1130370209168003091690040916A0050916B00AF
S11303800E941E154B015C012091600030916100B8
S11303904091620050916300C701B6010E94821728
S11303A0A70196010E948217A70196010E94821755
S11303B09B01AC01C501B4010E941E159B01AC0157
S11303C060E070E080E89FE30E94941560939501DB
S11303D070939601809397019093980123E333E9F6
S11303E048E853E40E941D1560939B0170939C019F
S11303F080939D0190939E01FF90EF90DF90CF90AA
S1130400BF90AF909F908F9008950F931F93CF93B9
S1130410DF93CDB7DEB764970FB6F894DEBF0FBE97
S1130420CDBFDC01FE013196CE010B961192E81787
S1130430F907E1F740E050E020E030E023C0FD019F
S1130440E20FF31F808186131BC0F901E40FF51F2F
S11304508F010A0F1B1FF801718181E090E08C0F5E
S11304609D1F840F951FFC017083F80182818032E7
S113047099F08D3089F08A3079F04F5F5F4F02C078
S11304802F5F3F4FFD0101900020E9F73197EA1BF0
S1130490FB0B2E173F0798F2CE0101960E94AD1870
S11304A064960FB6F894DEBF0FBECDBFDF91CF9137
S11304B01F910F9108956F927F928F929F92AF92A6
S11304C0BF92CF92DF92EF92FF920F931F93CF933D
S11304D0DF93CDB7DEB77C01CDB6DEB6FC0101906B
S11304E00020E9F731978F01081B190B580181E0AF
S11304F0A81AB108ADB7BEB7A01BB10B0FB6F894DC
S1130500BEBF0FBEADBF2DB73EB72F5F3F4FF70144
S11305108081681342C0E0E0F0E0D701AE0FBF1F56
S113052011968C91D9018C93D7018C933296EE0D50
S1130530FF1D808148131AC0812C912C20E030E0EB
S1130540F701E80DF91D80E281832E5F3F4F2A15E4
S11305503B0564F5F701E20FF31F01501109E00EAA
S1130560F11E1192EE16FF06E1F720C03901BFEF2C
S11305706B1A7B0AB7016F5F7F4F20E030E02F5F7B
S11305803F4F9191D3019D933D014901DB019D931F
S1130590BD0180818413F3CFD3CFD7011196E0E05E
S11305A0F0E031968D918613FCCFB7CF0FB6F89457
S11305B0DEBE0FBECDBEDF91CF911F910F91FF9094
S11305C0EF90DF90CF90BF90AF909F908F907F90EF
S11305D06F9008950F931F93CF93DF93CDB7DEB73A
S11305E02A970FB6F894DEBF0FBECDBFDC01FE0123
S11305F03196CE010B961192E817F907E1F740E026
S113060050E020E030E023C0FD01E20FF31F8081C1
S113061086131BC0F901E40FF51F8F010A0F1B1F7E
S1130620F801718181E090E08C0F9D1F840F951F6C
S1130630FC017083F8018281803299F08D3089F059
S11306408A3079F04F5F5F4F02C02F5F3F4FFD014B
S113065001900020E9F73197EA1BFB0B2E173F07A7
S113066098F2CE0101960E94B1182A960FB6F8941A
S1130670DEBF0FBECDBFDF91CF911F910F910895C3
S1130680DC010D900020E9F7FC019D0121503109A6
S113069007C09191961749F09D3049F09A3049F07E
S11306A0E217F307B1F780E0089581E0089580E050
S11306B0089580E00895CF92DF92EF92FF92CF9356
S11306C0DF93EC016A017B01288139814A815B81D6
S11306D0C701B6010E941D15C882D982EA82FB8235
S11306E0DF91CF91FF90EF90DF90CF90089541116B
S11306F00DC0E82FF0E0218181E090E002C0880F76
S1130700991F6A95E2F7822B81830895E82FF0E020
S1130710218181E090E002C0880F991F6A95E2F779
S11307208095822381830895442369F0E82FF0E0C3
S1130730228181E090E002C0880F991F6A95E2F758
S1130740822B82830895E82FF0E0228181E090E0FB
S113075002C0880F991F6A95E2F7809582238283ED
S11307600895611105C0E82FF0E08FEF81830895AB
S1130770E82FF0E011820895E82FF0E062830895F5
S1130780E82FF0E0828121E030E002C0220F331F25
S11307906A95E2F7282722830895CF92DF92EF9299
S11307A0FF920F931F9381B3806B81BB41E062E0A2
S11307B080E30E9477038FEF84BB8AB3806F8ABB88
S11307C087B3836087BB87E886B93E9A8BB780641A
S11307D08BBF85B7816185BF0E94E0140E945F13BF
S11307E00F2EFBEECF2EF1E0DF2EF02D17E6E12EDB
S11307F016E6F12E06EC10E4A801970160E070E023
S113080088E793E40E948C130F2EFFECCF2EF1E0C7
S1130810DF2EF02DA801970160E070E088E793E4F3
S11308200E948C138FB5816A8FBD8EB581648EBD95
S113083085B58E6685BD83B7816883BF89B78360BC
S113084089BF12BE8DE78CBF83E392E00E9402153C
S113085080E890E00E94F31478941F910F91FF9028
S1130860EF90DF90CF900895CF93DF93CDB7DEB7AD
S1130870E4970FB6F894DEBF0FBECDBF0E94CD0340
S113088045E050E065E272E080E090E00E944B01B8
S113089045E050E06BE072E085E090E00E944B019F
S11308A045E050E063E872E08AE090E00E944B018A
S11308B045E050E061EC71E08FE090E00E944B0174
S11308C085E292E00E94AD1805E112E0D8016D9333
S11308D07D938D939C9313978BE092E00E94AD18C7
S11308E0F801648375838683978383E892E00E948A
S11308F0AD18D80118966D937D938D939C931B9797
S113090081EC91E00E94AD18F801608B718B828BB1
S1130910938B0F2EF7EA2F2EF1E03F2EF02D29AA0C
S11309203AAA0BAB1CAB809193018D3409F000C53E
S113093021E020938F01F8948091640190916501E6
S11309408B36910509F4C6C23CF5843591058CF4C7
S1130950823591050CF062C18131910509F489C099
S113096024F4029708F44FC0D9C4429709F488C00C
S1130970D5C48C35910509F483C12CF484359105D3
S113098009F47EC0CBC48836910509F484C28A3642
S1130990910509F492C2C2C48E3C910509F45CC36A
S11309A0BCF48237910509F4A4C24CF48D36910548
S11309B009F4F0C08E36910509F492C2AFC48C38A4
S11309C0910509F42AC38E3B910509F405C1A6C417
S11309D0853F31E0930709F47CC35CF48E3251E027
S11309E0950709F459C3843F61E0960709F448C1A7
S11309F095C4863F71E0970709F442C1873F91404F
S1130A0009F4BBC38BC4F1011082118212821382D8
S1130A101482158216821782108611861286138616
S1130A20148615861686178610927E0110927F0111
S1130A30109280011092810110927A0110927B0130
S1130A4010927C0110927D01109282011092830118
S1130A501092840110928501109276011092770110
S1130A60109278011092790187E990E00E94F314C2
S1130A7059C40E945F1387E990E00E94F31452C4A2
S1130A8063E583E392E00E94EA02FC0128EE33E08E
S1130A90E29FC001E39F900DF29F900D1124092E57
S1130AA0000CAA0BBB0B8093660190936701A09383
S1130AB06801B093690168E583E392E00E94400312
S1130AC080938D0169E583E392E00E944003809363
S1130AD08C016AE583E392E00E94400380938B01DA
S1130AE065E483E392E00E94400380938A0160916D
S1130AF08D0188E50E943C1360918C0189E50E9478
S1130B003C1360918C018AE50E943C1360918A0138
S1130B1085E40E943C138091660190916701A09145
S1130B206801B0916901892B8A2B8B2B71F1789420
S1130B308091660190916701A0916801B09169016B
S1130B40181619061A061B06F4F48FE99FE001979C
S1130B50F1F700C000008091660190916701A091B7
S1130B606801B09169010197A109B10980936601F7
S1130B7090936701A0936801B09369011816190650
S1130B801A061B0614F30E945F1387E990E00E9483
S1130B90F314C8C363E583E392E00E940502609303
S1130BA082017093830180938401909385017894EA
S1130BB080E40E946E012091820130918301409172
S1130BC08401509185010E948A1588238CF387E95A
S1130BD090E00E94F314A6C363E583E392E00E94CD
S1130BE00502609376017093770180937801909366
S1130BF07901789482E40E946E012091760130910B
S1130C00770140917801509179010E948A158823D7
S1130C108CF387E990E00E94F31484C310925A0184
S1130C2010925B0110925C0110925D0110925601CA
S1130C3010925701109258011092590110925201CA
S1130C40109253011092540110925501D1011D923A
S1130C501D921D921C921397F10114821582168223
S1130C60178218961D921D921D921C921B97148632
S1130C7015861686178687E990E00E94F31452C3FE
S1130C80E5E2F2E04BE052E023E832E0A1ECB1E02F
S1130C908D011192DA011D92AD01D9011D929D01C0
S1130CA0D8011D928D016FE272E06E177F0789F7FC
S1130CB08C35910599F568E583E392E00E9405027D
S1130CC0A5E1B2E06D937D938D939C93139769E5B1
S1130CD083E392E00E9405026093190270931A0262
S1130CE080931B0290931C026AE583E392E00E94C6
S1130CF0050260931D0270931E0280931F0290935D
S1130D00200265E483E392E00E94050260932102DD
S1130D1070932202809323029093240280916401B1
S1130D2090916501863F9140E1F5E0E7F0E0808134
S1130D309181A281B381E5E1F2E080839183A28372
S1130D40B3838091740090917500A0917600B09166
S1130D5077008093190290931A02A0931B02B09318
S1130D601C028091780090917900A0917A00B09152
S1130D707B0080931D0290931E02A0931F02B093E8
S1130D80200280917C0090917D00A0917E00B09122
S1130D907F008093210290932202A0932302B093B8
S1130DA02402A5E1B2E06D917D918D919C910EE4B8
S1130DB011E023E042E00E948D189F938F93E5E2B7
S1130DC0F2E0FF93EF930E94D7186091190270919B
S1130DD01A0280911B0290911C0223E042E00E94BF
S1130DE08D189F938F934BE052E05F934F930E9433
S1130DF0D71860911D0270911E0280911F0290917C
S1130E00200223E042E00E948D189F938F9383E891
S1130E1092E09F938F930E94D71860912102709162
S1130E202202809123029091240223E042E00E9456
S1130E308D189F938F93E1ECF1E0FF93EF930E9461
S1130E40D71845E050E065E272E080E090E00E944F
S1130E50280145E050E06BE072E085E090E00E94FC
S1130E60280145E050E063E872E08AE090E00E94E7
S1130E70280145E050E061EC71E08FE090E00E94D1
S1130E80280187E990E00E94F3140FB6F894DEBFBE
S1130E900FBECDBF47C263E583E392E00E94050223
S1130EA06093820170938301809384019093850100
S1130EB087E990E00E94F31435C263E583E392E08E
S1130EC00E9405020E940D1663BD87E990E00E940E
S1130ED0F31428C213BC87E990E00E94F31422C2E1
S1130EE0109261011092600187E990E00E94F3146E
S1130EF019C2E5E2F2E08BE092E0A3E8B2E0AD01D2
S1130F001192DC011D92CD01DA011D92AD01B2E016
S1130F10EF32FB07A9F760915A0170915B01809150
S1130F205C0190915D010EE411E023E042E00E9437
S1130F308D189F938F93E5E2F2E0FF93EF930E9465
S1130F40D718609156017091570180915801909182
S1130F50590123E042E00E948D189F938F934BE048
S1130F6052E05F934F930E94D718609152017091A1
S1130F705301809154019091550123E042E00E9475
S1130F808D189F938F9383E892E09F938F930E9491
S1130F90D71888E58983E5E2F2E080818A8380912D
S1130FA026028B83809127028C83809128028D8373
S1130FB0809129028E8380E28F8399E59887ABE044
S1130FC0B2E09C91998790910C029A8790910D02BE
S1130FD09B8790910E029C8790910F029D878E872C
S1130FE08AE58F87E3E8F2E08081888B8091840230
S1130FF0898B809185028A8B809186028B8B80916C
S113100087028C8B1D8ACE0101960E94F3140FB6C1
S1131010F894DEBF0FBECDBF85C163E583E392E0E4
S11310200E940502609376017093770180937801A2
S11310309093790120E030E0A9010E948A15811182
S113104003C010928E0103C031E030938E0187E912
S113105090E00E94F31466C110925A0110925B0151
S113106010925C0110925D0110925601109257018A
S1131070109258011092590110925201109253018A
S1131080109254011092550141E04093890187E97F
S113109090E00E94F31446C163E583E392E00E946A
S11310A0050260938201709383018093840190937D
S11310B0850120E030E048EC51E40E948A151816BE
S11310C01CF051E05093870187E990E00E94F314EB
S11310D029C145E050E065E272E080E090E00E94C2
S11310E04B0145E050E06BE072E085E090E00E9447
S11310F04B0145E050E063E872E08AE090E00E9432
S11311004B0145E050E061EC71E08FE090E00E941B
S11311104B0185E292E00E94AD18A5E1B2E06D9327
S11311207D938D939C9313978BE092E00E94AD186E
S11311306093190270931A0280931B0290931C020D
S113114083E892E00E94AD1860931D0270931E0222
S113115080931F029093200281EC91E00E94AD18CD
S113116060932102709322028093230290932402BD
S113117087E990E00E94F314D5C0E5E2F2E02BE0A9
S113118032E083E892E0A1ECB1E0BD011192D90113
S11311901D929D01DC011D92CD01DB011D92BD015B
S11311A0B2E0EF32FB0791F7E5E1F2E06081718193
S11311B0828193810EE411E023E042E00E948D18C5
S11311C09F938F9325E232E03F932F930E94D71889
S11311D06091190270911A0280911B0290911C0275
S11311E023E042E00E948D189F938F936BE072E09E
S11311F07F936F930E94D71860911D0270911E0215
S113120080911F029091200223E042E00E948D18F9
S11312109F938F93A3E8B2E0BF93AF930E94D71834
S11312206091210270912202809123029091240204
S113123023E042E00E948D189F938F9321EC31E0CC
S11312403F932F930E94D71888E58983A5E2B2E0E3
S11312508C918A83809126028B83809127028C83D0
S1131260809128028D83809129028E8323E72F8326
S11312709FE298878DE689878A8730E23B8749E534
S11312804C87EBE0F2E040814D8740910C024E87A1
S113129040910D024F8740910E02488B40910F02FE
S11312A0498B2A8B9B8B8C8B8D8B3E8B4AE54F8B8A
S11312B0A3E8B2E04C91488F40918402498F409159
S11312C085024A8F409186024B8F409187024C8F52
S11312D02D8F9E8F8F8F88A339A335E43AA3E1EC39
S11312E0F1E030813BA33091C2013CA33091C301B2
S11312F03DA33091C4013EA33091C5013FA328A76B
S113130099A78AA78BA71CA6CE0101960E94F31465
S11313100FB6F894DEBF0FBECDBF04C08091930119
S11313208093920110928F01109293017894FBCADA
S1131330873409F0F8CAF89431E030938F01809132
S1131340640190916501843091053CF482309105EB
S11313500CF091C2992354F41DC58C31910509F404
S113136010C58C35910509F411C514C50E945F138D
S113137068E583E392E00E944003682F70E080E018
S113138090E00E943C16D1016D937D938D939C93C4
S1131390139769E583E392E00E944003682F70E0AD
S11313A080E090E00E943C16F1016483758386839B
S11313B097836AE583E392E00E944003682F70E01C
S11313C080E090E00E943C16D10118966D937D93C5
S11313D08D939C931B9768E583E392E00E9405023A
S11313E060930702709308028093090290930A02A3
S11313F069E583E392E00E9405026093CB01709358
S1131400CC018093CD019093CE016AE583E392E011
S11314100E94050260932F02709330028093310280
S11314209093320265E483E392E00E9440038823B0
S1131430A9F066E483E392E00E944003882371F0FC
S113144066E483E392E00E94050260937A0170935C
S11314507B0180937C0190937D011BC065E483E351
S113146092E00E944003811114C066E483E392E099
S11314700E944003882369F066E483E392E00E94BB
S1131480050260937E0170937F01809380019093A5
S11314908101C0900702D0900802E0900902F09008
S11314A00A0220E030E048E453E4C701B6010E9498
S11314B02D1718160CF4DAC18090CB019090CC0152
S11314C0A090CD01B090CE0120E030E048E453E498
S11314D0C501B4010E942D1718160CF4C7C1409021
S11314E02F0250903002609031027090320220E05E
S11314F030E04AEF53E4C301B2010E942D171816DD
S11315000CF4B4C18091640190916501892B09F0B8
S1131510D3C0F1011486158616861786F1E0F09380
S11315208F0120E030E040E85FE3D1016D917D91CF
S11315308D919C910E948A15811124C0A701960166
S1131540E5E1F2E060817181828193810E948217DA
S1131550D1016D937D938D939C931397A70196016D
S113156060915A0170915B0180915C0190915D01E1
S11315700E941E1560935A0170935B0180935C0175
S113158090935D0120E030E040E85FE3F101648185
S11315907581868197810E948A15811127C0A501D2
S11315A094016091190270911A0280911B0290912A
S11315B01C020E948217D10114966D937D938D9322
S11315C09C931797A501940160915601709157015E
S11315D080915801909159010E941E156093560103
S11315E070935701809358019093590120E030E0A3
S11315F040E85FE3F10160857185828593850E94EF
S11316008A15811127C0A301920160911D02709176
S11316101E0280911F02909120020E948217D10124
S113162018966D937D938D939C931B97A3019201C0
S11316306091520170915301809154019091550130
S11316400E941E15609352017093530180935401BC
S11316509093550110920702109208021092090209
S113166010920A021092CB011092CC011092CD017B
S11316701092CE0110922F02109230021092310279
S113168010923202E0907A01F0907B0100917C018B
S113169010917D0120917E0130917F014091800164
S11316A05091810165E172E0C1010E946E1187E9E8
S11316B090E00E94F3146EC365E483E392E00E9419
S11316C005029B01AC01609121027091220280917C
S11316D02302909124020E948217F1016487758786
S11316E08687978780918801811105C08091870141
S11316F0882309F4B6C0F1E0F0938F0120E030E0D4
S113170040E85FE3D1016D917D918D919C910E94A0
S11317108A1581111CC04091070250910802609102
S1131720090270910A028AE591E00E945B039B0121
S1131730AC01E5E1F2E060817181828193810E94D4
S11317408217D1016D937D938D939C93139720E021
S113175030E040E85FE3F10164817581868197811F
S11317600E948A1581111FC04091CB015091CC0178
S11317706091CD017091CE0186E591E00E945B03FA
S11317809B01AC016091190270911A0280911B02B5
S113179090911C020E948217D10114966D937D933F
S11317A08D939C93179720E030E040E85FE3F101CC
S11317B060857185828593850E948A1581111FC079
S11317C040912F02509130026091310270913202A7
S11317D082E591E00E945B039B01AC0160911D02D4
S11317E070911E0280911F02909120020E94821724
S11317F0D10118966D937D938D939C931B971092B2
S11318000702109208021092090210920A02109222
S1131810CB011092CC011092CD011092CE01109206
S11318202F02109230021092310210923202E09094
S11318307A01F0907B0100917C0110917D0120914F
S11318407E0130917F01409180015091810165E1D9
S113185072E0C1010E946E1187E990E00E94F314C6
S113186099C28BE990E00E94F31494C281EB90E05A
S11318700E94F3148FC268E583E392E00E9405029C
S113188060930702709308028093090290930A02FE
S113189069E583E392E00E9405026093CB017093B3
S11318A0CC018093CD019093CE0169E483E392E06F
S11318B00E94050260937201709373018093740116
S11318C0909375016AE483E392E00E9405026093B9
S11318D06E0170936F01809370019093710166E4BF
S11318E083E392E00E944003882369F066E483E383
S11318F092E00E94050260937E0170937F018093C1
S113190080019093810162E583E392E00E940502E5
S113191060936A0170936B0180936C0190936D01E5
S113192020E030E0A9010E948A1581114FC2809005
S1131930720190907301A0907401B0907501C090F1
S11319406E01D0906F01E0907001F0907101A501DB
S11319509401C501B4010E9482174B015C01A701E7
S11319609601C701B6010E9482179B01AC01C50113
S1131970B4010E941E150E94FD1760936A017093C2
S11319806B0180936C0190936D0120C2B6010D2C04
S1131990000C880B990B0E943E164B015C010E94BF
S11319A08F156DA77EA78FA798AB40906A015090C2
S11319B06B0160906C0170906D01A30192010E9413
S11319C082172DA53EA54FA558A90E9482176DA781
S11319D07EA78FA798ABC501B4010E94EF174B01F6
S11319E05C019B01AC01C301B2010E948217A501F5
S11319F094010E9482174B015C01209107023091EF
S1131A0008024091090250910A026DA57EA58FA596
S1131A1098A90E942D1788237CF02091CB01309146
S1131A20CC014091CD015091CE01C501B4010E9479
S1131A302D1788230CF0A0C180918801811105C065
S1131A4080918701882309F48EC18091640190916B
S1131A506501029709F0ADC020E030E0A901609172
S1131A6072017091730180917401909175010E94CB
S1131A708A1581113FC020E030E0A90160916E0118
S1131A8070916F0180917001909171010E948A158B
S1131A90811130C04DA55EA56FA578A98AE591E0B6
S1131AA00E945B039B01AC01E5E1F2E0608171817E
S1131AB0828193810E948217D1016D937D938D93CE
S1131AC09C931397B501A40186E591E00E945B0302
S1131AD09B01AC016091190270911A0280911B0262
S1131AE090911C020E948217F1016483758386839E
S1131AF097830FC14DA55EA56FA578A98AE591E0EE
S1131B000E945B03409072015090730160907401D5
S1131B1070907501A5E1B2E02D913D914D915C91DC
S1131B200E9482176DA77EA78FA798ABC301B2014D
S1131B309058A30192010E9494159B01AC016DA5DC
S1131B407EA58FA598A90E948217F10160837183F5
S1131B5082839383B501A40186E591E00E945B032F
S1131B6080906E0190906F01A0907001B09071010F
S1131B702091190230911A0240911B0250911C02CB
S1131B800E9482172B013C01C501B4019058A501A4
S1131B9094010E9494159B01AC01C301B2010E94FF
S1131BA08217D10114966D937D938D939C9317970F
S1131BB0B0C020E030E0A90160917201709173011E
S1131BC080917401909175010E948A15811145C01C
S1131BD020E030E0A90160916E0170916F01809165
S1131BE07001909171010E948A15811136C04DA532
S1131BF05EA56FA578A98AE591E00E945B039B012D
S1131C00AC01E5E1F2E080819181A281B381BC0164
S1131C10CD0190580E948217D1016D937D938D93CD
S1131C209C931397B501A40186E591E00E945B03A0
S1131C309B01AC018091190290911A02A0911B02A0
S1131C40B0911C02BC01CD0190580E948217F10191
S1131C5064837583868397835CC04DA55EA56FA559
S1131C6078A98AE591E00E945B034090720150904C
S1131C7073016090740170907501A5E1B2E02D913B
S1131C803D914D915C910E9482176DA77EA78FA70D
S1131C9098ABA3019201C301B2010E9494159B0168
S1131CA0AC016DA57EA58FA598A90E948217F101AC
S1131CB06083718382839383B501A40186E591E0F7
S1131CC00E945B0380906E0190906F01A090700160
S1131CD0B09071012091190230911A0240911B02B7
S1131CE050911C020E9482172B013C01A501940112
S1131CF0C501B4010E9494159B01AC01C301B2015A
S1131D000E948217D10114966D937D938D939C93B9
S1131D101797F1011086118612861386809121028D
S1131D2090912202A0912302B09124028487958786
S1131D30A687B787F1E0F0938F01E0907A01F090E5
S1131D407B0100917C0110917D0120917E013091F5
S1131D507F0140918001509181016BA97CA989A9DF
S1131D609AA90E946E112FEFC21AD20A39E6C3163D
S1131D7031E0D30609F00ACE87E990E00E94F3141B
S1131D8009C087E990E00E94F31404C087E990E059
S1131D900E94F31410928F0110929301D1011D92AD
S1131DA01D921D921C921397F101148215821682C2
S1131DB0178218961D921D921D921C921B971486D1
S1131DC015861686178678940C949304C12CD12C0E
S1131DD0DDCD1F920F920FB60F9211248F939F9314
S1131DE080919001909191018639910530F401968A
S1131DF0909391018093900109C080919401816036
S1131E008093940110929101109290019F918F916F
S1131E100F900FBE0F901F9018951F920F920FB640
S1131E200F921124CF92DF92EF92FF920F931F93A0
S1131E302F933F934F935F936F937F938F939F93CE
S1131E40AF93BF93EF93FF93CF93DF93CDB7DEB7F9
S1131E506497DEBFCDBF5F9B59C0E3E3F2E083E844
S1131E6092E01192E817F907E1F783E392E00E9408
S1131E700215609133026E34C1F580916001909136
S1131E8061010196909361018093600183E392E084
S1131E900E94EA0290936301809362016AE283E301
S1131EA092E00E94EA0290935F0180935E014AE20D
S1131EB060E283E392E00E945B02609133026093EC
S1131EC0930183E392E00E94EA0290936501809378
S1131ED0640189369105D1F481E080938601809173
S1131EE092018D3409F05DC198C180918F018823DE
S1131EF019F06093920102C06093930183E392E02E
S1131F000E94EA029093650180936401809192019A
S1131F108D3409F046C18091640190916501803748
S1131F20910509F076C110920702109208021092EE
S1131F30090210920A021092CB011092CC01109265
S1131F40CD011092CE0110922F0210923002109205
S1131F5031021092320240E050E0BA018AE591E089
S1131F600E945B039B01AC010F2EF7EACF2EF1E038
S1131F70DF2EF02D05E112E0F8016081718182818C
S1131F8093810E948217F601608371838283938315
S1131F904091CB015091CC016091CD017091CE0163
S1131FA086E591E00E945B039B01AC01F80164812A
S1131FB07581868197810E948217F60164837583F7
S1131FC08683978340912F025091300260913102B1
S1131FD07091320282E591E00E945B039B01AC01A7
S1131FE0F80160857185828593850E948217F601C8
S1131FF0608771878287938714861586168617866D
S11320001092820110928301109284011092850132
S11320101092760110927701109278011092790152
S113202081E080938F01E0907A01F0907B01009130
S11320307C0110917D0120917E0130917F014091BE
S113204080015091810165E172E0C6010E946E1128
S1132050F601108211821282138214821582168272
S113206017821086118612861386148615861686A4
S1132070178610928F0187E990E00E94F3148091F3
S11320806401909165018936910509F088C0EDE8F5
S1132090F2E0A7EBB1E087E992E011921D92E81714
S11320A0F907D9F780E40E946E010EE411E023E001
S11320B042E00E948D189F938F938DE892E09F9346
S11320C08F930E94D71882E40E946E0123E042E0BD
S11320D00E948D189F938F9387EB91E09F938F932A
S11320E00E94D7180FB6F894DEBF0FBECDBF809103
S11320F08E01882371F184E589838AE38A83EDE87C
S1132100F2E090819B8391819C8392819D83938152
S11321109E8394819F8390E2988725E429878A8708
S113212020E32B879C8792E49D878E87E7EBF1E081
S113213080818F878181888B8281898B83818A8B3F
S113214084818B8B8AE08C8BCE0101960E94F314E0
S113215022C0CE0101962FE0FC0111922A95E9F7E5
S113216024E529832AE32A83EDE8F2E030813B83E6
S113217031813C8332813D8333813E8334813F838B
S113218030E2388735E439872A8720E32B872AE031
S11321902C870E94F31487E990E00E94F3141092B4
S11321A092018091940180FF3DC080E40E946E0101
S11321B09B01AC0160918201709183018091840143
S11321C0909185010FEC11E00E94E613EE24EA944D
S11321D0F12C9701281B390B3BBD2ABD82E40E94D8
S11321E06E019B01AC016091760170917701809141
S11321F07801909179010BEE11E00E94E613E81A40
S1132200F90AF9BCE8BC809194018E7F8093940113
S113221009C08936910519F63ACF809164019091ED
S11322206501F7CF64960FB6F894DEBF0FBECDBF3D
S1132230DF91CF91FF91EF91BF91AF919F918F91DA
S11322407F916F915F914F913F912F911F910F91CA
S1132250FF90EF90DF90CF900F900FBE0F901F90E4
S113226018951F920F920FB60F9211242F933F933C
S11322704F935F936F937F938F939F93AF93BF938A
S1132280EF93FF9341E066E083E30E94940340E010
S113229062E083E30E9494038FEA94E00197F1F7EC
S11322A000C0000041E062E083E30E9494038FEAEF
S11322B094E00197F1F700C00000FF91EF91BF9106
S11322C0AF919F918F917F916F915F914F913F91CA
S11322D02F910F900FBE0F901F9018952F923F9241
S11322E04F925F926F927F928F929F92AF92BF9222
S11322F0CF92DF92EF92FF920F931F93CF93DF93CE
S1132300CDB7DEB7CE5AD1090FB6F894DEBF0FBEF3
S1132310CDBF6C01C355DF4F79836883CD5AD0405C
S113232049015A01C755DF4FE882F9820A831B83AA
S1132330C95AD04020E030E0A901C501B4010E948F
S11323408A15882309F44AC0C355DF4FE880F98011
S1132350CD5AD0408E010F5F1F4F3E012DE0620E1B
S1132360711C0F2EF4E62F2E312C412C512CF02D04
S1132370F70121913191419151917F01C501B4013E
S11323800E9482179B01AC0160E070E080E89FE34B
S11323900E94941520E030E040E752E40E94821746
S11323A020E034E244E759E40E9482170E940616B2
S11323B0643671058105910534F0F80160837183F9
S11323C08283938305C0F801208231824282538242
S11323D00C5F1F4F6016710659F610C084E690E03A
S11323E0A0E0B0E089839A83AB83BC838D839E8312
S11323F0AF83B88789879A87AB87BC8720E030E0B2
S1132400A901C755DF4F688179818A819B81C95AA7
S1132410D0400E948A158823E9F1C355DF4FE88133
S1132420F981CD5AD0402485358546855785C755D1
S1132430DF4F688179818A819B81C95AD0400E948B
S113244082179B01AC0160E070E080E89FE30E948A
S1132450941520E030E040E752E40E94821720E027
S113246034E244E759E40E9482170E940616643657
S11324707105810591052CF06D877E878F87988B78
S113248011C084E690E0A0E0B0E08D879E87AF871E
S1132490B88B08C084E690E0A0E0B0E08D879E870A
S11324A0AF87B88B88E0EEEBF0E0DE015196019047
S11324B00D928A95E1F776018E010F5E1F4F5E0142
S11324C0F9E1AF0EB11C20E030E0A901F701608111
S11324D07181828193810E948A1588238CF441E062
S11324E0F801608183E30E949403F7018081918164
S11324F0A281B381B05880839183A283B38306C041
S113250040E0F801608183E30E949403F4E0EF0E5D
S1132510F11C0E5F1F4F0A151B05A9F688E8E6ECAF
S1132520F0E0DE01919601900D928A95E1F781E049
S113253090E09A8F898F9C8F8B8F9E8F8D8F98A31D
S11325408F8FE12CF12C02E211E10E9DF0010F9D21
S1132550F00D112421E030E02C0F3D1FE20FF31F9A
S113256060A183E30E94C0035701AA0CBB1CAA0C00
S1132570BB1CAC0CBD1C20E030E040E85FE3F5017F
S113258060817181828193810E941D15F5016083B0
S113259071838283938320E030E0A9010E948A152D
S11325A018165CF0F701EE0FFF1F21E030E02C0F4E
S11325B03D1FE20FF31F118E108EF701EE0FFF1F68
S11325C0EE0FFF1F81E090E08C0F9D1FE80FF91FB5
S11325D080819181992334F0E5E0EA95F1F70000D8
S11325E00197D0F78F8D98A19C01220F331F220FE2
S11325F0331F220F331F8D8D9E8D880F991F880FD7
S1132600991F820F931F2B8D3C8D220F331F820F36
S1132610931F298D3A8D820F931F1E9DF0011F9DDC
S1132620F00D1124E80FF91F3196EE0FFF1F21E082
S113263030E02C0F3D1FE20FF31FE0A0F1A0892B27
S113264009F083CFC255DF4F0FB6F894DEBF0FBE3B
S1132650CDBFDF91CF911F910F91FF90EF90DF904D
S1132660CF90BF90AF909F908F907F906F905F902E
S11326704F903F902F900895883549F018F4853491
S1132680C1F00895893549F08A3569F00895462FD7
S113269064E086E30E9494030895462F65E086E390
S11326A00E9494030895462F66E086E30E949403F3
S11326B00895462F67E086E30E949403089560E03E
S11326C083E30E94B10360E083E30E94BC0340E023
S11326D064E086E30E94770340E065E086E30E94BD
S11326E0770340E066E086E30E94770340E067E01A
S11326F086E30E94770360E088E50E943C1360E073
S113270089E50E943C1360E08AE50E943C1360E086
S113271085E40E943C1308958F929F92AF92BF92DA
S1132720CF92DF92EF92FF920F931F93CF93DF9399
S113273049015A01E6016C837D838E839F83288738
S113274039874A875B87EC86FD860E871F8720E0E2
S113275030E040E85FE30E941E159B01AC0160E09D
S11327607EEF8FEF96E40E9494156C8B7D8B8E8B9D
S11327709F8B20E030E040E85FE3C501B4010E9494
S11327801E159B01AC010E941E159B01AC0160E06B
S113279070E080E09FE40E949415688F798F8A8F9F
S11327A09B8F188219821A821B82188A198A1A8AA4
S11327B01B8ADF91CF911F910F91FF90EF90DF90D3
S11327C0CF90BF90AF909F908F9008954F925F925B
S11327D06F927F928F929F92AF92BF92CF92DF922D
S11327E0EF92FF920F931F93CF93DF93CDB7DEB792
S11327F02A970FB6F894DEBF0FBECDBF1A8709879C
S11328000E941D1569837A838B839C83F801208938
S11328103189428953890E941E154B015C01F801DC
S1132820608B718B828B938BC484D584E684F7840C
S1132830208131814281538169817A818B819C819C
S11328400E941D15A70196010E9482176D837E8345
S11328508F839887F8014488558866887788A30110
S1132860920169817A818B819C810E942D171816AF
S1132870B4F0A3019201505869817A818B819C81C3
S11328800E948A158823ACF0A701960169817A8198
S11328908B819C810E9482172B013C0113C00F2E57
S11328A0412CFEEF5F2E66246A94F6E47F2EF02D11
S11328B009C00F2E412CFEEF5F2E66246A94F6ECBD
S11328C07F2EF02DE985FA85C08CD18CE28CF38CB7
S11328D0A7019601C501B4010E942D1718165CF4D6
S11328E0E985FA85C08AD18AE28AF38A20E030E059
S11328F040E85EE423C0F7FAF094F7F8F094A701F7
S11329009601C501B4010E948A1588235CF4E98507
S1132910FA85C08AD18AE28AF38A20E030E040E86E
S11329205EEC0CC0E985FA852085318542855385A6
S1132930C501B4010E9482179B01AC01C301B2011D
S11329400E941E152D813E814F8158850E941E15BF
S113295020E030E048EF52E40E9494150E940616ED
S1132960772314F460E070E08B016F3F710519F078
S113297014F00FEF10E0B801012E000C880B990B36
S11329800E943E16E985FA8560837183828393836E
S1132990C8012A960FB6F894DEBF0FBECDBFDF91F3
S11329A0CF911F910F91FF90EF90DF90CF90BF9048
S11329B0AF909F908F907F906F905F904F9008950D
S11329C087E689B910BC599A8AB188618AB980B5F9
S11329D0866880BD08955D9BFECF8CB908955F9B8A
S11329E0FECF8CB10895CF93DF93EC0188818823C7
S11329F031F021960E94EB1489918111FBCFDF9174
S1132A00CF9108950F931F93CF938C01C0E00E9440
S1132A10EF148A3011F08D3031F4F801EC0FF11D10
S1132A2080E2808306C0F801EC0FF11D8083CF5F44
S1132A30EECFCF911F910F9108955058BB27AA272D
S1132A400E9435150C94DF160E94A61638F00E94D9
S1132A50AD1620F039F49F3F19F426F40C94A31614
S1132A600EF4E095E7FB0C949D16E92F0E940417E1
S1132A7058F3BA17620773078407950720F079F4AF
S1132A80A6F50C9426170EF4E0950B2EBA2FA02D64
S1132A900B01B90190010C01CA01A0011124FF2707
S1132AA0591B99F0593F50F4503E68F11A16F04002
S1132AB0A22F232F342F4427585FF3CF4695379501
S1132AC02795A795F0405395C9F77EF41F16BA0BC6
S1132AD0620B730B840BBAF09150A1F0FF0FBB1F74
S1132AE0661F771F881FC2F70EC0BA0F621F731FBD
S1132AF0841F48F4879577956795B795F7959E3F1A
S1132B0008F0B0CF9395880F08F09927EE0F9795AA
S1132B10879508950E94791608F481E008950E942B
S1132B20B616E3950C94F0160E94A8150C94DF16C3
S1132B300E94AD1658F00E94A61640F029F45F3F9B
S1132B4029F00C949D1651110C9427170C94A3167C
S1132B500E94041768F39923B1F3552391F3951B4D
S1132B60550BBB27AA2762177307840738F09F5FAA
S1132B705F4F220F331F441FAA1FA9F335D00E2E17
S1132B803AF0E0E832D091505040E695001CCAF784
S1132B902BD0FE2F29D0660F771F881FBB1F261747
S1132BA037074807AB07B0E809F0BB0B802DBF011E
S1132BB0FF2793585F4F3AF09E3F510578F00C94ED
S1132BC09D160C9427175F3FE4F3983ED4F3869543
S1132BD077956795B795F7959F5FC9F7880F911D0E
S1132BE09695879597F90895E1E0660F771F881FFA
S1132BF0BB1F621773078407BA0720F0621B730BAD
S1132C00840BBA0BEE1F88F7E09508950E940D1609
S1132C106894B1110C94271708950E940C1788F03A
S1132C209F5798F0B92F9927B751B0F0E1F0660F8C
S1132C30771F881F991F1AF0BA95C9F714C0B130CD
S1132C4091F00E942617B1E008950C942617672F7F
S1132C50782F8827B85F39F0B93FCCF386957795FC
S1132C606795B395D9F73EF49095809570956195E5
S1132C707F4F8F4F9F4F0895E89409C097FB3EF410
S1132C8090958095709561957F4F8F4F9F4F9923B5
S1132C90A9F0F92F96E9BB279395F6958795779533
S1132CA06795B795F111F8CFFAF4BB0F11F460FFF3
S1132CB01BC06F5F7F4F8F4F9F4F16C0882311F04B
S1132CC096E911C0772321F09EE8872F762F05C05F
S1132CD0662371F096E8862F70E060E02AF09A95FA
S1132CE0660F771F881FDAF7880F9695879597F9EF
S1132CF00895990F0008550FAA0BE0E8FEEF161689
S1132D001706E807F907C0F012161306E407F507DB
S1132D1098F0621B730B840B950B39F40A2661F04F
S1132D20232B242B252B21F408950A2609F4A140F2
S1132D30A6958FEF811D811D089597F99F6780E8FF
S1132D4070E060E008959FEF80EC089500240A94F9
S1132D501616170618060906089500240A94121672
S1132D6013061406050608950C94A3160E940C1766
S1132D70D8F3E894E0E0BB279F57F0F02AED3FE05A
S1132D8049EC06C0EE0FBB0F661F771F881F28F0A3
S1132D90B23A62077307840728F0B25A620B730BC6
S1132DA0840BE3959A9572F7803830F49A95BB0FAB
S1132DB0661F771F881FD2F790480C943F18092E7E
S1132DC00394000C11F4882352F0BB0F40F4BF2B82
S1132DD011F460FF04C06F5F7F4F8F4F9F4F0895C2
S1132DE0EF93E0FF07C0A2EA2AED3FE049EC5FEB76
S1132DF00E9435150E94DF160F90039401FC905831
S1132E00E4E5F0E00C94791857FD9058440F551FF1
S1132E1059F05F3F71F04795880F97FB991F61F058
S1132E209F3F79F087950895121613061406551FCF
S1132E30F2CF4695F1DF08C0161617061806991F3B
S1132E40F1CF86957105610508940895E894BB2730
S1132E5066277727CB0197F908950E94791608F41D
S1132E608FEF089516F00C943D180C94A3166894F3
S1132E700C949D160E940C17A8F39923C1F3AEF38A
S1132E80DF93CF931F930F93FF92C92FDD278823DE
S1132E902AF02197660F771F881FDAF720E030E0C9
S1132EA040E85FEB9FE3883920F0803E38F02196BC
S1132EB08F770E941E15E2E7F0E004C00E941E1501
S1132EC0EFE9F0E00E9452188B01BE01EC01FB2EE9
S1132ED06F5771097595771F880B990B0E943E16E1
S1132EE028E132E741E35FE30E949517AF2D980193
S1132EF0AE01FF900F911F91CF91DF910E94351584
S1132F000C94DF160E9495170C94DF160E94A616E7
S1132F1038F00E94AD1620F0952311F00C949D1604
S1132F200C94A31611240C9427170E94041770F311
S1132F30959FC1F3950F50E0551F629FF001729F5A
S1132F40BB27F00DB11D639FAA27F00DB11DAA1F69
S1132F50649F6627B00DA11D661F829F2227B00DB6
S1132F60A11D621F739FB00DA11D621F839FA00D41
S1132F70611D221F749F3327A00D611D231F849F91
S1132F80600D211D822F762F6A2F11249F575040E8
S1132F909AF0F1F088234AF0EE0FFF1FBB1F661F63
S1132FA0771F881F91505040A9F79E3F510580F02C
S1132FB00C949D160C9427175F3FE4F3983ED4F3CA
S1132FC0869577956795B795F795E7959F5FC1F7D0
S1132FD0FE2B880F911D9695879597F908959F93D9
S1132FE00E94B6160F9007FCEE5F0C94F01619F4CD
S1132FF016F40C94A3160C943D180E940C17B8F305
S11330009923C9F3B6F39F57550B87FF0E944B18BA
S11330100024A0E640EA900180585695979528F43C
S1133020805C660F771F881F20F026173707480734
S113303030F4621B730B840B202931294A2BA6958B
S113304017940794202531254A2758F7660F771FD0
S1133050881F20F026173707480730F4620B730BDC
S1133060840B200D311D411DA09581F7B901842FDA
S11330709158880F9695879508959F3F31F0915008
S113308020F4879577956795B795880F911D969548
S1133090879597F9089591505040660F771F881FC0
S11330A0D2F70895DF93CF931F930F93FF92EF927C
S11330B0DF927B018C01689406C0DA2EEF010E9436
S11330C09517FE01E894A591259135914591559167
S11330D0A6F3EF010E943515FE019701A801DA94C9
S11330E069F7DF90EF90FF900F911F91CF91DF91DF
S11330F008959F938F937F936F93FF93EF939B0117
S1133100AC010E948217EF91FF910E9452182F91F7
S11331103F914F915F910C948217EF920F931F93FD
S1133120CF93DF93E80147FD02C034E001C034E1EE
S1133130042E000C550B57FF03C0519541955109BE
S1133140E32E022F242FAE010E94DA1ACE01DF9162
S1133150CF911F910F91EF900895662777270C94D4
S1133160341CFC0188279927E89421912032E9F343
S1133170293010F02E30C8F32B3241F02D3239F4BF
S1133180689404C00E94CF18820F911D219120538E
S11331902A30C0F31EF4909581959F4F08957AE0EC
S11331A0979F902D879F802D910D11240895AEE057
S11331B0B0E0EDEDF8E10C94471F0D891E8986E01F
S11331C08C831A8309838FEF9FE79E838D83AE01DF
S11331D0475E5F4F6F89788DCE0101960E94F91882
S11331E0EF81F885E00FF11F10822E96E4E00C9435
S11331F0631FABE0B0E0EFEFF8E10C94391F6C0112
S11332007B018A01FC0117821682838181FFCCC174
S1133210CE0101963C01F6019381F70193FD85915E
S113322093FF81917F01882309F4BAC1853239F46F
S113323093FD859193FF81917F01853229F4B60135
S113324090E00E94911EE7CF912C212C312CFFE1BC
S1133250F315D8F08B3279F038F4803279F0833278
S1133260A1F4232D20611DC08D3261F0803369F4F7
S1133270232D216016C0832D8260382EE32DE46057
S11332803E2E2AC0F32DF8601DC037FC2DC020ED62
S1133290280F2A3040F08E32B9F436FC81C1232D38
S11332A02064322E19C036FE06C08AE0989E200D96
S11332B01124922E11C0EAE02E9E200D1124222EFC
S11332C0F32DF0623F2E08C08C3621F4832D8068E4
S11332D0382E02C0883641F4F70193FD859193FF9F
S11332E081917F018111B3CF982F9F7D95549330A5
S11332F028F40C5F1F4F9FE399830DC0833631F090
S1133300833771F0833509F059C021C0F8018081F9
S113331089830E5F1F4F88248394912C530113C01B
S11333202801F2E04F0E511CF801A080B18036FE56
S113333003C0692D70E002C06FEF7FEFC5010E94EA
S1133340861E4C018201F32DFF773F2E16C0280103
S113335022E0420E511CF801A080B18036FE03C069
S1133360692D70E002C06FEF7FEFC5010E947B1EE4
S11333704C01F32DF0683F2E820133FC1BC0822DDB
S113338090E088169906B0F4B60180E290E00E94BD
S1133390911E2A94F4CFF50137FC859137FE819173
S11333A05F01B60190E00E94911E21102A9421E051
S11333B0821A91088114910471F7E8C0843611F0DF
S11333C0893641F5F80137FE07C060817181828139
S11333D093810C5F1F4F08C060817181072E000C20
S11333E0880B990B0E5F1F4FF32DFF763F2E97FF2F
S11333F009C090958095709561957F4F8F4F9F4F31
S1133400F0683F2E2AE030E0A3010E94CD1E882EF2
S1133410861845C0853731F4232D2F7EB22E2AE03D
S113342030E025C0932D997FB92E8F36C1F018F462
S1133430883579F0B5C0803719F0883721F0B0C0ED
S1133440E92FE061BE2EB4FE0DC0FB2DF460BF2E4B
S113345009C034FE0AC0292F2660B22E06C028E017
S113346030E005C020E130E002C020E132E0F801A4
S1133470B7FE07C060817181828193810C5F1F4F09
S113348006C06081718180E090E00E5F1F4FA30150
S11334900E94CD1E882E8618FB2DFF773F2E36FE08
S11334A00DC0232D2E7FA22E891458F434FE0BC098
S11334B032FC09C0832D8E7EA82E05C0B82CA32C07
S11334C003C0B82C01C0B92CA4FE0FC0FE01E80D46
S11334D0F11D8081803321F49A2D997EA92E09C093
S11334E0A2FE06C0B394B39404C08A2D867809F072
S11334F0B394A3FC11C0A0FE06C0B21488F4280C37
S1133500922C9B180EC0B21460F4B60180E290E0D5
S11335100E94911EB394F7CFB21418F42B1802C072
S1133520982C212CA4FE10C0B60180E390E00E94E8
S1133530911EA2FE17C0A1FC03C088E790E002C060
S113354088E590E0B6010CC08A2D867859F0A1FE7A
S113355002C08BE201C080E2A7FC8DE2B60190E0DC
S11335600E94911E891438F4B60180E390E00E9411
S1133570911E9A94F7CF8A94F301E80DF11D80818E
S1133580B60190E00E94911E8110F5CF222009F42B
S113359042CEB60180E290E00E94911E2A94F6CFBA
S11335A0F6018681978102C08FEF9FEF2B96E2E1AF
S11335B00C94551FA9E0B0E0E0EEFAE10C943F1F33
S11335C06A01122FB02E2BE3201720F0FF24F3946E
S11335D0F00E02C02CE3F22E0F2D27E0AE014F5F58
S11335E05F4F0E94821DBC014981842F8970813004
S11335F031F0E1FC06C0E0FE06C090E205C09DE2A9
S113360003C09BE201C090E05E2D507143FF3CC0BB
S1133610911102C083E001C084E0811718F4212FC6
S1133620281B01C020E051110BC0F601822F30E2AB
S1133630882319F031938150FBCFC20ED11C20E0B6
S1133640992329F0D6019C93F60131966F01C601A6
S11336500396E2FE0AC03EE4D6013C9341E411968F
S11336604C93119712963C9306C03EE6F6013083C4
S113367041E641833283FC01322F40E2332309F4D3
S113368042C041933150FACF42FF44C0911102C06D
S113369083E001C084E0811718F4212F281B01C0A6
S11336A020E051110BC0F601822F30E2882319F07B
S11336B031938150FBCFC20ED11C20E0992329F015
S11336C0D6019C93F60131966F01C6010396E2FE82
S11336D00BC039E4D6013C933EE411963C93119718
S11336E036E412963C9307C039E6F60130833EE691
S11336F0318336E63283FC01322F40E2332319F062
S113370041933150FBCFFC01E20FF11D10828EEF8B
S11337109FEFA6C021E030E0911102C020E030E02C
S1133720161617061CF4FB01319602C0E1E0F0E026
S11337302E0F3F1FBB2021F0EB2DF0E0319602C08D
S1133740E0E0F0E02E0F3F1FE12FF0E02E173F07DF
S11337501CF4121B212F01C020E08E2D887159F416
S1133760F601822F30E2882319F031938150FBCF88
S1133770C20ED11C20E0992329F0D6019C93F601B6
S113378031966F0151110BC0F601822F90E388230B
S113379019F091938150FBCFC20ED11C20E00F2D64
S11337A0060F9A81342F307144FF03C0913309F41A
S11337B00150101624F4093018F008E001C001E0AB
S11337C0AB0177FF02C040E050E0FB01E41BF50BC6
S11337D0A1E0B0E0AC0FBD1FEA0FFB1F8EE2A82EE4
S11337E04B01801A91080B2D10E0119501951109D8
S11337F04F3FBFEF5B0721F4D601AC9211966D01E8
S1133800641775072CF08416950614F4818101C0A1
S113381080E3415051093196D60111967D0140173C
S1133820510724F0D6018C936701E2CF6417750722
S113383039F4963320F4953319F4311101C081E33E
S1133840F6018083F701822F90E2882319F0919387
S11338508150FBCFF701E20FF11D108280E090E070
S11338602996ECE00C945B1FA0E0B0E0EAE3FCE1F5
S11338700C943F1FEC016B016115710519F0FB01FC
S1133880918380837E01FFEFEF1AFF0A0881802F66
S113389090E00E945A1E892B11F0E701F3CF0D32FC
S11338A039F47E0182E0E80EF11C098111E008C0C0
S11338B00B3229F47E0192E0E90EF11C098110E03B
S11338C0E701219743E050E064ED70E0CE010E94EF
S11338D0631E892BC1F4239645E050E06FEC70E041
S11338E0CE010E94631E892B09F42596C114D104CC
S11338F019F0F601D183C0831111F6C060E070E0C5
S113390080E89FE7FAC043E050E06CEC70E0CE0141
S11339100E94631E892B59F4C114D10409F4E9C02F
S1133920F2E0EF0EF11CF601F182E082E2C020E049
S113393030E0A901C0E0D0E0F70180EDA82EA00E90
S113394089E08A1530F1912F9260B92E812F887009
S113395012FF04C0811124C0219622C08111219735
S1133960A5E0B0E00E942E1FDC01CB01880F991F57
S1133970AA1FBB1F9C01AD012A0D311D411D511D04
S1133980283989E93807480789E1580748F016605B
S113399006C09EEFA9120AC013FD40C01860B12EE4
S11339A08FEFE81AF80A00811B2DC6CF802F8F7D78
S11339B08534A1F580818D3211F4106106C08B32FB
S11339C021F0319661E070E004C08181329662E0BA
S11339D070E080538A3018F0E61BF70B1FC060E0DC
S11339E070E060389CE079075CF4DB01AA0FBB1F30
S11339F0AA0FBB1F6A0F7B1F660F771F680F711D0D
S1133A003196DF0111978C9180538A3050F314FF63
S1133A1003C0719561957109C60FD71F11FF08C0C6
S1133A20C114D10429F0CF010197F6019183808359
S1133A30CA01B9010E943C16212F2370233019F0CA
S1133A404B015C0106C04B015C01B7FAB094B7F8B6
S1133A50B09420E030E0A901C501B4010E948A15A8
S1133A60882309F43EC0D7FF06C0D195C195D1097A
S1133A700BEE10E002C003E011E06801F8E1CF1A98
S1133A80D10890E2E92EF12CCE15DF0574F0F8018F
S1133A902591359145915491C501B4010E94821735
S1133AA04B015C01CE19DF09EFCF04501109F594E5
S1133AB0E7940C151D0541F78A2D880F8B2D881F5F
S1133AC08F3F49F020E030E0A901C501B4010E9414
S1133AD08A15811106C082E290E090939802809347
S1133AE09702C501B40109C060E070E080E89FEF6F
S1133AF004C060E070E080EC9FE7CDB7DEB7ECE097
S1133B000C945B1F283008F027E03327DA01990F63
S1133B10311D87FD916000966105710539F43260AD
S1133B202E5F3D9330E32A95E1F708959F3F30F0EF
S1133B3080387105610509F03C5F3C5F3D9391302D
S1133B4008F08068911DDF93CF931F930F93FF922A
S1133B50EF92192F987F9695E92F96959695E90FF0
S1133B60FF27EF59FE4F99273327EE24FF24A7019F
S1133B70E70105900894079428F4360FE71EF81E11
S1133B80491F511D660F771F881F991F0694A1F7BF
S1133B900590079428F4E70EF81E491F561FC11D0F
S1133BA0770F881F991F661F0694A1F70590079445
S1133BB028F4F80E491F561FC71FD11D880F991FDF
S1133BC0661F771F0694A1F70590079420F4490F08
S1133BD0561FC71FD81F990F661F771F881F06948B
S1133BE0A9F784911095177041F0D695C79557950C
S1133BF04795F794E7941A95C1F7E7E0F1E06894E4
S1133C001590159135916591959105907FE2739585
S1133C10E118F10A430B560BC90BD009C0F7E10CAC
S1133C20F11E431F561FC91FD01D7EF4703311F4BB
S1133C308A95E6CFE894015030F0080F0AF4002783
S1133C40021708F4202F2395022F7A3328F079E302
S1133C507D932A95E9F710C07D932A9589F60694F9
S1133C6097956795379517951794E118F10A430BC3
S1133C70560BC90BD00998F023957E9173957A332E
S1133C8008F070E37C932013B8F77E9170617D9304
S1133C9030F0839571E37D9370E32A95E1F7112465
S1133CA0EF90FF900F911F91CF91DF91992787FD9E
S1133CB09095089591110C942B1F803219F089501E
S1133CC08550C8F70895FB01DC014150504088F04D
S1133CD08D9181341CF08B350CF4805E65916134D8
S1133CE01CF06B350CF4605E861B611171F3990B4B
S1133CF00895881BFCCFFC010590615070400110B1
S1133D00D8F7809590958E0F9F1F0895FC01615000
S1133D10704001900110D8F7809590958E0F9F1FE9
S1133D2008950F931F93CF93DF93FB01238121FD0C
S1133D3003C08FEF9FEF2CC022FF16C0468157812E
S1133D40248135814217530744F4A081B1819D0138
S1133D502F5F3F4F318320838C93268137812F5FE0
S1133D603F4F3783268314C08B01EC01FB01008491
S1133D70F185E02D0995892BE1F6D80116968D91F0
S1133D809C911797019617969C938E931697CE0144
S1133D90DF91CF911F910F910895FA01AA2728303E
S1133DA051F1203181F1E8946F936E7F6E5F7F4F04
S1133DB08F4F9F4FAF4FB1E03ED0B4E03CD0670F80
S1133DC0781F891F9A1FA11D680F791F8A1F911DD3
S1133DD0A11D6A0F711D811D911DA11D20D009F423
S1133DE068943F912AE0269F11243019305D319365
S1133DF0DEF6CF010895462F4770405D4193B3E04E
S1133E000FD0C9F7F6CF462F4F70405D4A3318F0F4
S1133E10495D31FD4052419302D0A9F7EACFB4E0A5
S1133E20A6959795879577956795BA95C9F700975D
S1133E306105710508959B01AC010A2E06945795FE
S1133E40479537952795BA95C9F7620F731F841F55
S1133E50951FA01D08959927882708950E94701F13
S1133E60A59F900DB49F900DA49F800D911D1124CA
S1133E7008952F923F924F925F926F927F928F920A
S1133E809F92AF92BF92CF92DF92EF92FF920F93E5
S1133E901F93CF93DF93CDB7DEB7CA1BDB0B0FB6EF
S1133EA0F894DEBF0FBECDBF09942A8839884888AC
S1133EB05F846E847D848C849B84AA84B984C88442
S1133EC0DF80EE80FD800C811B81AA81B981CE0F39
S1133ED0D11D0FB6F894DEBF0FBECDBFED0108951E
S1133EE0A29FB001B39FC001A39F700D811D112437
S1133EF0911DB29F700D811D1124911D0895F89498
S1053F00FFCFED
S1133F026CCF5834D6647939CB48843A00401C4685
S1133F120000C8420000C8420000C84200000C432E
S1133F2277656C636F6D65207765206172652050DB
S1133F32524953434100006F6B00006572726F7205
S1133F422065787472756465722074656D702E00D4
S1133F52006F7574206F6620617265610000040051
S1133F620500060007000000030000000100010034
S1133F72020000000100010003000300030001002D
S1133F82030003000100010001000300000001001E
S1133F92000002000000010000000300030003000F
S1133FA203000300030003000300020003000000F7
S1133FB201000000020000000100000003000000F4
S1133FC201000000030000000100000003000300E0
S1133FD200000100000002000000010000000300D4
S1133FE2000001000000020000000100000025663C
S1053FF20000C9
S9030000FC
