S01700005052495343415F6672696D776172652E737265638F
S11300000C9401010C94FE0F0C941E010C941E011F
S11300100C941E010C941E010C941E010C941E01E0
S11300200C941E010C94260F0C941E010C941E01BA
S11300300C941E010C941E010C941E010C941E01C0
S11300400C941E010C941E010C941E010C941E01B0
S11300500C941E0105A84CCDB2D44EB93836A90271
S11300600C50B9918688083CA6AAAA2ABE000000B2
S1130070803F08000000BE922449123EABAAAA2A7F
S1130080BECDCCCC4C3E00000080BEABAAAAAA3E9A
S113009000000000BF000000803F000000000008D6
S11300A04178D3BB4387D1133D190E3CC3BD428273
S11300B0AD2B3E68EC8276BED98FE1A93E4C80EF31
S11300C0FFBE01C4FF7F3F00000000004E414E49C7
S11300D04E495459494E46CDCCCC3D0AD7233C1702
S11300E0B7D13877CC2B329595E6241FB14F0A004F
S11300F00020410000C84200401C4620BCBE4CCA3F
S11301001B0E5AAEC59D7400407A10F35A00A072BB
S11301104E18090010A5D4E80000E876481700003E
S1130120E40B54020000CA9A3B000000E1F505000C
S11301300080969800000040420F000000A0860155
S1130140000000102700000000E803000000006425
S113015000000000000A0000000000010000000090
S1130160002C76D888DC674F0823DFC1DFAE59E165
S1130170B1B796E5E3E453C63AE651997696E8E6D4
S1130180C28426EB898C9B62ED407C6FFCEFBC9CA7
S11301909F40F2BAA56FA5F490055A2AF75C936BB9
S11301A06CF9676DC11BFCE0E40D47FEF520E6B574
S11301B000D0ED902E0300943577050080841E084E
S11301C00000204E0A000000C80C333333330F986C
S11301D06E12831141EF8D2114893BE65516CFFE33
S11301E0E6DB18D1844B381BF77C1D901DA4BBE4BF
S11301F024203284725E228100C9F124ECA1E53D01
S1130200270011241FBECFE5D4E0DEBFCDBF11E02F
S1130210A0E6B0E0EAE1FCE302C005900D92A63549
S1130220B107D9F722E0A6E5B1E001C01D92A839D3
S1130230B207E1F70E94C8030C940B1E0C94000053
S1130240E199FECF9FBB8EBB6DBBE29AE19A089504
S1130250EF92FF920F931F93CF93DF938C017B0157
S1130260EA01209751F0F70161917F01C8010E94D2
S113027020010F5F1F4F2197B1F7DF91CF911F919D
S11302800F91FF90EF900895E199FECF9FBB8EBB35
S1130290E09A8DB30895EF92FF920F931F93CF933B
S11302A0DF938C017B01EA01209751F0C8010E9481
S11302B04401F70181937F010F5F1F4F2197B1F72D
S11302C0DF91CF911F910F91FF90EF90089587B91F
S11302D0369A86B1349A84B195B108958F929F92DB
S11302E0AF92BF92CF92DF92EF92FF920E9467018A
S11302F09093A5018093A401BC01990F880B990BDD
S11303000E9489149B01AC0160E070EC8FE794E4D7
S11303100E94DF1320E030E040E85FE30E946813AE
S113032020916C0030916D0040916E0050916F00EF
S11303300E94CD156093AA017093AB018093AC0128
S11303409093AD010E9485156B017C016093AE0111
S11303507093AF018093B0019093B1012091640038
S11303603091650040916600509167000E94CD1560
S1130370209168003091690040916A0050916B00AF
S11303800E9469134B015C0120916000309161006F
S11303904091620050916300C701B6010E94CD15DF
S11303A0A70196010E94CD15A70196010E94CD15C3
S11303B09B01AC01C501B4010E9469139B01AC010E
S11303C060E070E080E89FE30E94DF136093A00187
S11303D07093A1018093A2019093A30123E333E9D5
S11303E048E853E40E9468136093A6017093A70140
S11303F08093A8019093A901FF90EF90DF90CF9094
S1130400BF90AF909F908F900895EF92FF920F93BB
S11304101F93CF93DF93CDB7DEB72A970FB6F89427
S1130420DEBF0FBECDBFDC01FE013196CE010B96BF
S11304301192E817F907E1F720E030E000E010E05E
S113044040E050E0FD01E20FF31F9081961319C0C4
S1130450FA01E00FF11F7F01EA0EFB1EF701218173
S113046081E090E08C0F9D1F800F911FFC01208381
S1130470F7018281803259F08D3049F00F5F1F4FB0
S113048002C04F5F5F4F9A0142305105D8F2CE014E
S113049001960E9453172A960FB6F894DEBF0FBE3A
S11304A0CDBFDF91CF911F910F91FF90EF900895F1
S11304B0DC012C91621330C0E0E0F0E0DC01AE0F0F
S11304C0BF1F11962C91DC012C933296E80FF91F73
S11304D02081421313C006C02E5F3F4F22303105E6
S11304E01CF0089521E030E0FC01E20FF31F1192AB
S11304F02F5F3F4F22303105D4F30895DC0111966C
S113050020E030E0B9016F5F7F4F51915D935081DE
S1130510541711F39B01F6CFDC011196E0E0F0E0F3
S113052031962D912613FCCFC9CFEF92FF920F93F2
S11305301F93CF93DF93CDB7DEB72A970FB6F89406
S1130540DEBF0FBECDBFDC01FE013196CE010B969E
S11305501192E817F907E1F720E030E000E010E03D
S113056040E050E0FD01E20FF31F9081961319C0A3
S1130570FA01E00FF11F7F01EA0EFB1EF701218152
S113058081E090E08C0F9D1F800F911FFC01208360
S1130590F7018281803259F08D3049F00F5F1F4F8F
S11305A002C04F5F5F4F9A0142305105D8F2CE012D
S11305B001960E9457172A960FB6F894DEBF0FBE15
S11305C0CDBFDF91CF911F910F91FF90EF900895D0
S11305D0FC018081681741F08D3041F081E0918108
S11305E0961729F080E0089581E0089580E0089549
S11305F0CF92DF92EF92FF92CF93DF93EC016A01E7
S11306007B01288139814A815B81C701B6010E943F
S11306106813C882D982EA82FB82DF91CF91FF906E
S1130620EF90DF90CF90089541110DC0E82FF0E0D6
S1130630218181E090E002C0880F991F6A95E2F75A
S1130640822B81830895E82FF0E0218181E090E0FE
S113065002C0880F991F6A95E2F7809582238183EF
S11306600895442369F0E82FF0E0228181E090E0CE
S113067002C0880F991F6A95E2F7822B828308953E
S1130680E82FF0E0228181E090E002C0880F991FFA
S11306906A95E2F78095822382830895611105C0EB
S11306A0E82FF0E08FEF81830895E82FF0E01182C6
S11306B00895E82FF0E062830895E82FF0E0828146
S11306C021E030E002C0220F331F6A95E2F72827A9
S11306D022830895CF92DF92EF92FF920F931F939C
S11306E081B3806B81BB41E062E080E30E9414032C
S11306F08FEF84BB8AB3806F8ABB87B3836087BB69
S113070087E886B93E9A8BB780648BBF85B78161D1
S113071085BF0E942E130E94AD110F2EF6EFCF2E2F
S1130720F1E0DF2EF02D17E6E12E16E6F12E06ECB1
S113073010E4A801970160E070E088E793E40E9468
S1130740DA110F2EFAEDCF2EF1E0DF2EF02DA801F5
S1130750970160E070E088E793E40E94DA11F8946E
S11307608FB5816A8FBD8EB581648EBD85B58E6669
S113077085BD83B7816883BF89B7816089BF12BE95
S113078078941F910F91FF90EF90DF90CF90089590
S1130790CF93DF93CDB7DEB7E9970FB6F894DEBFFA
S11307A00FBECDBF0E946A0345E050E064E272E0F0
S11307B080E090E00E944B0145E050E066E172E089
S11307C085E090E00E944B0145E050E062E872E071
S11307D08AE090E00E944B0145E050E060ED71E05A
S11307E08FE090E00E944B0184E292E00E94531754
S11307F060937E0270937F028093800290938102C3
S113080086E192E00E9453176093120270931302E0
S1130810809314029093150282E892E00E94531789
S1130820609320027093210280932202909323020A
S113083080ED91E00E9453176093CC017093CD0139
S11308408093CE019093CF010F2EFEE76F2EF2E03E
S11308507F2EF02D22EB31E029AB3AAB80919C0145
S113086081110AC0EEE2F2E011926E167F06E1F702
S11308708EE292E00E944D1380912E028D3409F095
S11308808FC66DE48EE292E00E94950290936B0114
S113089080936A018B36910509F475C374F5833529
S11308A0910509F436C194F48131910509F4A0C08D
S11308B024F4029708F458C070C68231910509F4F3
S11308C09EC08235910509F417C167C68836910523
S11308D009F466C24CF48435910509F490C08C3552
S11308E0910509F44AC159C68936910509F46AC2C9
S11308F08A36910509F43AC350C68E3B910509F432
S1130900C6C4BCF48037910509F48DC34CF48D360C
S1130910910509F43EC38E36910509F47BC33DC6A7
S11309208237910509F408C48C38910509F49AC4F6
S113093034C6843F51E0950709F41FC14CF48E3C42
S1130940910509F4C5C48E32914009F4E1C425C669
S1130950863FA1E09A0709F410C10CF4F6C4873F5E
S1130960914009F447C519C6A2EBB1E01D921D924E
S11309701D921C9213971092B6011092B701109217
S1130980B8011092B9011092BA011092BB011092F1
S1130990BC011092BD011092BE011092BF011092D1
S11309A0C0011092C10110928C0110928D0110921D
S11309B08E0110928F011092840110928501109281
S11309C08601109287011092900110929101109269
S11309D09201109293011092800110928101109261
S11309E082011092830181E191E00E943E13D5C5FA
S11309F00E94AD1181E191E00E943E13CEC563E5F2
S1130A008EE292E00E949502FC0128EE33E0E29F20
S1130A10C001E39F900DF29F900D1124092E000C4C
S1130A20AA0BBB0B80936C0190936D01A0936E0194
S1130A30B0936F0168E58EE292E00E94E802809331
S1130A409A0169E58EE292E00E94E802809399019E
S1130A506AE58EE292E00E94E8028093980165E4E0
S1130A608EE292E00E94E8028093970160919A01DD
S1130A7088E50E948A116091990189E50E948A1192
S1130A80609199018AE50E948A116091970185E439
S1130A900E948A1180916C0190916D01A0916E0168
S1130AA0B0916F010097A105B10509F1F4F08FE948
S1130AB09FE00197F1F700C0000080916C019091D4
S1130AC06D01A0916E01B0916F010197A109B10967
S1130AD080936C0190936D01A0936E01B0936F01AC
S1130AE0181619061A061B0614F30E94AD1181E1AB
S1130AF091E00E943E1351C51092BE011092BF01B5
S1130B001092C0011092C10181E191E00E943E1354
S1130B1044C510925E0110925F0110926001109220
S1130B20610110925A0110925B0110925C011092C3
S1130B305D011092560110925701109258011092C3
S1130B405901A2EBB1E01D921D921D921C921397C4
S1130B501092B6011092B7011092B8011092B90127
S1130B601092BA011092BB011092BC011092BD0107
S1130B7081E191E00E943E1310C5E4E2F2E046E117
S1130B8052E022E832E0A0EDB1E07D011192DA01F9
S1130B901D92AD01D9011D929D01D7011D927D01C8
S1130BA06EE272E06E177F0789F78C359105A1F527
S1130BB068E58EE292E00E94050260937E027093E3
S1130BC07F02809380029093810269E58EE292E035
S1130BD00E94050260931202709313028093140220
S1130BE0909315026AE58EE292E00E9405026093FA
S1130BF0200270932102809322029093230265E4E1
S1130C008EE292E00E9405026093CC017093CD01C4
S1130C108093CE019093CF0180916A0190916B01F2
S1130C20863F914009F040C080917C0090917D0006
S1130C30A0917E00B0917F0080937E0290937F020A
S1130C40A0938002B0938102809178009091790002
S1130C50A0917A00B0917B008093120290931302CA
S1130C60A0931402B09315028091740090917500C2
S1130C70A0917600B0917700809320029093210296
S1130C80A0932202B093230280917000909171008E
S1130C90A0917200B09173008093CC019093CD0128
S1130CA0A093CE01B093CF0160917E0270917F0238
S1130CB0809180029091810204E111E023E042E0FE
S1130CC00E9433179F938F9384E292E09F938F93B4
S1130CD00E947D1760911202709113028091140298
S1130CE09091150223E042E00E9433179F938F9363
S1130CF0E6E1F2E0FF93EF930E947D1760912002FA
S1130D0070912102809122029091230223E042E01B
S1130D100E9433179F938F9342E852E05F934F935F
S1130D200E947D176091CC017091CD018091CE011C
S1130D309091CF0123E042E00E9433179F938F9359
S1130D4080ED91E09F938F930E947D1745E050E0E2
S1130D5064E272E080E090E00E94280145E050E007
S1130D6066E172E085E090E00E94280145E050E0F1
S1130D7062E872E08AE090E00E94280145E050E0D9
S1130D8060ED71E08FE090E00E94280181E191E044
S1130D900E943E130FB6F894DEBF0FBECDBFFDC355
S1130DA063E58EE292E00E940502609390017093E5
S1130DB09101809392019093930181E191E00E94CB
S1130DC03E13EBC380918000882351F087E191E0CA
S1130DD00E943E138DE00E94361310928000DDC302
S1130DE0ECE8F2E0A2ECB1E011921D9226E932E0C7
S1130DF02E173F07C9F782E50E946E0104E111E056
S1130E0023E042E00E9433179F938F934CE852E013
S1130E105F934F930E947D1780E50E946E0123E04B
S1130E2042E00E9433179F938F9382EC91E09F934B
S1130E308F930E947D170FB6F894DEBF0FBECDBF0F
S1130E4080919B01882309F45AC084E589838AE34D
S1130E508A83ACE8B2E09C919B8390918D029C8341
S1130E6090918E029D8390918F029E839091900227
S1130E709F8390E2988725E429878A8720E32B873C
S1130E809C8792E49D878E87E2ECF1E080818F87D6
S1130E908091C301888B8091C401898B8091C501A5
S1130EA08A8B8091C6018B8B8DE08C8B80E50E94B0
S1130EB06E012091900130919101409192015091E5
S1130EC093010E94781518169CF482E50E946E0125
S1130ED020918001309181014091820150918301E0
S1130EE00E947815181624F481E08093950102C0BD
S1130EF010929501CE0101960E943E134EC384E5E3
S1130F0089838AE38A83ACE8B2E09C919B839091C5
S1130F108D029C8390918E029D8390918F029E837B
S1130F20909190029F8390E2988795E499878A87AD
S1130F3080E38B878DE08C8780E50E946E01209191
S1130F4090013091910140919201509193010E943E
S1130F507815181624F481E08093950102C010924C
S1130F609501CE0101960E943E1317C363E58EE2FC
S1130F7092E00E9405020E94581463BD81E191E051
S1130F800E943E130AC313BC81E191E00E943E1308
S1130F9004C362E48EE292E00E94050260937C0145
S1130FA070937D0180937E0190937F0120E030E077
S1130FB0A9010E94D51381111DC063E58EE292E060
S1130FC00E940502609390017093910180939201B5
S1130FD09093930180E50E946E01209190013091DD
S1130FE0910140919201509193010E94D51388235D
S1130FF08CF30BC080E50E946E0120E030E048E5F0
S113100052E40E94D5138823ACF381E191E00E945D
S11310103E13C3C2109265011092640181E191E014
S11310200E943E13BAC240E050E0BA018EE591E05E
S11310300E94F8029B01AC0160917E0270917F02D4
S113104080918002909181020E94CD15E2EBF1E043
S1131050608371838283938340E050E0BA018AE520
S113106091E00E94F8029B01AC0160911202709120
S1131070130280911402909115020E94CD15609381
S1131080B6017093B7018093B8019093B90140E021
S113109050E0BA0186E591E00E94F8029B01AC01A0
S11310A0609120027091210280912202909123028A
S11310B00E94CD156093BA017093BB018093BC016B
S11310C09093BD011092BE011092BF011092C00115
S11310D01092C10110928C0110928D0110928E0118
S11310E010928F0110928401109285011092860152
S11310F01092870110929001109291011092920126
S11311001092930110928001109281011092820139
S11311101092830181E080939C0100E010E098012B
S113112040E050E0BA0182EB91E00E943B1081E183
S113113091E00E943E1331C2E4E2F2E086E192E0E3
S1131140A2E8B2E0AD011192DC011D92CD01DA01F9
S11311501D92AD012EE232E02E173F07A1F76091F8
S11311605E0170915F01809160019091610104E1E1
S113117011E023E042E00E9433179F938F9344E2EF
S113118052E05F934F930E947D1760915A017091D2
S11311905B0180915C0190915D0123E042E00E943B
S11311A033179F938F9386E192E09F938F930E94CE
S11311B07D1760915601709157018091580190916B
S11311C0590123E042E00E9433179F938F93E2E892
S11311D0F2E0FF93EF930E947D1788E58983A4E2F0
S11311E0B2E08C918A83809125028B8380912602C0
S11311F08C83809127028D83809128028E8380E2E4
S11312008F8399E59887E6E1F2E090819987909140
S113121017029A87909118029B87909119029C87D4
S113122090911A029D878E878AE58F87A2E8B2E0A3
S11312308C91888B80918302898B809184028A8B24
S1131240809185028B8B809186028C8B8DE08D8BB7
S1131250CE0101960E943E130FB6F894DEBF0FBE76
S1131260CDBF9BC163E58EE292E00E9405026093CC
S1131270800170938101809382019093830181E0C6
S113128080939B0181E191E00E943E1386C163E556
S11312908EE292E00E9405026093800170938101C6
S11312A0809382019093830182E50E946E012091D4
S11312B080013091810140918201509183010E940B
S11312C0D51388238CF381E191E00E943E1365C11C
S11312D010925E0110925F01109260011092610100
S11312E010925A0110925B0110925C0110925D0100
S11312F01092560110925701109258011092590100
S113130081E08093960181E191E00E943E1345C102
S113131063E58EE292E00E9405026093900170936F
S11313209101809392019093930120E030E048EC86
S113133051E40E94D51318161CF081E080939401A7
S113134081E191E00E943E1328C145E050E064E24F
S113135072E080E090E00E944B0145E050E066E1DD
S113136072E085E090E00E944B0145E050E062E8C5
S113137072E08AE090E00E944B0145E050E060EDAD
S113138071E08FE090E00E944B0184E292E00E94C1
S1131390531760937E0270937F0280938002909330
S11313A0810286E192E00E945317609312027093C7
S11313B01302809314029093150282E892E00E9433
S11313C0531760932002709321028093220290931A
S11313D0230280ED91E00E9453176093CC01709337
S11313E0CD018093CE019093CF0181E191E00E94E1
S11313F03E13D3C0E4E2F2E026E132E082E892E078
S1131400A0EDB1E0BD011192D9011D929D01DC0155
S11314101D92CD01DB011D92BD01B2E0EE32FB074E
S113142091F760917E0270917F0280918002909189
S1131430810204E111E023E042E00E9433179F930C
S11314408F93E4E2F2E0FF93EF930E947D176091A3
S1131450120270911302809114029091150223E0FC
S113146042E00E9433179F938F9346E152E05F93CB
S11314704F930E947D176091200270912102809108
S113148022029091230223E042E00E9433179F93AB
S11314908F9382E892E09F938F930E947D176091CF
S11314A0CC017091CD018091CE019091CF0123E0C8
S11314B042E00E9433179F938F93E0EDF1E0FF9396
S11314C0EF930E947D1788E58983A4E2B2E08C91B2
S11314D08A83809125028B83809126028C8380915C
S11314E027028D83809128028E8323E72F839FE236
S11314F098878DE689878A8730E23B8749E54C8760
S1131500E6E1F2E040814D87409117024E87409119
S113151018024F8740911902488B40911A02498B57
S11315202A8B9B8B8C8B8D8B3E8B4AE54F8BA2E851
S1131530B2E04C91488F40918302498F40918402DC
S11315404A8F409185024B8F409186024C8F2D8F9C
S11315509E8F8F8F88A339A335E43AA3E0EDF1E0A1
S113156030813BA33091D1013CA33091D2013DA302
S11315703091D3013EA33091D4013FA328A799A76A
S11315808AA78BA78DE08CA7CE0101960E943E13FB
S11315900FB6F894DEBF0FBECDBF10929C015EC99A
S11315A0873409F0EFC367E48EE292E00E9495026B
S11315B090936B0180936A01843091053CF48230EE
S11315C091050CF00FC199232CF4D8C34C9709F45E
S11315D092C3D4C30E94AD1168E58EE292E00E94EA
S11315E005026DA77EA78FA798AB69E58EE292E00E
S11315F00E9405026B017C016AE58EE292E00E9482
S113160005024B015C0165E48EE292E00E94050252
S11316106093BE017093BF018093C0019093C10198
S113162020E030E0A9010E94D513882309F4EFC318
S113163020E030E0A9016DA57EA58FA598A90E94A0
S1131640D513882309F4E3C320E030E0A901C701DE
S1131650B6010E94D513882309F4D9C320E030E0F1
S1131660A901C501B4010E94D5138111B9C3CFC327
S11316702092840130928501409286015092870124
S113168008C020928C0130928D0140928E015092BC
S11316908F0120E030E048E453E46DA57EA58FA5DA
S11316A098A90E94781518160CF497C020E030E031
S11316B048E453E4C701B6010E94781518160CF4E7
S11316C08CC020E030E04AEF53E4C501B4010E942D
S11316D0781518160CF481C081E080939C014DA507
S11316E05EA56FA578A98EE591E00E94F8029B01A2
S11316F0AC0160917E0270917F0280918002909192
S113170081020E94CD15A2EBB1E06D937D938D9380
S11317109C931397B701A6018AE591E00E94F80211
S11317209B01AC016091120270911302809114022A
S1131730909115020E94CD156093B6017093B70184
S11317408093B8019093B901B501A40186E591E0B5
S11317500E94F8029B01AC01609120027091210269
S113176080912202909123020E94CD156093BA01C8
S11317707093BB018093BC019093BD01809195014E
S1131780811104C0809194018823F9F0609184014F
S11317907091850180918601909187010E94511476
S11317A06B017C0160918C0170918D0180918E019F
S11317B090918F010E945114AB01BC0197018601E5
S11317C082EB91E00E943B1008C08DE291E00E9400
S11317D03E138DE00E943613D1C281E191E00E9454
S11317E03E13CCC268E58EE292E00E9405026DA72A
S11317F07EA78FA798AB69E58EE292E00E9405026E
S11318006CAB7DAB8EAB9FAB69E48EE292E00E9441
S11318100502609378017093790180937A01909323
S11318207B016AE48EE292E00E94050260937401F7
S113183070937501809376019093770166E48EE24C
S113184092E00E9405026B017C0160938801709311
S1131850890180938A0190938B0120E030E0A901F3
S11318600E94D513882341F0C0928C01D0928D013F
S1131870E0928E01F0928F0162E58EE292E00E9486
S113188005026093700170937101809372019093CB
S1131890730120E030E0A9010E94D5138111CEC26A
S11318A0C0907801D0907901E0907A01F0907B01AA
S11318B08090740190907501A0907601B0907701AA
S11318C0A5019401C501B4010E94CD154B015C0131
S11318D0A7019601C701B6010E94CD159B01AC0179
S11318E0C501B4010E9469130E94481660937001F7
S11318F07093710180937201909373019FC2B1013F
S1131900032C000C880B990B0E9489146B017C0139
S11319100E94DA132B013C018090700190907101B8
S1131920A0907201B0907301A50194010E94CD159D
S1131930A30192010E94CD152B013C01C701B60100
S11319400E943A166B017C019B01AC01C501B401F4
S11319500E94CD15A70196010E94CD156B017C0153
S1131960A30192016DA57EA58FA598A90E94D51308
S113197018165CF0A70196016CA97DA98EA99FA9F0
S11319800E94D51318160CF0F7C1809195018111AE
S113199005C080919401882309F4A1C180916A0152
S11319A090916B01029709F0AFC020E030E0A901EB
S11319B0609178017091790180917A0190917B0115
S11319C00E94D513811142C020E030E0A90160914A
S11319D074017091750180917601909177010E9454
S11319E0D513811133C0B301A2018EE591E00E94A9
S11319F0F8029B01AC0160917E0270917F0280919C
S1131A008002909181020E94CD15E2EBF1E06083A7
S1131A10718382839383B701A6018AE591E00E94D2
S1131A20F8029B01AC016091120270911302809143
S1131A301402909115020E94CD156093B601709323
S1131A40B7018093B8019093B90110C1B301A20109
S1131A508EE591E00E94F8028090780190907901DF
S1131A60A0907A01B0907B0120917E0230917F0298
S1131A7040918002509181020E94CD152B013C01BE
S1131A80C501B4019058A50194010E94DF139B0184
S1131A90AC01C301B2010E94CD15A2EBB1E06D937C
S1131AA07D938D939C931397B701A6018AE591E0EA
S1131AB00E94F802C0907401D0907501E090760104
S1131AC0F090770120911202309113024091140298
S1131AD0509115020E94CD154B015C01C701B6015E
S1131AE09058A70196010E94DF139B01AC01C50128
S1131AF0B4010E94CD156093B6017093B701809331
S1131B00B8019093B901B2C020E030E0A90160911E
S1131B1078017091790180917A0190917B010E9402
S1131B20D513811148C020E030E0A901609174010F
S1131B307091750180917601909177010E94D5137F
S1131B40811139C0B301A2018EE591E00E94F8022F
S1131B509B01AC0180917E0290917F02A091800252
S1131B60B0918102BC01CD0190580E94CD15E2EBE9
S1131B70F1E06083718382839383B701A6018AE5D0
S1131B8091E00E94F8029B01AC01809112029091B5
S1131B901302A0911402B0911502BC01CD0190581A
S1131BA00E94CD156093B6017093B7018093B8017C
S1131BB09093B9015BC0B301A2018EE591E00E944C
S1131BC0F8028090780190907901A0907A01B09009
S1131BD07B0120917E0230917F02409180025091DE
S1131BE081020E94CD152B013C01A5019401C50180
S1131BF0B4010E94DF139B01AC01C301B2010E9436
S1131C00CD15A2EBB1E06D937D938D939C931397C7
S1131C10B701A6018AE591E00E94F802C090740120
S1131C20D0907501E0907601F09077012091120236
S1131C303091130240911402509115020E94CD1567
S1131C404B015C01A7019601C701B6010E94DF1395
S1131C509B01AC01C501B4010E94CD156093B6018E
S1131C607093B7018093B8019093B9011092BA01AF
S1131C701092BB011092BC011092BD018091CC0165
S1131C809091CD01A091CE01B091CF018093BE017E
S1131C909093BF01A093C001B093C101BBA9B093BD
S1131CA09C016091840170918501809186019091DD
S1131CB087010E9451146B017C0160918C01709129
S1131CC08D0180918E0190918F010E945114AB017E
S1131CD0BC019701860189A99AA90E943B10EFEFE4
S1131CE02E1A3E0AF9E62F16F1E03F0609F007CE58
S1131CF068AC79AC43C080919601811138C068E525
S1131D008EE292E00E94E802682F70E080E090E0AA
S1131D100E948714A2EBB1E06D937D938D939C9305
S1131D20139769E58EE292E00E94E802682F70E062
S1131D3080E090E00E9487146093B6017093B7012D
S1131D408093B8019093B9016AE58EE292E00E9413
S1131D50E802682F70E080E090E00E9487146093AE
S1131D60BA017093BB018093BC019093BD0181E1E2
S1131D7091E00E943E1302C068AC79AC10929C01C1
S1131D800C942E048E3411F00C942E0481E0809374
S1131D909C01809164019091650101969093650185
S1131DA0809364016EE48EE292E00E949502909327
S1131DB06701809366016AE28EE292E00E949502D6
S1131DC090936301809362014AE260E28EE292E0C2
S1131DD00E9458028EE292E00E943E130C942E045C
S1131DE066E48EE292E00E9405021B012C016093DE
S1131DF088017093890180938A0190938B0120E07C
S1131E0030E0A9010E94D51381113BCC42CC66E499
S1131E108EE292E00E9405021B012C01609388016E
S1131E207093890180938A0190938B0120E030E0C4
S1131E30A9010E94D51381111BCC2BCC212C312C50
S1131E40552453945BAA79AE68AE59CD1F920F9274
S1131E500FB60F921124CF92DF92EF92FF920F935D
S1131E601F932F933F934F935F936F937F938F931E
S1131E709F93AF93BF93EF93FF9380919D019091B4
S1131E809E018D39910530F4019690939E018093C3
S1131E909D0109C080919F01816080939F011092F0
S1131EA09E0110929D0180919F0180FF2BC082E5CD
S1131EB00E946E019B01AC016091900170919101AF
S1131EC080919201909193010AED11E00E943412E5
S1131ED09BBD8ABD80E50E946E019B01AC016091AF
S1131EE0800170918101809182019091830106EFBC
S1131EF011E00E94341299BD88BD80919F018E7FAC
S1131F0080939F0180919C01882309F460C05F9BAA
S1131F1059C0EEE2F2E08EE792E011928E179F072D
S1131F20E1F78EE292E00E944D1382E491E00E9478
S1131F303E1380912E028D3409F049C080919C019A
S1131F40882309F444C06DE48EE292E00E94950275
S1131F50909369018093680180379105C1F5E2EBA4
S1131F60F1E0108211821282138214821582168289
S1131F701782108611861286138614861586168695
S1131F8017866091840170918501809186019091FA
S1131F9087010E9451146B017C0160918C01709146
S1131FA08D0180918E0190918F010E945114AB019B
S1131FB0BC019701860182EB91E00E943B101092D4
S1131FC09C0105C080912E028D3409F4BCCFFF9191
S1131FD0EF91BF91AF919F918F917F916F915F919D
S1131FE04F913F912F911F910F91FF90EF90DF90B0
S1131FF0CF900F900FBE0F901F9018951F920F92C5
S11320000FB60F9211242F933F934F935F936F93C7
S11320107F938F939F93AF93BF93EF93FF9341E08D
S113202066E083E30E94310340E062E083E30E94C0
S113203031038FEA94E00197F1F700C0000041E01A
S113204062E083E30E9431038FEA94E00197F1F7A1
S113205000C00000FF91EF91BF91AF919F918F91CC
S11320607F916F915F914F913F912F910F900FBE90
S11320700F901F9018952F923F924F925F926F92FC
S11320807F928F929F92AF92BF92CF92DF92EF9204
S1132090FF920F931F93CF93DF93CDB7DEB7CC5945
S11320A0D1090FB6F894DEBF0FBECDBF6C014A0153
S11320B05B01C756DF4F088319832A833B83C959C1
S11320C0D040412C512C32014394C301B201A501EB
S11320D094010E94D816ACE3B0E00E94F7160E9467
S11320E0891420E034E244E759E40E94CD150E94AB
S11320F051144B015C01C301B201C756DF4F288163
S113210039814A815B81C959D0400E94D816ACE319
S1132110B0E00E94F7160E94891420E034E244E7FC
S113212059E40E94CD150E9451142B013C0188E012
S1132130E1E8F0E0DE01119601900D928A95E1F755
S113214076018E010F5F1F4F1E0129E0220E311C04
S113215020E030E0A901F7016081718182819381DF
S11321600E94D51388238CF441E0F801608183E355
S11321700E943103F70180819181A281B381B0581B
S113218080839183A283B38306C040E0F801608119
S113219083E30E943103F4E0EF0EF11C0E5F1F4F46
S11321A020163106A9F688E8E9E8F0E0DE01519648
S11321B001900D928A95E1F781E090E09A878987F2
S11321C09C878B879E878D87988B8F8700E010E094
S11321D00F2EF2E22F2EF02D0F2EF1E13F2EF02DD7
S11321E0209EF001219EF00D112421E030E02C0FFF
S11321F03D1FE20FF31F608983E30E945D037801B2
S1132200EE0CFF1CEE0CFF1CEC0CFD1C20E030E07F
S113221040E85FE3F70160817181828193810E94CC
S11322206813F701608371838283938320E030E035
S1132230A9010E94D51318165CF0F801EE0FFF1FD8
S113224021E030E02C0F3D1FE20FF31F11861086B2
S11322500330110559F4C201181619068CF435E03F
S11322603A95F1F700000197D1F70AC0C401181696
S1132270190634F4E5E0EA95F1F700000197D1F787
S11322808F8598899C01220F331F220F331F220F41
S1132290331F8D859E85880F991F880F991F820F84
S11322A0931F2B853C85220F331F820F931F298593
S11322B03A85820F931F309EF001319EF00D112458
S11322C0E80FF91F3196EE0FFF1F21E030E02C0FCD
S11322D03D1FE20FF31F00891189892B09F080CF7C
S11322E0C456DF4F0FB6F894DEBF0FBECDBFDF91EB
S11322F0CF911F910F91FF90EF90DF90CF90BF90FF
S1132300AF909F908F907F906F905F904F903F9091
S11323102F900895883549F018F48534C1F0089554
S1132320893549F08A3569F00895462F64E086E3DB
S11323300E9431030895462F65E086E30E9431032D
S11323400895462F66E086E30E9431030895462FE0
S113235067E086E30E943103089560E083E30E940E
S11323604E0360E083E30E94590340E064E086E3A7
S11323700E94140340E065E086E30E94140340E0F9
S113238066E086E30E94140340E067E086E30E946F
S1132390140360E088E50E948A1160E089E50E94E8
S11323A08A1160E08AE50E948A1160E085E40E9457
S11323B08A1108958F929F92AF92BF92CF92DF922B
S11323C0EF92FF920F931F93CF93DF9349015A012A
S11323D0E6016C837D838E839F83288739874A87B0
S11323E05B87EC86FD860E871F8720E030E040E89F
S11323F05FE30E9469139B01AC0160E07EEF8FEF05
S113240096E40E94DF136C8B7D8B8E8B9F8B20E078
S113241030E040E85FE3C501B4010E9469139B0109
S1132420AC010E9469139B01AC0160E070E080E0A4
S11324309FE40E94DF13688F798F8A8F9B8F1882A5
S113244019821A821B82188A198A1A8A1B8ADF91B6
S1132450CF911F910F91FF90EF90DF90CF90BF909D
S1132460AF909F908F9008954F925F926F927F925A
S11324708F929F92AF92BF92CF92DF92EF92FF9290
S11324800F931F93CF93DF93CDB7DEB72A970FB681
S1132490F894DEBF0FBECDBF1A8709870E94681368
S11324A069837A838B839C83F801C484D584E6840E
S11324B0F78420893189428953890E9469134B0129
S11324C05C01F801608B718B828B938B208131814D
S11324D04281538169817A818B819C810E94681336
S11324E0A70196010E94CD156D837E838F83988703
S11324F0F8014488558866887788A3019201698128
S11325007A818B819C810E9478151816B4F0A301FE
S11325109201505869817A818B819C810E94D513E4
S11325208823ACF0A701960169817A818B819C8113
S11325300E94CD152B013C0113C00F2E412CFEEF40
S11325405F2E66246A94F6E47F2EF02D09C00F2EC8
S1132550412CFEEF5F2E66246A94F6EC7F2EF02D5C
S1132560E985FA85C08CD18CE28CF38CA7019601A5
S1132570C501B4010E94781518165CF4E985FA8542
S1132580C08AD18AE28AF38A20E030E040E85EE43F
S113259023C0F7FAF094F7F8F094A7019601C50167
S11325A0B4010E94D51388236CF0E985FA8520854F
S11325B0318542855385C501B4010E94CD159B0127
S11325C0AC010AC0E985FA85C08AD18AE28AF38A15
S11325D020E030E040E85EECC301B2010E946913E0
S11325E02D813E814F8158850E94691320E030E09F
S11325F048EF52E40E94DF130E945114772314F42D
S113260060E070E08B016F3F710519F014F00FEF7B
S113261010E0B801012E000C880B990B0E9489145C
S1132620E985FA856083718382839383C8012A963E
S11326300FB6F894DEBF0FBECDBFDF91CF911F91CF
S11326400F91FF90EF90DF90CF90BF90AF909F904D
S11326508F907F906F905F904F90089583E089B939
S113266010BC88E18AB986E880BD08955D9BFECFE1
S11326708CB908955F9BFECF8CB10895CF93DF93FF
S1132680EC018881882331F021960E9436138991C8
S11326908111FBCFDF91CF9108950F931F93CF93B7
S11326A08C01C0E00E943A138A3011F08D3031F46D
S11326B0F801EC0FF11D80E2808306C0F801EC0FF5
S11326C0F11D8083CF5FEECFCF911F910F910895BD
S11326D05058BB27AA270E9480130C942A150E94E5
S11326E0F11438F00E94F81420F039F49F3F19F4E3
S11326F026F40C94EE140EF4E095E7FB0C94E81425
S1132700E92F0E944F1558F3BA176207730784071D
S1132710950720F079F4A6F50C9471150EF4E09564
S11327200B2EBA2FA02D0B01B90190010C01CA0187
S1132730A0011124FF27591B99F0593F50F4503E32
S113274068F11A16F040A22F232F342F4427585F24
S1132750F3CF469537952795A795F0405395C9F73C
S11327607EF41F16BA0B620B730B840BBAF09150F4
S1132770A1F0FF0FBB1F661F771F881FC2F70EC093
S1132780BA0F621F731F841F48F487957795679566
S1132790B795F7959E3F08F0B0CF9395880F08F052
S11327A09927EE0F9795879508950E94C41408F40D
S11327B081E008950E940115E3950C943B150E9455
S11327C0F3130C942A150E94F81458F00E94F11483
S11327D040F029F45F3F29F00C94E81451110C9453
S11327E072150C94EE140E944F1568F39923B1F3FB
S11327F0552391F3951B550BBB27AA276217730723
S1132800840738F09F5F5F4F220F331F441FAA1FB6
S1132810A9F335D00E2E3AF0E0E832D09150504072
S1132820E695001CCAF72BD0FE2F29D0660F771F20
S1132830881FBB1F261737074807AB07B0E809F006
S1132840BB0B802DBF01FF2793585F4F3AF09E3F8B
S1132850510578F00C94E8140C9472155F3FE4F37E
S1132860983ED4F3869577956795B795F7959F5FCE
S1132870C9F7880F911D9695879597F90895E1E01A
S1132880660F771F881FBB1F621773078407BA0779
S113289020F0621B730B840BBA0BEE1F88F7E095D4
S11328A008950E9458146894B1110C9472150895F7
S11328B00E94571588F09F5798F0B92F9927B75160
S11328C0B0F0E1F0660F771F881F991F1AF0BA95D0
S11328D0C9F714C0B13091F00E947115B1E00895A8
S11328E00C947115672F782F8827B85F39F0B93F9A
S11328F0CCF3869577956795B395D9F73EF4909583
S11329008095709561957F4F8F4F9F4F0895E89400
S113291009C097FB3EF490958095709561957F4F23
S11329208F4F9F4F9923A9F0F92F96E9BB279395D1
S1132930F695879577956795B795F111F8CFFAF4E1
S1132940BB0F11F460FF1BC06F5F7F4F8F4F9F4F12
S113295016C0882311F096E911C0772321F09EE870
S1132960872F762F05C0662371F096E8862F70E0D6
S113297060E02AF09A95660F771F881FDAF7880FB0
S11329809695879597F90895990F0008550FAA0B06
S1132990E0E8FEEF16161706E807F907C0F012166E
S11329A01306E407F50798F0621B730B840B950B71
S11329B039F40A2661F0232B242B252B21F40895C6
S11329C00A2609F4A140A6958FEF811D811D089563
S11329D097F99F6780E870E060E008959FEF80ECCE
S11329E0089500240A941616170618060906089571
S11329F000240A94121613061406050608950C946E
S1132A00EE140E945715D8F3E894E0E0BB279F57D3
S1132A10F0F02AED3FE049EC06C0EE0FBB0F661F55
S1132A20771F881F28F0B23A62077307840728F0DB
S1132A30B25A620B730B840BE3959A9572F7803844
S1132A4030F49A95BB0F661F771F881FD2F7904802
S1132A500C948A16092E0394000C11F4882352F066
S1132A60BB0F40F4BF2B11F460FF04C06F5F7F4FB6
S1132A708F4F9F4F0895EF93E0FF07C0A2EA2AED1E
S1132A803FE049EC5FEB0E9480130E942A150F90EF
S1132A90039401FC9058E4E5F0E00C94C41657FD4F
S1132AA09058440F551F59F05F3F71F04795880FB8
S1132AB097FB991F61F09F3F79F08795089512164F
S1132AC013061406551FF2CF4695F1DF08C01616FB
S1132AD017061806991FF1CF8695710561050894AC
S1132AE00895E894BB2766277727CB0197F90895C3
S1132AF00E94C41408F48FEF089516F00C948816FD
S1132B000C94EE1468940C94E8140E945715A8F3DE
S1132B109923C1F3AEF3DF93CF931F930F93FF92E7
S1132B20C92FDD2788232AF02197660F771F881F76
S1132B30DAF720E030E040E85FEB9FE3883920F0EB
S1132B40803E38F021968F770E946913E2E7F0E027
S1132B5004C00E946913EFE9F0E00E949D168B0106
S1132B60BE01EC01FB2E6F5771097595771F880B19
S1132B70990B0E94891428E132E741E35FE30E9444
S1132B80E015AF2D9801AE01FF900F911F91CF91E9
S1132B90DF910E9480130C942A150E94E0150C9476
S1132BA02A150E94F11438F00E94F81420F095239D
S1132BB011F00C94E8140C94EE1411240C94721576
S1132BC00E944F1570F3959FC1F3950F50E0551F68
S1132BD0629FF001729FBB27F00DB11D639FAA276E
S1132BE0F00DB11DAA1F649F6627B00DA11D661FBD
S1132BF0829F2227B00DA11D621F739FB00DA11DDE
S1132C00621F839FA00D611D221F749F3327A00D97
S1132C10611D231F849F600D211D822F762F6A2F33
S1132C2011249F5750409AF0F1F088234AF0EE0F98
S1132C30FF1FBB1F661F771F881F91505040A9F7C5
S1132C409E3F510580F00C94E8140C9472155F3F7C
S1132C50E4F3983ED4F3869577956795B795F79501
S1132C60E7959F5FC1F7FE2B880F911D9695879579
S1132C7097F908959F930E9401150F9007FCEE5F4A
S1132C800C943B1519F416F40C94EE140C94881659
S1132C900E945715B8F39923C9F3B6F39F57550B00
S1132CA087FF0E9496160024A0E640EA900180580F
S1132CB05695979528F4805C660F771F881F20F03F
S1132CC026173707480730F4621B730B840B20293F
S1132CD031294A2BA69517940794202531254A2794
S1132CE058F7660F771F881F20F026173707480705
S1132CF030F4620B730B840B200D311D411DA09524
S1132D0081F7B901842F9158880F96958795089576
S1132D109F3F31F0915020F4879577956795B7954B
S1132D20880F911D9695879597F908959150504075
S1132D30660F771F881FD2F70895DF93CF931F93F1
S1132D400F93FF92EF92DF927B018C01689406C08F
S1132D50DA2EEF010E94E015FE01E894A591259179
S1132D60359145915591A6F3EF010E948013FE0120
S1132D709701A801DA9469F7DF90EF90FF900F9123
S1132D801F91CF91DF9108959F938F937F936F93BA
S1132D90FF93EF939B01AC010E94CD15EF91FF913E
S1132DA00E949D162F913F914F915F910C94CD15E8
S1132DB0052E97FB1EF400940E94EF1657FD07D0D2
S1132DC00E94021707FC03D04EF40C94EF165095A2
S1132DD04095309521953F4F4F4F5F4F0895909503
S1132DE08095709561957F4F8F4F9F4F08950E94F6
S1132DF02417A59F900DB49F900DA49F800D911D45
S1132E0011240895A1E21A2EAA1BBB1BFD010DC0BB
S1132E10AA1FBB1FEE1FFF1FA217B307E407F50786
S1132E2020F0A21BB30BE40BF50B661F771F881F62
S1132E30991F1A9469F760957095809590959B01F8
S1132E40AC01BD01CF010895A29FB001B39FC001A1
S1132E50A39F700D811D1124911DB29F700D811DC2
S1132E601124911D0895EF920F931F93CF93DF9335
S1132E70E80147FD02C034E001C034E1042E000C37
S1132E80550B57FF03C0519541955109E32E022F6D
S1132E90242FAE010E948019CE01DF91CF911F91A2
S1132EA00F91EF900895662777270C94DA1AFC01A6
S1132EB088279927E89421912032E9F3293010F0EA
S1132EC02E30C8F32B3241F02D3239F4689404C00B
S1132ED00E947517820F911D219120532A30C0F34F
S1132EE01EF4909581959F4F08957AE0979F902DB9
S1132EF0879F802D910D11240895AEE0B0E0E3E8A2
S1132F00F7E10C94E21D0D891E8986E08C831A83F7
S1132F1009838FEF9FE79E838D83AE01475E5F4FEA
S1132F206F89788DCE0101960E949F17EF81F885F5
S1132F30E00FF11F10822E96E4E00C94FE1DABE02E
S1132F40B0E0E5EAF7E10C94D41D6C017B018A0141
S1132F50FC0117821682838181FFCCC1CE010196C8
S1132F603C01F6019381F70193FD859193FF8191D3
S1132F707F01882309F4BAC1853239F493FD859120
S1132F8093FF81917F01853229F4B60190E00E947C
S1132F90371DE7CF912C212C312CFFE1F315D8F00C
S1132FA08B3279F038F4803279F08332A1F4232D16
S1132FB020611DC08D3261F0803369F4232D2160BE
S1132FC016C0832D8260382EE32DE4603E2E2AC085
S1132FD0F32DF8601DC037FC2DC020ED280F2A30DA
S1132FE040F08E32B9F436FC81C1232D2064322E98
S1132FF019C036FE06C08AE0989E200D1124922E38
S113300011C0EAE02E9E200D1124222EF32DF06231
S11330103F2E08C08C3621F4832D8068382E02C0E0
S1133020883641F4F70193FD859193FF81917F01E7
S11330308111B3CF982F9F7D9554933028F40C5F62
S11330401F4F9FE399830DC0833631F0833771F0AE
S1133050833509F059C021C0F801808189830E5F4E
S11330601F4F88248394912C530113C02801F2E04C
S11330704F0E511CF801A080B18036FE03C0692DAB
S113308070E002C06FEF7FEFC5010E942C1D4C0160
S11330908201F32DFF773F2E16C0280122E0420E55
S11330A0511CF801A080B18036FE03C0692D70E088
S11330B002C06FEF7FEFC5010E94211D4C01F32D6B
S11330C0F0683F2E820133FC1BC0822D90E08816ED
S11330D09906B0F4B60180E290E00E94371D2A946C
S11330E0F4CFF50137FC859137FE81915F01B6017C
S11330F090E00E94371D21102A9421E0821A910841
S11331008114910471F7E8C0843611F0893641F5D1
S1133110F80137FE07C060817181828193810C5F61
S11331201F4F08C060817181072E000C880B990B1A
S11331300E5F1F4FF32DFF763F2E97FF09C090952A
S11331408095709561957F4F8F4F9F4FF0683F2E0C
S11331502AE030E0A3010E94731D882E861845C022
S1133160853731F4232D2F7EB22E2AE030E025C09E
S1133170932D997FB92E8F36C1F018F4883579F0E4
S1133180B5C0803719F0883721F0B0C0E92FE0616D
S1133190BE2EB4FE0DC0FB2DF460BF2E09C034FE5C
S11331A00AC0292F2660B22E06C028E030E005C0F0
S11331B020E130E002C020E132E0F801B7FE07C0B0
S11331C060817181828193810C5F1F4F06C0608191
S11331D0718180E090E00E5F1F4FA3010E94731D78
S11331E0882E8618FB2DFF773F2E36FE0DC0232D2B
S11331F02E7FA22E891458F434FE0BC032FC09C071
S1133200832D8E7EA82E05C0B82CA32C03C0B82C09
S113321001C0B92CA4FE0FC0FE01E80DF11D808190
S1133220803321F49A2D997EA92E09C0A2FE06C0EE
S1133230B394B39404C08A2D867809F0B394A3FCA4
S113324011C0A0FE06C0B21488F4280C922C9B185E
S11332500EC0B21460F4B60180E290E00E94371D03
S1133260B394F7CFB21418F42B1802C0982C212C65
S1133270A4FE10C0B60180E390E00E94371DA2FEB8
S113328017C0A1FC03C088E790E002C088E590E085
S1133290B6010CC08A2D867859F0A1FE02C08BE2DB
S11332A001C080E2A7FC8DE2B60190E00E94371DC8
S11332B0891438F4B60180E390E00E94371D9A9493
S11332C0F7CF8A94F301E80DF11D8081B60190E0F7
S11332D00E94371D8110F5CF222009F442CEB60199
S11332E080E290E00E94371D2A94F6CFF601868191
S11332F0978102C08FEF9FEF2B96E2E10C94F01DB3
S1133300A9E0B0E0E6E8F9E10C94DA1D6A01122FB5
S1133310B02E2BE3201720F0FF24F394F00E02C00C
S11333202CE3F22E0F2D27E0AE014F5F5F4F0E947A
S1133330281CBC014981842F8970813031F0E1FC63
S113334006C0E0FE06C090E205C09DE203C09BE219
S113335001C090E05E2D507143FF3CC0911102C04A
S113336083E001C084E0811718F4212F281B01C0D9
S113337020E051110BC0F601822F30E2882319F0AE
S113338031938150FBCFC20ED11C20E0992329F048
S1133390D6019C93F60131966F01C6010396E2FEB5
S11333A00AC03EE4D6013C9341E411964C93119734
S11333B012963C9306C03EE6F601308341E6418313
S11333C03283FC01322F40E2332309F442C041939B
S11333D03150FACF42FF44C0911102C083E001C0D2
S11333E084E0811718F4212F281B01C020E051111B
S11333F00BC0F601822F30E2882319F031938150FB
S1133400FBCFC20ED11C20E0992329F0D6019C9356
S1133410F60131966F01C6010396E2FE0BC039E452
S1133420D6013C933EE411963C93119736E41296F0
S11334303C9307C039E6F60130833EE6318336E635
S11334403283FC01322F40E2332319F0419331508F
S1133450FBCFFC01E20FF11D10828EEF9FEFA6C09F
S113346021E030E0911102C020E030E0161617068A
S11334701CF4FB01319602C0E1E0F0E02E0F3F1F87
S1133480BB2021F0EB2DF0E0319602C0E0E0F0E04B
S11334902E0F3F1FE12FF0E02E173F071CF4121BE5
S11334A0212F01C020E08E2D887159F4F601822F5E
S11334B030E2882319F031938150FBCFC20ED11C26
S11334C020E0992329F0D6019C93F60131966F01EF
S11334D051110BC0F601822F90E3882319F09193C8
S11334E08150FBCFC20ED11C20E00F2D060F9A8114
S11334F0342F307144FF03C0913309F40150101686
S113350024F4093018F008E001C001E0AB0177FFB2
S113351002C040E050E0FB01E41BF50BA1E0B0E089
S1133520AC0FBD1FEA0FFB1F8EE2A82E4B01801AC1
S113353091080B2D10E01195019511094F3FBFEF34
S11335405B0721F4D601AC9211966D0164177507DF
S11335502CF08416950614F4818101C080E3415057
S113356051093196D60111967D014017510724F077
S1133570D6018C936701E2CF6417750739F496334B
S113358020F4953319F4311101C081E3F6018083ED
S1133590F701822F90E2882319F091938150FBCF99
S11335A0F701E20FF11D108280E090E02996ECE033
S11335B00C94F61DA0E0B0E0E0EEFAE10C94DA1D04
S11335C0EC016B016115710519F0FB019183808396
S11335D07E01FFEFEF1AFF0A0881802F90E00E941E
S11335E0001D892B11F0E701F3CF0D3239F47E0170
S11335F082E0E80EF11C098111E008C00B3229F4C5
S11336007E0192E0E90EF11C098110E0E7012197A7
S113361043E050E064ED70E0CE010E94091D892B67
S1133620C1F4239645E050E06FEC70E0CE010E94B7
S1133630091D892B09F42596C114D10419F0F6014A
S1133640D183C0831111F6C060E070E080E89FE789
S1133650FAC043E050E06CEC70E0CE010E94091D1A
S1133660892B59F4C114D10409F4E9C0F2E0EF0E36
S1133670F11CF601F182E082E2C020E030E0A90111
S1133680C0E0D0E0F70180EDA82EA00E89E08A15F5
S113369030F1912F9260B92E812F887012FF04C0EF
S11336A0811124C0219622C081112197A5E0B0E0A8
S11336B00E94F716DC01CB01880F991FAA1FBB1FBC
S11336C09C01AD012A0D311D411D511D283989E987
S11336D03807480789E1580748F0166006C09EEF8E
S11336E0A9120AC013FD40C01860B12E8FEFE81A6A
S11336F0F80A00811B2DC6CF802F8F7D8534A1F55C
S113370080818D3211F4106106C08B3221F0319624
S113371061E070E004C08181329662E070E0805321
S11337208A3018F0E61BF70B1FC060E070E06038C9
S11337309CE079075CF4DB01AA0FBB1FAA0FBB1F37
S11337406A0F7B1F660F771F680F711D3196DF01AB
S113375011978C9180538A3050F314FF03C07195F4
S113376061957109C60FD71F11FF08C0C114D10498
S113377029F0CF010197F60191838083CA01B90131
S11337800E948714212F2370233019F04B015C0110
S113379006C04B015C01B7FAB094B7F8B09420E0CE
S11337A030E0A901C501B4010E94D513882309F4AE
S11337B03EC0D7FF06C0D195C195D1090BEE10E0EC
S11337C002C003E011E06801F8E1CF1AD10890E2E9
S11337D0E92EF12CCE15DF0574F0F8012591359111
S11337E045915491C501B4010E94CD154B015C0172
S11337F0CE19DF09EFCF04501109F594E7940C15A5
S11338001D0541F78A2D880F8B2D881F8F3F49F0A6
S113381020E030E0A901C501B4010E94D513811153
S113382006C082E290E09093970280939602C501CD
S1133830B40109C060E070E080E89FEF04C060E07C
S113384070E080EC9FE7CDB7DEB7ECE00C94F61D9A
S1133850283008F027E03327DA01990F311D87FD5E
S1133860916000966105710539F432602E5F3D93D5
S113387030E32A95E1F708959F3F30F080387105D1
S1133880610509F03C5F3C5F3D93913008F080682E
S1133890911DDF93CF931F930F93FF92EF92192FF4
S11338A0987F9695E92F96959695E90FFF27EF59FE
S11338B0FE4F99273327EE24FF24A701E701059043
S11338C00894079428F4360FE71EF81E491F511D6B
S11338D0660F771F881F991F0694A1F70590079418
S11338E028F4E70EF81E491F561FC11D770F881FC5
S11338F0991F661F0694A1F70590079428F4F80E03
S1133900491F561FC71FD11D880F991F661F771F98
S11339100694A1F70590079420F4490F561FC71F7A
S1133920D81F990F661F771F881F0694A9F78491E3
S11339301095177041F0D695C79557954795F7940C
S1133940E7941A95C1F7E7E0F1E0689415901591B2
S113395035916591959105907FE27395E118F10A8F
S1133960430B560BC90BD009C0F7E10CF11E431FE2
S1133970561FC91FD01D7EF4703311F48A95E6CF0B
S1133980E894015030F0080F0AF40027021708F4F5
S1133990202F2395022F7A3328F079E37D932A95FB
S11339A0E9F710C07D932A9589F606949795679553
S11339B0379517951794E118F10A430B560BC90B69
S11339C0D00998F023957E9173957A3308F070E3CB
S11339D07C932013B8F77E9170617D9330F08395CA
S11339E071E37D9370E32A95E1F71124EF90FF9042
S11339F00F911F91CF91DF91992787FD909508959D
S1133A0091110C94D11D803219F089508550C8F75A
S1133A100895FB01DC014150504088F08D918134C0
S1133A201CF08B350CF4805E659161341CF06B35B1
S1133A300CF4605E861B611171F3990B0895881B69
S1133A40FCCFFC010590615070400110D8F78095BF
S1133A5090958E0F9F1F0895FC0161507040019056
S1133A600110D8F7809590958E0F9F1F08950F939E
S1133A701F93CF93DF93FB01238121FD03C08FEFBD
S1133A809FEF2CC022FF16C04681578124813581C7
S1133A904217530744F4A081B1819D012F5F3F4F2A
S1133AA0318320838C93268137812F5F3F4F378367
S1133AB0268314C08B01EC01FB010084F185E02D09
S1133AC00995892BE1F6D80116968D919C9117974B
S1133AD0019617969C938E931697CE01DF91CF9102
S1133AE01F910F910895FA01AA27283051F120312E
S1133AF081F1E8946F936E7F6E5F7F4F8F4F9F4F7E
S1133B00AF4FB1E03ED0B4E03CD0670F781F891FBF
S1133B109A1FA11D680F791F8A1F911DA11D6A0F8D
S1133B20711D811D911DA11D20D009F468943F9140
S1133B302AE0269F11243019305D3193DEF6CF013F
S1133B400895462F4770405D4193B3E00FD0C9F705
S1133B50F6CF462F4F70405D4A3318F0495D31FD72
S1133B604052419302D0A9F7EACFB4E0A6959795C5
S1133B70879577956795BA95C9F70097610571059B
S1133B8008959B01AC010A2E0694579547953795E5
S1133B902795BA95C9F7620F731F841F951FA01D3F
S1133BA008959927882708952F923F924F925F9204
S1133BB06F927F928F929F92AF92BF92CF92DF9239
S1133BC0EF92FF920F931F93CF93DF93CDB7DEB79E
S1133BD0CA1BDB0B0FB6F894DEBF0FBECDBF099432
S1133BE02A88398848885F846E847D848C849B8489
S1133BF0AA84B984C884DF80EE80FD800C811B8197
S1133C00AA81B981CE0FD11D0FB6F894DEBF0FBEC5
S10D3C10CDBFED010895F894FFCF35
S1133C1A6CCF5834D6647939CB48843A00401C4670
S1133C2A00000C430000C8420000C8420000C84219
S1133C3A010400050006000700000003000000015B
S1133C4A000100020000000100010003000000015D
S1133C5A000100020000000100010001000300004D
S1133C6A000100000002000000010000000300003F
S1133C7A000100000002000000010000000200032D
S1133C8A000000010000000200000001000000031F
S1133C9A000000010000000200000001000000030F
S1133CAA00030000000100000002000000010000FF
S1133CBA00030000000100000002000000010000EF
S1133CCA006F6B0025660077656C636F6D652077FE
S1133CDA65206172652050524953434100657272EE
S1133CEA6F722065787472756465722074656D707C
S1133CFA2E00746865207072696E74657220697327
S1093D0A206275737900CC
S9030000FC
