S01700005052495343415F6672696D776172652E737265638F
S11300000C9401010C941E010C941E010C941E010D
S11300100C942A100C941E010C941E010C941E01C5
S11300200C94F20F0C94C30E0C941E010C941E013C
S11300300C941E010C941E010C941E010C941E01C0
S11300400C941E010C941E010C941E010C941E01B0
S11300500C941E0105A84CCDB2D44EB93836A90271
S11300600C50B9918688083CA6AAAA2ABE000000B2
S1130070803F08000000BE922449123EABAAAA2A7F
S1130080BECDCCCC4C3E00000080BEABAAAAAA3E9A
S113009000000000BF000000803F000000000008D6
S11300A04178D3BB4387D1133D190E3CC3BD428273
S11300B0AD2B3E68EC8276BED98FE1A93E4C80EF31
S11300C0FFBE01C4FF7F3F00000000004E414E49C7
S11300D04E495459494E46CDCCCC3D0AD7233C1702
S11300E0B7D13877CC2B329595E6241FB14F0A004F
S11300F00020410000C84200401C4620BCBE4CCA3F
S11301001B0E5AAEC59D7400407A10F35A00A072BB
S11301104E18090010A5D4E80000E876481700003E
S1130120E40B54020000CA9A3B000000E1F505000C
S11301300080969800000040420F000000A0860155
S1130140000000102700000000E803000000006425
S113015000000000000A0000000000010000000090
S1130160002C76D888DC674F0823DFC1DFAE59E165
S1130170B1B796E5E3E453C63AE651997696E8E6D4
S1130180C28426EB898C9B62ED407C6FFCEFBC9CA7
S11301909F40F2BAA56FA5F490055A2AF75C936BB9
S11301A06CF9676DC11BFCE0E40D47FEF520E6B574
S11301B000D0ED902E0300943577050080841E084E
S11301C00000204E0A000000C80C333333330F986C
S11301D06E12831141EF8D2114893BE65516CFFE33
S11301E0E6DB18D1844B381BF77C1D901DA4BBE4BF
S11301F024203284725E228100C9F124ECA1E53D01
S1130200270011241FBECFE5D4E0DEBFCDBF10E030
S1130210A0E6B0E0EAEFFBE302C005900D92AE3E2B
S1130220B107D9F722E0AEEEB0E001C01D92AE34C2
S1130230B207E1F70E942F030C94FB1D0C940000FD
S1130240E199FECF9FBB8EBB6DBBE29AE19A089504
S1130250EF92FF920F931F93CF93DF938C017B0157
S1130260EA01209751F0F70161917F01C8010E94D2
S113027020010F5F1F4F2197B1F7DF91CF911F919D
S11302800F91FF90EF900895E199FECF9FBB8EBB35
S1130290E09A8DB30895EF92FF920F931F93CF933B
S11302A0DF938C017B01EA01209751F0C8010E9481
S11302B04401F70181937F010F5F1F4F2197B1F72D
S11302C0DF91CF911F910F91FF90EF9008950F93BD
S11302D01F93CF93DF93CDB7DEB72A970FB6F89469
S11302E0DEBF0FBECDBFAC01FE013196CE010B9631
S11302F01192E817F907E1F700E010E020E030E0A0
S1130300FA01E20FF31F9081961317C0F901E00F71
S1130310F11FE40FF51F8181A1E0B0E0AC0FBD1F18
S1130320A00FB11F8C938281803261F08A3051F02A
S11303308D3041F00F5F1F4FE3CF9D3019F02F5FD9
S11303403F4FDECFCE0101960E9443172A960FB687
S1130350F894DEBF0FBECDBFDF91CF911F910F91F7
S113036008950F931F93CF93DF93CDB7DEB72A97EA
S11303700FB6F894DEBF0FBECDBFAC01FE013196BF
S1130380CE010B961192E817F907E1F700E010E0AF
S113039020E030E0FA01E20FF31F9081961317C0BA
S11303A0F901E00FF11FE40FF51F8181A1E0B0E036
S11303B0AC0FBD1FA00FB11F8C938281803261F0FE
S11303C08A3051F08D3041F00F5F1F4FE3CF9D30E5
S11303D019F02F5F3F4FDECFCE0101960E944717E1
S11303E02A960FB6F894DEBF0FBECDBFDF91CF9132
S11303F01F910F910895FC012081621759F02D304F
S113040059F0319602C09D3049F091919613FBCF7B
S113041081E0089581E0089580E0089580E00895E2
S1130420CF92DF92EF92FF92CF93DF93EC016A01B8
S11304307B01288139814A815B81C701B6010E9411
S11304402813C882D982EA82FB82DF91CF91FF9080
S1130450EF90DF90CF90089541110DC0E82FF0E0A8
S1130460228181E090E002C0880F991F6A95E2F72B
S1130470822B82830895E82FF0E0228181E090E0CE
S113048002C0880F991F6A95E2F7809582238283C0
S11304900895611105C0E82FF0E08FEF818308957E
S11304A0E82FF0E011820895E82FF0E062830895C8
S11304B0E82FF0E0828121E030E002C0220F331FF8
S11304C06A95E2F728272283089581B3806B81BB64
S11304D08FEF84BB87E886B93E9A0E94EE120E9491
S11304E0FF1121ED31E040EA50E06CE370E084EB71
S11304F090E00E94181212BE83B7856083BF83B751
S1130500896683BF8FB5816A8FBD8EB581608EBDCC
S113051085B5896685BDBB9A89B7856089BF78949E
S1130520089587B9369A86B1349A84B195B10895FD
S11305308F929F92AF92BF92CF92DF92EF92FF92EF
S11305400E9491029093480180934701BC01990F46
S1130550880B990B0E9449149B01AC0160E070EC7C
S11305608FE794E40E949F1320E030E040E85FE3CB
S11305700E94281320917C0030917D0040917E00E0
S113058050917F000E948D156093BB017093BC0154
S11305908093BD019093BE010E9445156B017C01BF
S11305A060934602709347028093480290934902F5
S11305B0209174003091750040917600509177003D
S11305C00E948D15209178003091790040917A0035
S11305D050917B000E9429134B015C012091700013
S11305E0309171004091720050917300C701B601BF
S11305F00E948D15A70196010E948D15A7019601F1
S11306000E948D159B01AC01C501B4010E94291300
S11306109B01AC0160E070E080E89FE30E949F13BF
S11306206093290170932A0180932B0190932C01EC
S113063023E333E948E853E40E9428136093490113
S113064070934A0180934B0190934C01FF90EF907B
S1130650DF90CF90BF90AF909F908F900895CF93ED
S1130660DF93CDB7DEB7E3970FB6F894DEBF0FBEC6
S1130670CDBF0E94650245E050E069E571E080E08D
S113068090E00E944B0145E050E061E371E085E0B9
S113069090E00E944B0145E050E063EC71E08AE099
S11306A090E00E944B0145E050E06BE171E08FE087
S11306B090E00E944B0189E591E00E94431760930A
S11306C0BF017093C0018093C1019093C20181E383
S11306D091E00E94431760932D0170932E01809343
S11306E02F019093300183EC91E00E9443176093B3
S11306F055017093560180935701909358018BE1F3
S113070091E00E9443176093130170931401809346
S11307101501909316010F2EFBEB6F2EF1E07F2E47
S1130720F02D9E012F5F3F4F3BA32AA33AA139AB83
S11307304BA14CA78091450281110AC0EBE6F1E080
S113074011926E167F06E1F78BE691E00E940D137D
S113075080916B018D3409F056C66DE48BE691E00F
S11307600E94B1018B36910509F430C374F58335C9
S1130770910509F43CC194F48131910509F4A1C0B7
S113078024F4029708F458C0D5CF8231910509F4B6
S11307909FC08235910509F41DC1CCCF88369105DF
S11307A009F469C24CF48435910509F491C08C357F
S11307B0910509F451C1BECF8936910509F46DC282
S11307C08A36910509F4F5C2B5CF8E3C910509F43A
S11307D0D0C4BCF48237910509F4FAC34CF48D36C5
S11307E0910509F4F9C28037910509F444C3A2CFF5
S11307F08C38910509F482C48E3B910509F493C4A5
S113080099CF853F51E0950709F4EBC45CF48E322F
S1130810A1E09A0709F4CDC4843FB1E09B0709F431
S11308201BC188CF863FE1E09E0709F415C1873FCD
S1130830914009F42BC57ECF109217011092180134
S11308401092190110921A0110926301109264011E
S113085010926501109266011092430110924401B6
S11308601092450110924601109225011092260122
S11308701092270110922801109241021092420214
S113088010924302109244021092E3011092E40188
S11308901092E5011092E6011092FC001092FD0006
S11308A01092FE001092FF0010924D0110924E0122
S11308B010924F01109250018EEB90E00E94FE12B4
S11308C039CF0E94FF118EEB90E00E94FE1232CFCE
S11308D063E58BE691E00E94B1019C0148EE53E090
S11308E0249FC001259F900D349F900D1124092E43
S11308F0000CAA0BBB0B8093510190935201A0935F
S11309005301B093540151E05093450268E58BE6DE
S113091091E00E94FB018093060169E58BE691E07A
S11309200E94FB01809305016AE58BE691E00E9439
S1130930FB018093040165E48BE691E00E94FB01D6
S1130940809303016091060188E50E94DC116091A7
S1130950050189E50E94DC11609105018AE50E9488
S1130960DC116091030185E40E94DC118091510146
S113097090915201A0915301B09154010097A105A7
S1130980B10509F1F4F08FE99FE00197F1F700C098
S113099000008091510190915201A0915301B091B6
S11309A054010197A109B109809351019093520117
S11309B0A0935301B0935401181619061A061B0686
S11309C014F30E94FF11109245028EEB90E00E94F6
S11309D0FE12B0CE1092250110922601109227012A
S11309E0109228018EEB90E00E94FE12A3CE10928A
S11309F0F8001092F9001092FA001092FB00109285
S1130A00F4001092F5001092F6001092F700109284
S1130A10F0001092F1001092F2001092F300109284
S1130A201701109218011092190110921A011092D4
S1130A306301109264011092650110926601109294
S1130A4043011092440110924501109246018EEB2D
S1130A5090E00E94FE126ECEE9E5F1E041E351E040
S1130A6023EC31E0ABE1B1E07D011192DA011D929A
S1130A70AD01D9011D929D01D7011D927D01B1E007
S1130A80E336FB0791F78C359105A9F568E58BE60C
S1130A9091E00E9467016093BF017093C00180934D
S1130AA0C1019093C20169E58BE691E00E94670160
S1130AB060932D0170932E0180932F019093300148
S1130AC06AE58BE691E00E9467016093550170939B
S1130AD05601809357019093580165E48BE691E0A9
S1130AE00E946701609313017093140180931501B0
S1130AF09093160144C0863F914009F040C0809114
S1130B006C0090916D00A0916E00B0916F00809385
S1130B10BF019093C001A093C101B093C201809121
S1130B20680090916900A0916A00B0916B00809375
S1130B302D0190932E01A0932F01B0933001809149
S1130B40640090916500A0916600B0916700809365
S1130B50550190935601A0935701B0935801809189
S1130B60600090916100A0916200B0916300809355
S1130B70130190931401A0931501B0931601609191
S1130B80BF017091C0018091C1019091C20101EC3B
S1130B9010E023E042E00E9423179F938F9329E5FE
S1130BA031E03F932F930E946D1760912D01709156
S1130BB02E0180912F019091300123E042E00E94A8
S1130BC023179F938F9381E391E09F938F930E94C8
S1130BD06D17609155017091560180915701909164
S1130BE0580123E042E00E9423179F938F93E3EC84
S1130BF0F1E0FF93EF930E946D17609113017091E0
S1130C001401809115019091160123E042E00E94A5
S1130C1023179F938F934BE151E05F934F930E946F
S1130C206D1745E050E069E571E080E090E00E94D6
S1130C30280145E050E061E371E085E090E00E9426
S1130C40280145E050E063EC71E08AE090E00E9406
S1130C50280145E050E06BE171E08FE090E00E94F4
S1130C6028018EEB90E00E94FE120FB6F894DEBFCE
S1130C700FBECDBF5FCD63E58BE691E00E946701B7
S1130C806093FC007093FD008093FE009093FF003E
S1130C908EEB90E00E94FE124DCDE7EEF1E0A9E06C
S1130CA0B1E011921D9221EF31E02E173F07C9F7F1
S1130CB080E50E94980201EC10E023E042E00E94EB
S1130CC023179F938F9347EE51E05F934F930E94B6
S1130CD06D1782E50E94980223E042E00E942317E8
S1130CE09F938F9389E091E09F938F930E946D1758
S1130CF00FB6F894DEBF0FBECDBF809107018823E5
S1130D00B1F184E589838AE38A83A7EEB1E09C91FB
S1130D109B839091E8019C839091E9019D8390913C
S1130D20EA019E839091EB019F8390E2988725E4EA
S1130D3029878A8720E32B879C8792E49D878E8767
S1130D40E9E0F1E080818F8780910A01888B8091AE
S1130D500B01898B80910C018A8B80910D018B8B07
S1130D608DE08C8B89A99CA50E94FE12E3CC84E5BE
S1130D7089838AE38A83A7EEB1E09C919B83909157
S1130D80E8019C839091E9019D839091EA019E83FF
S1130D909091EB019F8390E2988795E499878A87E5
S1130DA080E38B878DE08C8789A99CA50E94FE1225
S1130DB0C1CC63E58BE691E00E9467010E941814A0
S1130DC063BD8EEB90E00E94FE12B4CC13BC8EEB9C
S1130DD090E00E94FE12AECC62E48BE691E00E94A9
S1130DE0670160933B0170933C0180933D019093B4
S1130DF03E0120E030E0A9010E949513811122C038
S1130E0063E58BE691E00E9467016093FC007093B8
S1130E10FD008093FE009093FF00B1E0B093450283
S1130E2080E50E9498022091FC003091FD004091E1
S1130E30FE005091FF000E94951388238CF31092BA
S1130E40450214C0E1E0E093450280E50E94980267
S1130E5020913B0130913C0140913D0150913E0174
S1130E600E94951388238CF3109245028EEB90E038
S1130E700E94FE125FCC40E050E0BA0188EF90E09F
S1130E800E94100260931701709318018093190156
S1130E9090931A0140E050E0BA0184EF90E00E9480
S1130EA010026093630170936401809365019093D1
S1130EB0660140E050E0BA0180EF90E00E94100229
S1130EC06B017C016093430170934401809345015D
S1130ED09093460110922501109226011092270149
S1130EE01092280110924102109242021092430281
S1130EF0109244021092E3011092E4011092E50171
S1130F001092E6011092FC001092FD001092FE0077
S1130F101092FF0010924D0110924E0110924F0159
S1130F2010925001F1E0F093450284E1AAA1BBA123
S1130F301D928A95E9F72091BF013091C00140913B
S1130F40C1015091C2016091170170911801809103
S1130F50190190911A010E948D1569837A838B83FC
S1130F609C8320912D0130912E0140912F015091AD
S1130F7030016091630170916401809165019091E9
S1130F8066010E948D156D837E838F839887A701E8
S1130F90960160915501709156018091570190918D
S1130FA058010E948D1569877A878B879C8700E09A
S1130FB010E0980140E050E0BA0189A99CA50E9484
S1130FC09A10109245028EEB90E00E94FE12B2CB72
S1130FD0E9E5F1E081E391E0A3ECB1E0AD01119228
S1130FE0DC011D92CD01DA011D92AD0123E631E051
S1130FF02E173F07A1F76091F8007091F9008091D6
S1131000FA009091FB0001EC10E023E042E00E9422
S113101023179F938F9349E551E05F934F930E9469
S11310206D176091F4007091F5008091F600909135
S1131030F70023E042E00E9423179F938F9381E3FC
S113104091E09F938F930E946D176091F0007091CF
S1131050F1008091F2009091F30023E042E00E94BD
S113106023179F938F93E3ECF1E0FF93EF930E9498
S11310706D1788E58983A9E5B1E08C918A83809115
S11310805A018B8380915B018C8380915C018D83F9
S113109080915D018E8380E28F8399E59887E1E3F7
S11310A0F1E090819987909132019A879091330170
S11310B09B87909134019C87909135019D878E8701
S11310C08AE58F87A3ECB1E08C91888B8091C40171
S11310D0898B8091C5018A8B8091C6018B8B80910D
S11310E0C7018C8B8DE08D8B89A99CA50E94FE1273
S11310F00FB6F894DEBF0FBECDBF1CCBF1E0F0936A
S1131100070163E58BE691E00E94670160934D015E
S113111070934E0180934F01909350018EEB90E0B9
S11311200E94FE1207CB63E58BE691E00E94670103
S113113060934D0170934E0180934F019093500141
S113114021E02093450282E50E94980220914D01FE
S113115030914E0140914F01509150010E949513DE
S113116088238CF3109245028EEB90E00E94FE12CD
S1131170E1CA1092F8001092F9001092FA0010924D
S1131180FB001092F4001092F5001092F6001092F9
S1131190F7001092F0001092F1001092F2001092F9
S11311A0F30031E0309302018EEB90E00E94FE12D6
S11311B0C1CA63E58BE691E00E9467016093FC007D
S11311C07093FD008093FE009093FF0020E030E0D8
S11311D048EC51E40E94951318161CF041E040932A
S11311E0000145E050E069E571E080E090E00E9494
S11311F04B0145E050E061E371E085E090E00E943E
S11312004B0145E050E063EC71E08AE090E00E941D
S11312104B0145E050E06BE171E08FE090E00E940B
S11312204B0189E591E00E9443176093BF017093DD
S1131230C0018093C1019093C20181E391E00E94B7
S1131240431760932D0170932E0180932F01909387
S1131250300183EC91E00E94431760935501709331
S1131260560180935701909358018BE191E00E94BD
S113127043176093130170931401809315019093A5
S113128016018EEB90E00E94FE1254CAE9E5F1E0EB
S113129021E331E083EC91E0ABE1B1E0BD011192D7
S11312A0D9011D929D01DC011D92CD01DB011D922E
S11312B0BD01B1E0E336FB0791F76091BF01709186
S11312C0C0018091C1019091C20101EC10E023E0C2
S11312D042E00E9423179F938F93E9E5F1E0FF9387
S11312E0EF930E946D1760912D0170912E018091F2
S11312F02F019091300123E042E00E9423179F9335
S11313008F9341E351E05F934F930E946D17609177
S1131310550170915601809157019091580123E035
S113132042E00E9423179F938F9383EC91E09F9355
S11313308F930E946D176091130170911401809135
S113134015019091160123E042E00E9423179F9318
S11313508F93EBE1F1E0FF93EF930E946D1788E523
S11313608983A9E5B1E08C918A8380915A018B83AA
S113137080915B018C8380915C018D8380915D0100
S11313808E8323E72F839FE298878DE689878A8758
S113139030E23B8749E54C87E1E3F1E040814D874A
S11313A0409132014E87409133014F87409134017F
S11313B0488B40913501498B2A8B9B8B8C8B8D8B71
S11313C03E8B3AE53F8BA3ECB1E03C91388F3091F2
S11313D0C401398F3091C5013A8F3091C6013B8FDA
S11313E03091C7013C8F2D8F9E8F8F8F88A38DE006
S11313F089A389A99CA50E94FE120FB6F894DEBFAA
S11314000FBECDBF97C9873409F094C967E48BE652
S113141091E00E94B1011C01843091053CF48230BA
S113142091050CF044C199232CF484C94C9709F418
S11314304BC480C90E94FF1168E58BE691E00E94CD
S113144067016B017C0169E58BE691E00E9467010D
S11314504B015C016AE58BE691E00E9467011B0188
S11314602C0165E48BE691E00E94670160932501FD
S113147070932601809327019093280120E030E0A7
S1131480A9010E949513882309F461C420E030E087
S1131490A901C701B6010E949513882309F457C412
S11314A020E030E0A901C501B4010E94951388230E
S11314B009F44DC420E030E0A901C201B1010E9449
S11314C09513811152C443C466E48BE691E00E94F3
S11314D067016093E3017093E4018093E5019093C5
S11314E0E6010DC066E48BE691E00E94670160931B
S11314F0410270934202809343029093440220E09D
S113150030E048E453E4C701B6010E9438151816C8
S11315100CF410C920E030E048E453E4C501B40100
S11315200E94381518160CF405C920E030E04AEF83
S113153053E4C201B1010E94381518160CF4FAC81C
S1131540B701A60188EF90E00E9410026093170192
S1131550709318018093190190931A01B501A401A5
S113156084EF90E00E941002609363017093640121
S11315708093650190936601B201A10180EF90E030
S11315800E9410026B017C0160934301709344013B
S1131590809345019093460141E040934502809138
S11315A00101811105C080910001882309F473C0F1
S11315B02091BF013091C0014091C1015091C201FD
S11315C060911701709118018091190190911A018D
S11315D00E948D1569837A838B839C8320912D01CE
S11315E030912E0140912F0150913001609163019F
S11315F07091640180916501909166010E948D153E
S11316006D837E838F839887A7019601609155012E
S11316107091560180915701909158010E948D1547
S113162069877A878B879C872091130130911401F5
S11316304091150150911601609125017091260188
S113164080912701909128010E948D156D877E87D6
S11316508F87988B6091E3017091E4018091E5019B
S11316609091E6010E9411146B017C01609141028A
S11316707091420280914302909144020E9411149D
S1131680AB01BC019701860189A99CA50E949A100F
S11316901092450207C084EC90E00E94FE128DE097
S11316A00E94F6128EEB90E00E94FE1243C868E599
S11316B08BE691E00E94670168A779A78AA79BA798
S11316C069E58BE691E00E9467016DA77EA78FA76D
S11316D098AB69E48BE691E00E9467016093CD01C9
S11316E07093CE018093CF019093D0016AE48BE68E
S11316F091E00E94670160933F01709340018093E1
S113170041019093420166E48BE691E00E946701F7
S113171020E030E0A9010E949513882369F066E473
S11317208BE691E00E94670160934102709342024C
S1131730809343029093440262E58BE691E00E9419
S1131740670120E030E0A9010E949513882371F01D
S113175062E58BE691E00E946701609367017093F4
S113176068018093690190936A0138C0C090CD01EB
S1131770D090CE01E090CF01F090D00180903F0155
S113178090904001A0904101B0904201A5019401C4
S1131790C501B4010E948D156CA37DA38EA39FA3E4
S11317A0A5019401C501B4010E948D154B015C0192
S11317B0A7019601C701B6010E948D159B01AC01DA
S11317C0C501B4010E9429130E94081660936701A1
S11317D0709368018093690190936A0151E050937A
S11317E04502412C512C7BAA6AAA79A8B201052C86
S11317F0000C880B990B0E9449146B017C010E9418
S11318009A136CA37DA38EA39FA3809067019090ED
S11318106801A0906901B0906A01A50194010E9439
S11318208D152CA13DA14EA15FA10E948D156CA325
S11318307DA38EA39FA3C701B6010E94FA156B0175
S11318407C019B01AC01C501B4010E948D15A70167
S113185096010E948D156B017C012CA13DA14EA126
S11318605FA168A579A58AA59BA50E949513181662
S11318705CF0A70196016DA57EA58FA598A90E948D
S1131880951318160CF01AC24CA15DA16EA17FA18C
S113189088EF90E00E941002609317017093180182
S11318A08093190190931A01B701A60184EF90E087
S11318B00E94100260936301709364018093650138
S11318C09093660180910101811105C0809100010E
S11318D0882309F4EAC162E02616310409F0F1C054
S11318E062E58BE691E00E94670120E030E0A90107
S11318F00E949513882309F45BC02091BF013091A5
S1131900C0014091C1015091C201609117017091D1
S113191018018091190190911A010E948D15698313
S11319207A838B839C8320912D0130912E014091E9
S11319302F01509130016091630170916401809195
S11319406501909166010E948D156D837E838F835E
S1131950988719861A861B861C868091130190919C
S11319601401A0911501B09116018D879E87AF8750
S1131970B88B6091E3017091E4018091E50190914D
S1131980E6010E9411146B017C0160914102709187
S1131990420280914302909144020E941114AB01CF
S11319A0BC0197018601872D9CA50E949A107DC1D8
S11319B0C090CD01D090CE01E090CF01F090D00145
S11319C02091BF013091C0014091C1015091C201E9
S11319D060911701709118018091190190911A0179
S11319E00E948D154B015C01C701B6019058A701F7
S11319F096010E949F139B01AC01C501B4010E9492
S1131A008D1569837A838B839C83C0903F01D0902A
S1131A104001E0904101F090420120912D0130916C
S1131A202E0140912F01509130016091630170911A
S1131A30640180916501909166010E948D154B01AE
S1131A405C01C701B6019058A70196010E949F133B
S1131A509B01AC01C501B4010E948D156D837E8389
S1131A608F83988719861A861B861C86809113019A
S1131A7090911401A0911501B09116018D879E8754
S1131A80AF87B88B6091E3017091E4018091E50127
S1131A909091E6010E9411146B017C016091410256
S1131AA07091420280914302909144020E94111469
S1131AB0AB01BC0197018601872D9CA50E949A1059
S1131AC0F4C062E58BE691E00E94670120E030E01B
S1131AD0A9010E949513882309F461C02091BF01D4
S1131AE03091C0014091C1015091C2016091170130
S1131AF0709118018091190190911A010E948D151D
S1131B00DC01CB01B05889839A83AB83BC832091D9
S1131B102D0130912E0140912F015091300160919F
S1131B2063017091640180916501909166010E9446
S1131B308D15DC01CB01B0588D839E83AF83B887AC
S1131B4019861A861B861C868091130190911401B4
S1131B50A0911501B09116018D879E87AF87B88B30
S1131B606091E3017091E4018091E5019091E601B7
S1131B700E9411146B017C01609141027091420238
S1131B8080914302909144020E941114AB01BC0164
S1131B9097018601872D9CA50E949A1086C0C0904B
S1131BA0CD01D090CE01E090CF01F090D0012091F2
S1131BB0BF013091C0014091C1015091C2016091B7
S1131BC01701709118018091190190911A010E94D6
S1131BD08D154B015C01A7019601C701B6010E9456
S1131BE09F139B01AC01C501B4010E948D1569834B
S1131BF07A838B839C83C0903F01D0904001E09016
S1131C004101F090420120912D0130912E0140912B
S1131C102F015091300160916301709164018091B2
S1131C206501909166010E948D154B015C01A7012D
S1131C309601C701B6010E949F139B01AC01C50127
S1131C40B4010E948D156D837E838F8398871986D6
S1131C501A861B861C868091130190911401A09111
S1131C601501B09116018D879E87AF87B88B60915F
S1131C70E3017091E4018091E5019091E6010E94F5
S1131C8011146B017C0160914102709142028091B8
S1131C904302909144020E941114AB01BC019701CC
S1131CA08601872D9CA50E949A108FEF481A580A26
S1131CB099E6491691E0590609F098CD6AA87BA8DF
S1131CC0109245020C949A0380910201811139C04B
S1131CD068E58BE691E00E94FB01682F70E080E0EC
S1131CE090E00E9447146093170170931801809349
S1131CF0190190931A0169E58BE691E00E94FB01BA
S1131D00682F70E080E090E00E94471460936301C4
S1131D107093640180936501909366016AE58BE694
S1131D2091E00E94FB01682F70E080E090E00E9447
S1131D304714609343017093440180934501909349
S1131D4046018EEB90E00E94FE120C949A0366E426
S1131D508BE691E00E94670120E030E0A9010E9437
S1131D609513882309F4CBCBAFCB66E48BE691E0E3
S1131D700E94670120E030E0A9010E9495138823A6
S1131D8009F4BDCBAFCB1F920F920FB60F92112463
S1131D90CF92DF92EF92FF920F931F932F933F9373
S1131DA04F935F936F937F938F939F93AF93BF935F
S1131DB0EF93FF93CF93DF93CDB7DEB76497DEBF86
S1131DC0CDBF8091EE009091EF008D39910530F4F4
S1131DD001969093EF008093EE0009C08091080172
S1131DE08160809308011092EF001092EE008091C0
S1131DF0080180FFD8C080E50E9498020E94111457
S1131E006B017C016091FC007091FD008091FE00EB
S1131E109091FF000E941114DC01CB0141ED51E0CF
S1131E20B6010E94451280958CBF809108018E7F77
S1131E3080930801E7EEF1E0A9E0B1E081EF91E0E1
S1131E4011921D92E817F907D9F780E50E949802CC
S1131E5001EC10E023E042E00E9423179F938F934C
S1131E6087EE91E09F938F930E946D1782E50E9405
S1131E70980223E042E00E9423179F938F9389E006
S1131E8091E09F938F930E946D170FB6F894DEBF75
S1131E900FBECDBF80910701882309F452C084E5A9
S1131EA089838AE38A83E7EEF1E090819B839181C1
S1131EB09C8392819D8393819E8394819F8390E2EE
S1131EC0988725E429878A8720E32B879C8792E4D7
S1131ED09D878E87E9E0F1E080818F878181888BFF
S1131EE08281898B83818A8B84818B8B8DE08C8B1F
S1131EF080E50E9498022091FC003091FD00409101
S1131F00FE005091FF000E94381518169CF482E5DB
S1131F100E94980220914D0130914E0140914F0151
S1131F20509150010E943815181624F481E08093D2
S1131F30010102C010920101CE0101960E94FE121D
S1131F4032C084E589838AE38A83E7EEF1E09081F5
S1131F509B8391819C8392819D8393819E839481B1
S1131F609F8390E2988795E499878A8780E38B879B
S1131F708DE08C8780E50E9498022091FC003091CE
S1131F80FD004091FE005091FF000E943815181684
S1131F9024F481E08093010102C010920101CE017A
S1131FA001960E94FE1264960FB6F894DEBF0FBE2F
S1131FB0CDBFDF91CF91FF91EF91BF91AF919F91F1
S1131FC08F917F916F915F914F913F912F911F91CD
S1131FD00F91FF90EF90DF90CF900F900FBE0F9076
S1131FE01F9018951F920F920FB60F9211242F93E2
S1131FF03F934F935F936F937F938F939F93AF938D
S1132000BF93EF93FF9380914502882391F05F9BE8
S113201010C0EBE6F1E08BEB91E01192E817F907C1
S1132020E1F78BE691E00E940D1389ED90E00E94A8
S1132030FE12FF91EF91BF91AF919F918F917F918C
S11320406F915F914F913F912F910F900FBE0F9021
S11320501F9018951F920F920FB60F9211248F9212
S11320609F92AF92BF92EF92FF920F931F932F9381
S11320703F934F935F936F937F938F939F93AF930C
S1132080BF93EF93FF93CF93DF93CDB7DEB76497FE
S1132090DEBFCDBF6DE48BE691E00E94B1018037D5
S11320A0910539F5CE0101967C0184E1F701119285
S11320B08A95E9F76091E3017091E4018091E5016B
S11320C09091E6010E9411144B015C016091410260
S11320D07091420280914302909144020E94111433
S11320E0AB01BC0195018401C7010E949A101092B2
S11320F0450264960FB6F894DEBF0FBECDBFDF91E4
S1132100CF91FF91EF91BF91AF919F918F917F916B
S11321106F915F914F913F912F911F910F91FF907C
S1132120EF90BF90AF909F908F900F900FBE0F9045
S11321301F9018952F923F924F925F926F927F92C9
S11321408F929F92AF92BF92CF92DF92EF92FF92C3
S11321500F931F93CF93DF93CDB7DEB7C854D10944
S11321600FB6F894DEBF0FBECDBF6C014A015B0110
S113217029960CAF1DAF2EAF3FAF2997412C512CA0
S113218032014394C301B201A50194010E94AC162B
S1132190ACE3B0E00E94CB160E94491420E034E284
S11321A044E759E40E948D150E9411144B015C010F
S11321B0C301B20129962CAD3DAD4EAD5FAD29975B
S11321C00E94AC16ACE3B0E00E94CB160E94491406
S11321D020E034E244E759E40E948D150E94111472
S11321E02B013C0188E0E0E8F0E0DE01119601906B
S11321F00D928A95E1F776018E010F5F1F4F1E0144
S113220029E0220E311C20E030E0A901F7016081B1
S11322107181828193810E94951388238CF441E01B
S1132220F801608183E30E942C02F701808191818F
S1132230A281B381B05880839183A283B38306C003
S113224040E0F801608183E30E942C02F4E0EF0E89
S1132250F11C0E5F1F4F20163106A9F686E3E8E84D
S1132260F0E0DE011F9601900D928A95E1F781E07E
S113227090E09A8789879C878B879E878D8700E06B
S113228010E0F801EE0FFF1FCF01880F991F880F90
S1132290991F880F991FE80FF91F21E030E02C0FD8
S11322A03D1FE20FF31F668583E30E945802780105
S11322B0EE0CFF1CEE0CFF1CEC0CFD1C20E030E0CF
S11322C040E85FE3F70160817181828193810E941C
S11322D02813F701608371838283938320E030E0C5
S11322E0A9010E94951318165CF0F801EE0FFF1F68
S11322F021E030E02C0F3D1FE20FF31F1186108602
S11323000330110559F4C201181619068CF435E08E
S11323103A95F1F700000197D1F70AC0C4011816E5
S1132320190634F4E5E0EA95F1F700000197D1F7D6
S11323308D859E859C01220F331F220F331F8B85B1
S11323409C85880F991F820F931F29853A85820FD8
S1132350931FF801EE0FFF1FEE0FFF1FEE0FFF1F7D
S1132360E00FF11FE80FF91F3196EE0FFF1F21E078
S113237030E02C0F3D1FE20FF31F06851785892BD4
S113238009F07FCFC85BDF4F0FB6F894DEBF0FBEF6
S1132390CDBFDF91CF911F910F91FF90EF90DF9010
S11323A0CF90BF90AF909F908F907F906F905F90F1
S11323B04F903F902F900895883549F018F4853454
S11323C0C1F00895893549F08A3569F00895462F9A
S11323D064E086E30E942C020895462F65E086E3BC
S11323E00E942C020895462F66E086E30E942C0288
S11323F00895462F67E086E30E942C02089560E06A
S113240083E30E94490260E083E30E94540260E097
S113241088E50E94DC1160E089E50E94DC1160E03F
S11324208AE50E94DC1160E085E40E94DC110895D5
S1132430CF93DF93FB01E9011A821B821C821D8268
S1132440198218829F838E83798768875B874A877E
S1132450BC016F5F7F4F8FEF9FE70E9498167D87C7
S11324606C879F012F5F3F4F032E000C440B550BCD
S11324706FEF7FEF8FEF9FE30E94AC162E873F87AD
S1132480488B598BDF91CF910895EF92FF920F9370
S11324901F93CF93DF938B01FA01861B970B24853F
S11324A035852817390784F031952195310982172C
S11324B093076CF026813781829FE001839FD00DC2
S11324C0929FD00D112405C0CFEFDFE702C0C1E019
S11324D0D0E8092E000CAA0BBB0B42815381648106
S11324E075819A01AB01280F391F4A1F5B1F86852E
S11324F09785A089B18982179307A407B5074CF47F
S113250082839383A483B5836FEF7FEF8FEF9FE381
S11325101DC0B095A095909581959F4FAF4FBF4F2B
S1132520281739074A075B074CF482839383A483F3
S1132530B58361E070E080E090EC08C022833383CF
S113254044835583A085B1850E94D61620813181AC
S1132550201B310BA285B3852A9F70012B9FF00CA1
S11325603A9FF00C1124118300838E01DD0F220B9E
S1132570330BAB01BC01400F511F621F731FC70116
S1132580FF0CAA0BBB0B480F591F6A1F7B1FDB01F3
S1132590CA0177231CF40196A11DB11DB595A79519
S11325A097958795813020E892072FEFA207B2070D
S11325B024F481E090E8AFEFBFEF811520E89207A3
S11325C0A105B10524F08FEF9FE7A0E0B0E0DF9113
S11325D0CF911F910F91FF90EF90089583E089B9F7
S11325E010BC88E18AB986E880BD08955D9BFECF62
S11325F08CB908955F9BFECF8CB10895CF93DF9380
S1132600EC018881882331F021960E94F612899189
S11326108111FBCFDF91CF9108950F931F93CF9337
S11326208C01C0E00E94FA128A3011F08D3031F42E
S1132630F801EC0FF11D80E2808306C0F801EC0F75
S1132640F11D8083CF5FEECFCF911F910F9108953D
S11326505058BB27AA270E9440130C94EA140E94E6
S1132660B11438F00E94B81420F039F49F3F19F4E3
S113267026F40C94AE140EF4E095E7FB0C94A81425
S1132680E92F0E940F1558F3BA17620773078407DE
S1132690950720F079F4A6F50C9431150EF4E09525
S11326A00B2EBA2FA02D0B01B90190010C01CA0108
S11326B0A0011124FF27591B99F0593F50F4503EB3
S11326C068F11A16F040A22F232F342F4427585FA5
S11326D0F3CF469537952795A795F0405395C9F7BD
S11326E07EF41F16BA0B620B730B840BBAF0915075
S11326F0A1F0FF0FBB1F661F771F881FC2F70EC014
S1132700BA0F621F731F841F48F4879577956795E6
S1132710B795F7959E3F08F0B0CF9395880F08F0D2
S11327209927EE0F9795879508950E94841408F4CD
S113273081E008950E94C114E3950C94FB140E9457
S1132740B3130C94EA140E94B81458F00E94B11404
S113275040F029F45F3F29F00C94A81451110C9413
S113276032150C94AE140E940F1568F39923B1F33B
S1132770552391F3951B550BBB27AA2762177307A3
S1132780840738F09F5F5F4F220F331F441FAA1F37
S1132790A9F335D00E2E3AF0E0E832D091505040F3
S11327A0E695001CCAF72BD0FE2F29D0660F771FA1
S11327B0881FBB1F261737074807AB07B0E809F087
S11327C0BB0B802DBF01FF2793585F4F3AF09E3F0C
S11327D0510578F00C94A8140C9432155F3FE4F37F
S11327E0983ED4F3869577956795B795F7959F5F4F
S11327F0C9F7880F911D9695879597F90895E1E09B
S1132800660F771F881FBB1F621773078407BA07F9
S113281020F0621B730B840BBA0BEE1F88F7E09554
S113282008950E9418146894B1110C9432150895F7
S11328300E94171588F09F5798F0B92F9927B75120
S1132840B0F0E1F0660F771F881F991F1AF0BA9550
S1132850C9F714C0B13091F00E943115B1E0089568
S11328600C943115672F782F8827B85F39F0B93F5A
S1132870CCF3869577956795B395D9F73EF4909503
S11328808095709561957F4F8F4F9F4F0895E89481
S113289009C097FB3EF490958095709561957F4FA4
S11328A08F4F9F4F9923A9F0F92F96E9BB27939552
S11328B0F695879577956795B795F111F8CFFAF462
S11328C0BB0F11F460FF1BC06F5F7F4F8F4F9F4F93
S11328D016C0882311F096E911C0772321F09EE8F1
S11328E0872F762F05C0662371F096E8862F70E057
S11328F060E02AF09A95660F771F881FDAF7880F31
S11329009695879597F90895990F0008550FAA0B86
S1132910E0E8FEEF16161706E807F907C0F01216EE
S11329201306E407F50798F0621B730B840B950BF1
S113293039F40A2661F0232B242B252B21F4089546
S11329400A2609F4A140A6958FEF811D811D0895E3
S113295097F99F6780E870E060E008959FEF80EC4E
S1132960089500240A9416161706180609060895F1
S113297000240A94121613061406050608950C94EE
S1132980AE140E941715D8F3E894E0E0BB279F57D4
S1132990F0F02AED3FE049EC06C0EE0FBB0F661FD6
S11329A0771F881F28F0B23A62077307840728F05C
S11329B0B25A620B730B840BE3959A9572F78038C5
S11329C030F49A95BB0F661F771F881FD2F7904883
S11329D00C944A16092E0394000C11F4882352F027
S11329E0BB0F40F4BF2B11F460FF04C06F5F7F4F37
S11329F08F4F9F4F0895EF93E0FF07C0A2EA2AED9F
S1132A003FE049EC5FEB0E9440130E94EA140F90F0
S1132A10039401FC9058E4E5F0E00C94841657FD0F
S1132A209058440F551F59F05F3F71F04795880F38
S1132A3097FB991F61F09F3F79F0879508951216CF
S1132A4013061406551FF2CF4695F1DF08C016167B
S1132A5017061806991FF1CF86957105610508942C
S1132A600895E894BB2766277727CB0197F9089543
S1132A700E94841408F48FEF089516F00C944816FD
S1132A800C94AE1468940C94A8140E941715A8F31F
S1132A909923C1F3AEF3DF93CF931F930F93FF9268
S1132AA0C92FDD2788232AF02197660F771F881FF7
S1132AB0DAF720E030E040E85FEB9FE3883920F06C
S1132AC0803E38F021968F770E942913E2E7F0E0E8
S1132AD004C00E942913EFE9F0E00E945D168B0107
S1132AE0BE01EC01FB2E6F5771097595771F880B9A
S1132AF0990B0E94491428E132E741E35FE30E9405
S1132B00A015AF2D9801AE01FF900F911F91CF91A9
S1132B10DF910E9440130C94EA140E94A0150C94B7
S1132B20EA140E94B11438F00E94B81420F09523DE
S1132B3011F00C94A8140C94AE1411240C943215B6
S1132B400E940F1570F3959FC1F3950F50E0551F28
S1132B50629FF001729FBB27F00DB11D639FAA27EE
S1132B60F00DB11DAA1F649F6627B00DA11D661F3D
S1132B70829F2227B00DA11D621F739FB00DA11D5E
S1132B80621F839FA00D611D221F749F3327A00D18
S1132B90611D231F849F600D211D822F762F6A2FB4
S1132BA011249F5750409AF0F1F088234AF0EE0F19
S1132BB0FF1FBB1F661F771F881F91505040A9F746
S1132BC09E3F510580F00C94A8140C9432155F3F7D
S1132BD0E4F3983ED4F3869577956795B795F79582
S1132BE0E7959F5FC1F7FE2B880F911D96958795FA
S1132BF097F908959F930E94C1140F9007FCEE5F0C
S1132C000C94FB1419F416F40C94AE140C9448169A
S1132C100E941715B8F39923C9F3B6F39F57550BC0
S1132C2087FF0E9456160024A0E640EA90018058CF
S1132C305695979528F4805C660F771F881F20F0BF
S1132C4026173707480730F4621B730B840B2029BF
S1132C5031294A2BA69517940794202531254A2714
S1132C6058F7660F771F881F20F026173707480785
S1132C7030F4620B730B840B200D311D411DA095A4
S1132C8081F7B901842F9158880F969587950895F7
S1132C909F3F31F0915020F4879577956795B795CC
S1132CA0880F911D9695879597F9089591505040F6
S1132CB0660F771F881FD2F70895DF93CF931F9372
S1132CC00F93FF92EF92DF927B018C01689406C010
S1132CD0DA2EEF010E94A015FE01E894A59125913A
S1132CE0359145915591A6F3EF010E944013FE01E1
S1132CF09701A801DA9469F7DF90EF90FF900F91A4
S1132D001F91CF91DF9108959F938F937F936F933A
S1132D10FF93EF939B01AC010E948D15EF91FF91FE
S1132D200E945D162F913F914F915F910C948D15E8
S1132D3097FB072E16F4009407D077FD09D00E9464
S1132D40DE1607FC05D03EF4909581959F4F0895BB
S1132D50709561957F4F0895052E97FB1EF400949E
S1132D600E94C31657FD07D00E94F21607FC03D039
S1132D704EF40C94C31650954095309521953F4FD1
S1132D804F4F5F4F089590958095709561957F4F53
S1132D908F4F9F4F08950E941417A59F900DB49FC5
S1132DA0900DA49F800D911D11240895B7FF0C94DC
S1132DB0CB160E94CB16821B930B0895AA1BBB1B38
S1132DC051E107C0AA1FBB1FA617B70710F0A61B27
S1132DD0B70B881F991F5A95A9F780959095BC0148
S1132DE0CD010895A1E21A2EAA1BBB1BFD010DC043
S1132DF0AA1FBB1FEE1FFF1FA217B307E407F507A7
S1132E0020F0A21BB30BE40BF50B661F771F881F82
S1132E10991F1A9469F760957095809590959B0118
S1132E20AC01BD01CF010895A29FB001B39FC001C1
S1132E30A39F700D811D1124911DB29F700D811DE2
S1132E401124911D0895EF920F931F93CF93DF9355
S1132E50E80147FD02C034E001C034E1042E000C57
S1132E60550B57FF03C0519541955109E32E022F8D
S1132E70242FAE010E947019CE01DF91CF911F91D2
S1132E800F91EF900895662777270C94CA1AFC01D6
S1132E9088279927E89421912032E9F3293010F00A
S1132EA02E30C8F32B3241F02D3239F4689404C02B
S1132EB00E946517820F911D219120532A30C0F37F
S1132EC01EF4909581959F4F08957AE0979F902DD9
S1132ED0879F802D910D11240895AEE0B0E0E3E7C3
S1132EE0F7E10C94D21D0D891E8986E08C831A8328
S1132EF009838FEF9FE79E838D83AE01475E5F4F0B
S1132F006F89788DCE0101960E948F17EF81F88525
S1132F10E00FF11F10822E96E4E00C94EE1DABE05E
S1132F20B0E0E5E9F7E10C94C41D6C017B018A0172
S1132F30FC0117821682838181FFCCC1CE010196E8
S1132F403C01F6019381F70193FD859193FF8191F3
S1132F507F01882309F4BAC1853239F493FD859140
S1132F6093FF81917F01853229F4B60190E00E949C
S1132F70271DE7CF912C212C312CFFE1F315D8F03C
S1132F808B3279F038F4803279F08332A1F4232D36
S1132F9020611DC08D3261F0803369F4232D2160DE
S1132FA016C0832D8260382EE32DE4603E2E2AC0A5
S1132FB0F32DF8601DC037FC2DC020ED280F2A30FA
S1132FC040F08E32B9F436FC81C1232D2064322EB8
S1132FD019C036FE06C08AE0989E200D1124922E58
S1132FE011C0EAE02E9E200D1124222EF32DF06252
S1132FF03F2E08C08C3621F4832D8068382E02C001
S1133000883641F4F70193FD859193FF81917F0107
S11330108111B3CF982F9F7D9554933028F40C5F82
S11330201F4F9FE399830DC0833631F0833771F0CE
S1133030833509F059C021C0F801808189830E5F6E
S11330401F4F88248394912C530113C02801F2E06C
S11330504F0E511CF801A080B18036FE03C0692DCB
S113306070E002C06FEF7FEFC5010E941C1D4C0190
S11330708201F32DFF773F2E16C0280122E0420E75
S1133080511CF801A080B18036FE03C0692D70E0A8
S113309002C06FEF7FEFC5010E94111D4C01F32D9B
S11330A0F0683F2E820133FC1BC0822D90E088160D
S11330B09906B0F4B60180E290E00E94271D2A949C
S11330C0F4CFF50137FC859137FE81915F01B6019C
S11330D090E00E94271D21102A9421E0821A910871
S11330E08114910471F7E8C0843611F0893641F5F2
S11330F0F80137FE07C060817181828193810C5F82
S11331001F4F08C060817181072E000C880B990B3A
S11331100E5F1F4FF32DFF763F2E97FF09C090954A
S11331208095709561957F4F8F4F9F4FF0683F2E2C
S11331302AE030E0A3010E94631D882E861845C052
S1133140853731F4232D2F7EB22E2AE030E025C0BE
S1133150932D997FB92E8F36C1F018F4883579F004
S1133160B5C0803719F0883721F0B0C0E92FE0618D
S1133170BE2EB4FE0DC0FB2DF460BF2E09C034FE7C
S11331800AC0292F2660B22E06C028E030E005C010
S113319020E130E002C020E132E0F801B7FE07C0D0
S11331A060817181828193810C5F1F4F06C06081B1
S11331B0718180E090E00E5F1F4FA3010E94631DA8
S11331C0882E8618FB2DFF773F2E36FE0DC0232D4B
S11331D02E7FA22E891458F434FE0BC032FC09C091
S11331E0832D8E7EA82E05C0B82CA32C03C0B82C2A
S11331F001C0B92CA4FE0FC0FE01E80DF11D8081B1
S1133200803321F49A2D997EA92E09C0A2FE06C00E
S1133210B394B39404C08A2D867809F0B394A3FCC4
S113322011C0A0FE06C0B21488F4280C922C9B187E
S11332300EC0B21460F4B60180E290E00E94271D33
S1133240B394F7CFB21418F42B1802C0982C212C85
S1133250A4FE10C0B60180E390E00E94271DA2FEE8
S113326017C0A1FC03C088E790E002C088E590E0A5
S1133270B6010CC08A2D867859F0A1FE02C08BE2FB
S113328001C080E2A7FC8DE2B60190E00E94271DF8
S1133290891438F4B60180E390E00E94271D9A94C3
S11332A0F7CF8A94F301E80DF11D8081B60190E017
S11332B00E94271D8110F5CF222009F442CEB601C9
S11332C080E290E00E94271D2A94F6CFF6018681C1
S11332D0978102C08FEF9FEF2B96E2E10C94E01DE3
S11332E0A9E0B0E0E6E7F9E10C94CA1D6A01122FE7
S11332F0B02E2BE3201720F0FF24F394F00E02C02D
S11333002CE3F22E0F2D27E0AE014F5F5F4F0E949A
S1133310181CBC014981842F8970813031F0E1FC93
S113332006C0E0FE06C090E205C09DE203C09BE239
S113333001C090E05E2D507143FF3CC0911102C06A
S113334083E001C084E0811718F4212F281B01C0F9
S113335020E051110BC0F601822F30E2882319F0CE
S113336031938150FBCFC20ED11C20E0992329F068
S1133370D6019C93F60131966F01C6010396E2FED5
S11333800AC03EE4D6013C9341E411964C93119754
S113339012963C9306C03EE6F601308341E6418333
S11333A03283FC01322F40E2332309F442C04193BB
S11333B03150FACF42FF44C0911102C083E001C0F2
S11333C084E0811718F4212F281B01C020E051113B
S11333D00BC0F601822F30E2882319F0319381501B
S11333E0FBCFC20ED11C20E0992329F0D6019C9377
S11333F0F60131966F01C6010396E2FE0BC039E473
S1133400D6013C933EE411963C93119736E4129610
S11334103C9307C039E6F60130833EE6318336E655
S11334203283FC01322F40E2332319F041933150AF
S1133430FBCFFC01E20FF11D10828EEF9FEFA6C0BF
S113344021E030E0911102C020E030E016161706AA
S11334501CF4FB01319602C0E1E0F0E02E0F3F1FA7
S1133460BB2021F0EB2DF0E0319602C0E0E0F0E06B
S11334702E0F3F1FE12FF0E02E173F071CF4121B05
S1133480212F01C020E08E2D887159F4F601822F7E
S113349030E2882319F031938150FBCFC20ED11C46
S11334A020E0992329F0D6019C93F60131966F010F
S11334B051110BC0F601822F90E3882319F09193E8
S11334C08150FBCFC20ED11C20E00F2D060F9A8134
S11334D0342F307144FF03C0913309F401501016A6
S11334E024F4093018F008E001C001E0AB0177FFD3
S11334F002C040E050E0FB01E41BF50BA1E0B0E0AA
S1133500AC0FBD1FEA0FFB1F8EE2A82E4B01801AE1
S113351091080B2D10E01195019511094F3FBFEF54
S11335205B0721F4D601AC9211966D0164177507FF
S11335302CF08416950614F4818101C080E3415077
S113354051093196D60111967D014017510724F097
S1133550D6018C936701E2CF6417750739F496336B
S113356020F4953319F4311101C081E3F60180830D
S1133570F701822F90E2882319F091938150FBCFB9
S1133580F701E20FF11D108280E090E02996ECE053
S11335900C94E61DA0E0B0E0E0EDFAE10C94CA1D45
S11335A0EC016B016115710519F0FB0191838083B6
S11335B07E01FFEFEF1AFF0A0881802F90E00E943E
S11335C0F01C892B11F0E701F3CF0D3239F47E01A1
S11335D082E0E80EF11C098111E008C00B3229F4E5
S11335E07E0192E0E90EF11C098110E0E7012197C8
S11335F043E050E064ED70E0CE010E94F91C892B99
S1133600C1F4239645E050E06FEC70E0CE010E94D7
S1133610F91C892B09F42596C114D10419F0F6017B
S1133620D183C0831111F6C060E070E080E89FE7A9
S1133630FAC043E050E06CEC70E0CE010E94F91C4B
S1133640892B59F4C114D10409F4E9C0F2E0EF0E56
S1133650F11CF601F182E082E2C020E030E0A90131
S1133660C0E0D0E0F70180EDA82EA00E89E08A1515
S113367030F1912F9260B92E812F887012FF04C00F
S1133680811124C0219622C081112197A5E0B0E0C8
S11336900E94CB16DC01CB01880F991FAA1FBB1F08
S11336A09C01AD012A0D311D411D511D283989E9A7
S11336B03807480789E1580748F0166006C09EEFAE
S11336C0A9120AC013FD40C01860B12E8FEFE81A8A
S11336D0F80A00811B2DC6CF802F8F7D8534A1F57C
S11336E080818D3211F4106106C08B3221F0319645
S11336F061E070E004C08181329662E070E0805342
S11337008A3018F0E61BF70B1FC060E070E06038E9
S11337109CE079075CF4DB01AA0FBB1FAA0FBB1F57
S11337206A0F7B1F660F771F680F711D3196DF01CB
S113373011978C9180538A3050F314FF03C0719514
S113374061957109C60FD71F11FF08C0C114D104B8
S113375029F0CF010197F60191838083CA01B90151
S11337600E944714212F2370233019F04B015C0170
S113377006C04B015C01B7FAB094B7F8B09420E0EE
S113378030E0A901C501B4010E949513882309F40E
S11337903EC0D7FF06C0D195C195D1090BEE10E00C
S11337A002C003E011E06801F8E1CF1AD10890E209
S11337B0E92EF12CCE15DF0574F0F8012591359131
S11337C045915491C501B4010E948D154B015C01D2
S11337D0CE19DF09EFCF04501109F594E7940C15C5
S11337E01D0541F78A2D880F8B2D881F8F3F49F0C7
S11337F020E030E0A901C501B4010E9495138111B4
S113380006C082E290E090934D0280934C02C50181
S1133810B40109C060E070E080E89FEF04C060E09C
S113382070E080EC9FE7CDB7DEB7ECE00C94E61DCA
S1133830283008F027E03327DA01990F311D87FD7E
S1133840916000966105710539F432602E5F3D93F5
S113385030E32A95E1F708959F3F30F080387105F1
S1133860610509F03C5F3C5F3D93913008F080684E
S1133870911DDF93CF931F930F93FF92EF92192F14
S1133880987F9695E92F96959695E90FFF27EF591E
S1133890FE4F99273327EE24FF24A701E701059063
S11338A00894079428F4360FE71EF81E491F511D8B
S11338B0660F771F881F991F0694A1F70590079438
S11338C028F4E70EF81E491F561FC11D770F881FE5
S11338D0991F661F0694A1F70590079428F4F80E23
S11338E0491F561FC71FD11D880F991F661F771FB9
S11338F00694A1F70590079420F4490F561FC71F9B
S1133900D81F990F661F771F881F0694A9F7849103
S11339101095177041F0D695C79557954795F7942C
S1133920E7941A95C1F7E7E0F1E0689415901591D2
S113393035916591959105907FE27395E118F10AAF
S1133940430B560BC90BD009C0F7E10CF11E431F02
S1133950561FC91FD01D7EF4703311F48A95E6CF2B
S1133960E894015030F0080F0AF40027021708F415
S1133970202F2395022F7A3328F079E37D932A951B
S1133980E9F710C07D932A9589F606949795679573
S1133990379517951794E118F10A430B560BC90B89
S11339A0D00998F023957E9173957A3308F070E3EB
S11339B07C932013B8F77E9170617D9330F08395EA
S11339C071E37D9370E32A95E1F71124EF90FF9062
S11339D00F911F91CF91DF91992787FD90950895BD
S11339E091110C94C11D803219F089508550C8F78B
S11339F00895FB01DC014150504088F08D918134E1
S1133A001CF08B350CF4805E659161341CF06B35D1
S1133A100CF4605E861B611171F3990B0895881B89
S1133A20FCCFFC010590615070400110D8F78095DF
S1133A3090958E0F9F1F0895FC0161507040019076
S1133A400110D8F7809590958E0F9F1F08950F93BE
S1133A501F93CF93DF93FB01238121FD03C08FEFDD
S1133A609FEF2CC022FF16C04681578124813581E7
S1133A704217530744F4A081B1819D012F5F3F4F4A
S1133A80318320838C93268137812F5F3F4F378387
S1133A90268314C08B01EC01FB010084F185E02D29
S1133AA00995892BE1F6D80116968D919C9117976B
S1133AB0019617969C938E931697CE01DF91CF9122
S1133AC01F910F910895FA01AA27283051F120314E
S1133AD081F1E8946F936E7F6E5F7F4F8F4F9F4F9E
S1133AE0AF4FB1E03ED0B4E03CD0670F781F891FE0
S1133AF09A1FA11D680F791F8A1F911DA11D6A0FAE
S1133B00711D811D911DA11D20D009F468943F9160
S1133B102AE0269F11243019305D3193DEF6CF015F
S1133B200895462F4770405D4193B3E00FD0C9F725
S1133B30F6CF462F4F70405D4A3318F0495D31FD92
S1133B404052419302D0A9F7EACFB4E0A6959795E5
S1133B50879577956795BA95C9F7009761057105BB
S1133B6008959B01AC010A2E069457954795379505
S1133B702795BA95C9F7620F731F841F951FA01D5F
S1133B8008959927882708952F923F924F925F9224
S1133B906F927F928F929F92AF92BF92CF92DF9259
S1133BA0EF92FF920F931F93CF93DF93CDB7DEB7BE
S1133BB0CA1BDB0B0FB6F894DEBF0FBECDBF099452
S1133BC02A88398848885F846E847D848C849B84A9
S1133BD0AA84B984C884DF80EE80FD800C811B81B7
S1133BE0AA81B981CE0FD11D0FB6F894DEBF0FBEE6
S10D3BF0CDBFED010895F894FFCF56
S1133BFA00000C430000C8420000C8420000C8424A
S1133C0A6CCF5834D6647939CB48843A00401C4680
S1133C1A040005000600070000000300000001007C
S1133C2A010002000200010001000100030000007B
S1133C3A0100000002000200020002000200030068
S1133C4A00000100000002000000010000006F6B88
S1133C5A002566006572726F7220657874727564E5
S1133C6A65722074656D702E0074686520707269BF
S1113C7A6E74657220697320627573790000A0
S9030000FC
