S01700005052495343415F6672696D776172652E737265638F
S11300000C9475000C9492000C9492000C94920041
S11300100C9492000C9492000C9492000C94920014
S11300200C9492000C940C050C9492000C94920085
S11300300C9492000C9492000C9492000C949200F4
S11300400C9492000C9492000C9492000C949200E4
S11300500C94920008000000BE922449123EABAA00
S1130060AA2ABECDCCCC4C3E00000080BEABAAAACE
S1130070AA3E00000000BF000000803F0000000016
S113008000084178D3BB4387D1133D190E3CC3BD4F
S11300904282AD2B3E68EC8276BED98FE1A93E4CFC
S11300A080EFFFBE01C4FF7F3F00000000004E410F
S11300B04E494E495459494E46CDCCCC3D0AD723DE
S11300C03C17B7D13877CC2B329595E6241FB14F26
S11300D00A000020410000C84200401C4620BCBE6B
S11300E04CCA1B0E5AAEC59D740011241FBECFE529
S11300F0D4E0DEBFCDBF10E0A0E6B0E0EEE1F8E171
S113010002C005900D92A439B107D9F721E0A4E902
S1130110B0E001C01D92A934B207E1F70E940602C3
S11301200C940D0C0C9400000F931F93CF93DF934A
S1130130CDB7DEB72A970FB6F894DEBF0FBECDBF9A
S1130140AC01FE013196CE010B961192E817F90726
S1130150E1F700E010E020E030E0FA01E20FF31FE5
S11301609081961317C0F901E00FF11FE40FF51FFA
S11301708181A1E0B0E0AC0FBD1FA00FB11F8C9333
S11301808281803251F08A3041F08D3031F00F5F3E
S11301901F4FE3CF2F5F3F4FE0CFCE0101960E9468
S11301A0050A2A960FB6F894DEBF0FBECDBFDF91C5
S11301B0CF911F910F9108950F931F93CF93DF93C6
S11301C0CDB7DEB72A970FB6F894DEBF0FBECDBF0A
S11301D0AC01FE013196CE010B961192E817F90796
S11301E0E1F700E010E020E030E0FA01E20FF31F55
S11301F09081961317C0F901E00FF11FE40FF51F6A
S11302008181A1E0B0E0AC0FBD1FA00FB11F8C93A2
S11302108281803251F08A3041F08D3031F00F5FAD
S11302201F4FE3CF2F5F3F4FE0CFCE0101960E94D7
S1130230090A2A960FB6F894DEBF0FBECDBFDF9130
S1130240CF911F910F910895CF92DF92EF92FF9279
S1130250CF93DF93EC016A017B01288139814A81C4
S11302605B81C701B6010E94B706C882D982EA82BF
S1130270FB82DF91CF91FF90EF90DF90CF900895B4
S11302808AB38ABB81B3806B81BB87E886B90E943D
S11302907D0627E231E040E050E060E070E080E875
S11302A090E00E94A20512BE83B7856083BF83B726
S11302B0896683BF8FB5816A8FBD8EB581608EBD1F
S11302C085B5896685BDBB9A81E089BF7894089518
S11302D087B9369A86B1349A84B195B108958F92CC
S11302E09F92AF92BF92CF92DF92EF92FF920E94C1
S11302F068019093BE008093BD00BC01990F880BE8
S1130300990B0E94D3079B01AC0160E070EC8FE76E
S113031094E40E94290720E030E040E85FE30E9473
S1130320B70620916C0030916D0040916E005091A1
S11303306F000E94D80860931F017093200180937E
S11303402101909322010E9490086B017C0160932B
S113035041017093420180934301909344012091A1
S113036064003091650040916600509167000E94DE
S1130370D808209168003091690040916A0050913A
S11303806B000E94B8064B015C0120916000309123
S113039061004091620050916300C701B6010E9460
S11303A0D808A70196010E94D808A70196010E94C7
S11303B0D8089B01AC01C501B4010E94B8069B0199
S11303C0AC0160E070E080E89FE30E94290760933D
S11303D0B5007093B6008093B7009093B80023E300
S11303E033E948E853E40E94B7066093BF00709372
S11303F0C0008093C1009093C200FF90EF90DF9003
S1130400CF90BF90AF909F908F9008950E9440012D
S1130410CFE1D1E0EFECF0E01192EC17FD07E1F74A
S11304208FEC90E00E949C068091CF008D3409F0FF
S1130430E3C06DE48FEC90E00E94DC008C0189360F
S1130440910529F480E790E00E948D068DC08836DE
S11304509105B9F564E58FEC90E00E94DC00892BEE
S113046091F463E58FEC90E00E9494006093B100F6
S11304707093B2008093B3009093B40080E790E04F
S11304800E948D0686C064E58FEC90E00E94DC003B
S1130490019791F463E58FEC90E00E9494006093DF
S11304A0CB007093CC008093CD009093CE0080E776
S11304B090E00E948D066DC083E790E00E948D0657
S11304C068C08D36910509F04FC014C080E50E94C4
S11304D06F010E949B07DC01CB014AE067EA70E0F0
S11304E00E94270A87EA90E00E948D068DE090E042
S11304F00E948D0680E50E946F010E949B076B019C
S11305007C016091B1007091B2008091B300909130
S1130510B4000E949B07DC01CB0147E251E0B60125
S11305200E94CF05992394F682E50E946F010E94F0
S11305309B076B017C016091CB007091CC00809192
S1130540CD009091CE000E949B07DC01CB0147E2D5
S113055051E0B6010E94CF0599230CF0B7CF80E794
S113056090E00E948D0637C00C38110591F463E5C4
S11305708FEC90E00E9494006093C3007093C400D9
S11305808093C5009093C60080E790E00E948D069A
S113059041CF0E3B1105F9F484E50E946F010E94DE
S11305A09B076B017C016091C3007091C400809132
S11305B0C5009091C6000E949B07DC01CB0147E275
S11305C051E0B6010E94CF05992334F780E790E00B
S11305D00E948D061FCF0A36110509F01BCF63E573
S11305E08FEC90E00E9494000E94A20763BD80E714
S11305F090E00E948D060ECF873409F00BCF67E49C
S11306008FEC90E00E94DC008133910509F0E0C09A
S113061068E58FEC90E00E9494006B017C0169E531
S11306208FEC90E00E9494004B015C016AE58FEC32
S113063090E00E9494002B013C0165E48FEC90E073
S11306400E949400609323017093240180932501F8
S11306509093260120E030E0A9010E94240788231A
S113066009F4B0C120E030E0A901C701B6010E943D
S11306702407882309F4A6C120E030E0A901C501BC
S1130680B4010E942407882309F49CC120E030E0CF
S1130690A901C301B2010E9424078111A1C192C121
S11306A066E48FEC90E00E949400609339017093AB
S11306B03A0180933B0190933C010DC066E48FECBA
S11306C090E00E94940060933D0170933E018093FA
S11306D03F019093400120E030E048E453E4C70137
S11306E0B6010E94830818160CF494CE20E030E082
S11306F048E453E4C501B4010E94830818160CF4BD
S113070089CE20E030E04AEF53E4C301B2010E94F5
S1130710830818160CF47ECEB701A6018EE990E08A
S11307200E9424016093A3007093A4008093A50009
S11307309093A600B501A4018AE990E00E942401E7
S11307406093C7007093C8008093C9009093CA0057
S1130750B301A20186E990E00E9424012B013C012F
S11307606093B9007093BA008093BB009093BC006F
S1130770C090A300D090A400E090A500F090A60043
S11307808090C7009090C800A090C900B090CA00A3
S113079020E030E0A901C701B6010E9424078823A4
S11307A0B9F320E030E0A901C501B4010E94240797
S11307B0882371F320E030E0A901C301B2010E9453
S11307C024078111E5CF80E790E00E948D0622CEB8
S11307D0C09709F01FCE68E58FEC90E00E9494006A
S11307E06B017C0169E58FEC90E00E9494004B0161
S11307F05C016AE58FEC90E00E9494002B013C01BF
S113080065E48FEC90E00E94940060932301709360
S11308102401809325019093260120E030E0A90172
S11308200E942407882309F4E9C020E030E0A901EC
S1130830C701B6010E942407882309F4DFC020E021
S113084030E0A901C501B4010E942407882309F4FA
S1130850D5C020E030E0A901C301B2010E94240701
S113086081110EC0CBC066E48FEC90E00E9494002E
S113087060933D0170933E0180933F01909340014A
S113088020E030E046ED52E4C701B6010E9483083F
S113089018160CF492C020E030E046ED52E4C50195
S11308A0B4010E94830818160CF487C020E030E0DD
S11308B04AEF53E4C301B2010E94830818160CF4F2
S11308C07CC020E030E046ED52ECC701B6010E9446
S11308D0240788230CF471C020E030E046ED52EC8C
S11308E0C501B4010E94240788230CF466C020E0EB
S11308F030E0A901C301B2010E94240788230CF44B
S11309005CC0B701A6018EE990E00E9424016093C7
S1130910A3007093A4008093A5009093A600B50152
S1130920A4018AE990E00E9424016093C7007093B7
S1130930C8008093C9009093CA00B301A20186E95C
S113094090E00E9424012B013C016093B900709354
S1130950BA008093BB009093BC00C090A300D090D9
S1130960A400E090A500F090A6008090C7009090AD
S1130970C800A090C900B090CA0020E030E0A901EE
S1130980C701B6010E9424078823B9F320E030E0B0
S1130990A901C501B4010E942407882371F320E052
S11309A030E0A901C301B2010E9424078111E5CFFF
S11309B080E790E00E948D062DCD8EE890E00E94A5
S11309C08D0628CD66E48FEC90E00E94940020E030
S11309D030E0A9010E942407882309F47CCE60CE6C
S11309E066E48FEC90E00E94940020E030E0A901DE
S11309F00E942407882309F46ECE60CE66E48FEC4F
S1130A0090E00E94940020E030E0A9010E942407B5
S1130A10882309F435CF27CF1F920F920FB60F9278
S1130A201124CF92DF92EF92FF922F933F934F9333
S1130A305F936F937F938F939F93AF93BF93EF9342
S1130A40FF9380919400909195008D39910530F435
S1130A500196909395008093940009C08091A20020
S1130A6081608093A200109295001092940080916E
S1130A70A20080FF52C080E50E946F010E949B0784
S1130A806B017C016091B1007091B2008091B30060
S1130A909091B4000E949B07DC01CB0147E251E036
S1130AA0B6010E94CF058CBF82E50E946F010E94AF
S1130AB09B076B017C016091CB007091CC0080910D
S1130AC0CD009091CE000E949B07DC01CB0147E250
S1130AD051E0B6010E94CF059BBD8ABD83E50E940B
S1130AE06F010E949B076B017C016091C3007091B0
S1130AF0C4008091C5009091C6000E949B07DC0150
S1130B00CB0147E251E0B6010E94CF0599BD88BDF3
S1130B108091A2008E7F8093A200FF91EF91BF91FC
S1130B20AF919F918F917F916F915F914F913F9181
S1130B302F91FF90EF90DF90CF900F900FBE0F900A
S1130B401F901895CF93DF93FB01E9011A821B8252
S1130B501C821D82198218829F838E8379876887FD
S1130B605B874A87BC016F5F7F4F8FEF9FE70E94CF
S1130B707A097D876C879F012F5F3F4F032E000CFE
S1130B80440B550B6FEF7FEF8FEF9FE30E948E09AD
S1130B902E873F87488B598BDF91CF910895EF9231
S1130BA0FF920F931F93CF93DF938B01FA01861B60
S1130BB0970B248535852817390784F031952195BD
S1130BC03109821793076CF026813781829FE001F7
S1130BD0839FD00D929FD00D112405C0CFEFDFE786
S1130BE002C0C1E0D0E8092E000CAA0BBB0B428165
S1130BF05381648175819A01AB01280F391F4A1F03
S1130C005B1F86859785A089B18982179307A407FE
S1130C10B5074CF482839383A483B5836FEF7FEF8E
S1130C208FEF9FE31DC0B095A095909581959F4F40
S1130C30AF4FBF4F281739074A075B074CF482832D
S1130C409383A483B58361E070E080E090EC08C0F6
S1130C502283338344835583A085B1850E94AD09E3
S1130C6020813181201B310BA285B3852A9F70011D
S1130C702B9FF00C3A9FF00C1124118300838E01FA
S1130C80DD0F220B330BAB01BC01400F511F621F60
S1130C90731FC701FF0CAA0BBB0B480F591F6A1F18
S1130CA07B1FDB01CA01772324F481589F4FAF4F88
S1130CB0BF4F689416F8B595A795979587951694A0
S1130CC0D1F7813020E892072FEFA207B20724F46E
S1130CD081E090E8AFEFBFEF811520E89207A1050E
S1130CE0B10524F08FEF9FE7A0E0B0E0DF91CF9152
S1130CF01F910F91FF90EF90089587E689B910BC7A
S1130D0088E18AB986E880BD08955D9BFECF8CB9E1
S1130D1008955F9BFECF8CB10895CF93DF93EC01D0
S1130D208881882331F021960E948506899181115A
S1130D30FBCFDF91CF9108950F931F93CF938C0135
S1130D40C0E00E9489068A3011F08D3031F4F80138
S1130D50EC0FF11D80E2808306C0F801EC0FF11D59
S1130D608083CF5FEECFCF911F910F91089550589C
S1130D70BB27AA270E94CF060C9449080E943B086F
S1130D8038F00E94420820F039F49F3F19F426F409
S1130D900C9438080EF4E095E7FB0C943208E92F24
S1130DA00E945A0858F3BA17620773078407950715
S1130DB020F079F4A6F50C947C080EF4E0950B2E43
S1130DC0BA2FA02D0B01B90190010C01CA01A00199
S1130DD01124FF27591B99F0593F50F4503E68F1F4
S1130DE01A16F040A22F232F342F4427585FF3CF35
S1130DF0469537952795A795F0405395C9F77EF406
S1130E001F16BA0B620B730B840BBAF09150A1F04E
S1130E10FF0FBB1F661F771F881FC2F70EC0BA0FD4
S1130E20621F731F841F48F4879577956795B7955C
S1130E30F7959E3F08F0B0CF9395880F08F0992757
S1130E40EE0F9795879508950E940E0808F481E0A7
S1130E5008950E943D070C9449080E94420858F0E6
S1130E600E943B0840F029F45F3F29F00C943208BB
S1130E7051110C947D080C9438080E945A0868F3A8
S1130E809923B1F3552391F3951B550BBB27AA273F
S1130E9062177307840738F09F5F5F4F220F331F79
S1130EA0441FAA1FA9F335D00E2E3AF0E0E832D041
S1130EB091505040E695001CCAF72BD0FE2F29D044
S1130EC0660F771F881FBB1F261737074807AB0716
S1130ED0B0E809F0BB0B802DBF01FF2793585F4F8B
S1130EE03AF09E3F510578F00C9432080C947D083A
S1130EF05F3FE4F3983ED4F3869577956795B7956D
S1130F00F7959F5FC9F7880F911D9695879597F977
S1130F100895E1E0660F771F881FBB1F62177307F0
S1130F208407BA0720F0621B730B840BBA0BEE1F05
S1130F3088F7E09508950E94A2076894B1110C9473
S1130F407D0808950E94620888F09F5798F0B92F91
S1130F509927B751B0F0E1F0660F771F881F991FEA
S1130F601AF0BA95C9F714C0B13091F00E947C0808
S1130F70B1E008950C947C08672F782F8827B85F18
S1130F8039F0B93FCCF3869577956795B395D9F742
S1130F903EF490958095709561957F4F8F4F9F4F4C
S1130FA00895E89409C097FB3EF490958095709558
S1130FB061957F4F8F4F9F4F9923A9F0F92F96E9A1
S1130FC0BB279395F695879577956795B795F11116
S1130FD0F8CFFAF4BB0F11F460FF1BC06F5F7F4FB3
S1130FE08F4F9F4F16C0882311F096E911C07723C5
S1130FF021F09EE8872F762F05C0662371F096E8CE
S1131000862F70E060E02AF09A95660F771F881F9C
S1131010DAF7880F9695879597F90895990F000840
S1131020550FAA0BE0E8FEEF16161706E807F907B6
S1131030C0F012161306E407F50798F0621B730B51
S1131040840B950B39F40A2661F0232B242B252BD2
S113105021F408950A2609F4A140A6958FEF811D75
S1131060811D089597F99F6780E870E060E0089516
S11310709FEF80EC089500240A94161617061806AC
S11310800906089500240A94121613061406050688
S11310900895092E0394000C11F4882352F0BB0F19
S11310A040F4BF2B11F460FF04C06F5F7F4F8F4F7C
S11310B09F4F089557FD9058440F551F59F05F3FB7
S11310C071F04795880F97FB991F61F09F3F79F066
S11310D087950895121613061406551FF2CF4695E8
S11310E0F1DF08C0161617061806991FF1CF86956A
S11310F07105610508940895E894BB27662777274E
S1131100CB0197F908950E940E0808F48FEF089513
S113111016F00C9445090C94380868940C94320821
S11311200E946208A8F39923C1F3AEF3DF93CF932F
S11311301F930F93FF92C92FDD2788232AF021974D
S1131140660F771F881FDAF720E030E040E85FEB96
S11311509FE3883920F0803E38F021968F770E94F3
S1131160B806E4E5F0E004C00E94B806E1E8F0E067
S11311700E9453098B01BE01EC01FB2E6F577109CC
S11311807595771F880B990B0E94D30728E132E7E6
S113119041E35FE30E94EB08AF2D9801AE01FF909D
S11311A00F911F91CF91DF910E94CF060C944908B3
S11311B00E94EB080C9449080E943B0838F00E94F6
S11311C0420820F0952311F00C9432080C9438084E
S11311D011240C947D080E945A0870F3959FC1F362
S11311E0950F50E0551F629FF001729FBB27F00DD1
S11311F0B11D639FAA27F00DB11DAA1F649F662726
S1131200B00DA11D661F829F2227B00DA11D621F74
S1131210739FB00DA11D621F839FA00D611D221F2E
S1131220749F3327A00D611D231F849F600D211D12
S1131230822F762F6A2F11249F5750409AF0F1F095
S113124088234AF0EE0FFF1FBB1F661F771F881FFE
S113125091505040A9F79E3F510580F00C943208FC
S11312600C947D085F3FE4F3983ED4F3869577951C
S11312706795B795F795E7959F5FC1F7FE2B880FA4
S1131280911D9695879597F908959F3F31F0915058
S113129020F4879577956795B795880F911D969556
S11312A0879597F90895DF93CF931F930F93FF9238
S11312B0EF92DF927B018C01689406C0DA2EEF0175
S11312C00E94EB08FE01E894A59125913591459182
S11312D05591A6F3EF010E94CF06FE019701A801E4
S11312E0DA9469F7DF90EF90FF900F911F91CF91FF
S11312F0DF91089597FB072E16F4009407D077FD2D
S113130009D00E94B50907FC05D03EF4909581955B
S11313109F4F0895709561957F4F0895052E97FB13
S11313201EF400940E94A50957FD07D00E94C90924
S113133007FC03D04EF40C94A509509540953095C4
S113134021953F4F4F4F5F4F08959095809570952D
S113135061957F4F8F4F9F4F0895B7FF0C94EB0912
S11313600E94EB09821B930B0895AA1BBB1B51E13E
S113137007C0AA1FBB1FA617B70710F0A61BB70B01
S1131380881F991F5A95A9F780959095BC01CD01A6
S11313900895A1E21A2EAA1BBB1BFD010DC0AA1FB2
S11313A0BB1FEE1FFF1FA217B307E407F50720F0CA
S11313B0A21BB30BE40BF50B661F771F881F991F45
S11313C01A9469F760957095809590959B01AC018E
S11313D0BD01CF0108950E94F609A59F900DB49F09
S11313E0900DA49F800D911D11240895A29FB0011A
S11313F0B39FC001A39F700D811D1124911DB29F45
S1131400700D811D1124911D0895662777270C9472
S1131410540AFC0188279927E89421912032E9F3A2
S1131420293010F02E30C8F32B3241F02D3239F42C
S1131430689404C00E94320A820F911D21912053A6
S11314402A30C0F31EF4909581959F4F0895BB27D1
S11314504A3031F4992322F4BDE2909581959F4F4F
S11314600C943B0A7AE0979F902D879F802D910DD5
S113147011240895BB27FB015527AA27880F991F1C
S1131480AA1FA41710F0A41B83955051B9F7A05DAF
S1131490AA3308F0A95DA193009779F7B111B1932C
S11314A01192CB010C94C30BA0E0B0E0EAE5FAE0A2
S11314B00C94DC0BEC016B016115710519F0FB0157
S11314C0918380837E01FFEFEF1AFF0A0881802F4A
S11314D090E00E94A20B892B11F0E701F3CF0D32AB
S11314E039F47E0182E0E80EF11C098111E008C0A4
S11314F00B3229F47E0192E0E90EF11C098110E01F
S1131500E701219743E050E066EB70E0CE010E94D2
S1131510AB0B892BC1F4239645E050E061EB70E0FE
S1131520CE010E94AB0B892B09F42596C114D1047A
S113153019F0F601D183C0831111F6C060E070E0A8
S113154080E89FE7FAC043E050E06EEA70E0CE0125
S11315500E94AB0B892B59F4C114D10409F4E9C0DE
S1131560F2E0EF0EF11CF601F182E082E2C020E02D
S113157030E0A901C0E0D0E0F70180EDA82EA00E74
S113158089E08A1530F1912F9260B92E812F8870ED
S113159012FF04C0811124C0219622C08111219719
S11315A0A5E0B0E00E94EB09DC01CB01880F991F94
S11315B0AA1FBB1F9C01AD012A0D311D411D511DE8
S11315C0283989E93807480789E1580748F016603F
S11315D006C09EEFA9120AC013FD40C01860B12EC8
S11315E08FEFE81AF80A00811B2DC6CF802F8F7D5C
S11315F08534A1F580818D3211F4106106C08B32DF
S113160021F0319661E070E004C08181329662E09D
S113161070E080538A3018F0E61BF70B1FC060E0BF
S113162070E060389CE079075CF4DB01AA0FBB1F13
S1131630AA0FBB1F6A0F7B1F660F771F680F711DF0
S11316403196DF0111978C9180538A3050F314FF47
S113165003C0719561957109C60FD71F11FF08C0AA
S1131660C114D10429F0CF010197F601918380833D
S1131670CA01B9010E94D107212F2370233019F028
S11316804B015C0106C04B015C01B7FAB094B7F89A
S1131690B09420E030E0A901C501B4010E94240700
S11316A0882309F43EC0D7FF06C0D195C195D1095E
S11316B00DEC10E002C005EE10E06801F8E1CF1A6D
S11316C0D10890E2E92EF12CCE15DF0574F0F80173
S11316D02591359145915491C501B4010E94D808D2
S11316E04B015C01CE19DF09EFCF04501109F594C9
S11316F0E7940C151D0541F78A2D880F8B2D881F43
S11317008F3F49F020E030E0A901C501B4010E94F7
S11317102407811106C082E290E0909348018093EF
S11317204701C501B40109C060E070E080E89FEFA3
S113173004C060E070E080EC9FE7CDB7DEB7ECE07A
S11317400C94F80B91110C94D30B803219F089503E
S11317508550C8F70895FB01DC014150504088F0E2
S11317608D9181341CF08B350CF4805E659161346D
S11317701CF06B350CF4605E861B611171F3990BE0
S11317800895881BFCCFDC01FC01672F719177233E
S1131790E1F7329704C07C916D9370836291AE1728
S11317A0BF07C8F308959927882708952F923F9279
S11317B04F925F926F927F928F929F92AF92BF925D
S11317C0CF92DF92EF92FF920F931F93CF93DF9309
S11317D0CDB7DEB7CA1BDB0B0FB6F894DEBF0FBE66
S11317E0CDBF09942A88398848885F846E847D84B3
S11317F08C849B84AA84B984C884DF80EE80FD80B5
S11318000C811B81AA81B981CE0FD11D0FB6F8942A
S1111810DEBF0FBECDBFED010895F894FFCFEB
S113181E6CCF5834D6647939CB48843A00401C4690
S113182E6F6B006572726F72206578747275646581
S113183E722074656D70657261747572650065727F
S107184E726F72003F
S9030000FC
