S01700005052495343415F6672696D776172652E737265638F
S11300000C9475000C9492000C9492000C94920041
S11300100C9492000C9492000C9492000C94920014
S11300200C9492000C9492000C9492000C94920004
S11300300C9492000C9492000C9492000C949200F4
S11300400C9492000C9492000C9492000C949200E4
S11300500C94920008000000BE922449123EABAA00
S1130060AA2ABECDCCCC4C3E00000080BEABAAAACE
S1130070AA3E00000000BF000000803F0000000016
S113008000084178D3BB4387D1133D190E3CC3BD4F
S11300904282AD2B3E68EC8276BED98FE1A93E4CFC
S11300A080EFFFBE01C4FF7F3F00000000004E410F
S11300B04E494E495459494E46CDCCCC3D0AD723DE
S11300C03C17B7D13877CC2B329595E6241FB14F26
S11300D00A000020410000C84200401C4620BCBE6B
S11300E04CCA1B0E5AAEC59D740011241FBECFE529
S11300F0D4E0DEBFCDBF10E0A0E6B0E0EEE6F4E170
S113010002C005900D92AA37B107D9F721E0AAE7FA
S1130110B0E001C01D92A530B207E1F70E94ED02E4
S11301200C94350A0C940000CF93DF93CDB7DEB75F
S11301302A970FB6F894DEBF0FBECDBFAC01FE0107
S11301403196CE010B9611928E179F07E1F760E06E
S113015070E020E030E0FA01E20FF31F908198355F
S113016099F4F901E60FF71FE40FF51F8181A1E06F
S1130170B0E0AC0FBD1FA60FB71F8C9382818032F5
S113018041F06F5F7F4F02C02F5F3F4F2035310535
S113019014F3CE0101960E9448082A960FB6F894EB
S11301A0DEBF0FBECDBFDF91CF910895CF93DF9314
S11301B0CDB7DEB72A970FB6F894DEBF0FBECDBF1A
S11301C0AC01FE013196CE010B9611928E179F075A
S11301D0E1F760E070E020E030E0FA01E20FF31FA5
S11301E09081993599F4F901E60FF71FE40FF51F93
S11301F08181A1E0B0E0AC0FBD1FA60FB71F8C93A7
S11302008281803241F06F5F7F4F02C02F5F3F4F8A
S11302102035310514F3CE0101960E9448082A9630
S11302200FB6F894DEBF0FBECDBFDF91CF91089516
S1130230CF93DF93CDB7DEB72A970FB6F894DEBF1E
S11302400FBECDBFAC01FE013196CE010B961192CB
S11302508E179F07E1F760E070E020E030E0FA01DC
S1130260E20FF31F90819A3599F4F901E60FF71F15
S1130270E40FF51F8181A1E0B0E0AC0FBD1FA60F14
S1130280B71F8C938281803241F06F5F7F4F02C031
S11302902F5F3F4F2035310514F3CE0101960E94A4
S11302A048082A960FB6F894DEBF0FBECDBFDF9183
S11302B0CF910895CF93DF93CDB7DEB72A970FB6CA
S11302C0F894DEBF0FBECDBFAC01FE013196CE0166
S11302D00B9611928E179F07E1F760E070E020E023
S11302E030E0FA01E20FF31F9081963499F4F9019A
S11302F0E60FF71FE40FF51F8181A1E0B0E0AC0F1A
S1130300BD1FA60FB71F8C938281803241F06F5FAF
S11303107F4F02C02F5F3F4F2035310514F3CE01CC
S113032001960E9448082A960FB6F894DEBF0FBEC5
S1130330CDBFDF91CF910895CF93DF93CDB7DEB7D3
S11303402A970FB6F894DEBF0FBECDBFAC01FE01F5
S11303503196CE010B9611928E179F07E1F760E05C
S113036070E020E030E0FA01E20FF31F9081933552
S113037099F4F901E60FF71FE40FF51F8181A1E05D
S1130380B0E0AC0FBD1FA60FB71F8C9382818032E3
S113039041F06F5F7F4F02C02F5F3F4F2035310523
S11303A014F3CE0101960E9448082A960FB6F894D9
S11303B0DEBF0FBECDBFDF91CF910895CF93DF9302
S11303C0CDB7DEB72A970FB6F894DEBF0FBECDBF08
S11303D0AC01FE013196CE010B9611928E179F0748
S11303E0E1F760E070E020E030E0FA01E20FF31F93
S11303F09081953499F4F901E60FF71FE40FF51F86
S11304008181A1E0B0E0AC0FBD1FA60FB71F8C9394
S11304108281803241F06F5F7F4F02C02F5F3F4F78
S11304202035310514F3CE0101960E9448082A961E
S11304300FB6F894DEBF0FBECDBFDF91CF91089504
S1130440CF92DF92EF92FF92CF93DF93EC016A0198
S11304507B01288139814A815B81C701B6010E94F1
S11304608505C882D982EA82FB82DF91CF91FF9011
S1130470EF90DF90CF90089586B1876886B93E9A51
S11304808AB38ABB0E94480508953898369A86B183
S1130490349A64B175B180E090E00E949F0628E62A
S11304A038EE4FE95BE30E94A6070E946906709349
S11304B002016093010184B195B108958F929F92D6
S11304C0AF92BF92CF92DF92EF92FF920E944502C9
S11304D09093970080939600BC01990F880B990B19
S11304E00E94A1069B01AC0160E070EC8FE794E4EC
S11304F00E94F70520E030E040E85FE30E948505B4
S113050020916C0030916D0040916E0050916F000D
S11305100E94A6076093EC007093ED008093EE00B8
S11305209093EF000E945E076B017C016093FD00D5
S11305307093FE008093FF0090930001209164006B
S11305403091650040916600509167000E94A607B3
S1130550209168003091690040916A0050916B00CD
S11305600E9486054B015C0120916000309161007E
S11305704091620050916300C701B6010E94A60732
S1130580A70196010E94A607A70196010E94A6074B
S11305909B01AC01C501B4010E9486059B01AC011D
S11305A060E070E080E89FE30E94F70523E333E90D
S11305B048E853E40E94850560938A0070938B0099
S11305C080938C0090938D00FF90EF90DF90CF90FC
S11305D0BF90AF909F908F900895CF93DF9300D0FA
S11305E000D01F92CDB7DEB70E943C020CEE10E0A3
S11305F0ECE9F0E011920E171F07E1F719821A8255
S11306001B821C821D828CE990E00E946705809108
S11306109C008D3409F043C080919D008B3341F0E0
S1130620DE011196EEE9F0E08D9381918B33E1F7D1
S1130630CE0101960E944C088936910529F480E781
S113064090E00E945805D4CF8836910589F48CE94E
S113065090E00E949C0160938E0070938F008093C1
S113066090009093910080E790E00E945805C0CFDD
S11306708D36910509F0BCCF0E945E0220918E0058
S113068030918F0040919000509191000E94F205AA
S11306908111F2CF80E790E00E945805A9CF8734FA
S11306A009F0A6CF80919D00803241F0DE011196C1
S11306B0EEE9F0E08D9381918032E1F7CE0101966D
S11306C00E944C088133910509F0FAC08CE990E04E
S11306D00E9494006B017C018CE990E00E94D6009A
S11306E04B015C018CE990E00E9418012B013C0154
S11306F08CE990E00E94DE016093F0007093F100B9
S11307008093F2009093F30020E030E0A9010E946E
S1130710F205882309F4A2C120E030E0A901C70151
S1130720B6010E94F205882309F498C120E030E064
S1130730A901C501B4010E94F205882309F48EC100
S113074020E030E0A901C301B2010E94F205811149
S113075092C184C18CE990E00E945A016093F40034
S11307607093F5008093F6009093F7000CC08CE929
S113077090E00E945A016093F8007093F90080930E
S1130780FA009093FB0020E030E046ED52E4C7010C
S1130790B6010E94510718160CF42ACF20E030E06D
S11307A046ED52E4C501B4010E94510718160CF439
S11307B01FCF20E030E04AEF53E4C301B2010E94AE
S11307C0510718160CF414CF20E030E046ED52EC3B
S11307D0C701B6010E94F20588230CF409CF20E07A
S11307E030E046ED52ECC501B4010E94F2058823C5
S11307F00CF4FECE20E030E0A901C301B2010E9456
S1130800F20588230CF4F4CEB701A60182E890E047
S11308100E94200260938600709387008093880072
S113082090938900B501A4018EE790E00E94200214
S1130830609398007093990080939A0090939B0022
S1130840B301A2018AE790E00E9420022B013C013F
S1130850609392007093930080939400909395001A
S1130860C0908600D0908700E0908800F0908900C6
S11308708090980090909900A0909A00B0909B006E
S113088020E030E0A901C701B6010E94F2058823E7
S1130890B9F320E030E0A901C501B4010E94F205DA
S11308A0882371F320E030E0A901C301B2010E9462
S11308B0F2058111E5CF80E790E00E94580598CEBB
S11308C0C09709F095CE8CE990E00E9494002B012A
S11308D03C018CE990E00E94D6004B015C018CE95C
S11308E090E00E9418016B017C018CE990E00E9469
S11308F05A0120E030E0A9010E94F205882361F04A
S11309008CE990E00E945A016093F8007093F9001A
S11309108093FA009093FB0020E030E046ED52E42F
S1130920C301B2010E94510718160CF492C020E0D2
S113093030E046ED52E4C501B4010E945107181697
S11309400CF487C020E030E04AEF53E4C701B6015D
S11309500E94510718160CF47CC020E030E046EDEC
S113096052ECC301B2010E94F20588230CF471C059
S113097020E030E046ED52ECC501B4010E94F205DE
S113098088230CF466C020E030E0A901C701B60159
S11309900E94F20588230CF45CC0B301A20182E832
S11309A090E00E94200260938600709387008093F9
S11309B0880090938900B501A4018EE790E00E941D
S11309C02002609398007093990080939A0090930A
S11309D09B00B701A6018AE790E00E9420022B0148
S11309E03C016093920070939300809394009093E1
S11309F09500C0908600D0908700E0908800F09029
S1130A0089008090980090909900A0909A00B090EE
S1130A109B0020E030E0A901C701B6010E94F20565
S1130A208823B9F320E030E0A901C501B4010E9494
S1130A30F205882371F320E030E0A901C301B2017B
S1130A400E94F2058111E5CF80E790E00E945805ED
S1130A50CFCD83E790E00E945805CACD8CE990E0A1
S1130A600E945A0120E030E0A9010E94F205882387
S1130A7009F489CE6FCE8CE990E00E945A0120E0FF
S1130A8030E0A9010E94F205882309F47CCE6FCEE0
S1130A9087E689B910BC88E18AB986E880BD0895E3
S1130AA05D9BFECF8CB908955F9BFECF8CB10895FA
S1130AB0CF93DF93EC018881882331F021960E9443
S1130AC0500589918111FBCFDF91CF9108950F9348
S1130AD01F93CF938C01C0E00E9454058B3329F4FB
S1130AE0F801EC0FF11D80830CC0883021F4CC2375
S1130AF011F0C150F1CFF801EC0FF11D8083CF5FED
S1130B00EBCFCF911F910F9108955058BB27AA277F
S1130B100E949D050C9417070E94090738F00E9453
S1130B20100720F039F49F3F19F426F40C940607BB
S1130B300EF4E095E7FB0C940007E92F0E942807C8
S1130B4058F3BA17620773078407950720F079F4FE
S1130B50A6F50C944A070EF4E0950B2EBA2FA02D9F
S1130B600B01B90190010C01CA01A0011124FF2756
S1130B70591B99F0593F50F4503E68F11A16F04051
S1130B80A22F232F342F4427585FF3CF4695379550
S1130B902795A795F0405395C9F77EF41F16BA0B15
S1130BA0620B730B840BBAF09150A1F0FF0FBB1FC3
S1130BB0661F771F881FC2F70EC0BA0F621F731F0C
S1130BC0841F48F4879577956795B795F7959E3F69
S1130BD008F0B0CF9395880F08F09927EE0F9795FA
S1130BE0879508950E94DC0608F481E008950E9428
S1130BF00B060C9417070E94100758F00E9409076F
S1130C0040F029F45F3F29F00C94000751110C9433
S1130C104B070C9406070E94280768F39923B1F345
S1130C20552391F3951B550BBB27AA27621773070E
S1130C30840738F09F5F5F4F220F331F441FAA1FA2
S1130C40A9F335D00E2E3AF0E0E832D0915050405E
S1130C50E695001CCAF72BD0FE2F29D0660F771F0C
S1130C60881FBB1F261737074807AB07B0E809F0F2
S1130C70BB0B802DBF01FF2793585F4F3AF09E3F77
S1130C80510578F00C9400070C944B075F3FE4F394
S1130C90983ED4F3869577956795B795F7959F5FBA
S1130CA0C9F7880F911D9695879597F90895E1E006
S1130CB0660F771F881FBB1F621773078407BA0765
S1130CC020F0621B730B840BBA0BEE1F88F7E095C0
S1130CD008950E9470066894B1110C944B0708950E
S1130CE00E94300788F09F5798F0B92F9927B75181
S1130CF0B0F0E1F0660F771F881F991F1AF0BA95BC
S1130D00C9F714C0B13091F00E944A07B1E00895C8
S1130D100C944A07672F782F8827B85F39F0B93FBA
S1130D20CCF3869577956795B395D9F73EF490956E
S1130D308095709561957F4F8F4F9F4F0895E894EC
S1130D4009C097FB3EF490958095709561957F4F0F
S1130D508F4F9F4F9923A9F0F92F96E9BB279395BD
S1130D60F695879577956795B795F111F8CFFAF4CD
S1130D70BB0F11F460FF1BC06F5F7F4F8F4F9F4FFE
S1130D8016C0882311F096E911C0772321F09EE85C
S1130D90872F762F05C0662371F096E8862F70E0C2
S1130DA060E02AF09A95660F771F881FDAF7880F9C
S1130DB09695879597F90895990F0008550FAA0BF2
S1130DC0E0E8FEEF16161706E807F907C0F012165A
S1130DD01306E407F50798F0621B730B840B950B5D
S1130DE039F40A2661F0232B242B252B21F40895B2
S1130DF00A2609F4A140A6958FEF811D811D08954F
S1130E0097F99F6780E870E060E008959FEF80ECB9
S1130E10089500240A94161617061806090608955C
S1130E2000240A9412161306140605060895092EC2
S1130E300394000C11F4882352F0BB0F40F4BF2B31
S1130E4011F460FF04C06F5F7F4F8F4F9F4F089571
S1130E5057FD9058440F551F59F05F3F71F0479567
S1130E60880F97FB991F61F09F3F79F0879508954C
S1130E70121613061406551FF2CF4695F1DF08C06B
S1130E80161617061806991FF1CF86957105610588
S1130E9008940895E894BB2766277727CB0197F930
S1130EA008950E94DC0608F48FEF089516F00C9460
S1130EB013080C94060768940C9400070E943007EA
S1130EC0A8F39923C1F3AEF3DF93CF931F930F934A
S1130ED0FF92C92FDD2788232AF02197660F771FF9
S1130EE0881FDAF720E030E040E85FEB9FE38839C1
S1130EF020F0803E38F021968F770E948605E4E545
S1130F00F0E004C00E948605E1E8F0E00E942108B8
S1130F108B01BE01EC01FB2E6F5771097595771F8C
S1130F20880B990B0E94A10628E132E741E35FE3B5
S1130F300E94B907AF2D9801AE01FF900F911F9148
S1130F40CF91DF910E949D050C9417070E94B90769
S1130F500C9417070E94090738F00E94100720F02C
S1130F60952311F00C9400070C94060711240C949B
S1130F704B070E94280770F3959FC1F3950F50E02B
S1130F80551F629FF001729FBB27F00DB11D639F37
S1130F90AA27F00DB11DAA1F649F6627B00DA11DDD
S1130FA0661F829F2227B00DA11D621F739FB00D83
S1130FB0A11D621F839FA00D611D221F749F3327F3
S1130FC0A00D611D231F849F600D211D822F762F8C
S1130FD06A2F11249F5750409AF0F1F088234AF069
S1130FE0EE0FFF1FBB1F661F771F881F91505040D5
S1130FF0A9F79E3F510580F00C9400070C944B0711
S11310005F3FE4F3983ED4F3869577956795B7955B
S1131010F795E7959F5FC1F7FE2B880F911D969575
S1131020879597F908959F3F31F0915020F4879563
S113103077956795B795880F911D9695879597F93C
S11310400895DF93CF931F930F93FF92EF92DF9254
S11310507B018C01689406C0DA2EEF010E94B90767
S1131060FE01E894A5912591359145915591A6F3FA
S1131070EF010E949D05FE019701A801DA9469F72A
S1131080DF90EF90FF900F911F91CF91DF91089522
S1131090662777270C947208FC0188279927E8941F
S11310A021912032E9F3293010F02E30C8F32B328D
S11310B041F02D3239F4689404C00E946A08820F0A
S11310C0911D219120532A30C0F31EF490958195EF
S11310D09F4F08957AE0979F902D879F802D910DC3
S11310E011240895A0E0B0E0E8E7F8E00C94F509D5
S11310F0EC016B016115710519F0FB01918380838B
S11311007E01FFEFEF1AFF0A0881802F90E00E9412
S1131110C009892B11F0E701F3CF0D3239F47E01B8
S113112082E0E80EF11C098111E008C00B3229F4B9
S11311307E0192E0E90EF11C098110E0E70121979C
S113114043E050E066EB70E0CE010E94C909892BB0
S1131150C1F4239645E050E061EB70E0CE010E94BB
S1131160C909892B09F42596C114D10419F0F60193
S1131170D183C0831111F6C060E070E080E89FE77E
S1131180FAC043E050E06EEA70E0CE010E94C90963
S1131190892B59F4C114D10409F4E9C0F2E0EF0E2B
S11311A0F11CF601F182E082E2C020E030E0A90106
S11311B0C0E0D0E0F70180EDA82EA00E89E08A15EA
S11311C030F1912F9260B92E812F887012FF04C0E4
S11311D0811124C0219622C081112197A5E0B0E09D
S11311E00E94E409DC01CB01880F991FAA1FBB1FD1
S11311F09C01AD012A0D311D411D511D283989E97C
S11312003807480789E1580748F0166006C09EEF82
S1131210A9120AC013FD40C01860B12E8FEFE81A5E
S1131220F80A00811B2DC6CF802F8F7D8534A1F550
S113123080818D3211F4106106C08B3221F0319619
S113124061E070E004C08181329662E070E0805316
S11312508A3018F0E61BF70B1FC060E070E06038BE
S11312609CE079075CF4DB01AA0FBB1FAA0FBB1F2C
S11312706A0F7B1F660F771F680F711D3196DF01A0
S113128011978C9180538A3050F314FF03C07195E9
S113129061957109C60FD71F11FF08C0C114D1048D
S11312A029F0CF010197F60191838083CA01B90126
S11312B00E949F06212F2370233019F04B015C01FB
S11312C006C04B015C01B7FAB094B7F8B09420E0C3
S11312D030E0A901C501B4010E94F205882309F494
S11312E03EC0D7FF06C0D195C195D1090DEC10E0E1
S11312F002C005EE10E06801F8E1CF1AD10890E2CF
S1131300E92EF12CCE15DF0574F0F8012591359105
S113131045915491C501B4010E94A6074B015C019B
S1131320CE19DF09EFCF04501109F594E7940C1599
S11313301D0541F78A2D880F8B2D881F8F3F49F09B
S113134020E030E0A901C501B4010E94F205811139
S113135006C082E290E09093040180930301C501EA
S1131360B40109C060E070E080E89FEF04C060E071
S113137070E080EC9FE7CDB7DEB7ECE00C94110A87
S113138091110C94E109803219F089508550C8F705
S11313900895FB01DC014150504088F08D91813467
S11313A01CF08B350CF4805E659161341CF06B3558
S11313B00CF4605E861B611171F3990B0895881B10
S11313C0FCCF9927882708950E94260AA59F900D8F
S11313D0B49F900DA49F800D911D112408952F9208
S11313E03F924F925F926F927F928F929F92AF92B1
S11313F0BF92CF92DF92EF92FF920F931F93CF93FE
S1131400DF93CDB7DEB7CA1BDB0B0FB6F894DEBF94
S11314100FBECDBF09942A88398848885F846E84BA
S11314207D848C849B84AA84B984C884DF80EE8004
S1131430FD800C811B81AA81B981CE0FD11D0FB60D
S1131440F894DEBF0FBECDBFED010895A29FB00199
S1131450B39FC001A39F700D811D1124911DB29FE4
S1111460700D811D1124911D0895F894FFCF85
S113146E6CCF5834D6647939CB48843A00401C4644
S10D147E6F6B006572726F7200005C
S9030000FC
