S01700005052495343415F6672696D776172652E737265638F
S11300000C9475000C9492000C9492000C94920041
S11300100C9492000C9492000C9492000C94920014
S11300200C9492000C947E040C9492000C94920014
S11300300C9492000C9492000C9492000C949200F4
S11300400C9492000C9492000C9492000C949200E4
S11300500C94920008000000BE922449123EABAA00
S1130060AA2ABECDCCCC4C3E00000080BEABAAAACE
S1130070AA3E00000000BF000000803F0000000016
S113008000084178D3BB4387D1133D190E3CC3BD4F
S11300904282AD2B3E68EC8276BED98FE1A93E4CFC
S11300A080EFFFBE01C4FF7F3F00000000004E410F
S11300B04E494E495459494E46CDCCCC3D0AD723DE
S11300C03C17B7D13877CC2B329595E6241FB14F26
S11300D00A000020410000C84200401C4620BCBE6B
S11300E04CCA1B0E5AAEC59D740011241FBECFE529
S11300F0D4E0DEBFCDBF10E0A0E6B0E0E2EAF3E179
S113010002C005900D92AA37B107D9F721E0AAE7FA
S1130110B0E001C01D92A530B207E1F70E94F501DD
S11301200C94CF090C9400000F931F93CF93DF938B
S1130130CDB7DEB72A970FB6F894DEBF0FBECDBF9A
S1130140AC01FE013196CE010B961192E817F90726
S1130150E1F700E010E020E030E0FA01E20FF31FE5
S11301609081961315C0F901E00FF11FE40FF51FFC
S11301708181A1E0B0E0AC0FBD1FA00FB11F8C9333
S11301808281803241F08B3331F00F5F1F4FE5CF16
S11301902F5F3F4FE2CFCE0101960E94E2072A96DD
S11301A00FB6F894DEBF0FBECDBFDF91CF911F9184
S11301B00F9108950F931F93CF93DF93CDB7DEB7BD
S11301C02A970FB6F894DEBF0FBECDBFAC01FE0177
S11301D03196CE010B961192E817F907E1F700E08A
S11301E010E020E030E0FA01E20FF31F9081961353
S11301F015C0F901E00FF11FE40FF51F8181A1E0A3
S1130200B0E0AC0FBD1FA00FB11F8C938281803270
S113021041F08B3331F00F5F1F4FE5CF2F5F3F4F1E
S1130220E2CFCE0101960E94E6072A960FB6F89413
S1130230DEBF0FBECDBFDF91CF911F910F91089507
S1130240CF92DF92EF92FF92CF93DF93EC016A019A
S11302507B01288139814A815B81C701B6010E94F3
S11302601F05C882D982EA82FB82DF91CF91FF9079
S1130270EF90DF90CF90089586B1876886B93E9A53
S11302808AB38ABB8D9A0E94D30412BE83B7856059
S113029083BF81E089BF789408953898369A86B1EF
S11302A0349A64B175B180E090E00E94390628E682
S11302B038EE4FE95BE30E9440070E940306709307
S11302C002016093010184B195B108958F929F92C8
S11302D0AF92BF92CF92DF92EF92FF920E944D01B4
S11302E09093970080939600BC01990F880B990B0B
S11302F00E943B069B01AC0160E070EC8FE794E444
S11303000E94910520E030E040E85FE30E941F0571
S113031020916C0030916D0040916E0050916F00FF
S11303200E9440076093EC007093ED008093EE0010
S11303309093EF000E94F8066B017C016093FD002E
S11303407093FE008093FF0090930001209164005D
S11303503091650040916600509167000E9440070B
S1130360209168003091690040916A0050916B00BF
S11303700E9420054B015C012091600030916100D6
S11303804091620050916300C701B6010E9440078A
S1130390A70196010E944007A70196010E94400709
S11303A09B01AC01C501B4010E9420059B01AC0175
S11303B060E070E080E89FE30E94910523E333E965
S11303C048E853E40E941F0560938A0070938B00F1
S11303D080938C0090938D00FF90EF90DF90CF90EE
S11303E0BF90AF909F908F9008950E943C01CCEEF7
S11303F0D0E0ECE9F0E01192EC17FD07E1F78CE9AD
S113040090E00E94010580919C008D3409F046C063
S11304106DE48CE990E00E94DA008936910529F4B4
S113042080E790E00E94F204E4CF8836910591F4CD
S113043063E58CE990E00E94940060938E007093D1
S11304408F00809390009093910080E790E00E9449
S1130450F204CFCF8D36910561F6959A0E9466011C
S11304606B017C0120E030E040E050E460918E00BC
S113047070918F0080919000909191000E942005CE
S11304809B01AC01C701B6010E948C05181634F714
S1130490959880E790E00E94F204ABCF873409F08E
S11304A0A8CF67E48CE990E00E94DA0081339105DB
S11304B009F000C168E58CE990E00E9494006B01AA
S11304C07C0169E58CE990E00E9494004B015C0199
S11304D06AE58CE990E00E9494002B013C0165E4FC
S11304E08CE990E00E9494006093F0007093F10016
S11304F08093F2009093F30020E030E0A9010E9481
S11305008C05882309F4D0C120E030E0A901C7019B
S1130510B6010E948C05882309F4C6C120E030E0AE
S1130520A901C501B4010E948C05882309F4BCC14A
S113053020E030E0A901C301B2010E948C058111C1
S1130540C1C1B2C166E48CE990E00E94940060935A
S1130550F4007093F5008093F6009093F7000DC0BB
S113056066E48CE990E00E9494006093F800709334
S1130570F9008093FA009093FB0020E030E046ED10
S113058052E4C701B6010E94EB0618160CF431CFF1
S113059020E030E046ED52E4C501B4010E94EB06D0
S11305A018160CF426CF20E030E04AEF53E4C301E0
S11305B0B2010E94EB0618160CF41BCF20E030E0C9
S11305C046ED52ECC701B6010E948C0588230CF459
S11305D010CF20E030E046ED52ECC501B4010E949A
S11305E08C0588230CF405CF20E030E0A901C30179
S11305F0B2010E948C0588230CF4FBCEB701A6013E
S113060082E890E00E942001609386007093870046
S11306108093880090938900B501A4018EE790E04F
S11306200E942001609398007093990080939A002F
S113063090939B00B301A2018AE790E00E942001FD
S11306402B013C016093920070939300809394007B
S1130650909395008090860090908700A0908800E9
S1130660B0908900C0909800D0909900E0909A00D2
S1130670F0909B0020E030E0A901C501B4010E9484
S11306808C058823B9F320E030E0A901C701B60145
S11306900E948C05882371F320E030E0A901C30196
S11306A0B2010E948C058111E5CF80E790E00E94A1
S11306B0F2049FCEC09709F09CCE68E58CE990E0E7
S11306C00E9494006B017C0169E58CE990E00E9432
S11306D094004B015C016AE58CE990E00E9494006F
S11306E02B013C0165E48CE990E00E949400609346
S11306F0F0007093F1008093F2009093F30020E0F7
S113070030E0A9010E948C05882309F4E9C020E0A7
S113071030E0A901C701B6010E948C05882309F4C1
S1130720DFC020E030E0A901C501B4010E948C05BE
S1130730882309F4D5C020E030E0A901C301B20147
S11307400E948C0581110EC0CBC066E48CE990E058
S11307500E9494006093F8007093F9008093FA006B
S11307609093FB0020E030E046ED52E4C701B6016F
S11307700E94EB0618160CF492C020E030E046ED1F
S113078052E4C501B4010E94EB0618160CF487C0AC
S113079020E030E04AEF53E4C301B2010E94EB06CB
S11307A018160CF47CC020E030E046ED52ECC70192
S11307B0B6010E948C0588230CF471C020E030E05F
S11307C046ED52ECC501B4010E948C0588230CF45B
S11307D066C020E030E0A901C301B2010E948C058B
S11307E088230CF45CC0B701A60182E890E00E9463
S11307F02001609386007093870080938800909313
S11308008900B501A4018EE790E00E942001609365
S113081098007093990080939A0090939B00B30181
S1130820A2018AE790E00E9420012B013C01609321
S1130830920070939300809394009093950080901D
S1130840860090908700A0908800B0908900C090A6
S11308509800D0909900E0909A00F0909B0020E0DE
S113086030E0A901C501B4010E948C058823B9F3C5
S113087020E030E0A901C701B6010E948C0588235D
S113088071F320E030E0A901C301B2010E948C059C
S11308908111E5CF80E790E00E94F204AACD83E7BE
S11308A090E00E94F204A5CD66E48CE990E00E94F9
S11308B0940020E030E0A9010E948C05882309F40B
S11308C05CCE40CE66E48CE990E00E94940020E087
S11308D030E0A9010E948C05882309F44ECE40CE55
S11308E066E48CE990E00E94940020E030E0A901E5
S11308F00E948C05882309F435CF27CF1F920F92CD
S11309000FB60F921124CF92DF92EF92FF922F93A2
S11309103F934F935F936F937F938F939F93AF9383
S1130920BF93EF93FF930E94660120918E00309154
S11309308F0040919000509191000E948C051816F0
S113094014F0959A1BC00E9466016B017C0120E0A3
S113095030E040E050E460918E0070918F0080910F
S11309609000909191000E9420059B01AC01C70169
S1130970B6010E94EB0618160CF49598FF91EF91BE
S1130980BF91AF919F918F917F916F915F914F91A3
S11309903F912F91FF90EF90DF90CF900F900FBE7B
S11309A00F901F90189587E689B910BC88E18AB921
S11309B086E880BD08955D9BFECF8CB908955F9B4A
S11309C006C00EC00197A109B10929F407C080E946
S11309D09FE5A1E0B0E05F9BF5CF02C08BE30895F3
S11309E08CB10895CF93DF93EC018881882331F093
S11309F021960E94DB0489918111FBCFDF91CF9175
S1130A0008950F931F93CF938C01C0E00E94DF04DD
S1130A108B3329F4F801EC0FF11D80830CC088306E
S1130A2021F4CC2311F0C150F1CFF801EC0FF11DEA
S1130A308083CF5FEBCFCF911F910F9108955058D2
S1130A40BB27AA270E9437050C94B1060E94A3066F
S1130A5038F00E94AA0620F039F49F3F19F426F4D6
S1130A600C94A0060EF4E095E7FB0C949A06E92F8B
S1130A700E94C20658F3BA176207730784079507E2
S1130A8020F079F4A6F50C94E4060EF4E0950B2E10
S1130A90BA2FA02D0B01B90190010C01CA01A001CC
S1130AA01124FF27591B99F0593F50F4503E68F127
S1130AB01A16F040A22F232F342F4427585FF3CF68
S1130AC0469537952795A795F0405395C9F77EF439
S1130AD01F16BA0B620B730B840BBAF09150A1F082
S1130AE0FF0FBB1F661F771F881FC2F70EC0BA0F08
S1130AF0621F731F841F48F4879577956795B79590
S1130B00F7959E3F08F0B0CF9395880F08F099278A
S1130B10EE0F9795879508950E94760608F481E074
S1130B2008950E94A5050C94B1060E94AA0658F0E7
S1130B300E94A30640F029F45F3F29F00C949A0622
S1130B4051110C94E5060C94A0060E94C20668F3A9
S1130B509923B1F3552391F3951B550BBB27AA2772
S1130B6062177307840738F09F5F5F4F220F331FAC
S1130B70441FAA1FA9F335D00E2E3AF0E0E832D074
S1130B8091505040E695001CCAF72BD0FE2F29D077
S1130B90660F771F881FBB1F261737074807AB0749
S1130BA0B0E809F0BB0B802DBF01FF2793585F4FBE
S1130BB03AF09E3F510578F00C949A060C94E506A1
S1130BC05F3FE4F3983ED4F3869577956795B795A0
S1130BD0F7959F5FC9F7880F911D9695879597F9AB
S1130BE00895E1E0660F771F881FBB1F6217730724
S1130BF08407BA0720F0621B730B840BBA0BEE1F39
S1130C0088F7E09508950E940A066894B1110C943F
S1130C10E50608950E94CA0688F09F5798F0B92FF8
S1130C209927B751B0F0E1F0660F771F881F991F1D
S1130C301AF0BA95C9F714C0B13091F00E94E406D5
S1130C40B1E008950C94E406672F782F8827B85FE5
S1130C5039F0B93FCCF3869577956795B395D9F775
S1130C603EF490958095709561957F4F8F4F9F4F7F
S1130C700895E89409C097FB3EF49095809570958B
S1130C8061957F4F8F4F9F4F9923A9F0F92F96E9D4
S1130C90BB279395F695879577956795B795F11149
S1130CA0F8CFFAF4BB0F11F460FF1BC06F5F7F4FE6
S1130CB08F4F9F4F16C0882311F096E911C07723F8
S1130CC021F09EE8872F762F05C0662371F096E801
S1130CD0862F70E060E02AF09A95660F771F881FD0
S1130CE0DAF7880F9695879597F90895990F000874
S1130CF0550FAA0BE0E8FEEF16161706E807F907EA
S1130D00C0F012161306E407F50798F0621B730B84
S1130D10840B950B39F40A2661F0232B242B252B05
S1130D2021F408950A2609F4A140A6958FEF811DA8
S1130D30811D089597F99F6780E870E060E0089549
S1130D409FEF80EC089500240A94161617061806DF
S1130D500906089500240A941216130614060506BB
S1130D600895092E0394000C11F4882352F0BB0F4C
S1130D7040F4BF2B11F460FF04C06F5F7F4F8F4FAF
S1130D809F4F089557FD9058440F551F59F05F3FEA
S1130D9071F04795880F97FB991F61F09F3F79F099
S1130DA087950895121613061406551FF2CF46951B
S1130DB0F1DF08C0161617061806991FF1CF86959D
S1130DC07105610508940895E894BB276627772781
S1130DD0CB0197F908950E94760608F48FEF0895E1
S1130DE016F00C94AD070C94A00668940C949A0623
S1130DF00E94CA06A8F39923C1F3AEF3DF93CF93FD
S1130E001F930F93FF92C92FDD2788232AF0219780
S1130E10660F771F881FDAF720E030E040E85FEBC9
S1130E209FE3883920F0803E38F021968F770E9426
S1130E302005E4E5F0E004C00E942005E1E8F0E0CC
S1130E400E94BB078B01BE01EC01FB2E6F57710999
S1130E507595771F880B990B0E943B0628E132E7B2
S1130E6041E35FE30E945307AF2D9801AE01FF9069
S1130E700F911F91CF91DF910E9437050C94B10619
S1130E800E9453070C94B1060E94A30638F00E94F6
S1130E90AA0620F0952311F00C949A060C94A0064F
S1130EA011240C94E5060E94C20670F3959FC1F3C9
S1130EB0950F50E0551F629FF001729FBB27F00D04
S1130EC0B11D639FAA27F00DB11DAA1F649F662759
S1130ED0B00DA11D661F829F2227B00DA11D621FA8
S1130EE0739FB00DA11D621F839FA00D611D221F62
S1130EF0749F3327A00D611D231F849F600D211D46
S1130F00822F762F6A2F11249F5750409AF0F1F0C8
S1130F1088234AF0EE0FFF1FBB1F661F771F881F31
S1130F2091505040A9F79E3F510580F00C949A06C9
S1130F300C94E5065F3FE4F3983ED4F386957795E9
S1130F406795B795F795E7959F5FC1F7FE2B880FD7
S1130F50911D9695879597F908959F3F31F091508B
S1130F6020F4879577956795B795880F911D969589
S1130F70879597F90895DF93CF931F930F93FF926B
S1130F80EF92DF927B018C01689406C0DA2EEF01A8
S1130F900E945307FE01E894A5912591359145914E
S1130FA05591A6F3EF010E943705FE019701A801B0
S1130FB0DA9469F7DF90EF90FF900F911F91CF9132
S1130FC0DF910895662777270C940C08FC01882785
S1130FD09927E89421912032E9F3293010F02E303A
S1130FE0C8F32B3241F02D3239F4689404C00E94C6
S1130FF00408820F911D219120532A30C0F31EF45E
S1131000909581959F4F08957AE0979F902D879FA3
S1131010802D910D11240895A0E0B0E0E2E1F8E004
S11310200C948F09EC016B016115710519F0FB013A
S1131030918380837E01FFEFEF1AFF0A0881802FDE
S113104090E00E945A09892B11F0E701F3CF0D3289
S113105039F47E0182E0E80EF11C098111E008C038
S11310600B3229F47E0192E0E90EF11C098110E0B3
S1131070E701219743E050E066EB70E0CE010E9467
S11310806309892BC1F4239645E050E061EB70E0DD
S1131090CE010E946309892B09F42596C114D10459
S11310A019F0F601D183C0831111F6C060E070E03D
S11310B080E89FE7FAC043E050E06EEA70E0CE01BA
S11310C00E946309892B59F4C114D10409F4E9C0BD
S11310D0F2E0EF0EF11CF601F182E082E2C020E0C2
S11310E030E0A901C0E0D0E0F70180EDA82EA00E09
S11310F089E08A1530F1912F9260B92E812F887082
S113110012FF04C0811124C0219622C081112197AD
S1131110A5E0B0E00E947E09DC01CB01880F991F95
S1131120AA1FBB1F9C01AD012A0D311D411D511D7C
S1131130283989E93807480789E1580748F01660D3
S113114006C09EEFA9120AC013FD40C01860B12E5C
S11311508FEFE81AF80A00811B2DC6CF802F8F7DF0
S11311608534A1F580818D3211F4106106C08B3273
S113117021F0319661E070E004C08181329662E032
S113118070E080538A3018F0E61BF70B1FC060E054
S113119070E060389CE079075CF4DB01AA0FBB1FA8
S11311A0AA0FBB1F6A0F7B1F660F771F680F711D85
S11311B03196DF0111978C9180538A3050F314FFDC
S11311C003C0719561957109C60FD71F11FF08C03F
S11311D0C114D10429F0CF010197F60191838083D2
S11311E0CA01B9010E943906212F2370233019F056
S11311F04B015C0106C04B015C01B7FAB094B7F82F
S1131200B09420E030E0A901C501B4010E948C052E
S1131210882309F43EC0D7FF06C0D195C195D109F2
S11312200DEC10E002C005EE10E06801F8E1CF1A01
S1131230D10890E2E92EF12CCE15DF0574F0F80107
S11312402591359145915491C501B4010E944007FF
S11312504B015C01CE19DF09EFCF04501109F5945D
S1131260E7940C151D0541F78A2D880F8B2D881FD7
S11312708F3F49F020E030E0A901C501B4010E948C
S11312808C05811106C082E290E090930401809362
S11312900301C501B40109C060E070E080E89FEF7C
S11312A004C060E070E080EC9FE7CDB7DEB7ECE00F
S11312B00C94AB0991110C947B09803219F089507C
S11312C08550C8F70895FB01DC014150504088F077
S11312D08D9181341CF08B350CF4805E6591613402
S11312E01CF06B350CF4605E861B611171F3990B75
S11312F00895881BFCCF9927882708950E94C00968
S1131300A59F900DB49F900DA49F800D911D112455
S113131008952F923F924F925F926F927F928F9295
S11313209F92AF92BF92CF92DF92EF92FF920F9370
S11313301F93CF93DF93CDB7DEB7CA1BDB0B0FB67A
S1131340F894DEBF0FBECDBF09942A883988488837
S11313505F846E847D848C849B84AA84B984C884CD
S1131360DF80EE80FD800C811B81AA81B981CE0FC4
S1131370D11D0FB6F894DEBF0FBECDBFED010895A9
S1131380A29FB001B39FC001A39F700D811D1124C2
S1131390911DB29F700D811D1124911D0895F89423
S10513A0FFCF79
S11313A26CCF5834D6647939CB48843A00401C4611
S10D13B26F6B006572726F72000029
S9030000FC
