S01700005052495343415F6672696D776172652E737265638F
S11300000C9401010C94A00F0C941E010C941E017D
S11300100C941E010C941E010C941E010C941E01E0
S11300200C941E010C94FB0D0C941E010C941E01E7
S11300300C941E010C941E010C941E010C941E01C0
S11300400C941E010C941E010C941E010C941E01B0
S11300500C941E0105A84CCDB2D44EB93836A90271
S11300600C50B9918688083CA6AAAA2ABE000000B2
S1130070803F08000000BE922449123EABAAAA2A7F
S1130080BECDCCCC4C3E00000080BEABAAAAAA3E9A
S113009000000000BF000000803F000000000008D6
S11300A04178D3BB4387D1133D190E3CC3BD428273
S11300B0AD2B3E68EC8276BED98FE1A93E4C80EF31
S11300C0FFBE01C4FF7F3F00000000004E414E49C7
S11300D04E495459494E46CDCCCC3D0AD7233C1702
S11300E0B7D13877CC2B329595E6241FB14F0A004F
S11300F00020410000C84200401C4620BCBE4CCA3F
S11301001B0E5AAEC59D7400407A10F35A00A072BB
S11301104E18090010A5D4E80000E876481700003E
S1130120E40B54020000CA9A3B000000E1F505000C
S11301300080969800000040420F000000A0860155
S1130140000000102700000000E803000000006425
S113015000000000000A0000000000010000000090
S1130160002C76D888DC674F0823DFC1DFAE59E165
S1130170B1B796E5E3E453C63AE651997696E8E6D4
S1130180C28426EB898C9B62ED407C6FFCEFBC9CA7
S11301909F40F2BAA56FA5F490055A2AF75C936BB9
S11301A06CF9676DC11BFCE0E40D47FEF520E6B574
S11301B000D0ED902E0300943577050080841E084E
S11301C00000204E0A000000C80C333333330F986C
S11301D06E12831141EF8D2114893BE65516CFFE33
S11301E0E6DB18D1844B381BF77C1D901DA4BBE4BF
S11301F024203284725E228100C9F124ECA1E53D01
S1130200270011241FBECFE5D4E0DEBFCDBF11E02F
S1130210A0E6B0E0EAE5FBE302C005900D92A0344D
S1130220B107D9F722E0A0E4B1E001C01D92AD37D7
S1130230B207E1F70E947B030C94AB1D0C94000001
S1130240E199FECF9FBB8EBB6DBBE29AE19A089504
S1130250EF92FF920F931F93CF93DF938C017B0157
S1130260EA01209751F0F70161917F01C8010E94D2
S113027020010F5F1F4F2197B1F7DF91CF911F919D
S11302800F91FF90EF900895E199FECF9FBB8EBB35
S1130290E09A8DB30895EF92FF920F931F93CF933B
S11302A0DF938C017B01EA01209751F0C8010E9481
S11302B04401F70181937F010F5F1F4F2197B1F72D
S11302C0DF91CF911F910F91FF90EF90089587B91F
S11302D0369A86B1349A84B195B108958F929F92DB
S11302E0AF92BF92CF92DF92EF92FF920E9467018A
S11302F090938A0180938901BC01990F880B990B13
S11303000E9429149B01AC0160E070EC8FE794E437
S11303100E947F1320E030E040E85FE30E9408136E
S113032020916C0030916D0040916E0050916F00EF
S11303300E946D1560938F017093900180939101D9
S1130340909392010E9425156B017C0160939301A7
S11303507093940180939501909396012091640089
S11303603091650040916600509167000E946D15C0
S1130370209168003091690040916A0050916B00AF
S11303800E9409134B015C012091600030916100CF
S11303904091620050916300C701B6010E946D153F
S11303A0A70196010E946D15A70196010E946D1583
S11303B09B01AC01C501B4010E9409139B01AC016E
S11303C060E070E080E89FE30E947F136093850102
S11303D070938601809387019093880123E333E926
S11303E048E853E40E94081360938B0170938C01D6
S11303F080938D0190938E01FF90EF90DF90CF90CA
S1130400BF90AF909F908F9008950F931F93CF93B9
S1130410DF93CDB7DEB72A970FB6F894DEBF0FBED1
S1130420CDBFAC01FE013196CE010B9611928E1711
S11304309F07E1F7A0E0B0E020E030E0FA01E20F2E
S1130440F31F9081961318C0F901EA0FFB1F8F0167
S1130450040F151FF801718181E090E08C0F9D1F3E
S11304608A0F9B1FFC017083F8018281803249F05E
S11304708D3039F0119602C02F5F3F4F2035310582
S1130480ECF2CE0101960E94F3162A960FB6F89468
S1130490DEBF0FBECDBFDF91CF911F910F910895A5
S11304A00F931F93CF93DF93CDB7DEB72A970FB681
S11304B0F894DEBF0FBECDBFAC01FE013196CE0174
S11304C00B961192E817F907E1F700E010E020E03D
S11304D030E0FA01E20FF31F9081961315C0F90181
S11304E0E00FF11FE40FF51F8181A1E0B0E0AC0F34
S11304F0BD1FA00FB11F8C938281803241F08D30DB
S113050031F00F5F1F4FE5CF2F5F3F4FE2CFCE019A
S113051001960E94F7162A960FB6F894DEBF0FBE16
S1130520CDBFDF91CF911F910F910895FC012081E0
S1130530621759F02D3059F0319602C09D3049F0C0
S113054091919613FBCF81E0089581E0089580E0B6
S1130550089580E00895CF92DF92EF92FF92CF93B7
S1130560DF93EC016A017B01288139814A815B8137
S1130570C701B6010E940813C882D982EA82FB82AD
S1130580DF91CF91FF90EF90DF90CF9008954111CC
S11305900DC0E82FF0E0218181E090E002C0880FD7
S11305A0991F6A95E2F7822B81830895E82FF0E082
S11305B0218181E090E002C0880F991F6A95E2F7DB
S11305C08095822381830895442369F0E82FF0E025
S11305D0228181E090E002C0880F991F6A95E2F7BA
S11305E0822B82830895E82FF0E0228181E090E05D
S11305F002C0880F991F6A95E2F78095822382834F
S11306000895611105C0E82FF0E08FEF818308950C
S1130610E82FF0E011820895E82FF0E06283089556
S1130620E82FF0E0828121E030E002C0220F331F86
S11306306A95E2F7282722830895CF92DF92EF92FA
S1130640FF920F931F9381B3806B81BB41E062E003
S113065080E30E94C7028FEF84BB8AB3806F8ABB9A
S113066087B3836087BB87E886B93E9A8BB780647B
S11306708BBF85B7816185BF0E94D0120E944F1144
S11306800F2EFBEDCF2EF1E0DF2EF02D17E6E12E3D
S113069016E6F12E06EC10E4A801970160E070E084
S11306A088E793E40E947C110F2EFFEBCF2EF1E03C
S11306B0DF2EF02DA801970160E070E088E793E455
S11306C00E947C11F8948FB5816A8FBD8EB58164C8
S11306D08EBD85B58E6685BD83B7816883BF89B7B6
S11306E0816089BF12BE78941F910F91FF90EF90A3
S11306F0DF90CF900895CF93DF93CDB7DEB7EA971D
S11307000FB6F894DEBF0FBECDBF0E941D0345E0B7
S113071050E069E072E080E090E00E944B0145E027
S113072050E06BEF71E085E090E00E944B0145E002
S113073050E067E672E08AE090E00E944B0145E0F9
S113074050E065EB71E08FE090E00E944B0189E09E
S113075092E00E94F31660936302709364028093A4
S11307606502909366028BEF91E00E94F31660930A
S1130770F7017093F8018093F9019093FA0187E6E9
S113078092E00E94F3166093050270930602809330
S113079007029093080285EB91E00E94F3166093A0
S11307A0B1017093B2018093B3019093B4010F2E01
S11307B0F3E66F2EF2E07F2EF02D27E931E029AF2A
S11307C03AAF8091810181110AC0E3E1F2E0119214
S11307D0E615F705E1F783E192E00E94EF128091BC
S11307E013028D3409F0CEC56DE483E192E00E94DA
S11307F0500290934F0180934E018B36910509F47A
S1130800AAC274F58335910509F43BC194F481318E
S1130810910509F4A0C024F4029708F458C0D1CF7C
S11308208231910509F49EC08235910509F41CC1F9
S1130830C8CF8836910509F46BC24CF48435910510
S113084009F490C08C35910509F44FC1BACF8936AB
S1130850910509F46FC28A36910509F46FC2B1CFCC
S11308608E3C910509F425C4BCF48237910509F442
S11308704FC34CF48D36910509F473C2803791054A
S113088009F4BAC29ECF8C38910509F4D7C38E3BC4
S1130890910509F4E8C395CF853F51E0950709F424
S11308A045C45CF48E3271E0970709F422C4843F96
S11308B0A1E09A0709F419C184CF863FB1E09B07F0
S11308C009F413C1873F914009F485C47ACFA7E99D
S11308D0B1E01D921D921D921C92139710929B01E0
S11308E010929C0110929D0110929E0110929F0102
S11308F01092A0011092A1011092A2011092A301E2
S11309001092A4011092A5011092A60110927001F8
S11309101092710110927201109273011092680189
S11309201092690110926A0110926B011092740185
S11309301092750110927601109277011092640161
S113094010926501109266011092670180E191E0B6
S11309500E94E01236CF0E944F1180E191E00E9484
S1130960E0122FCF63E583E192E00E945002FC0184
S113097028EE33E0E29FC001E39F900DF29F900DBB
S11309801124092E000CAA0BBB0B809350019093E9
S11309905101A0935201B093530131E0309381018E
S11309A068E583E192E00E94960280937F0169E505
S11309B083E192E00E94960280937E016AE583E1DE
S11309C092E00E94960280937D0165E483E192E0C7
S11309D00E94960280937C0160917F0188E50E94C9
S11309E02C1160917E0189E50E942C1160917E0199
S11309F08AE50E942C1160917C0185E40E942C11EF
S1130A008091500190915101A0915201B0915301F4
S1130A100097A105B10509F1F4F08FE99FE0019772
S1130A20F1F700C000008091500190915101A09114
S1130A305201B09153010197A109B109809350016A
S1130A4090935101A0935201B093530118161906C3
S1130A501A061B0614F30E944F111092810180E1C3
S1130A6091E00E94E012ADCE1092A3011092A40175
S1130A701092A5011092A60180E191E00E94E0127B
S1130A80A0CE109248011092490110924A0110928E
S1130A904B011092440110924501109246011092AC
S1130AA047011092400110924101109242011092AC
S1130AB04301A7E9B1E01D921D921D921C92139768
S1130AC010929B0110929C0110929D0110929E0124
S1130AD010929F011092A0011092A1011092A20104
S1130AE080E191E00E94E0126CCEE9E0F2E04BEF8D
S1130AF051E027E632E0A5EBB1E07D011192DA0185
S1130B001D92AD01D9011D929D01D7011D927D0158
S1130B1063E172E06E177F0789F78C359105A1F5C3
S1130B2068E583E192E00E9405026093630270939A
S1130B306402809365029093660269E583E192E022
S1130B400E9405026093F7017093F8018093F90104
S1130B509093FA016AE583E192E00E9405026093B2
S1130B60050270930602809307029093080265E4DD
S1130B7083E192E00E9405026093B1017093B20197
S1130B808093B3019093B40180914E0190914F01F1
S1130B90863F914009F040C080917C0090917D0097
S1130BA0A0917E00B0917F008093630290936402D1
S1130BB0A0936502B09366028091780090917900C9
S1130BC0A0917A00B0917B008093F7019093F80193
S1130BD0A093F901B093FA0180917400909175008B
S1130BE0A0917600B091770080930502909306025D
S1130BF0A0930702B0930802809170009091710055
S1130C00A0917200B09173008093B1019093B201EE
S1130C10A093B301B093B401609163027091640234
S1130C20809165029091660203E111E023E042E0C5
S1130C300E94D3169F938F9389E092E09F938F93A2
S1130C400E941D176091F7017091F8018091F901DC
S1130C509091FA0123E042E00E94D3169F938F9370
S1130C60EBEFF1E0FF93EF930E941D1760910502F3
S1130C7070910602809107029091080223E042E0FD
S1130C800E94D3169F938F9347E652E05F934F934E
S1130C900E941D176091B1017091B2018091B3015E
S1130CA09091B40123E042E00E94D3169F938F9366
S1130CB085EB91E09F938F930E941D1745E050E0D0
S1130CC069E072E080E090E00E94280145E050E095
S1130CD06BEF71E085E090E00E94280145E050E070
S1130CE067E672E08AE090E00E94280145E050E067
S1130CF065EB71E08FE090E00E94280180E191E0D3
S1130D000E94E0120FB6F894DEBF0FBECDBF59CDDE
S1130D1063E583E192E00E9405026093740170939D
S1130D207501809376019093770180E191E00E94B0
S1130D30E01247CDF1E0F093780143CD63E583E120
S1130D4092E00E9405020E94F81363BD80E191E0E5
S1130D500E94E01236CD13BC80E191E00E94E012C3
S1130D6030CD62E483E192E00E9405026093600169
S1130D7070936101809362019093630120E030E0FD
S1130D80A9010E947513811122C063E583E192E0F9
S1130D900E9405026093740170937501809376013B
S1130DA09093770121E02093810180E50E946E01F8
S1130DB02091740130917501409176015091770131
S1130DC00E94751388238CF31092810110C031E0C6
S1130DD03093810180E50E946E0120E030E048E517
S1130DE052E40E9475138823ACF31092810180E1D0
S1130DF091E00E94E012E5CC40E050E0BA0188E4C2
S1130E0091E00E94AB029B01AC016091630270917E
S1130E10640280916502909166020E946D15A7E9B3
S1130E20B1E06D937D938D939C93139740E050E0D4
S1130E30BA0184E491E00E94AB029B01AC01609191
S1130E40F7017091F8018091F9019091FA010E94E3
S1130E506D1560939B0170939C0180939D01909309
S1130E609E0140E050E0BA0180E491E00E94AB02B0
S1130E709B01AC016091050270910602809107020A
S1130E80909108020E946D1560939F017093A001D8
S1130E908093A1019093A2011092A3011092A40146
S1130EA01092A5011092A601109270011092710186
S1130EB010927201109273011092680110926901EC
S1130EC010926A0110926B011092740110927501D4
S1130ED010927601109277011092640110926501CC
S1130EE01092660110926701B1E0B093810100E0B5
S1130EF010E0980140E050E0BA0187E991E00E94D7
S1130F00DD0F1092810180E191E00E94E01259CC42
S1130F10E9E0F2E08BEF91E0A7E6B2E0AD011192D7
S1130F20DC011D92CD01DA011D92AD0123E132E015
S1130F302E173F07A1F760914801709149018091F4
S1130F404A0190914B0103E111E023E042E00E9449
S1130F50D3169F938F9349E052E05F934F930E947F
S1130F601D17609144017091450180914601909153
S1130F70470123E042E00E94D3169F938F938BEFA7
S1130F8091E09F938F930E941D176091400170918F
S1130F904101809142019091430123E042E00E948B
S1130FA0D3169F938F93E7E6F2E0FF93EF930E94AB
S1130FB01D1788E58983A9E0B2E08C918A8380912A
S1130FC00A028B8380910B028C8380910C028D83A7
S1130FD080910D028E8380E28F8399E59887EBEFF1
S1130FE0F1E0908199879091FC019A879091FD019D
S1130FF09B879091FE019C879091FF019D878E872E
S11310008AE58F87A7E6B2E08C91888B809168028D
S1131010898B809169028A8B80916A028B8B809183
S11310206B028C8B8DE08D8BCE0101960E94E012B9
S11310300FB6F894DEBF0FBECDBFC3CB63E583E12B
S113104092E00E94050260936401709365018093AD
S1131050660190936701F1E0F093800180E191E0F3
S11310600E94E012AECB63E583E192E00E940502A8
S113107060936401709365018093660190936701A6
S113108021E02093810182E50E946E012091640198
S11310903091650140916601509167010E9475137A
S11310A088238CF31092810180E191E00E94E01288
S11310B088CB109248011092490110924A01109273
S11310C04B01109244011092450110924601109276
S11310D04701109240011092410110924201109276
S11310E0430131E030937B0180E191E00E94E01202
S11310F068CB63E583E192E00E940502609374018A
S113110070937501809376019093770120E030E02D
S113111048EC51E40E94751318161CF041E040930A
S1131120790180E191E00E94E0124BCB45E050E070
S113113069E072E080E090E00E944B0145E050E0FD
S11311406BEF71E085E090E00E944B0145E050E0D8
S113115067E672E08AE090E00E944B0145E050E0CF
S113116065EB71E08FE090E00E944B0189E092E032
S11311700E94F31660936302709364028093650285
S1131180909366028BEF91E00E94F3166093F7014F
S11311907093F8018093F9019093FA0187E692E045
S11311A00E94F3166093050270930602809307026F
S11311B09093080285EB91E00E94F3166093B101CD
S11311C07093B2018093B3019093B40180E191E0F4
S11311D00E94E012F6CAE9E0F2E02BEF31E087E684
S11311E092E0A5EBB1E0BD011192D9011D929D01E0
S11311F0DC011D92CD01DB011D92BD01B2E0E331A2
S1131200FB0791F76091630270916402809165021B
S11312109091660203E111E023E042E00E94D316BC
S11312209F938F93E9E0F2E0FF93EF930E941D17E1
S11312306091F7017091F8018091F9019091FA01A0
S113124023E042E00E94D3169F938F934BEF51E02B
S11312505F934F930E941D176091050270910602DF
S1131260809107029091080223E042E00E94D31685
S11312709F938F9387E692E09F938F930E941D170D
S11312806091B1017091B2018091B3019091B40168
S113129023E042E00E94D3169F938F93E5EBF1E0A5
S11312A0FF93EF930E941D1788E58983A9E0B2E0BC
S11312B08C918A8380910A028B8380910B028C83A8
S11312C080910C028D8380910D028E83B3E7BF83DE
S11312D0EFE2E8878DE689878A8790E29B8729E594
S11312E02C87ABEFB1E02C912D872091FC012E8748
S11312F02091FD012F872091FE01288B2091FF0171
S1131300298BB3E7BA8BEB8B8C8B8D8B9E8B2AE569
S11313102F8BE7E6F2E02081288F20916802298F45
S1131320209169022A8F20916A022B8F20916B02EF
S11313302C8FBD8FFFE2FE8F8F8F88A399A395E436
S11313409AA3A5EBB1E09C919BA39091B6019CA3B9
S11313509091B7019DA39091B8019EA39091B9017A
S11313609FA3B3E7B8A7F9A78AA78BA78DE08CA79B
S1131370CE0101960E94E0120FB6F894DEBF0FBEB4
S1131380CDBF1FCA873409F01CCA67E483E192E029
S11313900E94500290934F0180934E018430910536
S11313A03CF4823091050CF011C1019729F009CA6F
S11313B04C9709F4B0C305CA0E944F1168E583E154
S11313C092E00E9405026DA77EA78FA798AB69E5FE
S11313D083E192E00E9405026B017C016AE583E1EE
S11313E092E00E9405024B015C0165E483E192E016
S11313F00E9405026093A3017093A4018093A50148
S11314009093A60120E030E0A9010E94751388237F
S113141009F4C3C320E030E0A9016DA57EA58FA522
S113142098A90E947513882309F4B7C320E030E01B
S1131430A901C701B6010E947513882309F4ADC33D
S113144020E030E0A901C501B4010E9475138111A7
S1131450BBC3A3C3209268013092690140926A0120
S113146050926B0108C02092700130927101409239
S113147072015092730120E030E048E453E46DA51A
S11314807EA58FA598A90E94181518160CF499C06A
S113149020E030E048E453E4C701B6010E94181587
S11314A018160CF48EC020E030E04AEF53E4C50176
S11314B0B4010E94181518160CF483C04DA55EA53E
S11314C06FA578A988E491E00E94AB029B01AC016E
S11314D0609163027091640280916502909166024A
S11314E00E946D15A7E9B1E06D937D938D939C9354
S11314F01397B701A60184E491E00E94AB029B011B
S1131500AC016091F7017091F8018091F90190911B
S1131510FA010E946D1560939B0170939C01809366
S11315209D0190939E01B501A40180E491E00E9485
S1131530AB029B01AC01609105027091060280919F
S11315400702909108020E946D1560939F017093A9
S1131550A0018093A1019093A201B1E0B093810115
S113156080917A01811104C080917901882309F165
S1131570609168017091690180916A0190916B0199
S11315800E94F1136B017C016091700170917101F3
S113159080917201909173010E94F113AB01BC011F
S11315A09701860187E991E00E94DD0F1092810185
S11315B008C086E191E00E94E0128DE00E94D812FA
S11315C000C980E191E00E94E012FBC868E583E174
S11315D092E00E94050269AB7AAB8BAB9CAB69E5E8
S11315E083E192E00E9405026DAB7EAB8FAB98AFB6
S11315F069E483E192E00E94050260935C017093C8
S11316005D0180935E0190935F016AE483E192E05F
S11316100E940502609358017093590180935A0106
S113162090935B0166E483E192E00E9405026B0102
S11316307C0160936C0170936D0180936E019093B3
S11316406F0120E030E0A9010E947513882341F066
S1131650C0927001D0927101E0927201F092730114
S113166062E583E192E00E94050260935401709365
S11316705501809356019093570120E030E0A90171
S11316800E94751381112EC0C0905C01D0905D0141
S1131690E0905E01F0905F018090580190905901B4
S11316A0A0905A01B0905B01A5019401C501B40159
S11316B00E946D154B015C01A7019601C701B6019B
S11316C00E946D159B01AC01C501B4010E94091370
S11316D00E94E8156093540170935501809356015C
S11316E090935701E1E0E0938101412C512C29AC06
S11316F03AACB201052C000C880B990B0E942914FA
S11317006B017C010E947A136DA77EA78FA798AB0B
S11317108090540190905501A0905601B0905701CB
S1131720A50194010E946D152DA53EA54FA558A9AC
S11317300E946D156DA77EA78FA798ABC701B60150
S11317400E94DA156B017C019B01AC01C501B40157
S11317500E946D15A70196010E946D156B017C0115
S11317602DA53EA54FA558A969A97AA98BA99CA91D
S11317700E94751318165CF0A70196016DA97EA945
S11317808FA998AD0E94751318160CF0C0C18091F2
S11317907A01811105C080917901882309F4AEC1D1
S11317A080914E0190914F01029709F0B7C020E05B
S11317B030E0A90160915C0170915D0180915E014E
S11317C090915F010E947513811145C020E030E0C3
S11317D0A901609158017091590180915A01909129
S11317E05B010E947513811136C04DA55EA56FA5DE
S11317F078A988E491E00E94AB029B01AC0160915E
S113180063027091640280916502909166020E9465
S11318106D15A7E9B1E06D937D938D939C93139718
S1131820B701A60184E491E00E94AB029B01AC01E4
S11318306091F7017091F8018091F9019091FA019A
S11318400E946D1560939B0170939C0180939D0190
S113185090939E011DC14DA55EA56FA578A988E44E
S113186091E00E94AB0280905C0190905D01A09099
S11318705E01B0905F012091630230916402409157
S11318806502509166020E946D156DA77EA78FA711
S113189098ABC501B4019058A50194010E947F132F
S11318A09B01AC016DA57EA58FA598A90E946D151D
S11318B0E7E9F1E06083718382839383B701A60132
S11318C084E491E00E94AB02C0905801D090590189
S11318D0E0905A01F0905B012091F7013091F801FA
S11318E04091F9015091FA010E946D154B015C0180
S11318F0C701B6019058A70196010E947F139B016E
S1131900AC01C501B4010E946D1560939B017093F5
S11319109C0180939D0190939E01BAC020E030E029
S1131920A90160915C0170915D0180915E019091CB
S11319305F010E94751381114BC020E030E0A901C2
S1131940609158017091590180915A0190915B0105
S11319500E94751381113CC04DA55EA56FA578A9A1
S113196088E491E00E94AB029B01AC018091630288
S113197090916402A0916502B0916602BC01CD0110
S113198090580E946D15A7E9B1E06D937D938D93F6
S11319909C931397B701A60184E491E00E94AB02E3
S11319A09B01AC018091F7019091F801A091F9019C
S11319B0B091FA01BC01CD0190580E946D1560935D
S11319C09B0170939C0180939D0190939E0160C044
S11319D04DA55EA56FA578A988E491E00E94AB02AD
S11319E080905C0190905D01A0905E01B0905F01D9
S11319F02091630230916402409165025091660225
S1131A000E946D156DA77EA78FA798ABA5019401C1
S1131A10C501B4010E947F139B01AC016DA57EA595
S1131A208FA598A90E946D15E7E9F1E060837183A1
S1131A3082839383B701A60184E491E00E94AB0200
S1131A40C0905801D0905901E0905A01F0905B0188
S1131A502091F7013091F8014091F9015091FA0178
S1131A600E946D154B015C01A7019601C701B601E7
S1131A700E947F139B01AC01C501B4010E946D1546
S1131A8060939B0170939C0180939D0190939E01B0
S1131A9010929F011092A0011092A1011092A20134
S1131AA08091B1019091B201A091B301B091B401C0
S1131AB08093A3019093A401A093A501B093A601E0
S1131AC0609168017091690180916A0190916B0144
S1131AD00E94F1136B017C0160917001709171019E
S1131AE080917201909173010E94F113AB01BC01CA
S1131AF097018601822D932D0E94DD0FFFEF4F1A6F
S1131B005F0A29E6421621E0520609F0F2CD10924E
S1131B1081010C94E10380917B01811138C068E557
S1131B2083E192E00E949602682F70E080E090E0EA
S1131B300E942714A7E9B1E06D937D938D939C9344
S1131B40139769E583E192E00E949602682F70E0A2
S1131B5080E090E00E94271460939B0170939C01A5
S1131B6080939D0190939E016AE583E192E00E9437
S1131B709602682F70E080E090E00E942714609342
S1131B809F017093A0018093A1019093A20180E131
S1131B9091E00E94E0120C94E10366E483E192E098
S1131BA00E9405021B012C0160936C0170936D016E
S1131BB080936E0190936F0120E030E0A9010E94B0
S1131BC07513811147CC57CC66E483E192E00E94FF
S1131BD005021B012C0160936C0170936D018093CD
S1131BE06E0190936F0120E030E0A9010E9475130B
S1131BF0811139CC40CC1F920F920FB60F92112451
S1131C00CF92DF92EF92FF920F931F932F933F9304
S1131C104F935F936F937F938F939F93AF93BF93F0
S1131C20EF93FF93CF93DF93CDB7DEB76497DEBF17
S1131C30CDBF80918201909183018D39910530F45B
S1131C400196909383018093820109C0809184015D
S1131C5081608093840110928301109282018091AB
S1131C60840180FFE9C082E50E946E019B01AC0102
S1131C706091740170917501809176019091770162
S1131C800FEB11E00E94D6119BBD8ABD80E50E9436
S1131C906E019B01AC0160916401709165018091BA
S1131CA06601909167010BED11E00E94D61199BD78
S1131CB088BD809184018E7F80938401E1E7F2E006
S1131CC0A7EAB1E08BE792E011921D92E817F907B9
S1131CD0D9F780917801882309F4AEC082E50E9487
S1131CE06E0103E111E023E042E00E94D3169F93CA
S1131CF08F9381E792E09F938F930E941D1780E555
S1131D000E946E0123E042E00E94D3169F938F93BA
S1131D1087EA91E09F938F930E941D170FB6F89462
S1131D20DEBF0FBECDBF80918001882309F452C06D
S1131D3084E589838AE38A83E1E7F2E090819B83E7
S1131D4091819C8392819D8393819E8394819F83BF
S1131D5090E2988725E429878A8720E32B879C874C
S1131D6092E49D878E87E7EAF1E080818F87818105
S1131D70888B8281898B83818A8B84818B8B8DE094
S1131D808C8B80E50E946E01209174013091750165
S1131D9040917601509177010E94181518169CF411
S1131DA082E50E946E0120916401309165014091A9
S1131DB06601509167010E941815181624F481E0F9
S1131DC080937A0102C010927A01CE0101960E949A
S1131DD0E01232C084E589838AE38A83E1E7F2E092
S1131DE090819B8391819C8392819D8393819E8327
S1131DF094819F8390E2988795E499878A8780E30A
S1131E008B878DE08C8780E50E946E0120917401A0
S1131E103091750140917601509177010E94181517
S1131E20181624F481E080937A0102C010927A019A
S1131E30CE0101960E94E01280918101882309F469
S1131E4060C05F9B59C0E3E1F2E083E692E0119247
S1131E508E179F07E1F783E192E00E94EF128BE275
S1131E6091E00E94E012809113028D3409F049C080
S1131E7080918101882309F444C06DE483E192E0F8
S1131E800E94500290934D0180934C01803791053C
S1131E90C1F5E7E9F1E01082118212821382148203
S1131EA0158216821782108611861286138614866E
S1131EB01586168617866091680170916901809174
S1131EC06A0190916B010E94F1136B017C01609196
S1131ED070017091710180917201909173010E945F
S1131EE0F113AB01BC019701860187E991E00E94DF
S1131EF0DD0F1092810105C0809113028D3409F425
S1131F00BCCF64960FB6F894DEBF0FBECDBFDF9191
S1131F10CF91FF91EF91BF91AF919F918F917F915D
S1131F206F915F914F913F912F911F910F91FF906E
S1131F30EF90DF90CF900F900FBE0F901F901895E9
S1131F401F920F920FB60F9211242F933F934F932A
S1131F505F936F937F938F939F93AF93BF93EF930D
S1131F60FF9341E066E083E30E94E40240E062E024
S1131F7083E30E94E4028FEA94E00197F1F700C042
S1131F80000041E062E083E30E94E4028FEA94E00F
S1131F900197F1F700C00000FF91EF91BF91AF915D
S1131FA09F918F917F916F915F914F913F912F916D
S1131FB00F900FBE0F901F9018952F923F924F9243
S1131FC05F926F927F928F929F92AF92BF92CF92C5
S1131FD0DF92EF92FF920F931F93CF93DF93CDB7CE
S1131FE0DEB7CC59D1090FB6F894DEBF0FBECDBF12
S1131FF06C014A015B01C756DF4F088319832A83AA
S11320003B83C959D040412C512C32014394C30124
S1132010B201A50194010E947816ACE3B0E00E94DD
S113202097160E94291420E034E244E759E40E9400
S11320306D150E94F1134B015C01C301B201C75637
S1132040DF4F288139814A815B81C959D0400E9480
S11320507816ACE3B0E00E9497160E94291420E0A1
S113206034E244E759E40E946D150E94F1132B01F8
S11320703C0188E0E0E8F0E0DE01119601900D9269
S11320808A95E1F776018E010F5F1F4F1E0129E04B
S1132090220E311C20E030E0A901F701608171813A
S11320A0828193810E94751388238CF441E0F801A6
S11320B0608183E30E94E402F70180819181A2811F
S11320C0B381B05880839183A283B38306C040E078
S11320D0F801608183E30E94E402F4E0EF0EF11C56
S11320E00E5F1F4F20163106A9F688E8E8E8F0E0F5
S11320F0DE01519601900D928A95E1F781E090E01E
S11321009A8789879C878B879E878D87988B8F87F3
S113211000E010E00F2EF2E22F2EF02D0F2EF1E151
S11321203F2EF02D209EF001219EF00D112421E080
S113213030E02C0F3D1FE20FF31F608983E30E9400
S113214010037801EE0CFF1CEE0CFF1CEC0CFD1CC4
S113215020E030E040E85FE3F70160817181828133
S113216093810E940813F7016083718382839383B0
S113217020E030E0A9010E94751318165CF0F80104
S1132180EE0FFF1F21E030E02C0F3D1FE20FF31F85
S1132190118610860330110559F4C2011816190668
S11321A08CF435E03A95F1F700000197D1F70AC0B5
S11321B0C4011816190634F4E5E0EA95F1F70000B5
S11321C00197D1F78F8598899C01220F331F220F25
S11321D0331F220F331F8D859E85880F991F880F0B
S11321E0991F820F931F2B853C85220F331F820F6B
S11321F0931F29853A85820F931F309EF001319EEB
S1132200F00D1124E80FF91F3196EE0FFF1F21E0A6
S113221030E02C0F3D1FE20FF31F00891189892B39
S113222009F080CFC456DF4F0FB6F894DEBF0FBE5F
S1132230CDBFDF91CF911F910F91FF90EF90DF9071
S1132240CF90BF90AF909F908F907F906F905F9052
S11322504F903F902F900895883549F018F48534B5
S1132260C1F00895893549F08A3569F00895462FFB
S113227064E086E30E94E4020895462F65E086E365
S11322800E94E4020895462F66E086E30E94E40279
S11322900895462F67E086E30E94E402089560E013
S11322A083E30E94010360E083E30E940C0340E0A7
S11322B064E086E30E94C70240E065E086E30E9492
S11322C0C70240E066E086E30E94C70240E067E0A0
S11322D086E30E94C70260E088E50E942C1160E05A
S11322E089E50E942C1160E08AE50E942C1160E0CF
S11322F085E40E942C1108958F929F92AF92BF9211
S1132300CF92DF92EF92FF920F931F93CF93DF93BD
S113231049015A01E6016C837D838E839F8328875C
S113232039874A875B87EC86FD860E871F8720E006
S113233030E040E85FE30E9409139B01AC0160E0D8
S11323407EEF8FEF96E40E947F136C8B7D8B8E8BD8
S11323509F8B20E030E040E85FE3C501B4010E94B8
S113236009139B01AC010E9409139B01AC0160E0BD
S113237070E080E09FE40E947F13688F798F8A8FDA
S11323809B8F188219821A821B82188A198A1A8AC8
S11323901B8ADF91CF911F910F91FF90EF90DF90F7
S11323A0CF90BF90AF909F908F9008954F925F927F
S11323B06F927F928F929F92AF92BF92CF92DF9251
S11323C0EF92FF920F931F93CF93DF93CDB7DEB7B6
S11323D02A970FB6F894DEBF0FBECDBF1A870987C0
S11323E00E94081369837A838B839C83F801C484D5
S11323F0D584E684F78420893189428953890E94EF
S113240009134B015C01F801608B718B828B938BF8
S1132410208131814281538169817A818B819C81C0
S11324200E940813A70196010E946D156D837E8397
S11324308F839887F8014488558866887788A30134
S1132440920169817A818B819C810E9418151816EA
S1132450B4F0A3019201505869817A818B819C81E7
S11324600E9475138823ACF0A701960169817A81D3
S11324708B819C810E946D152B013C0113C00F2E92
S1132480412CFEEF5F2E66246A94F6E47F2EF02D35
S113249009C00F2E412CFEEF5F2E66246A94F6ECE1
S11324A07F2EF02DE985FA85C08CD18CE28CF38CDB
S11324B0A7019601C501B4010E94181518165CF411
S11324C0E985FA85C08AD18AE28AF38A20E030E07D
S11324D040E85EE423C0F7FAF094F7F8F094A7011B
S11324E09601C501B4010E94751388236CF0E98537
S11324F0FA852085318542855385C501B4010E9442
S11325006D159B01AC010AC0E985FA85C08AD18AA0
S1132510E28AF38A20E030E040E85EECC301B201D5
S11325200E9409132D813E814F8158850E94091311
S113253020E030E048EF52E40E947F130E94F11340
S1132540772314F460E070E08B016F3F710519F09C
S113255014F00FEF10E0B801012E000C880B990B5A
S11325600E942914E985FA856083718382839383A9
S1132570C8012A960FB6F894DEBF0FBECDBFDF9117
S1132580CF911F910F91FF90EF90DF90CF90BF906C
S1132590AF909F908F907F906F905F904F90089531
S11325A083E089B910BC88E18AB986E880BD0895C2
S11325B05D9BFECF8CB908955F9BFECF8CB10895CF
S11325C0CF93DF93EC018881882331F021960E9418
S11325D0D81289918111FBCFDF91CF9108950F9388
S11325E01F93CF938C01C0E00E94DC128D3031F434
S11325F0F801EC0FF11D80E2808306C0F801EC0FB6
S1132600F11D8083CF5FF0CFCF911F910F9108957B
S11326105058BB27AA270E9420130C94CA140E9466
S1132620911438F00E94981420F039F49F3F19F463
S113263026F40C948E140EF4E095E7FB0C948814A5
S1132640E92F0E94EF1458F3BA176207730784073F
S1132650950720F079F4A6F50C9411150EF4E09585
S11326600B2EBA2FA02D0B01B90190010C01CA0148
S1132670A0011124FF27591B99F0593F50F4503EF3
S113268068F11A16F040A22F232F342F4427585FE5
S1132690F3CF469537952795A795F0405395C9F7FD
S11326A07EF41F16BA0B620B730B840BBAF09150B5
S11326B0A1F0FF0FBB1F661F771F881FC2F70EC054
S11326C0BA0F621F731F841F48F487957795679527
S11326D0B795F7959E3F08F0B0CF9395880F08F013
S11326E09927EE0F9795879508950E94641408F42E
S11326F081E008950E94A114E3950C94DB140E94D8
S113270093130C94CA140E94981458F00E949114C4
S113271040F029F45F3F29F00C94881451110C9473
S113272012150C948E140E94EF1468F39923B1F3DC
S1132730552391F3951B550BBB27AA2762177307E3
S1132740840738F09F5F5F4F220F331F441FAA1F77
S1132750A9F335D00E2E3AF0E0E832D09150504033
S1132760E695001CCAF72BD0FE2F29D0660F771FE1
S1132770881FBB1F261737074807AB07B0E809F0C7
S1132780BB0B802DBF01FF2793585F4F3AF09E3F4C
S1132790510578F00C9488140C9412155F3FE4F3FF
S11327A0983ED4F3869577956795B795F7959F5F8F
S11327B0C9F7880F911D9695879597F90895E1E0DB
S11327C0660F771F881FBB1F621773078407BA073A
S11327D020F0621B730B840BBA0BEE1F88F7E09595
S11327E008950E94F8136894B1110C941215089579
S11327F00E94F71488F09F5798F0B92F9927B75182
S1132800B0F0E1F0660F771F881F991F1AF0BA9590
S1132810C9F714C0B13091F00E941115B1E00895C8
S11328200C941115672F782F8827B85F39F0B93FBA
S1132830CCF3869577956795B395D9F73EF4909543
S11328408095709561957F4F8F4F9F4F0895E894C1
S113285009C097FB3EF490958095709561957F4FE4
S11328608F4F9F4F9923A9F0F92F96E9BB27939592
S1132870F695879577956795B795F111F8CFFAF4A2
S1132880BB0F11F460FF1BC06F5F7F4F8F4F9F4FD3
S113289016C0882311F096E911C0772321F09EE831
S11328A0872F762F05C0662371F096E8862F70E097
S11328B060E02AF09A95660F771F881FDAF7880F71
S11328C09695879597F90895990F0008550FAA0BC7
S11328D0E0E8FEEF16161706E807F907C0F012162F
S11328E01306E407F50798F0621B730B840B950B32
S11328F039F40A2661F0232B242B252B21F4089587
S11329000A2609F4A140A6958FEF811D811D089523
S113291097F99F6780E870E060E008959FEF80EC8E
S1132920089500240A941616170618060906089531
S113293000240A94121613061406050608950C942E
S11329408E140E94F714D8F3E894E0E0BB279F5755
S1132950F0F02AED3FE049EC06C0EE0FBB0F661F16
S1132960771F881F28F0B23A62077307840728F09C
S1132970B25A620B730B840BE3959A9572F7803805
S113298030F49A95BB0F661F771F881FD2F79048C3
S11329900C942A16092E0394000C11F4882352F087
S11329A0BB0F40F4BF2B11F460FF04C06F5F7F4F77
S11329B08F4F9F4F0895EF93E0FF07C0A2EA2AEDDF
S11329C03FE049EC5FEB0E9420130E94CA140F9071
S11329D0039401FC9058E4E5F0E00C94641657FD70
S11329E09058440F551F59F05F3F71F04795880F79
S11329F097FB991F61F09F3F79F087950895121610
S1132A0013061406551FF2CF4695F1DF08C01616BB
S1132A1017061806991FF1CF86957105610508946C
S1132A200895E894BB2766277727CB0197F9089583
S1132A300E94641408F48FEF089516F00C9428167D
S1132A400C948E1468940C9488140E94F714A8F3C0
S1132A509923C1F3AEF3DF93CF931F930F93FF92A8
S1132A60C92FDD2788232AF02197660F771F881F37
S1132A70DAF720E030E040E85FEB9FE3883920F0AC
S1132A80803E38F021968F770E940913E2E7F0E048
S1132A9004C00E940913EFE9F0E00E943D168B0187
S1132AA0BE01EC01FB2E6F5771097595771F880BDA
S1132AB0990B0E94291428E132E741E35FE30E9465
S1132AC08015AF2D9801AE01FF900F911F91CF910A
S1132AD0DF910E9420130C94CA140E9480150C9458
S1132AE0CA140E94911438F00E94981420F095237F
S1132AF011F00C9488140C948E1411240C94121557
S1132B000E94EF1470F3959FC1F3950F50E0551F89
S1132B10629FF001729FBB27F00DB11D639FAA272E
S1132B20F00DB11DAA1F649F6627B00DA11D661F7D
S1132B30829F2227B00DA11D621F739FB00DA11D9E
S1132B40621F839FA00D611D221F749F3327A00D58
S1132B50611D231F849F600D211D822F762F6A2FF4
S1132B6011249F5750409AF0F1F088234AF0EE0F59
S1132B70FF1FBB1F661F771F881F91505040A9F786
S1132B809E3F510580F00C9488140C9412155F3FFD
S1132B90E4F3983ED4F3869577956795B795F795C2
S1132BA0E7959F5FC1F7FE2B880F911D969587953A
S1132BB097F908959F930E94A1140F9007FCEE5F6C
S1132BC00C94DB1419F416F40C948E140C9428163B
S1132BD00E94F714B8F39923C9F3B6F39F57550B22
S1132BE087FF0E9436160024A0E640EA9001805830
S1132BF05695979528F4805C660F771F881F20F000
S1132C0026173707480730F4621B730B840B2029FF
S1132C1031294A2BA69517940794202531254A2754
S1132C2058F7660F771F881F20F0261737074807C5
S1132C3030F4620B730B840B200D311D411DA095E4
S1132C4081F7B901842F9158880F96958795089537
S1132C509F3F31F0915020F4879577956795B7950C
S1132C60880F911D9695879597F908959150504036
S1132C70660F771F881FD2F70895DF93CF931F93B2
S1132C800F93FF92EF92DF927B018C01689406C050
S1132C90DA2EEF010E948015FE01E894A59125919A
S1132CA0359145915591A6F3EF010E942013FE0141
S1132CB09701A801DA9469F7DF90EF90FF900F91E4
S1132CC01F91CF91DF9108959F938F937F936F937B
S1132CD0FF93EF939B01AC010E946D15EF91FF915F
S1132CE00E943D162F913F914F915F910C946D1569
S1132CF0052E97FB1EF400940E948F1657FD07D0F3
S1132D000E94A21607FC03D04EF40C948F16509523
S1132D104095309521953F4F4F4F5F4F08959095C3
S1132D208095709561957F4F8F4F9F4F08950E94B6
S1132D30C416A59F900DB49F900DA49F800D911D66
S1132D4011240895A1E21A2EAA1BBB1BFD010DC07C
S1132D50AA1FBB1FEE1FFF1FA217B307E407F50747
S1132D6020F0A21BB30BE40BF50B661F771F881F23
S1132D70991F1A9469F760957095809590959B01B9
S1132D80AC01BD01CF010895A29FB001B39FC00162
S1132D90A39F700D811D1124911DB29F700D811D83
S1132DA01124911D0895EF920F931F93CF93DF93F6
S1132DB0E80147FD02C034E001C034E1042E000CF8
S1132DC0550B57FF03C0519541955109E32E022F2E
S1132DD0242FAE010E942019CE01DF91CF911F91C3
S1132DE00F91EF900895662777270C947A1AFC01C7
S1132DF088279927E89421912032E9F3293010F0AB
S1132E002E30C8F32B3241F02D3239F4689404C0CB
S1132E100E941517820F911D219120532A30C0F36F
S1132E201EF4909581959F4F08957AE0979F902D79
S1132E30879F802D910D11240895AEE0B0E0E3E268
S1132E40F7E10C94821D0D891E8986E08C831A8318
S1132E5009838FEF9FE79E838D83AE01475E5F4FAB
S1132E606F89788DCE0101960E943F17EF81F88516
S1132E70E00FF11F10822E96E4E00C949E1DABE04F
S1132E80B0E0E5E4F7E10C94741D6C017B018A0168
S1132E90FC0117821682838181FFCCC1CE01019689
S1132EA03C01F6019381F70193FD859193FF819194
S1132EB07F01882309F4BAC1853239F493FD8591E1
S1132EC093FF81917F01853229F4B60190E00E943D
S1132ED0D71CE7CF912C212C312CFFE1F315D8F02E
S1132EE08B3279F038F4803279F08332A1F4232DD7
S1132EF020611DC08D3261F0803369F4232D21607F
S1132F0016C0832D8260382EE32DE4603E2E2AC045
S1132F10F32DF8601DC037FC2DC020ED280F2A309A
S1132F2040F08E32B9F436FC81C1232D2064322E58
S1132F3019C036FE06C08AE0989E200D1124922EF8
S1132F4011C0EAE02E9E200D1124222EF32DF062F2
S1132F503F2E08C08C3621F4832D8068382E02C0A1
S1132F60883641F4F70193FD859193FF81917F01A8
S1132F708111B3CF982F9F7D9554933028F40C5F23
S1132F801F4F9FE399830DC0833631F0833771F06F
S1132F90833509F059C021C0F801808189830E5F0F
S1132FA01F4F88248394912C530113C02801F2E00D
S1132FB04F0E511CF801A080B18036FE03C0692D6C
S1132FC070E002C06FEF7FEFC5010E94CC1C4C0182
S1132FD08201F32DFF773F2E16C0280122E0420E16
S1132FE0511CF801A080B18036FE03C0692D70E049
S1132FF002C06FEF7FEFC5010E94C11C4C01F32D8D
S1133000F0683F2E820133FC1BC0822D90E08816AD
S11330109906B0F4B60180E290E00E94D71C2A948D
S1133020F4CFF50137FC859137FE81915F01B6013C
S113303090E00E94D71C21102A9421E0821A910862
S11330408114910471F7E8C0843611F0893641F592
S1133050F80137FE07C060817181828193810C5F22
S11330601F4F08C060817181072E000C880B990BDB
S11330700E5F1F4FF32DFF763F2E97FF09C09095EB
S11330808095709561957F4F8F4F9F4FF0683F2ECD
S11330902AE030E0A3010E94131D882E861845C043
S11330A0853731F4232D2F7EB22E2AE030E025C05F
S11330B0932D997FB92E8F36C1F018F4883579F0A5
S11330C0B5C0803719F0883721F0B0C0E92FE0612E
S11330D0BE2EB4FE0DC0FB2DF460BF2E09C034FE1D
S11330E00AC0292F2660B22E06C028E030E005C0B1
S11330F020E130E002C020E132E0F801B7FE07C071
S113310060817181828193810C5F1F4F06C0608151
S1133110718180E090E00E5F1F4FA3010E94131D98
S1133120882E8618FB2DFF773F2E36FE0DC0232DEB
S11331302E7FA22E891458F434FE0BC032FC09C031
S1133140832D8E7EA82E05C0B82CA32C03C0B82CCA
S113315001C0B92CA4FE0FC0FE01E80DF11D808151
S1133160803321F49A2D997EA92E09C0A2FE06C0AF
S1133170B394B39404C08A2D867809F0B394A3FC65
S113318011C0A0FE06C0B21488F4280C922C9B181F
S11331900EC0B21460F4B60180E290E00E94D71C25
S11331A0B394F7CFB21418F42B1802C0982C212C26
S11331B0A4FE10C0B60180E390E00E94D71CA2FEDA
S11331C017C0A1FC03C088E790E002C088E590E046
S11331D0B6010CC08A2D867859F0A1FE02C08BE29C
S11331E001C080E2A7FC8DE2B60190E00E94D71CEA
S11331F0891438F4B60180E390E00E94D71C9A94B5
S1133200F7CF8A94F301E80DF11D8081B60190E0B7
S11332100E94D71C8110F5CF222009F442CEB601BA
S113322080E290E00E94D71C2A94F6CFF6018681B2
S1133230978102C08FEF9FEF2B96E2E10C94901DD3
S1133240A9E0B0E0E6E2F9E10C947A1D6A01122FDC
S1133250B02E2BE3201720F0FF24F394F00E02C0CD
S11332602CE3F22E0F2D27E0AE014F5F5F4F0E943B
S1133270C81BBC014981842F8970813031F0E1FC85
S113328006C0E0FE06C090E205C09DE203C09BE2DA
S113329001C090E05E2D507143FF3CC0911102C00B
S11332A083E001C084E0811718F4212F281B01C09A
S11332B020E051110BC0F601822F30E2882319F06F
S11332C031938150FBCFC20ED11C20E0992329F009
S11332D0D6019C93F60131966F01C6010396E2FE76
S11332E00AC03EE4D6013C9341E411964C931197F5
S11332F012963C9306C03EE6F601308341E64183D4
S11333003283FC01322F40E2332309F442C041935B
S11333103150FACF42FF44C0911102C083E001C092
S113332084E0811718F4212F281B01C020E05111DB
S11333300BC0F601822F30E2882319F031938150BB
S1133340FBCFC20ED11C20E0992329F0D6019C9317
S1133350F60131966F01C6010396E2FE0BC039E413
S1133360D6013C933EE411963C93119736E41296B1
S11333703C9307C039E6F60130833EE6318336E6F6
S11333803283FC01322F40E2332319F04193315050
S1133390FBCFFC01E20FF11D10828EEF9FEFA6C060
S11333A021E030E0911102C020E030E0161617064B
S11333B01CF4FB01319602C0E1E0F0E02E0F3F1F48
S11333C0BB2021F0EB2DF0E0319602C0E0E0F0E00C
S11333D02E0F3F1FE12FF0E02E173F071CF4121BA6
S11333E0212F01C020E08E2D887159F4F601822F1F
S11333F030E2882319F031938150FBCFC20ED11CE7
S113340020E0992329F0D6019C93F60131966F01AF
S113341051110BC0F601822F90E3882319F0919388
S11334208150FBCFC20ED11C20E00F2D060F9A81D4
S1133430342F307144FF03C0913309F40150101646
S113344024F4093018F008E001C001E0AB0177FF73
S113345002C040E050E0FB01E41BF50BA1E0B0E04A
S1133460AC0FBD1FEA0FFB1F8EE2A82E4B01801A82
S113347091080B2D10E01195019511094F3FBFEFF5
S11334805B0721F4D601AC9211966D0164177507A0
S11334902CF08416950614F4818101C080E3415018
S11334A051093196D60111967D014017510724F038
S11334B0D6018C936701E2CF6417750739F496330C
S11334C020F4953319F4311101C081E3F6018083AE
S11334D0F701822F90E2882319F091938150FBCF5A
S11334E0F701E20FF11D108280E090E02996ECE0F4
S11334F00C94961DA0E0B0E0E0E8FAE10C947A1D8B
S1133500EC016B016115710519F0FB019183808356
S11335107E01FFEFEF1AFF0A0881802F90E00E94DE
S1133520A01C892B11F0E701F3CF0D3239F47E0191
S113353082E0E80EF11C098111E008C00B3229F485
S11335407E0192E0E90EF11C098110E0E701219768
S113355043E050E064ED70E0CE010E94A91C892B89
S1133560C1F4239645E050E06FEC70E0CE010E9478
S1133570A91C892B09F42596C114D10419F0F6016C
S1133580D183C0831111F6C060E070E080E89FE74A
S1133590FAC043E050E06CEC70E0CE010E94A91C3C
S11335A0892B59F4C114D10409F4E9C0F2E0EF0EF7
S11335B0F11CF601F182E082E2C020E030E0A901D2
S11335C0C0E0D0E0F70180EDA82EA00E89E08A15B6
S11335D030F1912F9260B92E812F887012FF04C0B0
S11335E0811124C0219622C081112197A5E0B0E069
S11335F00E949716DC01CB01880F991FAA1FBB1FDD
S11336009C01AD012A0D311D411D511D283989E947
S11336103807480789E1580748F0166006C09EEF4E
S1133620A9120AC013FD40C01860B12E8FEFE81A2A
S1133630F80A00811B2DC6CF802F8F7D8534A1F51C
S113364080818D3211F4106106C08B3221F03196E5
S113365061E070E004C08181329662E070E08053E2
S11336608A3018F0E61BF70B1FC060E070E060388A
S11336709CE079075CF4DB01AA0FBB1FAA0FBB1FF8
S11336806A0F7B1F660F771F680F711D3196DF016C
S113369011978C9180538A3050F314FF03C07195B5
S11336A061957109C60FD71F11FF08C0C114D10459
S11336B029F0CF010197F60191838083CA01B901F2
S11336C00E942714212F2370233019F04B015C0131
S11336D006C04B015C01B7FAB094B7F8B09420E08F
S11336E030E0A901C501B4010E947513882309F4CF
S11336F03EC0D7FF06C0D195C195D1090BEE10E0AD
S113370002C003E011E06801F8E1CF1AD10890E2A9
S1133710E92EF12CCE15DF0574F0F80125913591D1
S113372045915491C501B4010E946D154B015C0192
S1133730CE19DF09EFCF04501109F594E7940C1565
S11337401D0541F78A2D880F8B2D881F8F3F49F067
S113375020E030E0A901C501B4010E947513811174
S113376006C082E290E090937C0280937B02C501C4
S1133770B40109C060E070E080E89FEF04C060E03D
S113378070E080EC9FE7CDB7DEB7ECE00C94961DBB
S1133790283008F027E03327DA01990F311D87FD1F
S11337A0916000966105710539F432602E5F3D9396
S11337B030E32A95E1F708959F3F30F08038710592
S11337C0610509F03C5F3C5F3D93913008F08068EF
S11337D0911DDF93CF931F930F93FF92EF92192FB5
S11337E0987F9695E92F96959695E90FFF27EF59BF
S11337F0FE4F99273327EE24FF24A701E701059004
S11338000894079428F4360FE71EF81E491F511D2B
S1133810660F771F881F991F0694A1F705900794D8
S113382028F4E70EF81E491F561FC11D770F881F85
S1133830991F661F0694A1F70590079428F4F80EC3
S1133840491F561FC71FD11D880F991F661F771F59
S11338500694A1F70590079420F4490F561FC71F3B
S1133860D81F990F661F771F881F0694A9F78491A4
S11338701095177041F0D695C79557954795F794CD
S1133880E7941A95C1F7E7E0F1E068941590159173
S113389035916591959105907FE27395E118F10A50
S11338A0430B560BC90BD009C0F7E10CF11E431FA3
S11338B0561FC91FD01D7EF4703311F48A95E6CFCC
S11338C0E894015030F0080F0AF40027021708F4B6
S11338D0202F2395022F7A3328F079E37D932A95BC
S11338E0E9F710C07D932A9589F606949795679514
S11338F0379517951794E118F10A430B560BC90B2A
S1133900D00998F023957E9173957A3308F070E38B
S11339107C932013B8F77E9170617D9330F083958A
S113392071E37D9370E32A95E1F71124EF90FF9002
S11339300F911F91CF91DF91992787FD909508955D
S113394091110C94711D803219F089508550C8F77B
S11339500895FB01DC014150504088F08D91813481
S11339601CF08B350CF4805E659161341CF06B3572
S11339700CF4605E861B611171F3990B0895881B2A
S1133980FCCFFC010590615070400110D8F7809580
S113399090958E0F9F1F0895FC0161507040019017
S11339A00110D8F7809590958E0F9F1F08950F935F
S11339B01F93CF93DF93FB01238121FD03C08FEF7E
S11339C09FEF2CC022FF16C0468157812481358188
S11339D04217530744F4A081B1819D012F5F3F4FEB
S11339E0318320838C93268137812F5F3F4F378328
S11339F0268314C08B01EC01FB010084F185E02DCA
S1133A000995892BE1F6D80116968D919C9117970B
S1133A10019617969C938E931697CE01DF91CF91C2
S1133A201F910F910895FA01AA27283051F12031EE
S1133A3081F1E8946F936E7F6E5F7F4F8F4F9F4F3E
S1133A40AF4FB1E03ED0B4E03CD0670F781F891F80
S1133A509A1FA11D680F791F8A1F911DA11D6A0F4E
S1133A60711D811D911DA11D20D009F468943F9101
S1133A702AE0269F11243019305D3193DEF6CF0100
S1133A800895462F4770405D4193B3E00FD0C9F7C6
S1133A90F6CF462F4F70405D4A3318F0495D31FD33
S1133AA04052419302D0A9F7EACFB4E0A695979586
S1133AB0879577956795BA95C9F70097610571055C
S1133AC008959B01AC010A2E0694579547953795A6
S1133AD02795BA95C9F7620F731F841F951FA01D00
S1133AE008959927882708952F923F924F925F92C5
S1133AF06F927F928F929F92AF92BF92CF92DF92FA
S1133B00EF92FF920F931F93CF93DF93CDB7DEB75E
S1133B10CA1BDB0B0FB6F894DEBF0FBECDBF0994F2
S1133B202A88398848885F846E847D848C849B8449
S1133B30AA84B984C884DF80EE80FD800C811B8157
S1133B40AA81B981CE0FD11D0FB6F894DEBF0FBE86
S10D3B50CDBFED010895F894FFCFF6
S1133B5A6CCF5834D6647939CB48843A00401C4631
S1133B6A00000C430000C8420000C8420000C842DA
S1133B7A040005000600070000000300000001001D
S1133B8A010002000000010001000300000001001E
S1133B9A010002000000010001000100030000000E
S1133BAA0100000002000000010000000300000000
S1133BBA01000000020000000100000002000300EE
S1133BCA00000100000002000000010000000300E0
S1133BDA00000100000002000000010000000300D0
S1133BEA03000000010000000200000001000000C0
S1133BFA03000000010000000200000001000000B0
S1133C0A6F6B002566006572726F72206578747234
S1133C1A756465722074656D702E00746865207011
S1133C2A72696E7465722069732062757379000013
S9030000FC
