S01700005052495343415F6672696D776172652E737265638F
S11300000C9401010C9451110C941E010C941E01CA
S11300100C941E010C941E010C941E010C941E01E0
S11300200C941E010C94200A0C941E010C941E01C5
S11300300C941E010C941E010C941E010C941E01C0
S11300400C941E010C941E010C941E010C940D0CB6
S11300500C941E0105A84CCDB2D44EB93836A90271
S11300600C50B9918688083CA6AAAA2ABE000000B2
S1130070803F08000000BE922449123EABAAAA2A7F
S1130080BECDCCCC4C3E00000080BEABAAAAAA3E9A
S113009000000000BF000000803F000000000008D6
S11300A04178D3BB4387D1133D190E3CC3BD428273
S11300B0AD2B3E68EC8276BED98FE1A93E4C80EF31
S11300C0FFBE01C4FF7F3F00000000004E414E49C7
S11300D04E495459494E46CDCCCC3D0AD7233C1702
S11300E0B7D13877CC2B329595E6241FB14F0A004F
S11300F00020410000C84200401C4620BCBE4CCA3F
S11301001B0E5AAEC59D7400407A10F35A00A072BB
S11301104E18090010A5D4E80000E876481700003E
S1130120E40B54020000CA9A3B000000E1F505000C
S11301300080969800000040420F000000A0860155
S1130140000000102700000000E803000000006425
S113015000000000000A0000000000010000000090
S1130160002C76D888DC674F0823DFC1DFAE59E165
S1130170B1B796E5E3E453C63AE651997696E8E6D4
S1130180C28426EB898C9B62ED407C6FFCEFBC9CA7
S11301909F40F2BAA56FA5F490055A2AF75C936BB9
S11301A06CF9676DC11BFCE0E40D47FEF520E6B574
S11301B000D0ED902E0300943577050080841E084E
S11301C00000204E0A000000C80C333333330F986C
S11301D06E12831141EF8D2114893BE65516CFFE33
S11301E0E6DB18D1844B381BF77C1D901DA4BBE4BF
S11301F024203284725E228100C9F124ECA1E53D01
S1130200270011241FBECFE5D4E0DEBFCDBF11E02F
S1130210A0E6B0E0EAE5FEE302C005900D92A43446
S1130220B107D9F723E0A4E4B1E001C01D92A133E2
S1130230B207E1F70E942B040C942B1F0C940000CE
S1130240E199FECF9FBB8EBB6DBBE29AE19A089504
S1130250EF92FF920F931F93CF93DF938C017B0157
S1130260EA01209751F0F70161917F01C8010E94D2
S113027020010F5F1F4F2197B1F7DF91CF911F919D
S11302800F91FF90EF900895E199FECF9FBB8EBB35
S1130290E09A8DB30895EF92FF920F931F93CF933B
S11302A0DF938C017B01EA01209751F0C8010E9481
S11302B04401F70181937F010F5F1F4F2197B1F72D
S11302C0DF91CF911F910F91FF90EF90089587B91F
S11302D0369A86B1349A84B195B108958F929F92DB
S11302E0AF92BF92CF92DF92EF92FF920E9467018A
S11302F09093920180939101BC01990F880B990B03
S11303000E94EA159B01AC0160E070EC8FE794E475
S11303100E94401520E030E040E85FE30E94C914E9
S113032020916C0030916D0040916E0050916F00EF
S11303300E942E17609397017093980180939901FE
S113034090939A010E94E6166B017C0160939B01D5
S113035070939C0180939D0190939E012091640071
S11303603091650040916600509167000E942E17FD
S1130370209168003091690040916A0050916B00AF
S11303800E94CA144B015C0120916000309161000D
S11303904091620050916300C701B6010E942E177C
S11303A0A70196010E942E17A70196010E942E17FD
S11303B09B01AC01C501B4010E94CA149B01AC01AC
S11303C060E070E080E89FE30E94401560938D0137
S11303D070938E0180938F019093900123E333E90E
S11303E048E853E40E94C914609393017093940104
S11303F08093950190939601FF90EF90DF90CF90BA
S1130400BF90AF909F908F9008950F931F93CF93B9
S1130410DF93CDB7DEB764970FB6F894DEBF0FBE97
S1130420CDBFDC01FE013196CE010B961192E81787
S1130430F907E1F740E050E020E030E023C0FD019F
S1130440E20FF31F808186131BC0F901E40FF51F2F
S11304508F010A0F1B1FF801718181E090E08C0F5E
S11304609D1F840F951FFC017083F80182818032E7
S113047099F08D3089F08A3079F04F5F5F4F02C078
S11304802F5F3F4FFD0101900020E9F73197EA1BF0
S1130490FB0B2E173F0798F2CE0101960E945918C4
S11304A064960FB6F894DEBF0FBECDBFDF91CF9137
S11304B01F910F9108956F927F928F929F92AF92A6
S11304C0BF92CF92DF92EF92FF920F931F93CF933D
S11304D0DF93CDB7DEB77C01CDB6DEB6FC0101906B
S11304E00020E9F731978F01081B190B580181E0AF
S11304F0A81AB108ADB7BEB7A01BB10B0FB6F894DC
S1130500BEBF0FBEADBF2DB73EB72F5F3F4FF70144
S11305108081681342C0E0E0F0E0D701AE0FBF1F56
S113052011968C91D9018C93D7018C933296EE0D50
S1130530FF1D808148131AC0812C912C20E030E0EB
S1130540F701E80DF91D80E281832E5F3F4F2A15E4
S11305503B0564F5F701E20FF31F01501109E00EAA
S1130560F11E1192EE16FF06E1F720C03901BFEF2C
S11305706B1A7B0AB7016F5F7F4F20E030E02F5F7B
S11305803F4F9191D3019D933D014901DB019D931F
S1130590BD0180818413F3CFD3CFD7011196E0E05E
S11305A0F0E031968D918613FCCFB7CF0FB6F89457
S11305B0DEBE0FBECDBEDF91CF911F910F91FF9094
S11305C0EF90DF90CF90BF90AF909F908F907F90EF
S11305D06F9008950F931F93CF93DF93CDB7DEB73A
S11305E02A970FB6F894DEBF0FBECDBFDC01FE0123
S11305F03196CE010B961192E817F907E1F740E026
S113060050E020E030E023C0FD01E20FF31F8081C1
S113061086131BC0F901E40FF51F8F010A0F1B1F7E
S1130620F801718181E090E08C0F9D1F840F951F6C
S1130630FC017083F8018281803299F08D3089F059
S11306408A3079F04F5F5F4F02C02F5F3F4FFD014B
S113065001900020E9F73197EA1BFB0B2E173F07A7
S113066098F2CE0101960E945D182A960FB6F8946E
S1130670DEBF0FBECDBFDF91CF911F910F910895C3
S1130680DC010D900020E9F7FC019D0121503109A6
S113069007C09191961749F09D3049F09A3049F07E
S11306A0E217F307B1F780E0089581E0089580E050
S11306B0089580E00895CF92DF92EF92FF92CF9356
S11306C0DF93EC016A017B01288139814A815B81D6
S11306D0C701B6010E94C914C882D982EA82FB828A
S11306E0DF91CF91FF90EF90DF90CF90089541116B
S11306F00DC0E82FF0E0218181E090E002C0880F76
S1130700991F6A95E2F7822B81830895E82FF0E020
S1130710218181E090E002C0880F991F6A95E2F779
S11307208095822381830895442369F0E82FF0E0C3
S1130730228181E090E002C0880F991F6A95E2F758
S1130740822B82830895E82FF0E0228181E090E0FB
S113075002C0880F991F6A95E2F7809582238283ED
S11307600895611105C0E82FF0E08FEF81830895AB
S1130770E82FF0E011820895E82FF0E062830895F5
S1130780E82FF0E0828121E030E002C0220F331F25
S11307906A95E2F7282722830895CF92DF92EF9299
S11307A0FF920F931F9381B3806B81BB41E062E0A2
S11307B080E30E9477038FEF84BB8AB3806F8ABB88
S11307C087B3836087BB87E886B93E9A8BB780641A
S11307D08BBF85B7816185BF0E948F140E940E1361
S11307E00F2EF7EECF2EF1E0DF2EF02D17E6E12EDF
S11307F016E6F12E06EC10E4A801970160E070E023
S113080088E793E40E943B130F2EFBECCF2EF1E01C
S1130810DF2EF02DA801970160E070E088E793E4F3
S11308200E943B13F8948FB5816A8FBD8EB58164A5
S11308308EBD85B58E6685BD83B7816883BF89B754
S1130840836089BF12BE78941F910F91FF90EF903F
S1130850DF90CF900895CF93DF93CDB7DEB729977C
S11308600FB6F894DEBF0FBECDBF0E94CD0345E0A6
S113087050E069E672E080E090E00E944B0145E0C0
S113088050E06BE572E085E090E00E944B0145E0AA
S113089050E06BEC72E08AE090E00E944B0145E08E
S11308A050E06DEB71E08FE090E00E944B0189E62F
S11308B092E00E9459186093C7027093C802809313
S11308C0C9029093CA028BE592E00E945918609382
S11308D003027093040280930502909306028BEC4A
S11308E092E00E94591860936502709366028093A7
S11308F06702909368028DEB91E00E94591860930F
S1130900B9017093BA018093BB019093BC01442454
S113091043940F2EFFE96F2EF1E07F2EF02D0F2E62
S1130920F5E22F2EF3E03F2EF02D562C7F82E5EDDD
S1130930F2E080818D3409F0DFC06DE4CF010E94C4
S1130940EA0290935701809356018435910569F02A
S11309501CF4429751F0C7C08D36910509F482C04A
S11309608E3B910509F49FC0BEC063E585ED92E01E
S11309700E94EA029C0148EE53E0249FC001259F97
S1130980900D349F900D1124092E000CAA0BBB0B63
S113099080935C0190935D01A0935E01B0935F012D
S11309A068E585ED92E00E9440038093870169E544
S11309B085ED92E00E944003809386016AE585ED0F
S11309C092E00E9440038093850165E485ED92E006
S11309D00E944003809384016091870188E50E940E
S11309E0EB126091860189E50E94EB126091860109
S11309F08AE50E94EB126091840185E40E94EB1267
S1130A0080915C0190915D01A0915E01B0915F01C4
S1130A100097A105B10509F1F4F08FE99FE0019772
S1130A20F1F700C0000080915C0190915D01A091FC
S1130A305E01B0915F010197A109B10980935C0146
S1130A4090935D01A0935E01B0935F01181619069F
S1130A501A061B0614F30E940E1381E191E00E9412
S1130A609F1441C063E585ED92E00E940502609306
S1130A707C0170937D0180937E0190937F0180E4DB
S1130A800E946E0120917C0130917D0140917E0194
S1130A9050917F010E94361588238CF381E191E007
S1130AA00E949F1420C063E585ED92E00E94050238
S1130AB060936C0170936D0180936E0190936F014C
S1130AC082E40E946E0120916C0130916D0140918D
S1130AD06E0150916F010E94361588238CF381E1D9
S1130AE091E00E949F1410928901E5EDF2E01192C9
S1130AF0E215F305E1F71BCF873409F018CF4092D4
S1130B00890167E485ED92E00E94EA02909357011F
S1130B108093560199230CF443C48230910524F048
S1130B2004970CF4A1C13CC40E940E1368E585ED42
S1130B3092E00E944003682F70E080E090E00E9401
S1130B40E815F301608371838283938369E585EDFE
S1130B5092E00E944003682F70E080E090E00E94E1
S1130B60E815F30164837583868397836AE585EDCD
S1130B7092E00E944003682F70E080E090E00E94C1
S1130B80E815F301608771878287938768E585EDAF
S1130B9092E00E940502609307027093080280931A
S1130BA0090290930A0269E585ED92E00E9405022C
S1130BB06093C7017093C8018093C9019093CA01DF
S1130BC06AE585ED92E00E940502609373027093DA
S1130BD07402809375029093760265E485ED92E049
S1130BE00E9405029B01AC016091B9017091BA01A8
S1130BF08091BB019091BC010E942E17F301648780
S1130C0075878687978720E030E0A9016091070205
S1130C10709108028091090290910A020E9436158F
S1130C20882309F4EEC320E030E0A9016091C701F4
S1130C307091C8018091C9019091CA010E94361532
S1130C40882309F4DEC320E030E0A9016091730237
S1130C507091740280917502909176020E9436150B
S1130C608111B8C3CEC3C0927001D0927101E092D9
S1130C707201F092730108C0C0927801D092790198
S1130C80E0927A01F0927B01C0900702D0900802B2
S1130C90E0900902F0900A0220E030E048E453E4D6
S1130CA0C701B6010E94D91618160CF4D8C020E06A
S1130CB030E048E453E46091C7017091C801809129
S1130CC0C9019091CA010E94D91618160CF4C7C024
S1130CD020E030E04AEF53E46091730270917402B3
S1130CE080917502909176020E94D91618160CF420
S1130CF0B6C04092890120E030E040E85FE3F301B0
S1130D0060817181828193810E943615811117C09F
S1130D10B701A6018CE491E00E945B039B01AC0146
S1130D206091C7027091C8028091C9029091CA0271
S1130D300E942E17F301608371838283938320E0E2
S1130D4030E040E85FE3F301648175818681978137
S1130D500E94361581111DC04091C7015091C801F0
S1130D606091C9017091CA0188E491E00E945B031B
S1130D709B01AC0160910302709104028091050211
S1130D80909106020E942E17F30164837583868373
S1130D90978320E030E040E85FE3F30160857185EC
S1130DA0828593850E94361581111DC0409173027E
S1130DB050917402609175027091760284E491E01E
S1130DC00E945B039B01AC01609165027091660215
S1130DD080916702909168020E942E17F301608748
S1130DE071878287938710920702109208021092EB
S1130DF0090210920A021092C7011092C8011092BF
S1130E00C9011092CA0110927302109274021092D6
S1130E1075021092760280918201811104C0809142
S1130E2081018823A1F0009170011091710120913A
S1130E307201309173014091780150917901609170
S1130E407A0170917B01C3010E948E1108C085E173
S1130E5091E00E949F148DE00E949714A1C281E149
S1130E6091E00E949F149CC268E585ED92E00E9487
S1130E70050260930702709308028093090290931D
S1130E800A0269E585ED92E00E9405026093C701BC
S1130E907093C8018093C9019093CA0169E485EDF8
S1130EA092E00E9405026093680170936901809347
S1130EB06A0190936B016AE485ED92E00E94050259
S1130EC06093640170936501809366019093670158
S1130ED066E485ED92E00E9405026B017C0160935B
S1130EE0740170937501809376019093770120E0EB
S1130EF030E0A9010E943615882341F0C0927801A0
S1130F00D0927901E0927A01F0927B0162E585ED5D
S1130F1092E00E94050260936001709361018093E6
S1130F2062019093630120E030E0A9010E9436152C
S1130F3081117EC28090680190906901A0906A013D
S1130F40B0906B01C0906401D0906501E09066019F
S1130F50F0906701A7019601C701B6010E942E1700
S1130F6069837A838B839C83A7019601C701B601A9
S1130F700E942E176B017C01A5019401C501B401E7
S1130F800E942E179B01AC01C701B6010E94CA142E
S1130F900E94A917609360017093610180936201BC
S1130FA09093630145C228853985B901330F880BB5
S1130FB0990B0E94EA156B017C010E943B15698321
S1130FC07A838B839C838090600190906101A090D0
S1130FD06201B0906301A50194010E942E1729813A
S1130FE03A814B815C810E942E1769837A838B83BB
S1130FF09C83C701B6010E949B176B017C019B0176
S1131000AC01C501B4010E942E17A70196010E94EC
S11310102E176B017C012091070230910802409148
S1131020090250910A0269817A818B819C810E9414
S1131030D91688237CF02091C7013091C8014091D2
S1131040C9015091CA01C701B6010E94D91688236B
S11310500CF0A0C180918201811105C080918101B1
S1131060882309F48DC180915A0190915B01029704
S113107009F0AEC020E030E0A901609168017091F0
S1131080690180916A0190916B010E94361581116A
S113109040C020E030E0A9016091640170916501D5
S11310A080916601909167010E943615811131C0CB
S11310B049815A816B817C818CE491E00E945B03BD
S11310C09B01AC016091C7027091C8028091C90272
S11310D09091CA020E942E17F30160837183828368
S11310E09383B701A60188E491E00E945B039B010E
S11310F0AC01609103027091040280910502909109
S113110006020E942E17F3016483758386839783F6
S113111010C149815A816B817C818CE491E00E94E9
S11311205B038090680190906901A0906A01B0907F
S11311306B012091C7023091C8024091C9025091BD
S1131140CA020E942E1769837A838B839C83C5010C
S1131150B4019058A50194010E9440159B01AC0173
S113116069817A818B819C810E942E17F3016083AF
S1131170718382839383B701A60188E491E00E947E
S11311805B03C0906401D0906501E0906601F0902B
S113119067012091030230910402409105025091AD
S11311A006020E942E174B015C01C701B60190583C
S11311B0A70196010E9440159B01AC01C501B40131
S11311C00E942E17F3016483758386839783B1C0CD
S11311D020E030E0A901609168017091690180917B
S11311E06A0190916B010E943615811146C020E07E
S11311F030E0A901609164017091650180916601FC
S1131200909167010E943615811137C049815A8136
S11312106B817C818CE491E00E945B039B01AC01B7
S11312208091C7029091C802A091C902B091CA02EC
S1131230BC01CD0190580E942E17F3016083718385
S113124082839383B701A60188E491E00E945B0343
S11312509B01AC018091030290910402A0910502CC
S1131260B0910602BC01CD0190580E942E17F301E3
S113127064837583868397835CC049815A816B81BB
S11312807C818CE491E00E945B03809068019090E3
S11312906901A0906A01B0906B012091C70230915E
S11312A0C8024091C9025091CA020E942E17698354
S11312B07A838B839C83A5019401C501B4010E94A8
S11312C040159B01AC0169817A818B819C810E94CC
S11312D02E17F3016083718382839383B701A60180
S11312E088E491E00E945B03C0906401D0906501A2
S11312F0E0906601F09067012091030230910402AE
S113130040910502509106020E942E174B015C0188
S1131310A7019601C701B6010E9440159B01AC01CB
S1131320C501B4010E942E17F3016483758386837B
S11313309783F30110861186128613868091B90172
S11313409091BA01A091BB01B091BC0184879587AB
S1131350A687B787409289010091700110917101AD
S1131360209172013091730140917801509179017B
S113137060917A0170917B01852D932D0E948E11CD
S1131380288539852F5F3F4F398728872936314093
S113139009F009CE2D803E8081E191E00E949F14E6
S11313A010928901F3011082118212821382148235
S11313B01582168217821086118612861386148669
S11313C0158616861786E5EDF2E011922E163F0675
S11313D0E1F7ADCA66E485ED92E00E9405026B0177
S11313E07C016093740170937501809376019093EE
S11313F0770120E030E0A9010E94361581113CCC30
S113140043CC66E485ED92E00E9405026B017C0109
S113141060937401709375018093760190937701C2
S113142020E030E0A9010E94361581111CCC2CCC9F
S113143020E030E0398728873E822D823F80B3CD7B
S11314401F920F920FB60F921124EF92FF920F93F7
S11314501F932F933F934F935F936F937F938F9338
S11314609F93AF93BF93EF93FF93CF93DF93CDB746
S1131470DEB76497DEBFCDBF80918C0180FF33C09F
S113148080E40E946E019B01AC0160917C0170912B
S11314907D0180917E0190917F010BEC11E00E940F
S11314A09513EE24EA94F12C9701281B390B3BBDCC
S11314B02ABD82E40E946E019B01AC0160916C0123
S11314C070916D0180916E0190916F0107EE11E0B2
S11314D00E949513E81AF90AF9BCE8BC80918C01C2
S11314E08E7F80938C0180918901882331F05F9BEA
S11314F004C08BE092E00E94AE1480910B028D3404
S113150009F06EC16DE48BE092E00E94EA029093D0
S11315105901809358018037910509F0B6C01092A3
S11315200702109208021092090210920A02109205
S1131530C7011092C8011092C9011092CA011092F9
S1131540730210927402109275021092760240E0B7
S113155050E0BA018CE491E00E945B039B01AC0172
S11315600F2EFFE9EF2EF1E0FF2EF02D6091C70260
S11315707091C8028091C9029091CA020E942E17EC
S1131580F70160837183828393834091C7015091F3
S1131590C8016091C9017091CA0188E491E00E9478
S11315A05B039B01AC016091030270910402809182
S11315B00502909106020E942E17F7016483758339
S11315C086839783409173025091740260917502EF
S11315D07091760284E491E00E945B039B01AC016C
S11315E06091650270916602809167029091680231
S11315F00E942E17F701608771878287938714866C
S11316001586168617861092780110927901109229
S11316107A0110927B011092700110927101109264
S113162072011092730110927C0110927D0110924C
S11316307E0110927F0110926C0110926D01109244
S11316406E0110926F0181E08093890100E010E047
S11316509801B901A801C7010E948E11F7011082F7
S113166011821282138214821582168217821086C6
S1131670118612861386148615861686178610928E
S1131680890181E191E00E949F1480915801909119
S113169059018936910509F09EC080918000882304
S11316A051F08AE291E00E949F148DE00E94971409
S11316B01092800090C080918001882339F081E1EC
S11316C091E00E949F141092800185C0E5E2F3E04E
S11316D0AFEAB1E08FE293E011921D92E817F907A7
S11316E0D9F780E40E946E0100E411E023E042E0B7
S11316F00E9439189F938F9385E293E09F938F9371
S11317000E94831882E40E946E0123E042E00E945A
S113171039189F938F938FEA91E09F938F930E9440
S113172083180FB6F894DEBF0FBECDBF8091880139
S1131730882371F184E589838AE38A83E5E2F3E00F
S113174090819B8391819C8392819D8393819E83CD
S113175094819F8390E2988725E429878A8720E3F0
S11317602B879C8792E49D878E87EFEAF1E0808146
S11317708F878181888B8281898B83818A8B848105
S11317808B8B8DE08C8BCE0101960E949F1423C01D
S113179084E589838AE38A83E5E2F3E090819B838D
S11317A091819C8392819D8393819E8394819F8365
S11317B090E2988795E499878A8780E38B878DE008
S11317C08C87CE0101960E949F1405C011928E173A
S11317D09F07E1F705C0EBE0F2E08BE592E0F6CF7E
S11317E064960FB6F894DEBF0FBECDBFDF91CF91E4
S11317F0FF91EF91BF91AF919F918F917F916F91E5
S11318005F914F913F912F911F910F91FF90EF9016
S11318100F900FBE0F901F9018951F920F920FB646
S11318200F9211248F929F92AF92BF92CF92DF9228
S1131830EF92FF920F931F932F933F934F935F93D6
S11318406F937F938F939F93AF93BF93EF93FF9384
S1131850CF93DF93CDB7DEB7AC97DEBFCDBF80911A
S11318608A0190918B018639910530F40196909309
S11318708B0180938A0109C080918C0181608093DF
S11318808C0110928B0110928A0180918901882326
S113189009F460C0809188018823D9F180E40E9412
S11318A06E016B017C0120E030E040E450E4609183
S11318B07C0170917D0180917E0190917F010E9455
S11318C0CA149B01AC01C701B6010E94D9161816AF
S11318D014F41BBC1ABC82E40E946E016B017C01EF
S11318E020E030E040E450E460916C0170916D01BF
S11318F080916E0190916F010E94CA149B01AC010A
S1131900C701B6010E94D916181604F519BC18BCF3
S11319101DC080E40E946E016B017C0120E030E078
S113192040E450E460917C0170917D0180917E01DE
S113193090917F010E94CA149B01AC01C701B601BA
S11319400E94D916181614F41BBC1ABC8091890184
S113195081110EC05F9B0CC0E7E7F2E087EC92E0D8
S11319601192E817F907E1F787E792E00E94AE14B5
S1131970809177028D3409F0C9C381E08093890195
S11319806DE487E792E00E94EA0290935B01809302
S11319905A018B36910509F409C23CF58435910549
S11319A08CF4823591050CF09DC08131910509F4C8
S11319B086C024F4029708F44BC092C3429709F4FA
S11319C085C08EC38C35910509F4BBC02CF48435D5
S11319D0910509F47BC084C38836910509F4C7C115
S11319E08A36910509F4D5C17BC38E3C910509F46F
S11319F00BC29CF48E36910509F4DEC12CF48D36AD
S1131A00910509F463C06CC38C38910509F4DDC1F8
S1131A108E3B910509F45AC063C3853F21E09207C8
S1131A2009F42FC25CF48E32B1E09B0709F40CC2B6
S1131A30843FE1E09E0709F484C052C3863FF1E08D
S1131A409F0709F47EC0873F914009F46FC248C3E1
S1131A50EFE9F1E01082118212821382148215825E
S1131A6016821782108611861286138614861586AE
S1131A7016861786109278011092790110927A01D5
S1131A8010927B01109270011092710110927201F8
S1131A901092730110927C0110927D0110927E01CC
S1131AA010927F0110926C0110926D0110926E01E0
S1131AB010926F0181E191E00E949F141CC30E9467
S1131AC00E1381E191E00E949F1415C3E7E7F2E051
S1131AD0A5EDB2E027EC32E081918D932E173F07FC
S1131AE0D9F709C310924C0110924D0110924E0186
S1131AF010924F01109248011092490110924A012C
S1131B0010924B011092440110924501109246012B
S1131B1010924701EFE9F1E01082118212821382E0
S1131B2014821582168217821086118612861386F5
S1131B30148615861686178681E191E00E949F140B
S1131B40DAC2E9E6F2E04BE552E02BEC32E00F2E8C
S1131B50FDEBEF2EF1E0FF2EF02D63E772E0119222
S1131B60DA011D92AD01D9011D929D01D7011D928B
S1131B707D01E617F70799F78C359105A1F568E51E
S1131B8087E792E00E9405026093C7027093C8023F
S1131B908093C9029093CA0269E587E792E00E94A4
S1131BA005026093030270930402809305029093EC
S1131BB006026AE587E792E00E94050260936502E7
S1131BC070936602809367029093680265E487E7E6
S1131BD092E00E9405026093B9017093BA01809368
S1131BE0BB019093BC0180915A0190915B01863FA7
S1131BF0914009F040C080917C0090917D00A091BB
S1131C007E00B0917F008093C7029093C802A09396
S1131C10C902B093CA028091780090917900A09192
S1131C207A00B0917B008093030290930402A09306
S1131C300502B09306028091740090917500A09102
S1131C407600B09177008093650290936602A0932A
S1131C506702B09368028091700090917100A09126
S1131C607200B09173008093B9019093BA01A0936C
S1131C70BB01B093BC016091C7027091C80280910E
S1131C80C9029091CA0200E411E023E042E00E94FC
S1131C9039189F938F9389E692E09F938F930E94C4
S1131CA0831860910302709104028091050290915F
S1131CB0060223E042E00E9439189F938F938BE53C
S1131CC092E09F938F930E948318609165027091B4
S1131CD06602809167029091680223E042E00E94CC
S1131CE039189F938F938BEC92E09F938F930E946C
S1131CF083186091B9017091BA018091BB019091F0
S1131D00BC0123E042E00E9439189F938F938DEB2E
S1131D1091E09F938F930E94831845E050E069E619
S1131D2072E080E090E00E94280145E050E06BE51D
S1131D3072E085E090E00E94280145E050E06BEC01
S1131D4072E08AE090E00E94280145E050E06DEBEB
S1131D5071E08FE090E00E94280181E191E00E940F
S1131D609F140FB6F894DEBF0FBECDBFC4C163E5A8
S1131D7087E792E00E94050260937C0170937D01E5
S1131D8080937E0190937F0181E191E00E949F14F2
S1131D90B2C163E587E792E00E9405020E94B9158B
S1131DA063BD81E191E00E949F14A5C113BC81E150
S1131DB091E00E949F149FC110925301109252010E
S1131DC081E191E00E949F1496C163E587E792E068
S1131DD00E94050260936C0170936D0180936E0103
S1131DE090936F0120E030E0A9010E943615811123
S1131DF003C01092880103C081E08093880181E1CF
S1131E0091E00E949F1477C110924C0110924D01F1
S1131E1010924E0110924F01109248011092490104
S1131E2010924A0110924B01109244011092450104
S1131E30109246011092470181E08093830181E171
S1131E4091E00E949F1457C163E587E792E00E94E6
S1131E50050260937C0170937D0180937E019093D1
S1131E607F0120E030E048EC51E40E94361518165A
S1131E701CF081E08093810181E191E00E949F1434
S1131E803AC145E050E069E672E080E090E00E94EB
S1131E904B0145E050E06BE572E085E090E00E9484
S1131EA04B0145E050E06BEC72E08AE090E00E9468
S1131EB04B0145E050E06DEB71E08FE090E00E9453
S1131EC04B0189E692E00E9459186093C70270930F
S1131ED0C8028093C9029093CA028BE592E00E94E3
S1131EE0591860930302709304028093050290933F
S1131EF006028BEC92E00E9459186093650270937D
S1131F00660280936702909368028DEB91E00E94D1
S1131F1059186093B9017093BA018093BB019093EF
S1131F20BC0181E191E00E949F14E5C0E9E6F2E082
S1131F302BE532E08BEC92E06DEB71E043E752E08D
S1131F401192D9011D929D01DC011D92CD01DB018D
S1131F501D92BD01E417F50799F76091C7027091CE
S1131F60C8028091C9029091CA0200E411E023E002
S1131F7042E00E9439189F938F930F2EF9E68F2E1B
S1131F80F2E09F2EF02D9F928F920E948318609111
S1131F90030270910402809105029091060223E0ED
S1131FA042E00E9439189F938F930F2EFBE5AF2ECA
S1131FB0F2E0BF2EF02DBF92AF920E948318609181
S1131FC0650270916602809167029091680223E035
S1131FD042E00E9439189F938F930F2EFBECCF2E73
S1131FE0F2E0DF2EF02DDF92CF920E9483186091F1
S1131FF0B9017091BA018091BB019091BC0123E0B9
S113200042E00E9439189F938F930DEB11E01F93C8
S11320100F930E94831888E58983F40180818A8361
S113202081818B8382818C8383818D8384818E8360
S113203023E72F839FE298878DE689878A8730E29A
S11320403B8749E54C87D5014C914D8711964C91BE
S113205011974E8712964C9112974F8713964C9175
S11320601397488B14964C91498B2A8B9B8B8C8BA2
S11320708D8B3E8B4AE54F8BF6014081488F418121
S1132080498F42814A8F43814B8F44814C8F2D8FDE
S11320909E8F8F8F88A339A335E43AA3D8013C914E
S11320A03BA311963C9111973CA312963C91129735
S11320B03DA313963C9113973EA314963C913FA3E2
S11320C028A799A78AA78BA78DE08CA7CE01019694
S11320D00E949F140FB6F894DEBF0FBECDBF0BC095
S11320E0E7E7F2E0ABE0B2E027EC32E081918D93D8
S11320F02E173F07D9F710928901E7E7F2E087EC42
S113210092E01192E817F907E1F7A8C0873409F0C3
S11321107DC081E08093890167E487E792E00E94B3
S1132120EA0290935B0180935A018C319105A1F0EE
S11321301CF4049728F04DC08C35910591F049C0EA
S1132140E7E7F2E0A5EDB2E027EC32E081918D9370
S1132150E217F307D9F73DC081E191E00E949F1493
S113216038C068E587E792E00E94050260930702A1
S1132170709308028093090290930A0269E587E745
S113218092E00E9405026093C7017093C801809396
S1132190C9019093CA016AE587E792E00E940502AB
S11321A06093730270937402809375029093760225
S11321B065E487E792E00E9405026093AB017093A7
S11321C0AC018093AD019093AE0181E191E00E9456
S11321D09F1410928901EFE9F1E0108211821282BA
S11321E01382148215821682178210861186128633
S11321F013861486158616861786E7E7F2E087ECC1
S113220092E01192E817F907E1F728C08E3431F50E
S113221011E010938901809152019091530101962C
S113222090935301809352016EE487E792E00E94F9
S1132230EA0290935501809354016AE287E792E0A1
S11322400E94EA0290935101809350014AE260E2B5
S113225087E792E00E945B0210938001AC960FB670
S1132260F894DEBF0FBECDBFDF91CF91FF91EF9108
S1132270BF91AF919F918F917F916F915F914F919A
S11322803F912F911F910F91FF90EF90DF90CF908E
S1132290BF90AF909F908F900F900FBE0F901F90A4
S11322A018951F920F920FB60F9211242F933F93FC
S11322B04F935F936F937F938F939F93AF93BF934A
S11322C0EF93FF9341E066E083E30E94940340E0D0
S11322D062E083E30E9494038FEA94E00197F1F7AC
S11322E000C0000041E062E083E30E9494038FEAAF
S11322F094E00197F1F700C00000FF91EF91BF91C6
S1132300AF919F918F917F916F915F914F913F9189
S11323102F910F900FBE0F901F9018952F923F9200
S11323204F925F926F927F928F929F92AF92BF92E1
S1132330CF92DF92EF92FF920F931F93CF93DF938D
S1132340CDB7DEB7C859D1090FB6F894DEBF0FBEBA
S1132350CDBF6C012A013B014801590120E030E066
S1132360A901C301B2010E9436158823C9F0A30153
S1132370920160E070E080E89FE30E94401520E055
S113238030E040E752E40E942E1720E034E244E7B4
S113239059E40E942E170E94B2152B013C0104C07F
S11323A0412C512C3201439420E030E0A901C501B5
S11323B0B4010E9436158823C9F0A501940160E098
S11323C070E080E89FE30E94401520E030E040E7A1
S11323D052E40E942E1720E034E244E759E40E94BC
S11323E02E170E94B2154B015C0104C0812C912C64
S11323F05401839488E0E1E8F0E0DE011196019055
S11324000D928A95E1F776018E010F5F1F4F1E0131
S113241029E0220E311C20E030E0A901F70160819F
S11324207181828193810E94361588238CF441E066
S1132430F801608183E30E949403F7018081918114
S1132440A281B381B05880839183A283B38306C0F1
S113245040E0F801608183E30E949403F4E0EF0E0E
S1132460F11C0E5F1F4F20163106A9F688E8E9E833
S1132470F0E0DE01519601900D928A95E1F781E03A
S113248090E09A8789879C878B879E878D87988B16
S11324908F8700E010E00F2EF2E22F2EF02D0F2E8A
S11324A0F1E13F2EF02D209EF001219EF00D11242C
S11324B021E030E02C0F3D1FE20FF31F608983E31E
S11324C00E94C0037801EE0CFF1CEE0CFF1CEC0C08
S11324D0FD1C20E030E040E85FE3F701608171819A
S11324E0828193810E94C914F7016083718382837E
S11324F0938320E030E0A9010E94361518165CF0A1
S1132500F801EE0FFF1F21E030E02C0F3D1FE20F1A
S1132510F31F118610860330110551F4C401992369
S113252084F035E03A95F1F700000197D0F709C03F
S1132530C201992334F0F5E0FA95F1F70000019710
S1132540D0F78F8598899C01220F331F220F331FE8
S1132550220F331F8D859E85880F991F880F991F21
S1132560820F931F2B853C85220F331F820F931FED
S113257029853A85820F931F309EF001319EF00D1C
S11325801124E80FF91F3196EE0FFF1F21E030E010
S11325902C0F3D1FE20FF31F00891189892B09F0CD
S11325A082CFC856DF4F0FB6F894DEBF0FBECDBF43
S11325B0DF91CF911F910F91FF90EF90DF90CF901B
S11325C0BF90AF909F908F907F906F905F904F904F
S11325D03F902F900895883549F018F48534C1F060
S11325E00895893549F08A3569F00895462F64E0E5
S11325F086E30E9494030895462F65E086E30E94D3
S113260094030895462F66E086E30E949403089598
S1132610462F67E086E30E949403089560E083E315
S11326200E94B10360E083E30E94BC0340E064E0E5
S113263086E30E94770340E065E086E30E94770327
S113264040E066E086E30E94770340E067E086E3CB
S11326500E94770360E088E50E94EB1260E089E560
S11326600E94EB1260E08AE50E94EB1260E085E4D0
S11326700E94EB1208958F929F92AF92BF92CF92D5
S1132680DF92EF92FF920F931F93CF93DF93490151
S11326905A01E6016C837D838E839F832887398763
S11326A04A875B87EC86FD860E871F8720E030E033
S11326B040E85FE30E94CA149B01AC0160E07EEF36
S11326C08FEF96E40E9440156C8B7D8B8E8B9F8BD5
S11326D020E030E040E85FE3C501B4010E94CA1481
S11326E09B01AC010E94CA149B01AC0160E070E044
S11326F080E09FE40E944015688F798F8A8F9B8FBA
S1132700188219821A821B82188A198A1A8A1B8AC9
S1132710DF91CF911F910F91FF90EF90DF90CF90B9
S1132720BF90AF909F908F9008954F925F926F9259
S11327307F928F929F92AF92BF92CF92DF92EF924D
S1132740FF920F931F93CF93DF93CDB7DEB72A97F2
S11327500FB6F894DEBF0FBECDBF1A8709870E945B
S1132760C91469837A838B839C83F8012089318916
S1132770428953890E94CA144B015C01F801608BA1
S1132780718B828B938BC484D584E684F7842081F7
S113279031814281538169817A818B819C810E943C
S11327A0C914A70196010E942E176D837E838F831F
S11327B09887F8014488558866887788A301920130
S11327C069817A818B819C810E94D9161816B4F094
S11327D0A3019201505869817A818B819C810E9466
S11327E036158823ACF0A701960169817A818B8123
S11327F09C810E942E172B013C0113C00F2E412CEB
S1132800FEEF5F2E66246A94F6E47F2EF02D09C055
S11328100F2E412CFEEF5F2E66246A94F6EC7F2E79
S1132820F02DE985FA85C08CD18CE28CF38CA7015C
S11328309601C501B4010E94D91618165CF4E98505
S1132840FA85C08AD18AE28AF38A20E030E040E83F
S11328505EE423C0F7FAF094F7F8F094A701960128
S1132860C501B4010E94361588235CF4E985FA8514
S1132870C08AD18AE28AF38A20E030E040E85EEC44
S11328800CC0E985FA852085318542855385C501CB
S1132890B4010E942E179B01AC01C301B2010E9436
S11328A0CA142D813E814F8158850E94CA1420E0AC
S11328B030E048EF52E40E9440150E94B21577239D
S11328C014F460E070E08B016F3F710519F014F0AF
S11328D00FEF10E0B801012E000C880B990B0E9439
S11328E0EA15E985FA856083718382839383C8013D
S11328F02A960FB6F894DEBF0FBECDBFDF91CF91FD
S11329001F910F91FF90EF90DF90CF90BF90AF9009
S11329109F908F907F906F905F904F90089583E089
S113292089B910BC88E18AB986E880BD08955D9BA9
S1132930FECF8CB908955F9BFECF8CB10895CF93E1
S1132940DF93EC018881882331F021960E9497144B
S113295089918111FBCFDF91CF9108950F931F933C
S1132960CF938C01C0E00E949B148A3011F08D300B
S113297031F4F801EC0FF11D80E2808306C0F80108
S1132980EC0FF11D8083CF5FEECFCF911F910F919C
S113299008955058BB27AA270E94E1140C948B1663
S11329A00E94521638F00E94591620F039F49F3FC5
S11329B019F426F40C944F160EF4E095E7FB0C94EE
S11329C04916E92F0E94B01658F3BA176207730725
S11329D08407950720F079F4A6F50C94D2160EF42A
S11329E0E0950B2EBA2FA02D0B01B90190010C011B
S11329F0CA01A0011124FF27591B99F0593F50F433
S1132A00503E68F11A16F040A22F232F342F44278A
S1132A10585FF3CF469537952795A795F040539582
S1132A20C9F77EF41F16BA0B620B730B840BBAF052
S1132A309150A1F0FF0FBB1F661F771F881FC2F7BD
S1132A400EC0BA0F621F731F841F48F487957795D1
S1132A506795B795F7959E3F08F0B0CF9395880F8B
S1132A6008F09927EE0F9795879508950E942516EB
S1132A7008F481E008950E946216E3950C949C1674
S1132A800E9454150C948B160E94591658F00E94FB
S1132A90521640F029F45F3F29F00C944916511165
S1132AA00C94D3160C944F160E94B01668F3992315
S1132AB0B1F3552391F3951B550BBB27AA27621736
S1132AC07307840738F09F5F5F4F220F331F441F43
S1132AD0AA1FA9F335D00E2E3AF0E0E832D0915077
S1132AE05040E695001CCAF72BD0FE2F29D0660F64
S1132AF0771F881FBB1F261737074807AB07B0E8A7
S1132B0009F0BB0B802DBF01FF2793585F4F3AF0AC
S1132B109E3F510578F00C9449160C94D3165F3FF0
S1132B20E4F3983ED4F3869577956795B795F79532
S1132B309F5FC9F7880F911D9695879597F908951A
S1132B40E1E0660F771F881FBB1F621773078407B6
S1132B50BA0720F0621B730B840BBA0BEE1F88F7C5
S1132B60E09508950E94B9156894B1110C94D31698
S1132B7008950E94B81688F09F5798F0B92F9927A6
S1132B80B751B0F0E1F0660F771F881F991F1AF054
S1132B90BA95C9F714C0B13091F00E94D216B1E0D1
S1132BA008950C94D216672F782F8827B85F39F0D0
S1132BB0B93FCCF3869577956795B395D9F73EF4ED
S1132BC090958095709561957F4F8F4F9F4F089595
S1132BD0E89409C097FB3EF49095809570956195B3
S1132BE07F4F8F4F9F4F9923A9F0F92F96E9BB2769
S1132BF09395F695879577956795B795F111F8CFE5
S1132C00FAF4BB0F11F460FF1BC06F5F7F4F8F4F4F
S1132C109F4F16C0882311F096E911C0772321F045
S1132C209EE8872F762F05C0662371F096E8862FDD
S1132C3070E060E02AF09A95660F771F881FDAF734
S1132C40880F9695879597F90895990F0008550F61
S1132C50AA0BE0E8FEEF16161706E807F907C0F01E
S1132C6012161306E407F50798F0621B730B840B26
S1132C70950B39F40A2661F0232B242B252B21F400
S1132C8008950A2609F4A140A6958FEF811D811DA0
S1132C90089597F99F6780E870E060E008959FEFDA
S1132CA080EC089500240A941616170618060906DF
S1132CB0089500240A9412161306140605060895AE
S1132CC00C944F160E94B816D8F3E894E0E0BB27A2
S1132CD09F57F0F02AED3FE049EC06C0EE0FBB0F22
S1132CE0661F771F881F28F0B23A620773078407AC
S1132CF028F0B25A620B730B840BE3959A9572F722
S1132D00803830F49A95BB0F661F771F881FD2F75F
S1132D1090480C94EB17092E0394000C11F48823AB
S1132D2052F0BB0F40F4BF2B11F460FF04C06F5F7F
S1132D307F4F8F4F9F4F0895EF93E0FF07C0A2EAA4
S1132D402AED3FE049EC5FEB0E94E1140E948B16F0
S1132D500F90039401FC9058E4E5F0E00C942518DE
S1132D6057FD9058440F551F59F05F3F71F0479538
S1132D70880F97FB991F61F09F3F79F0879508951D
S1132D80121613061406551FF2CF4695F1DF08C03C
S1132D90161617061806991FF1CF86957105610559
S1132DA008940895E894BB2766277727CB0197F901
S1132DB008950E94251608F48FEF089516F00C94D8
S1132DC0E9170C944F1668940C9449160E94B8168F
S1132DD0A8F39923C1F3AEF3DF93CF931F930F931B
S1132DE0FF92C92FDD2788232AF02197660F771FCA
S1132DF0881FDAF720E030E040E85FEB9FE3883992
S1132E0020F0803E38F021968F770E94CA14E2E7C2
S1132E10F0E004C00E94CA14EFE9F0E00E94FE173B
S1132E208B01BE01EC01FB2E6F5771097595771F5D
S1132E30880B990B0E94EA1528E132E741E35FE32E
S1132E400E944117AF2D9801AE01FF900F911F9181
S1132E50CF91DF910E94E1140C948B160E944117CC
S1132E600C948B160E94521638F00E94591620F0CA
S1132E70952311F00C9449160C944F1611240C94BC
S1132E80D3160E94B01670F3959FC1F3950F50E0CE
S1132E90551F629FF001729FBB27F00DB11D639F08
S1132EA0AA27F00DB11DAA1F649F6627B00DA11DAE
S1132EB0661F829F2227B00DA11D621F739FB00D54
S1132EC0A11D621F839FA00D611D221F749F3327C4
S1132ED0A00D611D231F849F600D211D822F762F5D
S1132EE06A2F11249F5750409AF0F1F088234AF03A
S1132EF0EE0FFF1FBB1F661F771F881F91505040A6
S1132F00A9F79E3F510580F00C9449160C94D316F2
S1132F105F3FE4F3983ED4F3869577956795B7952C
S1132F20F795E7959F5FC1F7FE2B880F911D969546
S1132F30879597F908959F930E9462160F9007FC56
S1132F40EE5F0C949C1619F416F40C944F160C9422
S1132F50E9170E94B816B8F39923C9F3B6F39F573B
S1132F60550B87FF0E94F7170024A0E640EA900162
S1132F7080585695979528F4805C660F771F881FB4
S1132F8020F026173707480730F4621B730B840BB5
S1132F90202931294A2BA6951794079420253125F9
S1132FA04A2758F7660F771F881F20F02617370720
S1132FB0480730F4620B730B840B200D311D411D47
S1132FC0A09581F7B901842F9158880F969587951C
S1132FD008959F3F31F0915020F487957795679538
S1132FE0B795880F911D9695879597F908959150F7
S1132FF05040660F771F881FD2F70895DF93CF9351
S11330001F930F93FF92EF92DF927B018C016894E0
S113301006C0DA2EEF010E944117FE01E894A59143
S11330202591359145915591A6F3EF010E94E11444
S1133030FE019701A801DA9469F7DF90EF90FF9001
S11330400F911F91CF91DF9108959F938F937F9359
S11330506F93FF93EF939B01AC010E942E17EF91A6
S1133060FF910E94FE172F913F914F915F910C9415
S11330702E17EF920F931F93CF93DF93E80147FD31
S113308002C034E001C034E1042E000C550B57FF9C
S113309003C0519541955109E32E022F242FAE010F
S11330A00E94861ACE01DF91CF911F910F91EF906C
S11330B00895662777270C94E01BFC01882799273D
S11330C0E89421912032E9F3293010F02E30C8F32E
S11330D02B3241F02D3239F4689404C00E947B18DD
S11330E0820F911D219120532A30C0F31EF4909534
S11330F081959F4F08957AE0979F902D879F802D0B
S1133100910D11240895AEE0B0E0E9E8F8E10C94E3
S1133110F31E0D891E8986E08C831A8309838FEF41
S11331209FE79E838D83AE01475E5F4F6F89788DE5
S1133130CE0101960E94A518EF81F885E00FF11FDA
S113314010822E96E4E00C940F1FABE0B0E0EBEAA3
S1133150F8E10C94E51E6C017B018A01FC011782E5
S11331601682838181FFCCC1CE0101963C01F60118
S11331709381F70193FD859193FF81917F018823CA
S113318009F4BAC1853239F493FD859193FF819195
S11331907F01853229F4B60190E00E943D1EE7CFFD
S11331A0912C212C312CFFE1F315D8F08B3279F0DE
S11331B038F4803279F08332A1F4232D20611DC0CC
S11331C08D3261F0803369F4232D216016C0832D84
S11331D08260382EE32DE4603E2E2AC0F32DF86081
S11331E01DC037FC2DC020ED280F2A3040F08E3250
S11331F0B9F436FC81C1232D2064322E19C036FE69
S113320006C08AE0989E200D1124922E11C0EAE097
S11332102E9E200D1124222EF32DF0623F2E08C085
S11332208C3621F4832D8068382E02C0883641F410
S1133230F70193FD859193FF81917F018111B3CFB4
S1133240982F9F7D9554933028F40C5F1F4F9FE374
S113325099830DC0833631F0833771F0833509F0DB
S113326059C021C0F801808189830E5F1F4F8824D3
S11332708394912C530113C02801F2E04F0E511C8A
S1133280F801A080B18036FE03C0692D70E002C051
S11332906FEF7FEFC5010E94321E4C018201F32DB6
S11332A0FF773F2E16C0280122E0420E511CF80180
S11332B0A080B18036FE03C0692D70E002C06FEFBC
S11332C07FEFC5010E94271E4C01F32DF0683F2EAD
S11332D0820133FC1BC0822D90E088169906B0F45D
S11332E0B60180E290E00E943D1E2A94F4CFF501DD
S11332F037FC859137FE81915F01B60190E00E9411
S11333003D1E21102A9421E0821A9108811491040F
S113331071F7E8C0843611F0893641F5F80137FEBB
S113332007C060817181828193810C5F1F4F08C047
S113333060817181072E000C880B990B0E5F1F4F63
S1133340F32DFF763F2E97FF09C0909580957095D9
S113335061957F4F8F4F9F4FF0683F2E2AE030E0FA
S1133360A3010E94791E882E861845C0853731F442
S1133370232D2F7EB22E2AE030E025C0932D997F95
S1133380B92E8F36C1F018F4883579F0B5C080377E
S113339019F0883721F0B0C0E92FE061BE2EB4FEE9
S11333A00DC0FB2DF460BF2E09C034FE0AC0292FC6
S11333B02660B22E06C028E030E005C020E130E0EF
S11333C002C020E132E0F801B7FE07C060817181DC
S11333D0828193810C5F1F4F06C06081718180E000
S11333E090E00E5F1F4FA3010E94791E882E86185D
S11333F0FB2DFF773F2E36FE0DC0232D2E7FA22EF0
S1133400891458F434FE0BC032FC09C0832D8E7E1F
S1133410A82E05C0B82CA32C03C0B82C01C0B92C0D
S1133420A4FE0FC0FE01E80DF11D8081803321F45C
S11334309A2D997EA92E09C0A2FE06C0B394B39416
S113344004C08A2D867809F0B394A3FC11C0A0FEB1
S113345006C0B21488F4280C922C9B180EC0B21427
S113346060F4B60180E290E00E943D1EB394F7CF71
S1133470B21418F42B1802C0982C212CA4FE10C0EE
S1133480B60180E390E00E943D1EA2FE17C0A1FC9D
S113349003C088E790E002C088E590E0B6010CC064
S11334A08A2D867859F0A1FE02C08BE201C080E229
S11334B0A7FC8DE2B60190E00E943D1E891438F409
S11334C0B60180E390E00E943D1E9A94F7CF8A945F
S11334D0F301E80DF11D8081B60190E00E943D1ECC
S11334E08110F5CF222009F442CEB60180E290E0AB
S11334F00E943D1E2A94F6CFF6018681978102C070
S11335008FEF9FEF2B96E2E10C94011FA9E0B0E04E
S1133510ECE8FAE10C94EB1E6A01122FB02E2BE3B7
S1133520201720F0FF24F394F00E02C02CE3F22EB7
S11335300F2D27E0AE014F5F5F4F0E942E1DBC018F
S11335404981842F8970813031F0E1FC06C0E0FEAE
S113355006C090E205C09DE203C09BE201C090E07A
S11335605E2D507143FF3CC0911102C083E001C045
S113357084E0811718F4212F281B01C020E0511189
S11335800BC0F601822F30E2882319F03193815069
S1133590FBCFC20ED11C20E0992329F0D6019C93C5
S11335A0F60131966F01C6010396E2FE0AC03EE4BD
S11335B0D6013C9341E411964C93119712963C9397
S11335C006C03EE6F601308341E641833283FC01C6
S11335D0322F40E2332309F442C041933150FACFF1
S11335E042FF44C0911102C083E001C084E081170E
S11335F018F4212F281B01C020E051110BC0F60143
S1133600822F30E2882319F031938150FBCFC20E10
S1133610D11C20E0992329F0D6019C93F601319620
S11336206F01C6010396E2FE0BC039E4D6013C9358
S11336303EE411963C93119736E412963C9307C0EE
S113364039E6F60130833EE6318336E63283FC0107
S1133650322F40E2332319F041933150FBCFFC0168
S1133660E20FF11D10828EEF9FEFA6C021E030E043
S1133670911102C020E030E0161617061CF4FB017D
S1133680319602C0E1E0F0E02E0F3F1FBB2021F095
S1133690EB2DF0E0319602C0E0E0F0E02E0F3F1F8A
S11336A0E12FF0E02E173F071CF4121B212F01C05D
S11336B020E08E2D887159F4F601822F30E28823A0
S11336C019F031938150FBCFC20ED11C20E0992315
S11336D029F0D6019C93F60131966F0151110BC06C
S11336E0F601822F90E3882319F091938150FBCF48
S11336F0C20ED11C20E00F2D060F9A81342F307199
S113370044FF03C0913309F40150101624F4093026
S113371018F008E001C001E0AB0177FF02C040E00F
S113372050E0FB01E41BF50BA1E0B0E0AC0FBD1FC2
S1133730EA0FFB1F8EE2A82E4B01801A91080B2D75
S113374010E01195019511094F3FBFEF5B0721F47C
S1133750D601AC9211966D01641775072CF084168E
S1133760950614F4818101C080E3415051093196DA
S1133770D60111967D014017510724F0D6018C9390
S11337806701E2CF6417750739F4963320F4953353
S113379019F4311101C081E3F6018083F701822F0E
S11337A090E2882319F091938150FBCFF701E20F47
S11337B0F11D108280E090E02996ECE00C94071F44
S11337C0A0E0B0E0E6EEFBE10C94EB1EEC016B0133
S11337D06115710519F0FB01918380837E01FFEF70
S11337E0EF1AFF0A0881802F90E00E94061E892BA1
S11337F011F0E701F3CF0D3239F47E0182E0E80ED7
S1133800F11C098111E008C00B3229F47E0192E019
S1133810E90EF11C098110E0E701219743E050E033
S113382064ED70E0CE010E940F1E892BC1F4239633
S113383045E050E06FEC70E0CE010E940F1E892B32
S113384009F42596C114D10419F0F601D183C0837B
S11338501111F6C060E070E080E89FE7FAC043E031
S113386050E06CEC70E0CE010E940F1E892B59F4DD
S1133870C114D10409F4E9C0F2E0EF0EF11CF60121
S1133880F182E082E2C020E030E0A901C0E0D0E0B3
S1133890F70180EDA82EA00E89E08A1530F1912F52
S11338A09260B92E812F887012FF04C0811124C048
S11338B0219622C081112197A5E0B0E00E94DA1E72
S11338C0DC01CB01880F991FAA1FBB1F9C01AD010E
S11338D02A0D311D411D511D283989E93807480732
S11338E089E1580748F0166006C09EEFA9120AC085
S11338F013FD40C01860B12E8FEFE81AF80A00815A
S11339001B2DC6CF802F8F7D8534A1F580818D320C
S113391011F4106106C08B3221F0319661E070E041
S113392004C08181329662E070E080538A3018F0DE
S1133930E61BF70B1FC060E070E060389CE079077D
S11339405CF4DB01AA0FBB1FAA0FBB1F6A0F7B1F0E
S1133950660F771F680F711D3196DF0111978C91E7
S113396080538A3050F314FF03C071956195710937
S1133970C60FD71F11FF08C0C114D10429F0CF010D
S11339800197F60191838083CA01B9010E94E81569
S1133990212F2370233019F04B015C0106C04B0129
S11339A05C01B7FAB094B7F8B09420E030E0A90114
S11339B0C501B4010E943615882309F43EC0D7FF1F
S11339C006C0D195C195D1090BEE10E002C003E009
S11339D011E06801F8E1CF1AD10890E2E92EF12C48
S11339E0CE15DF0574F0F801259135914591549178
S11339F0C501B4010E942E174B015C01CE19DF09E9
S1133A00EFCF04501109F594E7940C151D0541F707
S1133A108A2D880F8B2D881F8F3F49F020E030E0DE
S1133A20A901C501B4010E943615811106C082E2C4
S1133A3090E09093300380932F03C501B40109C033
S1133A4060E070E080E89FEF04C060E070E080EC2C
S1133A509FE7CDB7DEB7ECE00C94071F283008F0E1
S1133A6027E03327DA01990F311D87FD9160009615
S1133A706105710539F432602E5F3D9330E32A9578
S1133A80E1F708959F3F30F080387105610509F032
S1133A903C5F3C5F3D93913008F08068911DDF935B
S1133AA0CF931F930F93FF92EF92192F987F9695C0
S1133AB0E92F96959695E90FFF27EF59FE4F992721
S1133AC03327EE24FF24A701E70105900894079407
S1133AD028F4360FE71EF81E491F511D660F771F85
S1133AE0881F991F0694A1F70590079428F4E70E00
S1133AF0F81E491F561FC11D770F881F991F661F87
S1133B000694A1F70590079428F4F80E491F561F50
S1133B10C71FD11D880F991F661F771F0694A1F731
S1133B200590079420F4490F561FC71FD81F990FFB
S1133B30661F771F881F0694A9F784911095177044
S1133B4041F0D695C79557954795F794E7941A95FC
S1133B50C1F7E7E0F1E0689415901591359165910E
S1133B60959105907FE27395E118F10A430B560B8A
S1133B70C90BD009C0F7E10CF11E431F561FC91F22
S1133B80D01D7EF4703311F48A95E6CFE894015089
S1133B9030F0080F0AF40027021708F4202F2395A9
S1133BA0022F7A3328F079E37D932A95E9F710C040
S1133BB07D932A9589F60694979567953795179579
S1133BC01794E118F10A430B560BC90BD00998F06E
S1133BD023957E9173957A3308F070E37C932013D8
S1133BE0B8F77E9170617D9330F0839571E37D9396
S1133BF070E32A95E1F71124EF90FF900F911F9144
S1133C00CF91DF91992787FD9095089591110C9498
S1133C10D71E803219F089508550C8F70895FB01EA
S1133C20DC014150504088F08D9181341CF08B357B
S1133C300CF4805E659161341CF06B350CF4605EAD
S1133C40861B611171F3990B0895881BFCCFFC014D
S1133C500590615070400110D8F7809590958E0FB3
S1133C609F1F0895FC016150704001900110D8F726
S1133C70809590958E0F9F1F08950F931F93CF9358
S1133C80DF93FB01238121FD03C08FEF9FEF2CC045
S1133C9022FF16C04681578124813581421753077C
S1133CA044F4A081B1819D012F5F3F4F3183208374
S1133CB08C93268137812F5F3F4F3783268314C02F
S1133CC08B01EC01FB010084F185E02D0995892B22
S1133CD0E1F6D80116968D919C9117970196179647
S1133CE09C938E931697CE01DF91CF911F910F91E4
S1133CF00895FA01AA27283051F1203181F1E8947E
S1133D006F936E7F6E5F7F4F8F4F9F4FAF4FB1E0CA
S1133D103ED0B4E03CD0670F781F891F9A1FA11DC5
S1133D20680F791F8A1F911DA11D6A0F711D811DC6
S1133D30911DA11D20D009F468943F912AE0269F8B
S1133D4011243019305D3193DEF6CF010895462FEA
S1133D504770405D4193B3E00FD0C9F7F6CF462FCB
S1133D604F70405D4A3318F0495D31FD4052419334
S1133D7002D0A9F7EACFB4E0A695979587957795F1
S1133D806795BA95C9F700976105710508959B0178
S1133D90AC010A2E06945795479537952795BA9501
S1133DA0C9F7620F731F841F951FA01D08959927DB
S1133DB0882708950E941C1FA59F900DB49F900D05
S1133DC0A49F800D911D112408952F923F924F922C
S1133DD05F926F927F928F929F92AF92BF92CF9297
S1133DE0DF92EF92FF920F931F93CF93DF93CDB7A0
S1133DF0DEB7CA1BDB0B0FB6F894DEBF0FBECDBF18
S1133E0009942A88398848885F846E847D848C84E8
S1133E109B84AA84B984C884DF80EE80FD800C81F1
S1133E201B81AA81B981CE0FD11D0FB6F894DEBFD4
S1133E300FBECDBFED010895A29FB001B39FC00195
S1133E40A39F700D811D1124911DB29F700D811DC2
S10D3E501124911D0895F894FFCF8A
S1133E5A6CCF5834D6647939CB48843A00401C462E
S1133E6A00000C430000C8420000C8420000C842D7
S1133E7A0104000500060007000000030000000119
S1133E8A000100020000000100010003000000011B
S1133E9A000100020000000100010001000300000B
S1133EAA00010000000200000001000000030000FD
S1133EBA00010000000200000001000000020003EB
S1133ECA00000001000000020000000100000003DD
S1133EDA00000001000000020000000100000003CD
S1133EEA00030000000100000002000000010000BD
S1133EFA00030000000100000002000000010000AD
S1133F0A006F6B0A006572726F722065787472753D
S1133F1A6465722074656D702E0077656C636F6DCD
S1133F2A65207765206172652050524953434100E8
S1073F3A25660000F4
S9030000FC
