S01700005052495343415F6672696D776172652E737265638F
S11300000C9401010C94FB0F0C941E010C941E0122
S11300100C941E010C941E010C941E010C941E01E0
S11300200C941E010C94FB0D0C941E010C941E01E7
S11300300C941E010C941E010C941E010C941E01C0
S11300400C941E010C941E010C941E010C941E01B0
S11300500C941E0105A84CCDB2D44EB93836A90271
S11300600C50B9918688083CA6AAAA2ABE000000B2
S1130070803F08000000BE922449123EABAAAA2A7F
S1130080BECDCCCC4C3E00000080BEABAAAAAA3E9A
S113009000000000BF000000803F000000000008D6
S11300A04178D3BB4387D1133D190E3CC3BD428273
S11300B0AD2B3E68EC8276BED98FE1A93E4C80EF31
S11300C0FFBE01C4FF7F3F00000000004E414E49C7
S11300D04E495459494E46CDCCCC3D0AD7233C1702
S11300E0B7D13877CC2B329595E6241FB14F0A004F
S11300F00020410000C84200401C4620BCBE4CCA3F
S11301001B0E5AAEC59D7400407A10F35A00A072BB
S11301104E18090010A5D4E80000E876481700003E
S1130120E40B54020000CA9A3B000000E1F505000C
S11301300080969800000040420F000000A0860155
S1130140000000102700000000E803000000006425
S113015000000000000A0000000000010000000090
S1130160002C76D888DC674F0823DFC1DFAE59E165
S1130170B1B796E5E3E453C63AE651997696E8E6D4
S1130180C28426EB898C9B62ED407C6FFCEFBC9CA7
S11301909F40F2BAA56FA5F490055A2AF75C936BB9
S11301A06CF9676DC11BFCE0E40D47FEF520E6B574
S11301B000D0ED902E0300943577050080841E084E
S11301C00000204E0A000000C80C333333330F986C
S11301D06E12831141EF8D2114893BE65516CFFE33
S11301E0E6DB18D1844B381BF77C1D901DA4BBE4BF
S11301F024203284725E228100C9F124ECA1E53D01
S1130200270011241FBECFE5D4E0DEBFCDBF11E02F
S1130210A0E6B0E0E4E1FCE302C005900D92A23454
S1130220B107D9F722E0A2E4B1E001C01D92AC3DD0
S1130230B207E1F70E9427040C94081E0C940000F6
S1130240E199FECF9FBB8EBB6DBBE29AE19A089504
S1130250EF92FF920F931F93CF93DF938C017B0157
S1130260EA01209751F0F70161917F01C8010E94D2
S113027020010F5F1F4F2197B1F7DF91CF911F919D
S11302800F91FF90EF900895E199FECF9FBB8EBB35
S1130290E09A8DB30895EF92FF920F931F93CF933B
S11302A0DF938C017B01EA01209751F0C8010E9481
S11302B04401F70181937F010F5F1F4F2197B1F72D
S11302C0DF91CF911F910F91FF90EF90089587B91F
S11302D0369A86B1349A84B195B108958F929F92DB
S11302E0AF92BF92CF92DF92EF92FF920E9467018A
S11302F090938D0180938C01BC01990F880B990B0D
S11303000E9486149B01AC0160E070EC8FE794E4DA
S11303100E94DC1320E030E040E85FE30E946513B4
S113032020916C0030916D0040916E0050916F00EF
S11303300E94CA1560939201709393018093940173
S1130340909395010E9482156B017C016093960144
S11303507093970180939801909399012091640080
S11303603091650040916600509167000E94CA1563
S1130370209168003091690040916A0050916B00AF
S11303800E9466134B015C01209160003091610072
S11303904091620050916300C701B6010E94CA15E2
S11303A0A70196010E94CA15A70196010E94CA15C9
S11303B09B01AC01C501B4010E9466139B01AC0111
S11303C060E070E080E89FE30E94DC1360938801A2
S11303D07093890180938A0190938B0123E333E91D
S11303E048E853E40E94651360938E0170938F0173
S11303F08093900190939101FF90EF90DF90CF90C4
S1130400BF90AF909F908F9008950F931F93CF93B9
S1130410DF93CDB7DEB764970FB6F894DEBF0FBE97
S1130420CDBFDC01FE013196CE010B961192E81787
S1130430F907E1F740E050E020E030E023C0FD019F
S1130440E20FF31F808186131BC0F901E40FF51F2F
S11304508F010A0F1B1FF801718181E090E08C0F5E
S11304609D1F840F951FFC017083F80182818032E7
S113047099F08D3089F08A3079F04F5F5F4F02C078
S11304802F5F3F4FFD0101900020E9F73197EA1BF0
S1130490FB0B2E173F0798F2CE0101960E945017CE
S11304A064960FB6F894DEBF0FBECDBFDF91CF9137
S11304B01F910F9108956F927F928F929F92AF92A6
S11304C0BF92CF92DF92EF92FF920F931F93CF933D
S11304D0DF93CDB7DEB77C01CDB6DEB6FC0101906B
S11304E00020E9F731978F01081B190B580181E0AF
S11304F0A81AB108ADB7BEB7A01BB10B0FB6F894DC
S1130500BEBF0FBEADBF2DB73EB72F5F3F4FF70144
S11305108081681342C0E0E0F0E0D701AE0FBF1F56
S113052011968C91D9018C93D7018C933296EE0D50
S1130530FF1D808148131AC0812C912C20E030E0EB
S1130540F701E80DF91D80E281832E5F3F4F2A15E4
S11305503B0564F5F701E20FF31F01501109E00EAA
S1130560F11E1192EE16FF06E1F720C03901BFEF2C
S11305706B1A7B0AB7016F5F7F4F20E030E02F5F7B
S11305803F4F9191D3019D933D014901DB019D931F
S1130590BD0180818413F3CFD3CFD7011196E0E05E
S11305A0F0E031968D918613FCCFB7CF0FB6F89457
S11305B0DEBE0FBECDBEDF91CF911F910F91FF9094
S11305C0EF90DF90CF90BF90AF909F908F907F90EF
S11305D06F9008950F931F93CF93DF93CDB7DEB73A
S11305E02A970FB6F894DEBF0FBECDBFDC01FE0123
S11305F03196CE010B961192E817F907E1F740E026
S113060050E020E030E023C0FD01E20FF31F8081C1
S113061086131BC0F901E40FF51F8F010A0F1B1F7E
S1130620F801718181E090E08C0F9D1F840F951F6C
S1130630FC017083F8018281803299F08D3089F059
S11306408A3079F04F5F5F4F02C02F5F3F4FFD014B
S113065001900020E9F73197EA1BFB0B2E173F07A7
S113066098F2CE0101960E9454172A960FB6F89478
S1130670DEBF0FBECDBFDF91CF911F910F910895C3
S1130680DC010D900020E9F7FC019D0121503109A6
S113069005C08191861739F08D3039F0E217F307E0
S11306A0C1F780E0089581E0089580E00895CF9235
S11306B0DF92EF92FF92CF93DF93EC016A017B010B
S11306C0288139814A815B81C701B6010E94651383
S11306D0C882D982EA82FB82DF91CF91FF90EF90AA
S11306E0DF90CF90089541110DC0E82FF0E02181F3
S11306F081E090E002C0880F991F6A95E2F7822B8F
S113070081830895E82FF0E0218181E090E002C028
S1130710880F991F6A95E2F7809582238183089553
S1130720442369F0E82FF0E0228181E090E002C0E8
S1130730880F991F6A95E2F7822B82830895E82F28
S1130740F0E0228181E090E002C0880F991F6A9551
S1130750E2F78095822382830895611105C0E82F12
S1130760F0E08FEF81830895E82FF0E0118208957F
S1130770E82FF0E062830895E82FF0E0828121E021
S113078030E002C0220F331F6A95E2F72827228344
S11307900895CF92DF92EF92FF920F931F9381B34C
S11307A0806B81BB41E062E080E30E9473038FEFC2
S11307B084BB8AB3806F8ABB87B3836087BB87E8B7
S11307C086B93E9A8BB780648BBF85B7816185BF3C
S11307D00E942B130E94AA110F2EF2EECF2EF1E0ED
S11307E0DF2EF02D17E6E12E16E6F12E06EC10E4CE
S11307F0A801970160E070E088E793E40E94D711B4
S11308000F2EF6ECCF2EF1E0DF2EF02DA80197018C
S113081060E070E088E793E40E94D711F8948FB504
S1130820816A8FBD8EB581648EBD85B58E6685BDAA
S113083083B7816883BF89B7816089BF12BE78940A
S11308401F910F91FF90EF90DF90CF900895CF9379
S1130850DF93CDB7DEB7E4970FB6F894DEBF0FBED3
S1130860CDBF0E94C90345E050E064E672E080E039
S113087090E00E944B0145E050E066E572E085E0BF
S113088090E00E944B0145E050E066EC72E08AE0A3
S113089090E00E944B0145E050E068EB71E08FE08E
S11308A090E00E944B0184E692E00E94501760930E
S11308B0C2027093C3028093C4029093C50286E57A
S11308C092E00E9450176093FE017093FF018093A1
S11308D000029093010286EC92E00E94501760930C
S11308E0600270936102809362029093630288EBCA
S11308F091E00E9450176093B4017093B501809306
S1130900B6019093B7010F2EF2ECCF2EF2E0DF2E5A
S1130910F02D0F2EFAE92F2EF1E03F2EF02D2AAA0A
S113092039AA8091840181110AC0E2E7F2E01192B0
S1130930EC15FD05E1F782E792E00E944A138091ED
S113094072028D3409F078C46DE482E792E00E946B
S1130950EA0290935701809356017894809156014E
S1130960909157018B36910509F47DC23CF584358D
S113097091058CF4823591050CF011C181319105FA
S113098009F489C024F4029708F44BC045C4429783
S113099009F488C041C48C35910509F432C12CF4A2
S11309A08435910509F47EC037C48836910509F46D
S11309B03BC28A36910509F449C22EC48E3C910586
S11309C009F4C1C29CF48E36910509F473C22CF467
S11309D08D36910509F44DC21FC48C38910509F474
S11309E072C28E3B910509F48DC216C4853F21E085
S11309F0920709F4E5C25CF48E3241E0940709F4ED
S1130A00C2C2843F51E0950709F4FBC005C4863F88
S1130A1061E0960709F4F5C0873F914009F425C3C6
S1130A20FBC3D1011D921D921D921C921397F101DB
S1130A30148215821682178218961D921D921D9299
S1130A401C921B97148615861686178610927401BD
S1130A5010927501109276011092770110926C0138
S1130A6010926D0110926E0110926F011092780134
S1130A701092790110927A0110927B011092680110
S1130A801092690110926A0110926B0181E191E068
S1130A900E943B13CEC30E94AA1181E191E00E94FF
S1130AA03B13C7C363E582E792E00E94EA029C011C
S1130AB048EE53E0249FC001259F900D349F900D74
S1130AC01124092E000CAA0BBB0B809358019093A0
S1130AD05901A0935A01B0935B0168E582E792E063
S1130AE00E9440038093820169E582E792E00E94BC
S1130AF04003809381016AE582E792E00E9440030B
S1130B008093800165E482E792E00E944003809331
S1130B107F016091820188E50E94871160918101C3
S1130B2089E50E948711609181018AE50E948711FD
S1130B3060917F0185E40E94871180915801909112
S1130B405901A0915A01B0915B010097A105B1052B
S1130B5009F1F4F08FE99FE00197F1F700C000007C
S1130B608091580190915901A0915A01B0915B0173
S1130B700197A109B1098093580190935901A09359
S1130B805A01B0935B01181619061A061B0614F3D2
S1130B900E94AA1181E191E00E943B134AC3109282
S1130BA04A0110924B0110924C0110924D01109287
S1130BB04601109247011092480110924901109287
S1130BC04201109243011092440110924501D10157
S1130BD01D921D921D921C921397F101148215828D
S1130BE01682178218961D921D921D921C921B97B5
S1130BF0148615861686178681E191E00E943B13C0
S1130C0018C3E4E6F2E046E552E026EC32E0A8EB55
S1130C10B1E07D011192DA011D92AD01D9011D925D
S1130C209D01D7011D927D016EE672E06E177F076C
S1130C3089F78C359105A1F568E582E792E00E9479
S1130C4005026093C2027093C3028093C40290931E
S1130C50C50269E582E792E00E9405026093FE0105
S1130C607093FF0180930002909301026AE582E78A
S1130C7092E00E9405026093600270936102809387
S1130C8062029093630265E482E792E00E940502A7
S1130C906093B4017093B5018093B6019093B7014A
S1130CA08091560190915701863F914009F040C0D0
S1130CB080917C0090917D00A0917E00B0917F0096
S1130CC08093C2029093C302A093C402B093C5025E
S1130CD08091780090917900A0917A00B0917B0086
S1130CE08093FE019093FF01A0930002B093010250
S1130CF08091740090917500A0917600B091770076
S1130D008093600290936102A0936202B0936302A5
S1130D108091700090917100A0917200B091730065
S1130D208093B4019093B501A093B601B093B70139
S1130D306091C2027091C3028091C4029091C50275
S1130D4004E111E023E042E00E9430179F938F9367
S1130D5084E692E09F938F930E947A176091FE013C
S1130D607091FF01809100029091010223E042E022
S1130D700E9430179F938F93E6E5F2E0FF93EF9381
S1130D800E947A1760916002709161028091620200
S1130D909091630223E042E00E9430179F938F9367
S1130DA046EC52E05F934F930E947A176091B4012E
S1130DB07091B5018091B6019091B70123E042E0B2
S1130DC00E9430179F938F9388EB91E09F938F93AA
S1130DD00E947A1745E050E064E672E080E090E01B
S1130DE00E94280145E050E066E572E085E090E06D
S1130DF00E94280145E050E066EC72E08AE090E051
S1130E000E94280145E050E068EB71E08FE090E03B
S1130E100E94280181E191E00E943B130FB6F894EF
S1130E20DEBF0FBECDBF05C263E582E792E00E943C
S1130E300502609378017093790180937A0190930D
S1130E407B0181E191E00E943B13F3C163E582E7FA
S1130E5092E00E9405020E94551463BD81E191E075
S1130E600E943B13E6C113BC81E191E00E943B1355
S1130E70E0C163E582E792E00E9405026093780195
S1130E807093790180937A0190937B0180E40E94AE
S1130E906E01209178013091790140917A0150914D
S1130EA07B010E94D21388238CF381E191E00E949C
S1130EB03B13BFC1109251011092500181E191E0A6
S1130EC00E943B13B6C163E582E792E00E940502EB
S1130ED0609368017093690180936A0190936B0138
S1130EE020E030E0A9010E94D213811103C01092C6
S1130EF0830103C0F1E0F093830181E191E00E945A
S1130F003B1397C163E582E792E00E940502609378
S1130F1068017093690180936A0190936B0182E484
S1130F200E946E01209168013091690140916A012B
S1130F3050916B010E94D21388238CF381E191E0DC
S1130F400E943B1376C110924A0110924B011092F9
S1130F504C0110924D0110924601109247011092DB
S1130F6048011092490110924201109243011092DB
S1130F7044011092450121E020937E0181E191E03A
S1130F800E943B1356C163E582E792E00E9405028A
S1130F90609378017093790180937A0190937B0137
S1130FA020E030E048EC51E40E94D21318161CF003
S1130FB031E030937C0181E191E00E943B1339C11F
S1130FC045E050E064E672E080E090E00E944B016E
S1130FD045E050E066E572E085E090E00E944B0158
S1130FE045E050E066EC72E08AE090E00E944B013C
S1130FF045E050E068EB71E08FE090E00E944B0127
S113100084E692E00E9450176093C2027093C30278
S11310108093C4029093C50286E592E00E94501723
S11310206093FE017093FF0180930002909301028C
S113103086EC92E00E945017609360027093610204
S1131040809362029093630288EB91E00E945017B0
S11310506093B4017093B5018093B6019093B70186
S113106081E191E00E943B13E4C0E4E6F2E026E56E
S113107032E086EC92E0A8EBB1E0BD011192D90117
S11310801D929D01DC011D92CD01DB011D92BD016C
S1131090B2E0EE36FB0791F76091C2027091C30291
S11310A08091C4029091C50204E111E023E042E082
S11310B00E9430179F938F93E4E6F2E0FF93EF933F
S11310C00E947A176091FE017091FF0180910002E5
S11310D09091010223E042E00E9430179F938F9386
S11310E046E552E05F934F930E947A176091600245
S11310F070916102809162029091630223E042E068
S11311000E9430179F938F9386EC92E09F938F9366
S11311100E947A176091B4017091B5018091B60173
S11311209091B70123E042E00E9430179F938F9380
S1131130E8EBF1E0FF93EF930E947A1788E5898347
S1131140A4E6B2E08C918A83809165028B838091BE
S113115066028C83809167028D83809168028E83FE
S1131160B3E7BF83EFE2E8878DE689878A8790E259
S11311709B8729E52C87A6E5B2E02C912D87209149
S113118057022E87209158022F8720915902288BCD
S113119020915A02298BB3E7BA8BEB8B8C8B8D8B06
S11311A09E8B2AE52F8BE6ECF2E02081288F20919C
S11311B0C702298F2091C8022A8F2091C9022B8F40
S11311C02091CA022C8FBD8FFFE2FE8F8F8F88A3E0
S11311D099A395E49AA3A8EBB1E09C919BA3909169
S11311E0B9019CA39091BA019DA39091BB019EA3C8
S11311F09091BC019FA3B3E7B8A7F9A78AA78BA7CF
S11312008DE08CA7CE0101960E943B130FB6F89493
S1131210DEBF0FBECDBF0DC0E2E7F2E0A6E0B2E054
S113122081918D93CE16DF06D9F7F1E0F093840116
S113123078941092840175CB873409F07DC467E4F7
S113124082E792E00E94EA0290935701809356014C
S113125078948091560190915701843091053CF423
S1131260823091050CF069C1992354F450C48C3137
S1131270910509F410C48C35910509F411C447C4CF
S11312800E94AA1168E582E792E00E940502609339
S1131290020270930302809304029093050269E5AD
S11312A082E792E00E9405026093C2017093C30139
S11312B08093C4019093C5016AE582E792E00E949D
S11312C0050260936E0270936F0280937002909394
S11312D0710265E482E792E00E9405029B01AC0181
S11312E06091B4017091B5018091B6019091B701FC
S11312F00E94CA15D1011C966D937D938D939C9386
S11313001F9720E030E0A90160910202709103026E
S113131080910402909105020E94D213882309F45B
S113132036C420E030E0A9016091C2017091C3018C
S11313308091C4019091C5010E94D213882309F4BD
S113134026C420E030E0A90160916E0270916F0222
S113135080917002909171020E94D21381112EC467
S113136016C480926C0190926D01A0926E01B092AD
S11313706F0108C08092740190927501A092760169
S1131380B092770120E030E048E453E46091020237
S11313907091030280910402909105020E947515D8
S11313A018160CF4C5C020E030E048E453E4609122
S11313B0C2017091C3018091C4019091C5010E9442
S11313C0751518160CF4B4C020E030E04AEF53E46D
S11313D060916E0270916F0280917002909171021F
S11313E00E94751518160CF4A3C0B1E0B0938401E3
S11313F0789440910202509103026091040270912A
S113140005028AE491E00E9457039B01AC016091BC
S1131410C2027091C3028091C4029091C5020E94DD
S1131420CA15F10160837183828393834091C20161
S11314305091C3016091C4017091C50186E491E0AB
S11314400E9457039B01AC016091FE017091FF0162
S113145080910002909101020E94CA15D101149654
S11314606D937D938D939C93179740916E02509149
S11314706F02609170027091710282E491E00E94A7
S113148057039B01AC0160916002709161028091ED
S11314906202909163020E94CA15F101608771870C
S11314A08287938710920202109203021092040220
S11314B0109205021092C2011092C3011092C4014D
S11314C01092C50110926E0210926F021092700277
S11314D01092710280917D01811104C080917C0180
S11314E08823F1F060916C0170916D0180916E011F
S11314F090916F010E944E144B015C016091740144
S11315007091750180917601909177010E944E143B
S1131510AB01BC0195018401C1010E94381008C0CF
S113152087E191E00E943B138DE00E943313EFC2E8
S113153081E191E00E943B13EAC268E582E792E010
S11315400E940502609302027093030280930402D6
S11315509093050269E582E792E00E940502609398
S1131560C2017093C3018093C4019093C50169E4DF
S113157082E792E00E940502609364017093650122
S113158080936601909367016AE482E792E00E9487
S113159005026093600170936101809362019093EE
S11315A0630166E482E792E00E9405024B015C015C
S11315B06093700170937101809372019093730131
S11315C020E030E0A9010E94D213882341F08092E8
S11315D0740190927501A0927601B092770162E550
S11315E082E792E00E94050260935C0170935D01C2
S11315F080935E0190935F0120E030E0A9010E9496
S1131600D2138111F2C28090640190906501A09080
S11316106601B09067014090600150906101609054
S1131620620170906301A3019201C301B2010E949F
S1131630CA156DA77EA78FA798ABA3019201C3011A
S1131640B2010E94CA152B013C01A5019401C501F8
S1131650B4010E94CA159B01AC01C301B2010E94EE
S113166066130E94451660935C0170935D0180933C
S11316705E0190935F01B9C2B7010F2C000C880B77
S1131680990B0E9486144B015C010E94D7136DA72D
S11316907EA78FA798AB40905C0150905D0160904D
S11316A05E0170905F01A30192010E94CA152DA5ED
S11316B03EA54FA558A90E94CA156DA77EA78FA75E
S11316C098ABC501B4010E9437164B015C019B0124
S11316D0AC01C301B2010E94CA15A50194010E9484
S11316E0CA154B015C012091020230910302409122
S11316F00402509105026DA57EA58FA598A90E94AC
S1131700751588237CF02091C2013091C30140916A
S1131710C4015091C501C501B4010E947515882307
S11317200CF0B2C180917D01811105C080917C01D2
S1131730882309F4A0C18091560190915701029722
S113174009F0B0C020E030E0A9016091640170911B
S1131750650180916601909167010E94D213811105
S113176041C020E030E0A901609160017091610105
S113177080916201909163010E94D213811132C061
S11317804DA55EA56FA578A98AE491E00E94570350
S11317909B01AC016091C2027091C3028091C402AA
S11317A09091C5020E94CA15D1016D937D938D93CA
S11317B09C931397B501A40186E491E00E9457031A
S11317C09B01AC016091FE017091FF0180910002C8
S11317D0909101020E94CA15F10164837583868386
S11317E0978313C14DA55EA56FA578A98AE491E0FE
S11317F00E94570340906401509065016090660117
S1131800709067012091C2023091C3024091C402DA
S11318105091C5020E94CA156DA77EA78FA798ABE9
S1131820C301B2019058A30192010E94DC139B01F1
S1131830AC016DA57EA58FA598A90E94CA15D101FA
S11318406D937D938D939C931397B501A40186E4C6
S113185091E00E9457038090600190906101A090F4
S11318606201B09063012091FE013091FF0140912B
S11318700002509101020E94CA152B013C01C501CE
S1131880B4019058A50194010E94DC139B01AC01A2
S1131890C301B2010E94CA15F10164837583868372
S11318A09783B3C020E030E0A90160916401709196
S11318B0650180916601909167010E94D2138111A4
S11318C047C020E030E0A90160916001709161019E
S11318D080916201909163010E94D213811138C0FA
S11318E04DA55EA56FA578A98AE491E00E945703EF
S11318F09B01AC018091C2029091C302A091C402E9
S1131900B091C502BC01CD0190580E94CA15D10105
S11319106D937D938D939C931397B501A40186E4F5
S113192091E00E9457039B01AC018091FE019091CC
S1131930FF01A0910002B0910102BC01CD019058B9
S11319400E94CA15F10164837583868397835DC001
S11319504DA55EA56FA578A98AE491E00E9457037E
S11319604090640150906501609066017090670139
S11319702091C2023091C3024091C4025091C50229
S11319800E94CA156DA77EA78FA798ABA3019201E9
S1131990C301B2010E94DC139B01AC016DA57EA5BD
S11319A08FA598A90E94CA15D1016D937D938D933B
S11319B09C931397B501A40186E491E00E94570318
S11319C08090600190906101A0906201B0906301E9
S11319D02091FE013091FF014091000250910102DB
S11319E00E94CA152B013C01A5019401C501B40153
S11319F00E94DC139B01AC01C301B2010E94CA1511
S1131A00F1016483758386839783D10118961D92AF
S1131A101D921D921C921B978091B4019091B50167
S1131A20A091B601B091B701F10184879587A6878B
S1131A30B787F1E0F0938401789460916C01709120
S1131A406D0180916E0190916F010E944E144B01C3
S1131A505C0160917401709175018091760190919F
S1131A6077010E944E14AB01BC01950184018D2DB8
S1131A7099A90E9438102FEFE21AF20A39E6E31608
S1131A8031E0F30609F0F8CDCBA8DCA881E191E0C0
S1131A900E943B133CC081E191E00E943B1337C09C
S1131AA068E582E792E00E94050260930202709367
S1131AB00302809304029093050269E582E792E0B1
S1131AC00E9405026093C2017093C3018093C40114
S1131AD09093C5016AE582E792E00E940502609353
S1131AE06E0270936F02809370029093710265E4AA
S1131AF082E792E00E940502D1011C966D937D93CA
S1131B008D939C931F9781E191E00E943B13109267
S1131B108401F101108211821282138214821582CF
S1131B2016821782108611861286138614861586ED
S1131B30168617860C9491048E3411F00C9491043B
S1131B40F894B1E0B09384018091500190915101D7
S1131B50019690935101809350016EE482E792E0E4
S1131B600E94EA0290935301809352016AE282E751
S1131B7092E00E94EA0290934F0180934E014AE260
S1131B8060E282E792E00E945B020C94910466E4B6
S1131B9082E792E00E9405024B015C0160937001B0
S1131BA070937101809372019093730120E030E08F
S1131BB0A9010E94D2138111D4CBE4CB66E482E75D
S1131BC092E00E9405024B015C01609370017093E6
S1131BD07101809372019093730120E030E0A901B8
S1131BE00E94D2138111C6CBCDCBE12CF12CDCAAFF
S1131BF0CBAADAA841CD1F920F920FB60F921124EF
S1131C00EF92FF920F931F932F933F934F935F9302
S1131C106F937F938F939F93AF93BF93EF93FF93B0
S1131C20CF93DF93CDB7DEB76497DEBFCDBF80918E
S1131C308501909186018639910530F4019690933F
S1131C4086018093850109C080918701816080931A
S1131C50870110928601109285018091870180FF8F
S1131C6033C080E40E946E019B01AC016091780155
S1131C707091790180917A0190917B0106EC11E0D9
S1131C800E943112EE24EA94F12C9701281B390B9F
S1131C903BBD2ABD82E40E946E019B01AC016091B0
S1131CA068017091690180916A0190916B0102EE63
S1131CB011E00E943112E81AF90AF9BCE8BC8091DB
S1131CC087018E7F80938701809106028D3409F00D
S1131CD065C16DE482E792E00E94EA0290935501A7
S1131CE0809354018037910509F0B7C01092020225
S1131CF01092030210920402109205021092C20183
S1131D001092C3011092C4011092C50110926E0288
S1131D1010926F02109270021092710240E050E033
S1131D20BA018AE491E00E9457039B01AC010F2E93
S1131D30FAE9EF2EF1E0FF2EF02D6091C2027091CE
S1131D40C3028091C4029091C5020E94CA15F70192
S1131D5060837183828393834091C2015091C30154
S1131D606091C4017091C50186E491E00E9457031B
S1131D709B01AC016091FE017091FF018091000212
S1131D80909101020E94CA15F701648375838683CA
S1131D90978340916E0250916F026091700270912E
S1131DA0710282E491E00E9457039B01AC016091AF
S1131DB060027091610280916202909163020E94BC
S1131DC0CA15F70160877187828793871486158601
S1131DD0168617861092740110927501109276017E
S1131DE01092770110926C0110926D0110926E01A5
S1131DF010926F01109278011092790110927A0179
S1131E0010927B01109268011092690110926A018C
S1131E1010926B0181E08093840100E010E098014E
S1131E2040E050E0BA01C7010E943810F701108267
S1131E3011821282138214821582168217821086EE
S1131E4011861286138614861586168617861092B6
S1131E50840181E191E00E943B13809154019091AF
S1131E6055018936910509F0A4C08091800088232A
S1131E7051F08CE291E00E943B138DE00E943313F9
S1131E80109280007FC0E0EDF2E0AAEAB1E08AEDB2
S1131E9092E011921D92E817F907D9F780E40E94A5
S1131EA06E0104E111E023E042E00E9430179F93A9
S1131EB08F9380ED92E09F938F930E947A1782E430
S1131EC00E946E0123E042E00E9430179F938F939B
S1131ED08AEA91E09F938F930E947A170FB6F89441
S1131EE0DEBF0FBECDBF80918301882371F184E5ED
S1131EF089838AE38A83E0EDF2E090819B83918178
S1131F009C8392819D8393819E8394819F8390E29D
S1131F10988725E429878A8720E32B879C8792E486
S1131F209D878E87EAEAF1E080818F878181888BA3
S1131F308281898B83818A8B84818B8B8DE08C8BCE
S1131F40CE0101960E943B131DC084E589838AE378
S1131F508A83E0EDF2E090819B8391819C8392815E
S1131F609D8393819E8394819F8390E2988795E4D7
S1131F7099878A8780E38B878DE08C87CE010196D1
S1131F800E943B138AE00E94331381E191E00E9496
S1131F903B130FC011928E179F07E1F780918401C4
S1131FA0882361F05F9B0AC086E092E00E944A1396
S1131FB005C0E6E0F2E086E592E0ECCF64960FB669
S1131FC0F894DEBF0FBECDBFDF91CF91FF91EF91AB
S1131FD0BF91AF919F918F917F916F915F914F913D
S1131FE03F912F911F910F91FF90EF900F900FBE93
S1131FF00F901F9018951F920F920FB60F921124F5
S11320002F933F934F935F936F937F938F939F93FC
S1132010AF93BF93EF93FF9341E066E083E30E94A5
S1132020900340E062E083E30E9490038FEA94E02F
S11320300197F1F700C0000041E062E083E30E94F1
S113204090038FEA94E00197F1F700C00000FF913C
S1132050EF91BF91AF919F918F917F916F915F911C
S11320604F913F912F910F900FBE0F901F90189595
S11320702F923F924F925F926F927F928F929F9294
S1132080AF92BF92CF92DF92EF92FF920F931F9382
S1132090CF93DF93CDB7DEB7CC59D1090FB6F894FF
S11320A0DEBF0FBECDBF6C014A015B01C756DF4FD7
S11320B0088319832A833B83C959D040412C512C6E
S11320C032014394C301B201A50194010E94D516C3
S11320D0ACE3B0E00E94F4160E94861420E034E2DF
S11320E044E759E40E94CA150E944E144B015C0156
S11320F0C301B201C756DF4F288139814A815B8110
S1132100C959D0400E94D516ACE3B0E00E94F41641
S11321100E94861420E034E244E759E40E94CA1580
S11321200E944E142B013C0188E0E1E8F0E0DE015E
S1132130119601900D928A95E1F776018E010F5F59
S11321401F4F1E0129E0220E311C20E030E0A901BE
S1132150F70160817181828193810E94D213882367
S11321608CF441E0F801608183E30E949003F7015D
S113217080819181A281B381B05880839183A283AD
S1132180B38306C040E0F801608183E30E949003BA
S1132190F4E0EF0EF11C0E5F1F4F20163106A9F676
S11321A088E8E9E8F0E0DE01519601900D928A9505
S11321B0E1F781E090E09A8789879C878B879E87E7
S11321C08D87988B8F8700E010E00F2EF2E22F2E80
S11321D0F02D0F2EF1E13F2EF02D209EF001219ED7
S11321E0F00D112421E030E02C0F3D1FE20FF31F0E
S11321F0608983E30E94BC037801EE0CFF1CEE0CA3
S1132200FF1CEC0CFD1C20E030E040E85FE3F7012C
S113221060817181828193810E946513F7016083DB
S113222071838283938320E030E0A9010E94D2135A
S113223018165CF0F801EE0FFF1F21E030E02C0FC0
S11322403D1FE20FF31F118610860330110559F468
S1132250C201181619068CF435E03A95F1F700001E
S11322600197D1F70AC0C4011816190634F4E5E041
S1132270EA95F1F700000197D1F78F8598899C01C1
S1132280220F331F220F331F220F331F8D859E858C
S1132290880F991F880F991F820F931F2B853C85E8
S11322A0220F331F820F931F29853A85820F931FB4
S11322B0309EF001319EF00D1124E80FF91F319684
S11322C0EE0FFF1F21E030E02C0F3D1FE20FF31F44
S11322D000891189892B09F080CFC456DF4F0FB6CE
S11322E0F894DEBF0FBECDBFDF91CF911F910F9148
S11322F0FF90EF90DF90CF90BF90AF909F908F9022
S11323007F906F905F904F903F902F900895883505
S113231049F018F48534C1F00895893549F08A35B7
S113232069F00895462F64E086E30E9490030895BF
S1132330462F65E086E30E9490030895462F66E0E9
S113234086E30E9490030895462F67E086E30E9487
S11323509003089560E083E30E94AD0360E083E3AB
S11323600E94B80340E064E086E30E94730340E007
S113237065E086E30E94730340E066E086E30E9422
S1132380730340E067E086E30E94730360E088E53E
S11323900E94871160E089E50E94871160E08AE568
S11323A00E94871160E085E40E94871108958F924E
S11323B09F92AF92BF92CF92DF92EF92FF920F93D0
S11323C01F93CF93DF9349015A01E6016C837D8308
S11323D08E839F83288739874A875B87EC86FD86AF
S11323E00E871F8720E030E040E85FE30E94661319
S11323F09B01AC0160E07EEF8FEF96E40E94DC135A
S11324006C8B7D8B8E8B9F8B20E030E040E85FE30C
S1132410C501B4010E9466139B01AC010E946613BE
S11324209B01AC0160E070E080E09FE40E94DC135B
S1132430688F798F8A8F9B8F188219821A821B82E8
S1132440188A198A1A8A1B8ADF91CF911F910F91DA
S1132450FF90EF90DF90CF90BF90AF909F908F90C0
S113246008954F925F926F927F928F929F92AF9254
S1132470BF92CF92DF92EF92FF920F931F93CF936D
S1132480DF93CDB7DEB72A970FB6F894DEBF0FBE41
S1132490CDBF1A8709870E94651369837A838B836A
S11324A09C83F80120893189428953890E946613EB
S11324B04B015C01F801608B718B828B938BC4841C
S11324C0D584E684F78420813181428153816981F6
S11324D07A818B819C810E946513A70196010E94D9
S11324E0CA156D837E838F839887F8014488558845
S11324F066887788A301920169817A818B819C81A6
S11325000E9475151816B4F0A30192015058698100
S11325107A818B819C810E94D2138823ACF0A7011D
S1132520960169817A818B819C810E94CA152B0155
S11325303C0113C00F2E412CFEEF5F2E66246A94DB
S1132540F6E47F2EF02D09C00F2E412CFEEF5F2EF6
S113255066246A94F6EC7F2EF02DE985FA85C08C0A
S1132560D18CE28CF38CA7019601C501B4010E94C1
S1132570751518165CF4E985FA85C08AD18AE28A51
S1132580F38A20E030E040E85EE423C0F7FAF094F8
S1132590F7F8F094A7019601C501B4010E94D21383
S11325A088235CF4E985FA85C08AD18AE28AF38AB1
S11325B020E030E040E85EEC0CC0E985FA85208537
S11325C0318542855385C501B4010E94CA159B011A
S11325D0AC01C301B2010E9466132D813E814F817B
S11325E058850E94661320E030E048EF52E40E94D0
S11325F0DC130E944E14772314F460E070E08B0126
S11326006F3F710519F014F00FEF10E0B801012EBF
S1132610000C880B990B0E948614E985FA85608367
S1132620718382839383C8012A960FB6F894DEBF20
S11326300FBECDBFDF91CF911F910F91FF90EF900F
S1132640DF90CF90BF90AF909F908F907F906F90CE
S11326505F904F90089583E089B910BC88E18AB9EE
S113266086E880BD08955D9BFECF8CB908955F9B7D
S1132670FECF8CB10895CF93DF93EC01888188233A
S113268031F021960E94331389918111FBCFDF91A0
S1132690CF9108950F931F93CF938C01C0E00E94B4
S11326A037138A3011F08D3031F4F801EC0FF11D3D
S11326B080E2808306C0F801EC0FF11D8083CF5FB8
S11326C0EECFCF911F910F9108955058BB27AA27A1
S11326D00E947D130C9427150E94EE1438F00E947A
S11326E0F51420F039F49F3F19F426F40C94EB14FC
S11326F00EF4E095E7FB0C94E514E92F0E944C15C9
S113270058F3BA17620773078407950720F079F422
S1132710A6F50C946E150EF4E0950B2EBA2FA02D91
S11327200B01B90190010C01CA01A0011124FF277A
S1132730591B99F0593F50F4503E68F11A16F04075
S1132740A22F232F342F4427585FF3CF4695379574
S11327502795A795F0405395C9F77EF41F16BA0B39
S1132760620B730B840BBAF09150A1F0FF0FBB1FE7
S1132770661F771F881FC2F70EC0BA0F621F731F30
S1132780841F48F4879577956795B795F7959E3F8D
S113279008F0B0CF9395880F08F09927EE0F97951E
S11327A0879508950E94C11408F481E008950E9459
S11327B0FE14E3950C9438150E94F0130C9427151D
S11327C00E94F51458F00E94EE1440F029F45F3F83
S11327D029F00C94E51451110C946F150C94EB141E
S11327E00E944C1568F39923B1F3552391F3951B7B
S11327F0550BBB27AA2762177307840738F09F5F1E
S11328005F4F220F331F441FAA1FA9F335D00E2E8A
S11328103AF0E0E832D091505040E695001CCAF7F7
S11328202BD0FE2F29D0660F771F881FBB1F2617BA
S113283037074807AB07B0E809F0BB0B802DBF0191
S1132840FF2793585F4F3AF09E3F510578F00C9460
S1132850E5140C946F155F3FE4F3983ED4F386952A
S113286077956795B795F7959F5FC9F7880F911D81
S11328709695879597F90895E1E0660F771F881F6D
S1132880BB1F621773078407BA0720F0621B730B20
S1132890840BBA0BEE1F88F7E09508950E94551437
S11328A06894B1110C946F1508950E94541588F022
S11328B09F5798F0B92F9927B751B0F0E1F0660F00
S11328C0771F881F991F1AF0BA95C9F714C0B13041
S11328D091F00E946E15B1E008950C946E15672F67
S11328E0782F8827B85F39F0B93FCCF38695779570
S11328F06795B395D9F73EF4909580957095619559
S11329007F4F8F4F9F4F0895E89409C097FB3EF483
S113291090958095709561957F4F8F4F9F4F992328
S1132920A9F0F92F96E9BB279395F69587957795A6
S11329306795B795F111F8CFFAF4BB0F11F460FF66
S11329401BC06F5F7F4F8F4F9F4F16C0882311F0BE
S113295096E911C0772321F09EE8872F762F05C0D2
S1132960662371F096E8862F70E060E02AF09A956D
S1132970660F771F881FDAF7880F9695879597F962
S11329800895990F0008550FAA0BE0E8FEEF1616FC
S11329901706E807F907C0F012161306E407F5074F
S11329A098F0621B730B840B950B39F40A2661F0C3
S11329B0232B242B252B21F408950A2609F4A14066
S11329C0A6958FEF811D811D089597F99F6780E873
S11329D070E060E008959FEF80EC089500240A946D
S11329E01616170618060906089500240A941216E6
S11329F013061406050608950C94EB140E9454154E
S1132A00D8F3E894E0E0BB279F57F0F02AED3FE0CD
S1132A1049EC06C0EE0FBB0F661F771F881F28F016
S1132A20B23A62077307840728F0B25A620B730B39
S1132A30840BE3959A9572F7803830F49A95BB0F1E
S1132A40661F771F881FD2F790480C948716092EAB
S1132A500394000C11F4882352F0BB0F40F4BF2BF5
S1132A6011F460FF04C06F5F7F4F8F4F9F4F089535
S1132A70EF93E0FF07C0A2EA2AED3FE049EC5FEBE9
S1132A800E947D130E9427150F90039401FC905817
S1132A90E4E5F0E00C94C11657FD9058440F551F1F
S1132AA059F05F3F71F04795880F97FB991F61F0CC
S1132AB09F3F79F087950895121613061406551F43
S1132AC0F2CF4695F1DF08C0161617061806991FAF
S1132AD0F1CF86957105610508940895E894BB27A4
S1132AE066277727CB0197F908950E94C11408F44B
S1132AF08FEF089516F00C9485160C94EB146894DB
S1132B000C94E5140E945415A8F39923C1F3AEF371
S1132B10DF93CF931F930F93FF92C92FDD27882351
S1132B202AF02197660F771F881FDAF720E030E03C
S1132B3040E85FEB9FE3883920F0803E38F021962F
S1132B408F770E946613E2E7F0E004C00E946613E8
S1132B50EFE9F0E00E949A168B01BE01EC01FB2E16
S1132B606F5771097595771F880B990B0E9486140E
S1132B7028E132E741E35FE30E94DD15AF2D9801C0
S1132B80AE01FF900F911F91CF91DF910E947D13B1
S1132B900C9427150E94DD150C9427150E94EE1441
S1132BA038F00E94F51420F0952311F00C94E514EC
S1132BB00C94EB1411240C946F150E944C1570F3B3
S1132BC0959FC1F3950F50E0551F629FF001729FCE
S1132BD0BB27F00DB11D639FAA27F00DB11DAA1FDD
S1132BE0649F6627B00DA11D661F829F2227B00D2A
S1132BF0A11D621F739FB00DA11D621F839FA00DB5
S1132C00611D221F749F3327A00D611D231F849F04
S1132C10600D211D822F762F6A2F11249F5750405B
S1132C209AF0F1F088234AF0EE0FFF1FBB1F661FD6
S1132C30771F881F91505040A9F79E3F510580F09F
S1132C400C94E5140C946F155F3FE4F3983ED4F3B1
S1132C50869577956795B795F795E7959F5FC1F743
S1132C60FE2B880F911D9695879597F908959F934C
S1132C700E94FE140F9007FCEE5F0C94381519F4B3
S1132C8016F40C94EB140C9485160E945415B8F3A6
S1132C909923C9F3B6F39F57550B87FF0E949316E8
S1132CA00024A0E640EA900180585695979528F4B0
S1132CB0805C660F771F881F20F0261737074807A8
S1132CC030F4621B730B840B202931294A2BA695FF
S1132CD017940794202531254A2758F7660F771F44
S1132CE0881F20F026173707480730F4620B730B50
S1132CF0840B200D311D411DA09581F7B901842F4E
S1132D009158880F9695879508959F3F31F091507B
S1132D1020F4879577956795B795880F911D9695BB
S1132D20879597F9089591505040660F771F881F33
S1132D30D2F70895DF93CF931F930F93FF92EF92EF
S1132D40DF927B018C01689406C0DA2EEF010E94A9
S1132D50DD15FE01E894A591259135914591559194
S1132D60A6F3EF010E947D13FE019701A801DA94F6
S1132D7069F7DF90EF90FF900F911F91CF91DF9152
S1132D8008959F938F937F936F93FF93EF939B018A
S1132D90AC010E94CA15EF91FF910E949A162F91DF
S1132DA03F914F915F910C94CA15052E97FB1EF429
S1132DB000940E94EC1657FD07D00E94FF1607FCF2
S1132DC003D04EF40C94EC16509540953095219513
S1132DD03F4F4F4F5F4F0895909580957095619543
S1132DE07F4F8F4F9F4F08950E942117A59F900DED
S1132DF0B49F900DA49F800D911D11240895A1E20C
S1132E001A2EAA1BBB1BFD010DC0AA1FBB1FEE1F60
S1132E10FF1FA217B307E407F50720F0A21BB30BAB
S1132E20E40BF50B661F771F881F991F1A9469F727
S1132E3060957095809590959B01AC01BD01CF0183
S1132E400895A29FB001B39FC001A39F700D811D7F
S1132E501124911DB29F700D811D1124911D08959F
S1132E60EF920F931F93CF93DF93E80147FD02C0C6
S1132E7034E001C034E1042E000C550B57FF03C0AD
S1132E80519541955109E32E022F242FAE010E9442
S1132E907D19CE01DF91CF911F910F91EF9008958D
S1132EA0662777270C94D71AFC0188279927E8947A
S1132EB021912032E9F3293010F02E30C8F32B325F
S1132EC041F02D3239F4689404C00E947217820FC5
S1132ED0911D219120532A30C0F31EF490958195C1
S1132EE09F4F08957AE0979F902D879F802D910D95
S1132EF011240895AEE0B0E0E0E8F7E10C94DF1DA2
S1132F000D891E8986E08C831A8309838FEF9FE7DE
S1132F109E838D83AE01475E5F4F6F89788DCE01AE
S1132F2001960E949C17EF81F885E00FF11F108233
S1132F302E96E4E00C94FB1DABE0B0E0E2EAF7E18E
S1132F400C94D11D6C017B018A01FC01178216824D
S1132F50838181FFCCC1CE0101963C01F6019381AE
S1132F60F70193FD859193FF81917F01882309F4F3
S1132F70BAC1853239F493FD859193FF81917F0124
S1132F80853229F4B60190E00E94341DE7CF912CDC
S1132F90212C312CFFE1F315D8F08B3279F038F481
S1132FA0803279F08332A1F4232D20611DC08D324B
S1132FB061F0803369F4232D216016C0832D826073
S1132FC0382EE32DE4603E2E2AC0F32DF8601DC098
S1132FD037FC2DC020ED280F2A3040F08E32B9F492
S1132FE036FC81C1232D2064322E19C036FE06C062
S1132FF08AE0989E200D1124922E11C0EAE02E9EA4
S1133000200D1124222EF32DF0623F2E08C08C36A1
S113301021F4832D8068382E02C0883641F4F701EC
S113302093FD859193FF81917F018111B3CF982FF7
S11330309F7D9554933028F40C5F1F4F9FE3998331
S11330400DC0833631F0833771F0833509F059C0F0
S113305021C0F801808189830E5F1F4F88248394E7
S1133060912C530113C02801F2E04F0E511CF801BA
S1133070A080B18036FE03C0692D70E002C06FEFFE
S11330807FEFC5010E94291D4C018201F32DFF77BA
S11330903F2E16C0280122E0420E511CF801A080E8
S11330A0B18036FE03C0692D70E002C06FEF7FEF80
S11330B0C5010E941E1D4C01F32DF0683F2E8201B4
S11330C033FC1BC0822D90E088169906B0F4B6013B
S11330D080E290E00E94341D2A94F4CFF50137FC7D
S11330E0859137FE81915F01B60190E00E94341D05
S11330F021102A9421E0821A91088114910471F715
S1133100E8C0843611F0893641F5F80137FE07C06E
S113311060817181828193810C5F1F4F08C060813F
S11331207181072E000C880B990B0E5F1F4FF32D36
S1133130FF763F2E97FF09C0909580957095619515
S11331407F4F8F4F9F4FF0683F2E2AE030E0A3015E
S11331500E94701D882E861845C0853731F4232DB2
S11331602F7EB22E2AE030E025C0932D997FB92E10
S11331708F36C1F018F4883579F0B5C0803719F06E
S1133180883721F0B0C0E92FE061BE2EB4FE0DC037
S1133190FB2DF460BF2E09C034FE0AC0292F26601F
S11331A0B22E06C028E030E005C020E130E002C0C5
S11331B020E132E0F801B7FE07C0608171818281AD
S11331C093810C5F1F4F06C06081718180E090E0A5
S11331D00E5F1F4FA3010E94701D882E8618FB2DC1
S11331E0FF773F2E36FE0DC0232D2E7FA22E89148D
S11331F058F434FE0BC032FC09C0832D8E7EA82EF9
S113320005C0B82CA32C03C0B82C01C0B92CA4FE53
S11332100FC0FE01E80DF11D8081803321F49A2D49
S1133220997EA92E09C0A2FE06C0B394B39404C02B
S11332308A2D867809F0B394A3FC11C0A0FE06C0C1
S1133240B21488F4280C922C9B180EC0B21460F4AB
S1133250B60180E290E00E94341DB394F7CFB2141B
S113326018F42B1802C0982C212CA4FE10C0B6010F
S113327080E390E00E94341DA2FE17C0A1FC03C0AD
S113328088E790E002C088E590E0B6010CC08A2D82
S1133290867859F0A1FE02C08BE201C080E2A7FC4F
S11332A08DE2B60190E00E94341D891438F4B60111
S11332B080E390E00E94341D9A94F7CF8A94F3013E
S11332C0E80DF11D8081B60190E00E94341D81104B
S11332D0F5CF222009F442CEB60180E290E00E94AC
S11332E0341D2A94F6CFF6018681978102C08FEFB0
S11332F09FEF2B96E2E10C94ED1DA9E0B0E0E3E82A
S1133300F9E10C94D71D6A01122FB02E2BE320177C
S113331020F0FF24F394F00E02C02CE3F22E0F2DC4
S113332027E0AE014F5F5F4F0E94251CBC0149811D
S1133330842F8970813031F0E1FC06C0E0FE06C0C4
S113334090E205C09DE203C09BE201C090E05E2DC7
S1133350507143FF3CC0911102C083E001C084E07E
S1133360811718F4212F281B01C020E051110BC034
S1133370F601822F30E2882319F031938150FBCF7C
S1133380C20ED11C20E0992329F0D6019C93F601AA
S113339031966F01C6010396E2FE0AC03EE4D601EF
S11333A03C9341E411964C93119712963C9306C0BA
S11333B03EE6F601308341E641833283FC01322F3D
S11333C040E2332309F442C041933150FACF42FF23
S11333D044C0911102C083E001C084E0811718F455
S11333E0212F281B01C020E051110BC0F601822FB0
S11333F030E2882319F031938150FBCFC20ED11CE7
S113340020E0992329F0D6019C93F60131966F01AF
S1133410C6010396E2FE0BC039E4D6013C933EE4B8
S113342011963C93119736E412963C9307C039E603
S1133430F60130833EE6318336E63283FC01322FD7
S113344040E2332319F041933150FBCFFC01E20FEA
S1133450F11D10828EEF9FEFA6C021E030E09111A4
S113346002C020E030E0161617061CF4FB0131966A
S113347002C0E1E0F0E02E0F3F1FBB2021F0EB2D56
S1133480F0E0319602C0E0E0F0E02E0F3F1FE12FA4
S1133490F0E02E173F071CF4121B212F01C020E07F
S11334A08E2D887159F4F601822F30E2882319F0A9
S11334B031938150FBCFC20ED11C20E0992329F017
S11334C0D6019C93F60131966F0151110BC0F601A0
S11334D0822F90E3882319F091938150FBCFC20E81
S11334E0D11C20E00F2D060F9A81342F307144FF38
S11334F003C0913309F40150101624F4093018F074
S113350008E001C001E0AB0177FF02C040E050E0F9
S1133510FB01E41BF50BA1E0B0E0AC0FBD1FEA0F0B
S1133520FB1F8EE2A82E4B01801A91080B2D10E090
S11335301195019511094F3FBFEF5B0721F4D601A7
S1133540AC9211966D01641775072CF084169506DC
S113355014F4818101C080E3415051093196D601B0
S113356011967D014017510724F0D6018C93670111
S1133570E2CF6417750739F4963320F4953319F4C0
S1133580311101C081E3F6018083F701822F90E2BB
S1133590882319F091938150FBCFF701E20FF11DBD
S11335A0108280E090E02996ECE00C94F31DA0E0FA
S11335B0B0E0EDEDFAE10C94D71DEC016B0161155F
S11335C0710519F0FB01918380837E01FFEFEF1AEF
S11335D0FF0A0881802F90E00E94FD1C892B11F0C6
S11335E0E701F3CF0D3239F47E0182E0E80EF11CDD
S11335F0098111E008C00B3229F47E0192E0E90E42
S1133600F11C098110E0E701219743E050E064EDEB
S113361070E0CE010E94061D892BC1F4239645E07B
S113362050E06FEC70E0CE010E94061D892B09F476
S11336302596C114D10419F0F601D183C083111168
S1133640F6C060E070E080E89FE7FAC043E050E035
S11336506CEC70E0CE010E94061D892B59F4C11454
S1133660D10409F4E9C0F2E0EF0EF11CF601F18295
S1133670E082E2C020E030E0A901C0E0D0E0F70140
S113368080EDA82EA00E89E08A1530F1912F92606A
S1133690B92E812F887012FF04C0811124C0219695
S11336A022C081112197A5E0B0E00E94F416DC014C
S11336B0CB01880F991FAA1FBB1F9C01AD012A0DC6
S11336C0311D411D511D283989E93807480789E111
S11336D0580748F0166006C09EEFA9120AC013FDF1
S11336E040C01860B12E8FEFE81AF80A00811B2D34
S11336F0C6CF802F8F7D8534A1F580818D3211F462
S1133700106106C08B3221F0319661E070E004C094
S11337108181329662E070E080538A3018F0E61BB3
S1133720F70B1FC060E070E060389CE079075CF440
S1133730DB01AA0FBB1FAA0FBB1F6A0F7B1F660FFB
S1133740771F680F711D3196DF0111978C9180539B
S11337508A3050F314FF03C0719561957109C60F47
S1133760D71F11FF08C0C114D10429F0CF0101975C
S1133770F60191838083CA01B9010E948414212F28
S11337802370233019F04B015C0106C04B015C012E
S1133790B7FAB094B7F8B09420E030E0A901C501BD
S11337A0B4010E94D213882309F43EC0D7FF06C097
S11337B0D195C195D1090BEE10E002C003E011E0F0
S11337C06801F8E1CF1AD10890E2E92EF12CCE1568
S11337D0DF0574F0F8012591359145915491C501A7
S11337E0B4010E94CA154B015C01CE19DF09EFCF69
S11337F004501109F594E7940C151D0541F78A2D21
S1133800880F8B2D881F8F3F49F020E030E0A901FD
S1133810C501B4010E94D213811106C082E290E076
S11338209093DB028093DA02C501B40109C060E021
S113383070E080E89FEF04C060E070E080EC9FE7F8
S1133840CDB7DEB7ECE00C94F31D283008F027E088
S11338503327DA01990F311D87FD916000966105C8
S1133860710539F432602E5F3D9330E32A95E1F718
S113387008959F3F30F080387105610509F03C5F81
S11338803C5F3D93913008F08068911DDF93CF93A6
S11338901F930F93FF92EF92192F987F9695E92F1C
S11338A096959695E90FFF27EF59FE4F99273327F1
S11338B0EE24FF24A701E70105900894079428F457
S11338C0360FE71EF81E491F511D660F771F881F0C
S11338D0991F0694A1F70590079428F4E70EF81EA3
S11338E0491F561FC11D770F881F991F661F069415
S11338F0A1F70590079428F4F80E491F561FC71F17
S1133900D11D880F991F661F771F0694A1F7059094
S1133910079420F4490F561FC71FD81F990F661F1D
S1133920771F881F0694A9F784911095177041F0AA
S1133930D695C79557954795F794E7941A95C1F787
S1133940E7E0F1E0689415901591359165919591B2
S113395005907FE27395E118F10A430B560BC90BEE
S1133960D009C0F7E10CF11E431F561FC91FD01D1B
S11339707EF4703311F48A95E6CFE894015030F068
S1133980080F0AF40027021708F4202F2395022FAA
S11339907A3328F079E37D932A95E9F710C07D9373
S11339A02A9589F6069497956795379517951794F0
S11339B0E118F10A430B560BC90BD00998F0239573
S11339C07E9173957A3308F070E37C932013B8F7F3
S11339D07E9170617D9330F0839571E37D9370E304
S11339E02A95E1F71124EF90FF900F911F91CF9149
S11339F0DF91992787FD9095089591110C94CE1D20
S1133A00803219F089508550C8F70895FB01DC0114
S1133A104150504088F08D9181341CF08B350CF46A
S1133A20805E659161341CF06B350CF4605E861B1E
S1133A30611171F3990B0895881BFCCFFC0105906B
S1133A40615070400110D8F7809590958E0F9F1F9C
S1133A500895FC016150704001900110D8F78095E1
S1133A6090958E0F9F1F08950F931F93CF93DF930D
S1133A70FB01238121FD03C08FEF9FEF2CC022FFA8
S1133A8016C046815781248135814217530744F477
S1133A90A081B1819D012F5F3F4F318320838C939F
S1133AA0268137812F5F3F4F3783268314C08B01D4
S1133AB0EC01FB010084F185E02D0995892BE1F6E9
S1133AC0D80116968D919C911797019617969C9301
S1133AD08E931697CE01DF91CF911F910F91089588
S1133AE0FA01AA27283051F1203181F1E8946F932B
S1133AF06E7F6E5F7F4F8F4F9F4FAF4FB1E03ED0D1
S1133B00B4E03CD0670F781F891F9A1FA11D680F6E
S1133B10791F8A1F911DA11D6A0F711D811D911DA1
S1133B20A11D20D009F468943F912AE0269F112416
S1133B303019305D3193DEF6CF010895462F47707A
S1133B40405D4193B3E00FD0C9F7F6CF462F4F70D5
S1133B50405D4A3318F0495D31FD4052419302D033
S1133B60A9F7EACFB4E0A6959795879577956795D9
S1133B70BA95C9F700976105710508959B01AC01D9
S1133B800A2E06945795479537952795BA95C9F700
S1133B90620F731F841F951FA01D089599278827FE
S1133BA008952F923F924F925F926F927F928F92DD
S1133BB09F92AF92BF92CF92DF92EF92FF920F93B8
S1133BC01F93CF93DF93CDB7DEB7CA1BDB0B0FB6C2
S1133BD0F894DEBF0FBECDBF09942A88398848887F
S1133BE05F846E847D848C849B84AA84B984C88415
S1133BF0DF80EE80FD800C811B81AA81B981CE0F0C
S1133C00D11D0FB6F894DEBF0FBECDBFED010895F0
S1073C10F894FFCF52
S1133C146CCF5834D6647939CB48843A00401C4676
S1133C2400000C430000C8420000C8420000C8421F
S1133C340104000500060007000000030000000161
S1133C440001000200000001000100030000000163
S1133C540001000200000001000100010003000053
S1133C640001000000020000000100000003000045
S1133C740001000000020000000100000002000333
S1133C840000000100000002000000010000000325
S1133C940000000100000002000000010000000315
S1133CA40003000000010000000200000001000005
S1133CB400030000000100000002000000010000F5
S1133CC4006F6B002566006572726F7220657874EC
S1133CD472756465722074656D702E0077656C630B
S1133CE46F6D652077652061726520505249534396
S1053CF4410089
S9030000FC
