S01700005052495343415F6672696D776172652E737265638F
S11300000C9401010C941E010C941E010C941E010D
S11300100C941E010C941E010C941E010C941E01E0
S11300200C941E010C94CC0D0C941E010C941E0116
S11300300C941E010C941E010C941E010C941E01C0
S11300400C941E010C941E010C941E010C941E01B0
S11300500C941E0105A84CCDB2D44EB93836A90271
S11300600C50B9918688083CA6AAAA2ABE000000B2
S1130070803F08000000BE922449123EABAAAA2A7F
S1130080BECDCCCC4C3E00000080BEABAAAAAA3E9A
S113009000000000BF000000803F000000000008D6
S11300A04178D3BB4387D1133D190E3CC3BD428273
S11300B0AD2B3E68EC8276BED98FE1A93E4C80EF31
S11300C0FFBE01C4FF7F3F00000000004E414E49C7
S11300D04E495459494E46CDCCCC3D0AD7233C1702
S11300E0B7D13877CC2B329595E6241FB14F0A004F
S11300F00020410000C84200401C4620BCBE4CCA3F
S11301001B0E5AAEC59D7400407A10F35A00A072BB
S11301104E18090010A5D4E80000E876481700003E
S1130120E40B54020000CA9A3B000000E1F505000C
S11301300080969800000040420F000000A0860155
S1130140000000102700000000E803000000006425
S113015000000000000A0000000000010000000090
S1130160002C76D888DC674F0823DFC1DFAE59E165
S1130170B1B796E5E3E453C63AE651997696E8E6D4
S1130180C28426EB898C9B62ED407C6FFCEFBC9CA7
S11301909F40F2BAA56FA5F490055A2AF75C936BB9
S11301A06CF9676DC11BFCE0E40D47FEF520E6B574
S11301B000D0ED902E0300943577050080841E084E
S11301C00000204E0A000000C80C333333330F986C
S11301D06E12831141EF8D2114893BE65516CFFE33
S11301E0E6DB18D1844B381BF77C1D901DA4BBE4BF
S11301F024203284725E228100C9F124ECA1E53D01
S1130200270011241FBECFE5D4E0DEBFCDBF10E030
S1130210A0E6B0E0E0E4FAE302C005900D92AE3E41
S1130220B107D9F722E0AEEEB0E001C01D92AB32C7
S1130230B207E1F70E944E030C941E1D0C940000BB
S1130240E199FECF9FBB8EBB6DBBE29AE19A089504
S1130250EF92FF920F931F93CF93DF938C017B0157
S1130260EA01209751F0F70161917F01C8010E94D2
S113027020010F5F1F4F2197B1F7DF91CF911F919D
S11302800F91FF90EF900895E199FECF9FBB8EBB35
S1130290E09A8DB30895EF92FF920F931F93CF933B
S11302A0DF938C017B01EA01209751F0C8010E9481
S11302B04401F70181937F010F5F1F4F2197B1F72D
S11302C0DF91CF911F910F91FF90EF90089587B91F
S11302D0369A86B1349A84B195B108958F929F92DB
S11302E0AF92BF92CF92DF92EF92FF920E9467018A
S11302F09093380180933701BC01990F880B990BB7
S11303000E949C139B01AC0160E070EC8FE794E4C5
S11303100E94F21220E030E040E85FE30E947B128A
S113032020916C0030916D0040916E0050916F00EF
S11303300E94E01460933D0170933E0180933F015D
S1130340909340010E9498146B017C0160934101D9
S1130350709342018093430190934401209164007F
S11303603091650040916600509167000E94E0144E
S1130370209168003091690040916A0050916B00AF
S11303800E947C124B015C0120916000309161005D
S11303904091620050916300C701B6010E94E014CD
S11303A0A70196010E94E014A70196010E94E0149F
S11303B09B01AC01C501B4010E947C129B01AC01FC
S11303C060E070E080E89FE30E94F21260933301E2
S11303D070933401809335019093360123E333E91C
S11303E048E853E40E947B126093390170933A0108
S11303F080933B0190933C01FF90EF90DF90CF906E
S1130400BF90AF909F908F9008950F931F93CF93B9
S1130410DF93CDB7DEB72A970FB6F894DEBF0FBED1
S1130420CDBFAC01FE013196CE010B961192E817B7
S1130430F907E1F700E010E020E030E0FA01E20F14
S1130440F31F9081961315C0F901E00FF11FE40F1B
S1130450F51F8181A1E0B0E0AC0FBD1FA00FB11F5B
S11304608C938281803241F08D3031F00F5F1F4FC9
S1130470E5CF2F5F3F4FE2CFCE0101960E94661673
S11304802A960FB6F894DEBF0FBECDBFDF91CF9191
S11304901F910F9108950F931F93CF93DF93CDB7BF
S11304A0DEB72A970FB6F894DEBF0FBECDBFAC01FE
S11304B0FE013196CE010B961192E817F907E1F788
S11304C000E010E020E030E0FA01E20FF31F908139
S11304D0961315C0F901E00FF11FE40FF51F818198
S11304E0A1E0B0E0AC0FBD1FA00FB11F8C938281BF
S11304F0803241F08D3031F00F5F1F4FE5CF2F5F19
S11305003F4FE2CFCE0101960E946A162A960FB69B
S1130510F894DEBF0FBECDBFDF91CF911F910F9135
S11305200895FC012081621759F02D3059F031965D
S113053002C09D3049F091919613FBCF81E008955C
S113054081E0089580E0089580E00895CF92DF92DD
S1130550EF92FF92CF93DF93EC016A017B01288134
S113056039814A815B81C701B6010E947B12C8822E
S1130570D982EA82FB82DF91CF91FF90EF90DF90E6
S1130580CF90089541110DC0E82FF0E0228181E061
S113059090E002C0880F991F6A95E2F7822B82834C
S11305A00895E82FF0E0228181E090E002C0880FF6
S11305B0991F6A95E2F780958223828308956111D9
S11305C005C0E82FF0E08FEF81830895E82FF0E075
S11305D011820895E82FF0E062830895E82FF0E097
S11305E0828121E030E002C0220F331F6A95E2F7D6
S11305F0282722830895CF92DF92EF92FF920F93E0
S11306001F9381B3806B81BB8FEF84BB8AB3806FF0
S11306108ABB87B3836087BB87E886B93E9A0E940A
S113062043120E94D6100F2EF9E8CF2EF1E0DF2EF0
S1130630F02D17E6E12E16E6F12E06EC10E4A801E3
S1130640970160E070E088E793E40E94EF100F2EBA
S1130650FDE6CF2EF1E0DF2EF02DA801970160E03A
S113066070E088E793E40E94EF10F8948FB5816AF4
S11306708FBD8EB581648EBD85B58E6685BD83B70D
S1130680816883BF89B7816089BF12BE78941F9146
S11306900F91FF90EF90DF90CF900895CF93DF9369
S11306A0CDB7DEB7EA970FB6F894DEBF0FBECDBF65
S11306B00E94FB0245E050E067EB71E080E090E0CF
S11306C00E944B0145E050E069EA71E085E090E06A
S11306D00E944B0145E050E065E172E08AE090E061
S11306E00E944B0145E050E063E671E08FE090E04A
S11306F00E944B0187EB91E00E9466166093110201
S113070070931202809313029093140289EA91E089
S11307100E9466166093A5017093A6018093A701B9
S11307209093A80185E192E00E9466166093B3015C
S11307307093B4018093B5019093B60183E691E080
S11307400E94661660935F0170936001809361015B
S1130750909362010F2EF1E16F2EF2E07F2EF02DC7
S113076025E431E029AF3AAF80912F0181110AC00D
S1130770E1ECF1E01192E615F705E1F781EC91E087
S11307800E9462128091C1018D3409F0CDC56DE4DF
S113079081EC91E00E944B029093FD008093FC0059
S11307A08B36910509F4AAC274F58335910509F4D1
S11307B03BC194F48131910509F4A0C024F402975B
S11307C008F458C0D1CF8231910509F49EC0823516
S11307D0910509F41CC1C8CF8836910509F46BC290
S11307E04CF48435910509F490C08C35910509F4D5
S11307F04FC1BACF8936910509F46FC28A36910583
S113080009F46FC2B1CF8E3C910509F429C4BCF43C
S11308108237910509F453C34CF48D36910509F4DC
S113082073C28037910509F4BEC29ECF8C389105FE
S113083009F4DBC38E3B910509F4ECC395CF853FE6
S113084051E0950709F444C45CF48E3271E09707D3
S113085009F426C4843FA1E09A0709F419C184CF9E
S1130860863FB1E09B0709F413C1873F914009F427
S113087084C47ACFA5E4B1E01D921D921D921C920E
S113088013971092490110924A0110924B01109251
S11308904C0110924D0110924E0110924F01109292
S11308A05001109251011092520110925301109272
S11308B0540110921E0110921F01109220011092F7
S11308C02101109216011092170110921801109232
S11308D01901109222011092230110922401109206
S11308E0250110921201109213011092140110921A
S11308F015018EEB90E00E94531236CF0E94D61061
S11309008EEB90E00E9453122FCF63E581EC91E0CF
S11309100E944B02FC0128EE33E0E29FC001E39FFA
S1130920900DF29F900D1124092E000CAA0BBB0B05
S11309308093FE009093FF00A0930001B093010107
S113094031E030932F0168E581EC91E00E9491023F
S113095080932D0169E581EC91E00E9491028093DE
S11309602C016AE581EC91E00E94910280932B01B5
S113097065E481EC91E00E94910280932A016091E8
S11309802D0188E50E94B31060912C0189E50E9435
S1130990B31060912C018AE50E94B31060912A0182
S11309A085E40E94B3108091FE009091FF00A09115
S11309B00001B09101010097A105B10509F1F4F01E
S11309C08FE99FE00197F1F700C000008091FE00DD
S11309D09091FF00A0910001B09101010197A1093C
S11309E0B1098093FE009093FF00A0930001B0939F
S11309F00101181619061A061B0614F30E94D610D4
S1130A0010922F018EEB90E00E945312ADCE109203
S1130A1051011092520110925301109254018EEB25
S1130A2090E00E945312A0CE1092F6001092F700AC
S1130A301092F8001092F9001092F2001092F30054
S1130A401092F4001092F5001092EE001092EF0054
S1130A501092F0001092F100A5E4B1E01D921D92F5
S1130A601D921C9213971092490110924A01109200
S1130A704B0110924C0110924D0110924E011092B4
S1130A804F01109250018EEB90E00E9453126CCEF5
S1130A90E7EBF1E049EA51E025E132E0A3E6B1E019
S1130AA07D011192DA011D92AD01D9011D929D01C2
S1130AB0D7011D927D0161EC71E06E177F0789F704
S1130AC08C359105A1F568E581EC91E00E94050261
S1130AD06093110270931202809313029093140294
S1130AE069E581EC91E00E9405026093A501709391
S1130AF0A6018093A7019093A8016AE581EC91E097
S1130B000E9405026093B3017093B4018093B50110
S1130B109093B60165E481EC91E00E940502609334
S1130B205F017093600180936101909362018091F1
S1130B30FC009091FD00863F914009F040C08091F7
S1130B407C0090917D00A0917E00B0917F00809305
S1130B50110290931202A0931302B0931402809195
S1130B60780090917900A0917A00B0917B008093F5
S1130B70A5019093A601A093A701B093A801809129
S1130B80740090917500A0917600B09177008093E5
S1130B90B3019093B401A093B501B093B6018091D1
S1130BA0700090917100A0917200B09173008093D5
S1130BB05F0190936001A0936101B0936201609121
S1130BC0110270911202809113029091140201ECAF
S1130BD010E023E042E00E9446169F938F9387EB38
S1130BE091E09F938F930E9490166091A50170915C
S1130BF0A6018091A7019091A80123E042E00E9400
S1130C0046169F938F93E9EAF1E0FF93EF930E94D6
S1130C1090166091B3017091B4018091B5019091E7
S1130C20B60123E042E00E9446169F938F9345E16C
S1130C3052E05F934F930E94901660915F01709110
S1130C406001809161019091620123E042E00E9481
S1130C5046169F938F9383E691E09F938F930E9410
S1130C60901645E050E067EB71E080E090E00E9470
S1130C70280145E050E069EA71E085E090E00E94D7
S1130C80280145E050E065E172E08AE090E00E94CE
S1130C90280145E050E063E671E08FE090E00E94B7
S1130CA028018EEB90E00E9453120FB6F894DEBF39
S1130CB00FBECDBF59CD63E581EC91E00E940502E2
S1130CC06093220170932301809324019093250162
S1130CD08EEB90E00E94531247CDF1E0F093260191
S1130CE043CD63E581EC91E00E9405020E946B1301
S1130CF063BD8EEB90E00E94531236CD13BC8EEB95
S1130D0090E00E94531230CD62E481EC91E00E94A5
S1130D10050260930E0170930F018093100190936C
S1130D20110120E030E0A9010E94E812811122C0E3
S1130D3063E581EC91E00E940502609322017093C7
S1130D402301809324019093250121E020932F0116
S1130D5080E50E946E01209122013091230140918F
S1130D602401509125010E94E81288238CF31092EB
S1130D702F0114C031E030932F0180E50E946E01F1
S1130D8020910E0130910F014091100150911101F9
S1130D900E94E81288238CF310922F018EEB90E0CE
S1130DA00E945312E1CC40E050E0BA0186EF90E09B
S1130DB00E94A6029B01AC01609111027091120283
S1130DC080911302909114020E94E014A5E4B1E012
S1130DD06D937D938D939C93139740E050E0BA01FB
S1130DE082EF90E00E94A6029B01AC016091A501F4
S1130DF07091A6018091A7019091A8010E94E0142E
S1130E006093490170934A0180934B0190934C0184
S1130E1040E050E0BA018EEE90E00E94A6029B01F1
S1130E20AC016091B3017091B4018091B5019091CE
S1130E30B6010E94E01460934D0170934E018093BB
S1130E404F0190935001109251011092520110924F
S1130E5053011092540110921E0110921F0110921E
S1130E602001109221011092160110921701109284
S1130E70180110921901109222011092230110926C
S1130E802401109225011092120110921301109264
S1130E90140110921501B1E0B0932F0100E010E0AD
S1130EA0980140E050E0BA0185E491E00E94710F9E
S1130EB010922F018EEB90E00E94531255CCE7EB79
S1130EC0F1E089EA91E0A5E1B2E0AD011192DC0123
S1130ED01D92CD01DA011D92AD0121EC31E02E17F6
S1130EE03F07A1F76091F6007091F7008091F80038
S1130EF09091F90001EC10E023E042E00E944616D4
S1130F009F938F9347EB51E05F934F930E9490160A
S1130F106091F2007091F3008091F4009091F500DB
S1130F2023E042E00E9446169F938F9389EA91E062
S1130F309F938F930E9490166091EE007091EF0042
S1130F408091F0009091F10023E042E00E94461667
S1130F509F938F93E5E1F2E0FF93EF930E94901645
S1130F6088E58983A7EBB1E08C918A838091B801ED
S1130F708B838091B9018C838091BA018D83809198
S1130F80BB018E8380E28F8399E59887E9EAF1E0DB
S1130F90908199879091AA019A879091AB019B8740
S1130FA09091AC019C879091AD019D878E878AE5D5
S1130FB08F87A5E1B2E08C91888B80911602898B92
S1130FC0809117028A8B809118028B8B8091190271
S1130FD08C8B8DE08D8BCE0101960E9453120FB63F
S1130FE0F894DEBF0FBECDBFBFCB63E581EC91E0CB
S1130FF00E940502609312017093130180931401FF
S113100090931501F1E0F0932E018EEB90E00E9495
S11310105312AACB63E581EC91E00E940502609330
S1131020120170931301809314019093150121E030
S113103020932F0182E50E946E01209112013091CC
S1131040130140911401509115010E94E812882364
S11310508CF310922F018EEB90E00E94531284CBFC
S11310601092F6001092F7001092F8001092F90016
S11310701092F2001092F3001092F4001092F50016
S11310801092EE001092EF001092F0001092F10016
S113109031E0309329018EEB90E00E94531264CB2F
S11310A063E581EC91E00E94050260932201709354
S11310B02301809324019093250120E030E048EC43
S11310C051E40E94E81218161CF041E040932701F5
S11310D045E050E067EB71E080E090E00E944B0156
S11310E045E050E069EA71E085E090E00E944B0140
S11310F045E050E065E172E08AE090E00E944B0137
S113110045E050E063E671E08FE090E00E944B011F
S113111087EB91E00E9466166093110270931202AD
S1131120809313029093140289EA91E00E94661658
S11311306093A5017093A6018093A7019093A801E1
S113114085E192E00E9466166093B3017093B40146
S11311508093B5019093B60183E691E00E946616F0
S113116060935F01709360018093610190936201C9
S11311708EEB90E00E945312F7CAE7EBF1E029EA04
S113118031E085E192E0A3E6B1E0BD011192D9011D
S11311901D929D01DC011D92CD01DB011D92BD015B
S11311A0B1E0E13CFB0791F76091110270911202EA
S11311B0809113029091140201EC10E023E042E0CC
S11311C00E9446169F938F93E7EBF1E0FF93EF9312
S11311D00E9490166091A5017091A6018091A701CB
S11311E09091A80123E042E00E9446169F938F93BA
S11311F049EA51E05F934F930E9490166091B301C6
S11312007091B4018091B5019091B60123E042E060
S11312100E9446169F938F9385E192E09F938F934C
S11312200E94901660915F0170916001809161014C
S11312309091620123E042E00E9446169F938F93AF
S1131240E3E6F1E0FF93EF930E94901688E589832B
S1131250A7EBB1E08C918A838091B8018B83809154
S1131260B9018C838091BA018D838091BB018E83F7
S1131270B3E7BF83EFE2E8878DE689878A8790E248
S11312809B8729E52C87A9EAB1E02C912D87209131
S1131290AA012E872091AB012F872091AC01288BC6
S11312A02091AD01298BB3E7BA8BEB8B8C8B8D8BA3
S11312B09E8B2AE52F8BE5E1F2E02081288F209197
S11312C01602298F209117022A8F209118022B8F42
S11312D0209119022C8FBD8FFFE2FE8F8F8F88A380
S11312E099A395E49AA3A3E6B1E09C919BA3909162
S11312F064019CA3909165019DA3909166019EA3B6
S1131300909167019FA3B3E7B8A7F9A78AA78BA712
S11313108DE08CA7CE0101960E9453120FB6F8946B
S1131320DEBF0FBECDBF20CA873409F01DCA67E4F3
S113133081EC91E00E944B029093FD008093FC00AD
S1131340843091053CF4823091050CF010C199234E
S11313502CF40ACA4C9709F4AFC306CA0E94D610EB
S113136068E581EC91E00E9405026DA77EA78FA736
S113137098AB69E581EC91E00E9405026B017C0168
S11313806AE581EC91E00E9405024B015C0165E491
S113139081EC91E00E940502609351017093520127
S11313A0809353019093540120E030E0A9010E94FE
S11313B0E812882309F4D9C320E030E0A9016DA51F
S11313C07EA58FA598A90E94E812882309F4CDC3AD
S11313D020E030E0A901C701B6010E94E812882389
S11313E009F4C3C320E030E0A901C501B4010E949F
S11313F0E8128111A3C3B9C32092160130921701D8
S1131400409218015092190108C020921E01309296
S11314101F01409220015092210120E030E048E475
S113142053E46DA57EA58FA598A90E948B14181668
S11314300CF49AC920E030E048E453E4C701B60153
S11314400E948B1418160CF48FC920E030E04AEF88
S113145053E4C501B4010E948B1418160CF484C91A
S11314604DA55EA56FA578A986EF90E00E94A6021F
S11314709B01AC01609111027091120280911302E0
S1131480909114020E94E014A5E4B1E06D937D9361
S11314908D939C931397B701A60182EF90E00E946D
S11314A0A6029B01AC016091A5017091A6018091F7
S11314B0A7019091A8010E94E014609349017093E0
S11314C04A0180934B0190934C01B501A4018EEE27
S11314D090E00E94A6029B01AC016091B30170915F
S11314E0B4018091B5019091B6010E94E01460931B
S11314F04D0170934E0180934F0190935001B1E0E0
S1131500B0932F0180912801811104C0809127019B
S1131510882309F1609116017091170180911801D7
S1131520909119010E9464136B017C0160911E016A
S113153070911F0180912001909121010E946413F8
S1131540AB01BC019701860185E491E00E94710F13
S113155010922F0107C084EC90E00E9453128DE09A
S11315600E944B128EEB90E00E945312FDC868E576
S113157081EC91E00E94050269AB7AAB8BAB9CAB2A
S113158069E581EC91E00E9405026DAB7EAB8FAB07
S113159098AF69E481EC91E00E94050260930A012E
S11315A070930B0180930C0190930D016AE481EC1C
S11315B091E00E94050260930601709307018093F5
S11315C008019093090166E481EC91E00E94050210
S11315D06B017C0160931A0170931B0180931C01C1
S11315E090931D0120E030E0A9010E94E8128823B5
S11315F041F0C0921E01D0921F01E0922001F092AE
S1131600210162E581EC91E00E94050260930201F0
S113161070930301809304019093050120E030E06E
S1131620A9010E94E81281112EC0C0900A01D09035
S11316300B01E0900C01F0900D0180900601909058
S11316400701A0900801B0900901A5019401C5010A
S1131650B4010E94E0144B015C01A7019601C7018B
S1131660B6010E94E0149B01AC01C501B4010E94C3
S11316707C120E945B1560930201709303018093B6
S1131680040190930501E1E0E0932F01412C512CDA
S113169029AC3AACB201052C000C880B990B0E94C2
S11316A09C136B017C010E94ED126DA77EA78FA78E
S11316B098AB8090020190900301A0900401B09037
S11316C00501A50194010E94E0142DA53EA54FA596
S11316D058A90E94E0146DA77EA78FA798ABC701F5
S11316E0B6010E944D156B017C019B01AC01C50143
S11316F0B4010E94E014A70196010E94E0146B015A
S11317007C012DA53EA54FA558A969A97AA98BA945
S11317109CA90E94E81218165CF0A70196016DA915
S11317207EA98FA998AD0E94E81218160CF0C0C1CA
S113173080912801811105C080912701882309F433
S1131740AEC18091FC009091FD00029709F0B7C0F2
S113175020E030E0A90160910A0170910B018091B1
S11317600C0190910D010E94E812811145C020E006
S113177030E0A90160910601709107018091080190
S1131780909109010E94E812811136C04DA55EA511
S11317906FA578A986EF90E00E94A6029B01AC0198
S11317A060911102709112028091130290911402BF
S11317B00E94E014A5E4B1E06D937D938D939C9316
S11317C01397B701A60182EF90E00E94A6029B0145
S11317D0AC016091A5017091A6018091A70190913F
S11317E0A8010E94E0146093490170934A01809318
S11317F04B0190934C011DC14DA55EA56FA578A921
S113180086EF90E00E94A60280900A0190900B015E
S1131810A0900C01B0900D012091110230911202A0
S113182040911302509114020E94E0146DA77EA708
S11318308FA798ABC501B4019058A50194010E94EB
S1131840F2129B01AC016DA57EA58FA598A90E94FB
S1131850E014E5E4F1E06083718382839383B7014C
S1131860A60182EF90E00E94A602C0900601D090EB
S11318700701E0900801F09009012091A501309141
S1131880A6014091A7015091A8010E94E0144B01C8
S11318905C01C701B6019058A70196010E94F2129B
S11318A09B01AC01C501B4010E94E014609349019D
S11318B070934A0180934B0190934C01BAC020E08D
S11318C030E0A90160910A0170910B0180910C0133
S11318D090910D010E94E81281114BC020E030E08C
S11318E0A90160910601709107018091080190910E
S11318F009010E94E81281113CC04DA55EA56FA5A7
S113190078A986EF90E00E94A6029B01AC01809129
S1131910110290911202A0911302B0911402BC0121
S1131920CD0190580E94E014A5E4B1E06D937D933D
S11319308D939C931397B701A60182EF90E00E94C8
S1131940A6029B01AC018091A5019091A601A091F2
S1131950A701B091A801BC01CD0190580E94E014E8
S11319606093490170934A0180934B0190934C0119
S113197060C04DA55EA56FA578A986EF90E00E9492
S1131980A60280900A0190900B01A0900C01B090E7
S11319900D012091110230911202409113025091D5
S11319A014020E94E0146DA77EA78FA798ABA5012F
S11319B09401C501B4010E94F2129B01AC016DA512
S11319C07EA58FA598A90E94E014E5E4F1E0608368
S11319D0718382839383B701A60182EF90E00E9412
S11319E0A602C0900601D0900701E0900801F09093
S11319F009012091A5013091A6014091A7015091C0
S1131A00A8010E94E0144B015C01A7019601C701E3
S1131A10B6010E94F2129B01AC01C501B4010E94FF
S1131A20E0146093490170934A0180934B019093B1
S1131A304C0110924D0110924E0110924F011092E0
S1131A40500180915F0190916001A0916101B0917A
S1131A5062018093510190935201A0935301B0937A
S1131A6054016091160170911701809118019091B1
S1131A7019010E9464136B017C0160911E01709135
S1131A801F0180912001909121010E946413AB01F8
S1131A90BC0197018601822D932D0E94710FFFEFE7
S1131AA04F1A5F0A29E6421621E0520609F0F2CDE8
S1131AB010922F010C94B40380912901811138C034
S1131AC068E581EC91E00E949102682F70E080E06B
S1131AD090E00E949A13A5E4B1E06D937D938D93F9
S1131AE09C93139769E581EC91E00E949102682F21
S1131AF070E080E090E00E949A1360934901709333
S1131B004A0180934B0190934C016AE581EC91E08A
S1131B100E949102682F70E080E090E00E949A1386
S1131B2060934D0170934E0180934F019093500147
S1131B308EEB90E00E9453120C94B40366E481ECA3
S1131B4091E00E9405021B012C0160931A0170931D
S1131B501B0180931C0190931D0120E030E0A9013A
S1131B600E94E812811151CC58CC66E481EC91E0DA
S1131B700E9405021B012C0160931A0170931B0142
S1131B8080931C0190931D0120E030E0A9010E9484
S1131B90E812811131CC41CC1F920F920FB60F92F3
S1131BA01124CF92DF92EF92FF920F931F932F9302
S1131BB03F934F935F936F937F938F939F93AF93D1
S1131BC0BF93EF93FF93CF93DF93CDB7DEB76497C3
S1131BD0DEBFCDBF80913001909131018D399105E7
S1131BE030F40196909331018093300109C08091C3
S1131BF032018160809332011092310110923001E0
S1131C008091320180FFE9C082E50E946E019B0150
S1131C10AC01609122017091230180912401909183
S1131C2025010DE611E00E9449119BBD8ABD80E5A6
S1131C300E946E019B01AC0160911201709113012D
S1131C40809114019091150109E811E00E94491155
S1131C5099BD88BD809132018E7F80933201EFE17E
S1131C60F2E0A5E5B1E089E292E011921D92E81755
S1131C70F907D9F780912601882309F4AEC082E5DB
S1131C800E946E0101EC10E023E042E00E9446163F
S1131C909F938F938FE192E09F938F930E9490166E
S1131CA080E50E946E0123E042E00E9446169F9365
S1131CB08F9385E591E09F938F930E9490160FB6C2
S1131CC0F894DEBF0FBECDBF80912E01882309F4A6
S1131CD052C084E589838AE38A83EFE1F2E090814C
S1131CE09B8391819C8392819D8393819E83948124
S1131CF09F8390E2988725E429878A8720E32B87AE
S1131D009C8792E49D878E87E5E5F1E080818F874B
S1131D108181888B8281898B83818A8B84818B8B5F
S1131D208DE08C8B80E50E946E0120912201309120
S1131D30230140912401509125010E948B1418160F
S1131D409CF482E50E946E012091120130911301EE
S1131D5040911401509115010E948B14181624F41B
S1131D6081E08093280102C010922801CE010196DF
S1131D700E94531232C084E589838AE38A83EFE1A7
S1131D80F2E090819B8391819C8392819D839381D6
S1131D909E8394819F8390E2988795E499878A87AC
S1131DA080E38B878DE08C8780E50E946E01209113
S1131DB022013091230140912401509125010E9478
S1131DC08B14181624F481E08093280102C0109229
S1131DD02801CE0101960E94531280912F0188237D
S1131DE009F460C05F9B59C0E1ECF1E081E192E04D
S1131DF011928E179F07E1F781EC91E00E94621225
S1131E0089ED90E00E9453128091C1018D3409F054
S1131E1049C080912F01882309F444C06DE481EC0A
S1131E2091E00E944B029093FB008093FA0080376C
S1131E309105C1F5E5E4F1E010821182128213826A
S1131E4014821582168217821086118612861386D2
S1131E5014861586168617866091160170911701EF
S1131E6080911801909119010E9464136B017C0107
S1131E7060911E0170911F018091200190912101B8
S1131E800E946413AB01BC019701860185E491E0D3
S1131E900E94710F10922F0105C08091C1018D34F1
S1131EA009F4BCCF64960FB6F894DEBF0FBECDBF65
S1131EB0DF91CF91FF91EF91BF91AF919F918F915E
S1131EC07F916F915F914F913F912F911F910F914E
S1131ED0FF90EF90DF90CF900F900FBE0F901F9068
S1131EE018952F923F924F925F926F927F928F92AA
S1131EF09F92AF92BF92CF92DF92EF92FF920F9395
S1131F001F93CF93DF93CDB7DEB7C854D1090FB673
S1131F10F894DEBF0FBECDBF6C014A015B01299668
S1131F200CAF1DAF2EAF3FAF2997412C512C32017E
S1131F304394C301B201A50194010E94EB15ACE3E3
S1131F40B0E00E940A160E949C1320E034E244E7A9
S1131F5059E40E94E0140E9464134B015C01C30124
S1131F60B20129962CAD3DAD4EAD5FAD29970E94CF
S1131F70EB15ACE3B0E00E940A160E949C1320E02B
S1131F8034E244E759E40E94E0140E9464132B01F4
S1131F903C0188E0E0E8F0E0DE01119601900D924A
S1131FA08A95E1F776018E010F5F1F4F1E0129E02C
S1131FB0220E311C20E030E0A901F701608171811B
S1131FC0828193810E94E81288238CF441E0F80115
S1131FD0608183E30E94C202F70180819181A28122
S1131FE0B381B05880839183A283B38306C040E059
S1131FF0F801608183E30E94C202F4E0EF0EF11C59
S11320000E5F1F4F20163106A9F686E3E8E8F0E0DC
S1132010DE011F9601900D928A95E1F781E090E030
S11320209A8789879C878B879E878D8700E010E03D
S1132030F801EE0FFF1FCF01880F991F880F991F1A
S1132040880F991FE80FF91F21E030E02C0F3D1F86
S1132050E20FF31F668583E30E94EE027801EE0C23
S1132060FF1CEE0CFF1CEC0CFD1C20E030E040E8F3
S11320705FE3F70160817181828193810E947B1209
S1132080F701608371838283938320E030E0A901A8
S11320900E94E81218165CF0F801EE0FFF1F21E011
S11320A030E02C0F3D1FE20FF31F11861086033022
S11320B0110559F4C201181619068CF435E03A9545
S11320C0F1F700000197D1F70AC0C40118161906E8
S11320D034F4E5E0EA95F1F700000197D1F78D8536
S11320E09E859C01220F331F220F331F8B859C85F5
S11320F0880F991F820F931F29853A85820F931F9A
S1132100F801EE0FFF1FEE0FFF1FEE0FFF1FE00F92
S1132110F11FE80FF91F3196EE0FFF1F21E030E0A9
S11321202C0F3D1FE20FF31F06851785892B09F03D
S11321307FCFC85BDF4F0FB6F894DEBF0FBECDBFB5
S1132140DF91CF911F910F91FF90EF90DF90CF908F
S1132150BF90AF909F908F907F906F905F904F90C3
S11321603F902F900895883549F018F48534C1F0D4
S11321700895893549F08A3569F00895462F64E059
S113218086E30E94C2020895462F65E086E30E941A
S1132190C2020895462F66E086E30E94C2020895B3
S11321A0462F67E086E30E94C202089560E083E35D
S11321B00E94DF0260E083E30E94EA0260E088E5B7
S11321C00E94B31060E089E50E94B31060E08AE5E4
S11321D00E94B31060E085E40E94B31008958F92CA
S11321E09F92AF92BF92CF92DF92EF92FF920F93A2
S11321F01F93CF93DF9349015A01E6016C837D83DA
S11322008E839F83288739874A875B87EC86FD8680
S11322100E871F8720E030E040E85FE30E947C12D5
S11322209B01AC0160E07EEF8FEF96E40E94F21216
S11322306C8B7D8B8E8B9F8B20E030E040E85FE3DE
S1132240C501B4010E947C129B01AC010E947C1266
S11322509B01AC0160E070E080E09FE40E94F21218
S1132260688F798F8A8F9B8F188219821A821B82BA
S1132270188A198A1A8A1B8ADF91CF911F910F91AC
S1132280FF90EF90DF90CF90BF90AF909F908F9092
S113229008954F925F926F927F928F929F92AF9226
S11322A0BF92CF92DF92EF92FF920F931F93CF933F
S11322B0DF93CDB7DEB72A970FB6F894DEBF0FBE13
S11322C0CDBF1A8709870E947B1269837A838B8327
S11322D09C83F801C484D584E684F78420893189F9
S11322E0428953890E947C124B015C01F801608B86
S11322F0718B828B938B20813181428153816981DF
S11323007A818B819C810E947B12A70196010E9495
S1132310E0146D837E838F839887F8014488558801
S113232066887788A301920169817A818B819C8177
S11323300E948B141816B4F0A301920150586981BD
S11323407A818B819C810E94E8128823ACF0A701DA
S1132350960169817A818B819C810E94E0142B0112
S11323603C0113C00F2E412CFEEF5F2E66246A94AD
S1132370F6E47F2EF02D09C00F2E412CFEEF5F2EC8
S113238066246A94F6EC7F2EF02DE985FA85C08CDC
S1132390D18CE28CF38CA7019601C501B4010E9493
S11323A08B1418165CF4E985FA85C08AD18AE28A0E
S11323B0F38A20E030E040E85EE423C0F7FAF094CA
S11323C0F7F8F094A7019601C501B4010E94E81240
S11323D088236CF0E985FA8520853185428553850B
S11323E0C501B4010E94E0149B01AC010AC0E98557
S11323F0FA85C08AD18AE28AF38A20E030E040E894
S11324005EECC301B2010E947C122D813E814F819A
S113241058850E947C1220E030E048EF52E40E948C
S1132420F2120E946413772314F460E070E08B01CD
S11324306F3F710519F014F00FEF10E0B801012E91
S1132440000C880B990B0E949C13E985FA85608324
S1132450718382839383C8012A960FB6F894DEBFF2
S11324600FBECDBFDF91CF911F910F91FF90EF90E1
S1132470DF90CF90BF90AF909F908F907F906F90A0
S11324805F904F90089583E089B910BC88E18AB9C0
S113249086E880BD08955D9BFECF8CB908955F9B4F
S11324A0FECF8CB10895CF93DF93EC01888188230C
S11324B031F021960E944B1289918111FBCFDF915B
S11324C0CF9108950F931F93CF938C01C0E00E9486
S11324D04F128D3031F4F801EC0FF11D80E280834E
S11324E006C0F801EC0FF11D8083CF5FF0CFCF91D0
S11324F01F910F9108955058BB27AA270E94931249
S11325000C943D140E94041438F00E940B1420F023
S113251039F49F3F19F426F40C9401140EF4E09559
S1132520E7FB0C94FB13E92F0E94621458F3BA17CB
S1132530620773078407950720F079F4A6F50C94D5
S113254084140EF4E0950B2EBA2FA02D0B01B901C3
S113255090010C01CA01A0011124FF27591B99F015
S1132560593F50F4503E68F11A16F040A22F232F21
S1132570342F4427585FF3CF469537952795A79571
S1132580F0405395C9F77EF41F16BA0B620B730B18
S1132590840BBAF09150A1F0FF0FBB1F661F771F89
S11325A0881FC2F70EC0BA0F621F731F841F48F43E
S11325B0879577956795B795F7959E3F08F0B0CFC7
S11325C09395880F08F09927EE0F979587950895AE
S11325D00E94D71308F481E008950E941414E3952F
S11325E00C944E140E9406130C943D140E940B1478
S11325F058F00E94041440F029F45F3F29F00C9431
S1132600FB1351110C9485140C9401140E94621450
S113261068F39923B1F3552391F3951B550BBB270D
S1132620AA2762177307840738F09F5F5F4F220F52
S1132630331F441FAA1FA9F335D00E2E3AF0E0E849
S113264032D091505040E695001CCAF72BD0FE2F93
S113265029D0660F771F881FBB1F26173707480727
S1132660AB07B0E809F0BB0B802DBF01FF279358DF
S11326705F4F3AF09E3F510578F00C94FB130C9495
S113268085145F3FE4F3983ED4F386957795679578
S1132690B795F7959F5FC9F7880F911D9695879514
S11326A097F90895E1E0660F771F881FBB1F621733
S11326B073078407BA0720F0621B730B840BBA0BF1
S11326C0EE1F88F7E09508950E946B136894B1118A
S11326D00C94851408950E946A1488F09F5798F00A
S11326E0B92F9927B751B0F0E1F0660F771F881F13
S11326F0991F1AF0BA95C9F714C0B13091F00E942D
S11327008414B1E008950C948414672F782F8827DB
S1132710B85F39F0B93FCCF3869577956795B39553
S1132720D9F73EF490958095709561957F4F8F4FC2
S11327309F4F0895E89409C097FB3EF490958095C7
S1132740709561957F4F8F4F9F4F9923A9F0F92F73
S113275096E9BB279395F695879577956795B795F1
S1132760F111F8CFFAF4BB0F11F460FF1BC06F5FD7
S11327707F4F8F4F9F4F16C0882311F096E911C0E9
S1132780772321F09EE8872F762F05C0662371F00A
S113279096E8862F70E060E02AF09A95660F771F1E
S11327A0881FDAF7880F9695879597F90895990FFA
S11327B00008550FAA0BE0E8FEEF16161706E80707
S11327C0F907C0F012161306E407F50798F0621B28
S11327D0730B840B950B39F40A2661F0232B242BFD
S11327E0252B21F408950A2609F4A140A6958FEF1C
S11327F0811D811D089597F99F6780E870E060E06E
S113280008959FEF80EC089500240A941616170685
S113281018060906089500240A94121613061406CD
S1132820050608950C9401140E946A14D8F3E894E0
S1132830E0E0BB279F57F0F02AED3FE049EC06C0EB
S1132840EE0FBB0F661F771F881F28F0B23A62078E
S11328507307840728F0B25A620B730B840BE39559
S11328609A9572F7803830F49A95BB0F661F771FDC
S1132870881FD2F790480C949D15092E0394000CE0
S113288011F4882352F0BB0F40F4BF2B11F460FF06
S113289004C06F5F7F4F8F4F9F4F0895EF93E0FF0A
S11328A007C0A2EA2AED3FE049EC5FEB0E949312D5
S11328B00E943D140F90039401FC9058E4E5F0E06D
S11328C00C94D71557FD9058440F551F59F05F3F8E
S11328D071F04795880F97FB991F61F09F3F79F03E
S11328E087950895121613061406551FF2CF4695C0
S11328F0F1DF08C0161617061806991FF1CF869542
S11329007105610508940895E894BB276627772725
S1132910CB0197F908950E94D71308F48FEF089517
S113292016F00C949B150C94011468940C94FB13EE
S11329300E946A14A8F39923C1F3AEF3DF93CF93F3
S11329401F930F93FF92C92FDD2788232AF0219725
S1132950660F771F881FDAF720E030E040E85FEB6E
S11329609FE3883920F0803E38F021968F770E94CB
S11329707C12E2E7F0E004C00E947C12EFE9F0E090
S11329800E94B0158B01BE01EC01FB2E6F5771093B
S11329907595771F880B990B0E949C1328E132E7E9
S11329A041E35FE30E94F314AF2D9801AE01FF9061
S11329B00F911F91CF91DF910E9493120C943D14BB
S11329C00E94F3140C943D140E94041438F00E94E5
S11329D00B1420F0952311F00C94FB130C940114A8
S11329E011240C9485140E94621470F3959FC1F312
S11329F0950F50E0551F629FF001729FBB27F00DA9
S1132A00B11D639FAA27F00DB11DAA1F649F6627FD
S1132A10B00DA11D661F829F2227B00DA11D621F4C
S1132A20739FB00DA11D621F839FA00D611D221F06
S1132A30749F3327A00D611D231F849F600D211DEA
S1132A40822F762F6A2F11249F5750409AF0F1F06D
S1132A5088234AF0EE0FFF1FBB1F661F771F881FD6
S1132A6091505040A9F79E3F510580F00C94FB1300
S1132A700C9485145F3FE4F3983ED4F386957795E0
S1132A806795B795F795E7959F5FC1F7FE2B880F7C
S1132A90911D9695879597F908959F930E94141414
S1132AA00F9007FCEE5F0C944E1419F416F40C947A
S1132AB001140C949B150E946A14B8F39923C9F36A
S1132AC0B6F39F57550B87FF0E94A9150024A0E673
S1132AD040EA900180585695979528F4805C660FDB
S1132AE0771F881F20F026173707480730F4621B2A
S1132AF0730B840B202931294A2BA695179407942C
S1132B00202531254A2758F7660F771F881F20F0A4
S1132B1026173707480730F4620B730B840B200D1C
S1132B20311D411DA09581F7B901842F9158880F5B
S1132B309695879508959F3F31F0915020F487959D
S1132B4077956795B795880F911D9695879597F911
S1132B50089591505040660F771F881FD2F708954B
S1132B60DF93CF931F930F93FF92EF92DF927B013A
S1132B708C01689406C0DA2EEF010E94F314FE0162
S1132B80E894A5912591359145915591A6F3EF01CE
S1132B900E949312FE019701A801DA9469F7DF906D
S1132BA0EF90FF900F911F91CF91DF9108959F9324
S1132BB08F937F936F93FF93EF939B01AC010E94DC
S1132BC0E014EF91FF910E94B0152F913F914F9126
S1132BD05F910C94E014052E97FB1EF400940E9460
S1132BE0021657FD07D00E94151607FC03D04EF4B9
S1132BF00C94021650954095309521953F4F4F4FB8
S1132C005F4F089590958095709561957F4F8F4F94
S1132C109F4F08950E943716A59F900DB49F900D65
S1132C20A49F800D911D11240895A1E21A2EAA1BC0
S1132C30BB1BFD010DC0AA1FBB1FEE1FFF1FA21768
S1132C40B307E407F50720F0A21BB30BE40BF50B65
S1132C50661F771F881F991F1A9469F760957095EE
S1132C60809590959B01AC01BD01CF010895A29F71
S1132C70B001B39FC001A39F700D811D1124911D4C
S1132C80B29F700D811D1124911D0895EF920F9331
S1132C901F93CF93DF93E80147FD02C034E001C0E6
S1132CA034E1042E000C550B57FF03C05195419598
S1132CB05109E32E022F242FAE010E949318CE0156
S1132CC0DF91CF911F910F91EF9008956627772799
S1132CD00C94ED19FC0188279927E894219120325E
S1132CE0E9F3293010F02E30C8F32B3241F02D32A5
S1132CF039F4689404C00E948816820F911D2191B2
S1132D0020532A30C0F31EF4909581959F4F089567
S1132D107AE0979F902D879F802D910D112408951F
S1132D20AEE0B0E0E6E9F6E10C94F51C0D891E89ED
S1132D3086E08C831A8309838FEF9FE79E838D83BC
S1132D40AE01475E5F4F6F89788DCE0101960E9478
S1132D50B216EF81F885E00FF11F10822E96E4E0A1
S1132D600C94111DABE0B0E0E8EBF6E10C94E71C29
S1132D706C017B018A01FC0117821682838181FF29
S1132D80CCC1CE0101963C01F6019381F70193FD7C
S1132D90859193FF81917F01882309F4BAC185321B
S1132DA039F493FD859193FF81917F01853229F454
S1132DB0B60190E00E944A1CE7CF912C212C312CC3
S1132DC0FFE1F315D8F08B3279F038F4803279F0E2
S1132DD08332A1F4232D20611DC08D3261F0803334
S1132DE069F4232D216016C0832D8260382EE32DD3
S1132DF0E4603E2E2AC0F32DF8601DC037FC2DC0C0
S1132E0020ED280F2A3040F08E32B9F436FC81C10F
S1132E10232D2064322E19C036FE06C08AE0989E07
S1132E20200D1124922E11C0EAE02E9E200D1124B3
S1132E30222EF32DF0623F2E08C08C3621F4832D10
S1132E408068382E02C0883641F4F70193FD8591DD
S1132E5093FF81917F018111B3CF982F9F7D95546A
S1132E60933028F40C5F1F4F9FE399830DC0833682
S1132E7031F0833771F0833509F059C021C0F8016E
S1132E80808189830E5F1F4F88248394912C530182
S1132E9013C02801F2E04F0E511CF801A080B1804C
S1132EA036FE03C0692D70E002C06FEF7FEFC501ED
S1132EB00E943F1C4C018201F32DFF773F2E16C068
S1132EC0280122E0420E511CF801A080B18036FE98
S1132ED003C0692D70E002C06FEF7FEFC5010E944F
S1132EE0341C4C01F32DF0683F2E820133FC1BC0CF
S1132EF0822D90E088169906B0F4B60180E290E045
S1132F000E944A1C2A94F4CFF50137FC859137FEC0
S1132F1081915F01B60190E00E944A1C21102A941D
S1132F2021E0821A91088114910471F7E8C0843673
S1132F3011F0893641F5F80137FE07C060817181CF
S1132F40828193810C5F1F4F08C060817181072EBD
S1132F50000C880B990B0E5F1F4FF32DFF763F2E4D
S1132F6097FF09C090958095709561957F4F8F4F1D
S1132F709F4FF0683F2E2AE030E0A3010E94861C98
S1132F80882E861845C0853731F4232D2F7EB22E26
S1132F902AE030E025C0932D997FB92E8F36C1F0F9
S1132FA018F4883579F0B5C0803719F0883721F0E6
S1132FB0B0C0E92FE061BE2EB4FE0DC0FB2DF4605D
S1132FC0BF2E09C034FE0AC0292F2660B22E06C0C7
S1132FD028E030E005C020E130E002C020E132E02A
S1132FE0F801B7FE07C060817181828193810C5F13
S1132FF01F4F06C06081718180E090E00E5F1F4F1B
S1133000A3010E94861C882E8618FB2DFF773F2E75
S113301036FE0DC0232D2E7FA22E891458F434FEC3
S11330200BC032FC09C0832D8E7EA82E05C0B82C9F
S1133030A32C03C0B82C01C0B92CA4FE0FC0FE0100
S1133040E80DF11D8081803321F49A2D997EA92EFB
S113305009C0A2FE06C0B394B39404C08A2D867836
S113306009F0B394A3FC11C0A0FE06C0B21488F406
S1133070280C922C9B180EC0B21460F4B60180E2A6
S113308090E00E944A1CB394F7CFB21418F42B18A2
S113309002C0982C212CA4FE10C0B60180E390E05D
S11330A00E944A1CA2FE17C0A1FC03C088E790E05E
S11330B002C088E590E0B6010CC08A2D867859F0EC
S11330C0A1FE02C08BE201C080E2A7FC8DE2B60142
S11330D090E00E944A1C891438F4B60180E390E021
S11330E00E944A1C9A94F7CF8A94F301E80DF11DCB
S11330F08081B60190E00E944A1C8110F5CF222005
S113310009F442CEB60180E290E00E944A1C2A945F
S1133110F6CFF6018681978102C08FEF9FEF2B9641
S1133120E2E10C94031DA9E0B0E0E9E9F8E10C94B4
S1133130ED1C6A01122FB02E2BE3201720F0FF2480
S1133140F394F00E02C02CE3F22E0F2D27E0AE0113
S11331504F5F5F4F0E943B1BBC014981842F8970E4
S1133160813031F0E1FC06C0E0FE06C090E205C00B
S11331709DE203C09BE201C090E05E2D507143FFCD
S11331803CC0911102C083E001C084E0811718F4AF
S1133190212F281B01C020E051110BC0F601822F02
S11331A030E2882319F031938150FBCFC20ED11C39
S11331B020E0992329F0D6019C93F60131966F0102
S11331C0C6010396E2FE0AC03EE4D6013C9341E404
S11331D011964C93119712963C9306C03EE6F60165
S11331E0308341E641833283FC01322F40E23323B2
S11331F009F442C041933150FACF42FF44C09111C7
S113320002C083E001C084E0811718F4212F281B39
S113321001C020E051110BC0F601822F30E2882357
S113322019F031938150FBCFC20ED11C20E09923B9
S113323029F0D6019C93F60131966F01C6010396DD
S1133240E2FE0BC039E4D6013C933EE411963C9374
S1133250119736E412963C9307C039E6F6013083A1
S11332603EE6318336E63283FC01322F40E23323DB
S113327019F041933150FBCFFC01E20FF11D108294
S11332808EEF9FEFA6C021E030E0911102C020E054
S113329030E0161617061CF4FB01319602C0E1E07B
S11332A0F0E02E0F3F1FBB2021F0EB2DF0E0319614
S11332B002C0E0E0F0E02E0F3F1FE12FF0E02E17F8
S11332C03F071CF4121B212F01C020E08E2D8871B2
S11332D059F4F601822F30E2882319F0319381509A
S11332E0FBCFC20ED11C20E0992329F0D6019C9378
S11332F0F60131966F0151110BC0F601822F90E354
S1133300882319F091938150FBCFC20ED11C20E089
S11333100F2D060F9A81342F307144FF03C091336F
S113332009F40150101624F4093018F008E001C023
S113333001E0AB0177FF02C040E050E0FB01E41B79
S1133340F50BA1E0B0E0AC0FBD1FEA0FFB1F8EE24E
S1133350A82E4B01801A91080B2D10E011950195B0
S113336011094F3FBFEF5B0721F4D601AC921196D0
S11333706D01641775072CF08416950614F4818189
S113338001C080E3415051093196D60111967D0167
S11333904017510724F0D6018C936701E2CF6417DC
S11333A0750739F4963320F4953319F4311101C0BB
S11333B081E3F6018083F701822F90E2882319F0DC
S11333C091938150FBCFF701E20FF11D108280E051
S11333D090E02996ECE00C94091DA0E0B0E0E3EF46
S11333E0F9E10C94ED1CEC016B016115710519F008
S11333F0FB01918380837E01FFEFEF1AFF0A0881AE
S1133400802F90E00E94131C892B11F0E701F3CF69
S11334100D3239F47E0182E0E80EF11C098111E0DD
S113342008C00B3229F47E0192E0E90EF11C0981F7
S113343010E0E701219743E050E064ED70E0CE0135
S11334400E941C1C892BC1F4239645E050E06FECCC
S113345070E0CE010E941C1C892B09F42596C1142E
S1133460D10419F0F601D183C0831111F6C060E0D4
S113347070E080E89FE7FAC043E050E06CEC70E055
S1133480CE010E941C1C892B59F4C114D10409F4E7
S1133490E9C0F2E0EF0EF11CF601F182E082E2C035
S11334A020E030E0A901C0E0D0E0F70180EDA82ED3
S11334B0A00E89E08A1530F1912F9260B92E812FE8
S11334C0887012FF04C0811124C0219622C081118A
S11334D02197A5E0B0E00E940A16DC01CB01880F19
S11334E0991FAA1FBB1F9C01AD012A0D311D411D4F
S11334F0511D283989E93807480789E1580748F0F8
S1133500166006C09EEFA9120AC013FD40C01860E1
S1133510B12E8FEFE81AF80A00811B2DC6CF802F39
S11335208F7D8534A1F580818D3211F4106106C040
S11335308B3221F0319661E070E004C081813296D3
S113354062E070E080538A3018F0E61BF70B1FC06E
S113355060E070E060389CE079075CF4DB01AA0F5E
S1133560BB1FAA0FBB1F6A0F7B1F660F771F680F55
S1133570711D3196DF0111978C9180538A3050F37D
S113358014FF03C0719561957109C60FD71F11FF10
S113359008C0C114D10429F0CF010197F601918329
S11335A08083CA01B9010E949A13212F237023300A
S11335B019F04B015C0106C04B015C01B7FAB094F1
S11335C0B7F8B09420E030E0A901C501B4010E942D
S11335D0E812882309F43EC0D7FF06C0D195C195EF
S11335E0D1090BEE10E002C003E011E06801F8E13C
S11335F0CF1AD10890E2E92EF12CCE15DF0574F034
S1133600F8012591359145915491C501B4010E9469
S1133610E0144B015C01CE19DF09EFCF045011090E
S1133620F594E7940C151D0541F78A2D880F8B2D11
S1133630881F8F3F49F020E030E0A901C501B401A3
S11336400E94E812811106C082E290E090932A025F
S113365080932902C501B40109C060E070E080E8EC
S11336609FEF04C060E070E080EC9FE7CDB7DEB769
S1133670ECE00C94091D283008F027E03327DA0128
S1133680990F311D87FD916000966105710539F42C
S113369032602E5F3D9330E32A95E1F708959F3F12
S11336A030F080387105610509F03C5F3C5F3D9363
S11336B0913008F08068911DDF93CF931F930F938F
S11336C0FF92EF92192F987F9695E92F96959695EC
S11336D0E90FFF27EF59FE4F99273327EE24FF24E4
S11336E0A701E70105900894079428F4360FE71E14
S11336F0F81E491F511D660F771F881F991F0694D6
S1133700A1F70590079428F4E70EF81E491F561FE9
S1133710C11D770F881F991F661F0694A1F7059096
S1133720079428F4F80E491F561FC71FD11D880F90
S1133730991F661F771F0694A1F70590079420F43C
S1133740490F561FC71FD81F990F661F771F881F61
S11337500694A9F784911095177041F0D695C795F2
S113376057954795F794E7941A95C1F7E7E0F1E088
S113377068941590159135916591959105907FE226
S11337807395E118F10A430B560BC90BD009C0F726
S1133790E10CF11E431F561FC91FD01D7EF4703368
S11337A011F48A95E6CFE894015030F0080F0AF43A
S11337B00027021708F4202F2395022F7A3328F0CC
S11337C079E37D932A95E9F710C07D932A9589F6CC
S11337D0069497956795379517951794E118F10A0C
S11337E0430B560BC90BD00998F023957E91739522
S11337F07A3308F070E37C932013B8F77E917061FC
S11338007D9330F0839571E37D9370E32A95E1F71E
S11338101124EF90FF900F911F91CF91DF91992781
S113382087FD9095089591110C94E41C803219F051
S113383089508550C8F70895FB01DC014150504080
S113384088F08D9181341CF08B350CF4805E659189
S113385061341CF06B350CF4605E861B611171F3EE
S1133860990B0895881BFCCFFC01059061507040B2
S11338700110D8F7809590958E0F9F1F0895FC0135
S11338806150704001900110D8F7809590958E0F8B
S11338909F1F08950F931F93CF93DF93FB01238101
S11338A021FD03C08FEF9FEF2CC022FF16C046817D
S11338B05781248135814217530744F4A081B18193
S11338C09D012F5F3F4F318320838C932681378165
S11338D02F5F3F4F3783268314C08B01EC01FB011C
S11338E00084F185E02D0995892BE1F6D80116961F
S11338F08D919C911797019617969C938E9316978A
S1133900CE01DF91CF911F910F910895FA01AA275B
S1133910283051F1203181F1E8946F936E7F6E5F0E
S11339207F4F8F4F9F4FAF4FB1E03ED0B4E03CD0BC
S1133930670F781F891F9A1FA11D680F791F8A1F9F
S1133940911DA11D6A0F711D811D911DA11D20D006
S113395009F468943F912AE0269F11243019305DC0
S11339603193DEF6CF010895462F4770405D4193B1
S1133970B3E00FD0C9F7F6CF462F4F70405D4A33FE
S113398018F0495D31FD4052419302D0A9F7EACFC6
S1133990B4E0A6959795879577956795BA95C9F7F5
S11339A000976105710508959B01AC010A2E0694E8
S11339B05795479537952795BA95C9F7620F731FA1
S11339C0841F951FA01D08959927882708952F9275
S11339D03F924F925F926F927F928F929F92AF929B
S11339E0BF92CF92DF92EF92FF920F931F93CF93E8
S11339F0DF93CDB7DEB7CA1BDB0B0FB6F894DEBF7F
S1133A000FBECDBF09942A88398848885F846E84A4
S1133A107D848C849B84AA84B984C884DF80EE80EE
S1133A20FD800C811B81AA81B981CE0FD11D0FB6F7
S1133A30F894DEBF0FBECDBFED010895F894FFCF1B
S1133A406CCF5834D6647939CB48843A00401C464C
S1133A5000000C430000C8420000C8420000C842F5
S1133A600400050006000700000003000000010038
S1133A700100020002000100010001000300000037
S1133A800100000002000200020002000200030024
S1133A9000000100000002000000010000006F6B44
S1133AA0002566006572726F7220657874727564A1
S1133AB065722074656D702E00746865207072697B
S1113AC06E746572206973206275737900005C
S9030000FC
